:020000040000FA
:1000000090020020C1000000BD0600009D06000017
:10001000FFFFFFFFFFFFFFFFFFFFFFFFFFFFFFFFF0
:10002000FFFFFFFFFFFFFFFFFFFFFFFFC106000015
:10003000FFFFFFFFFFFFFFFFBF060000C506000038
:1000400035010000350100003501000035010000D8
:1000500035010000350100003501000035010000C8
:1000600035010000350100003501000035010000B8
:1000700035010000350100003501000035010000A8
:100080003501000035010000350100003501000098
:100090003501000035010000350100003501000088
:1000A0003501000035010000350100003501000078
:1000B0003501000035010000350100003501000068
:1000C0001D4880471D4880471D4800471D4801695D
:1000D000002908D14169002905D18169002902D18F
:1000E000C169002909D01848C1680901090D002912
:1000F0000ED005290CD006290AD0BFF34F8F134824
:100100001349016013491248C860BFF34F8FFEE7DF
:100110000E4801680E48884200D070470E480F49CB
:1001200001600A480E4901607047FEE7FEE7FEE7FE
:10013000FEE7FEE7FEE70000CD000000D506000068
:100140006501000000030840800108400000002015
:100150000400FA0500ED00E0008108400100000005
:10016000000000000348854600F06EF80048004794
:10017000250A00009002002003460B439B0703D092
:1001800009E008C9121F08C0042AFAD203E00B785C
:100190000370401C491C521EF9D27047D2B201E0D4
:1001A0000270401C491EFBD270470022F6E710B5D2
:1001B00013460A4604461946FFF7F0FF204610BDD5
:1001C00030B505462A460B4610781C78521C5B1C3D
:1001D000002801D0A042F7D0002C03D0002802D084
:1001E0006D1CEFE7284630BD421C0178401C0029F9
:1001F000FBD1801A704703460A780270401C491CE4
:10020000002AF9D11846704770B50446002903D07A
:1002100000202022012310E0002801D00020C0434C
:10022000C046C0460DE02546D5408D4205D30D465B
:100230009540641B1D46954040191546521E002DE1
:10024000F1DC214670BD0000064C0125064E05E09C
:10025000E36807CC2B430C3C98471034B442F7D3E7
:10026000FFF784FFA40E0000C40E0000F0B58EB0AE
:10027000C0005C4BC4180F231802079018030890A5
:100280001804099018050A9018060B9018070C908E
:100290000E060D9452D00120084045422F461F40C3
:1002A0008807059000D5F0374807049001D50798D6
:1002B00007430807039001D508980743C806029032
:1002C00001D5099807438806019001D50A9807438C
:1002D0004806009003D530460B9E374306460696E7
:1002E000002E01D50C9E37430D9C2468BC4317019A
:1002F0000598C6173E401540354316020498C717A7
:1003000037402F4315030398C6172E403E4315046C
:100310000298C7172F40374315050198C6172E407E
:100320003E4315060098C017284030431507069E27
:10033000F6172E40064326430D9C26600E04300E11
:1003400041D0C805C7173B408805069000D5F0335B
:100350004805059001D5079803430805079001D586
:1003600008980343C80408902FD4880431D4490462
:1003700033D4002E01D50C9D2B4365689D4313019A
:10038000069CE4171C40174027431302059CE41702
:100390001C403C431303079FFF171F4027431304D0
:1003A000089CE4171C403C431305C0171840204329
:1003B0001306C917194001431007F21702400A43F8
:1003C0002A430D9842600EB0F0BD0998034388049B
:1003D000CDD50A9D2B434904CBD50B9D2B43002E35
:1003E000C9D4CAE72020024070B541098900234BD7
:1003F000C9180A6AD9691C46183C246807240C40AD
:100400005D68194614390968890501D4002110E096
:100410001968C900CE0F1A49F140002D09D41D6892
:100420006D012D0F00D1102569431D686D02AD0FC0
:10043000E940641E062C09D87C4424796400A74452
:100440000C03030505070A000D4906E0002104E03E
:100450000121C90301E07D2109021F240440032575
:10046000A5402A40E2402E2800D1921C9868052819
:1004700000D30520C140D140084670BD1880084017
:1004800000127A0070B50C4C2568002B01D0054392
:1004900000E08543A668E0682560002B01D00E438C
:1004A00000E08E43A660002B02D01043E06070BDD8
:1004B0009043E06070BDC04624800840002A03D00D
:1004C00002680A430260704702688A43026070470C
:1004D000F0B500230E251C4603E0090A10352E2D29
:1004E0005AD0CE070ED18E0716D44E071ED40E0753
:1004F00026D4CE062ED48E0635D44E063CD40E0617
:10050000EBD542E02E460E3E0327B7403B4317464D
:10051000B7403C438E07E8D52E460C3E0327B74034
:100520003B431746B7403C434E07E0D52E460A3EB4
:100530000327B7403B431746B7403C430E07D8D587
:100540002E46083E0327B7403B431746B7403C437F
:10055000CE06D0D5AE1F0327B7403B431746B74062
:100560003C438E06C9D52E1F0327B7403B43174691
:10057000B7403C434E06C2D5AE1E0327B7403B43AF
:100580001746B7403C430E06A7D50326AE4033437B
:100590001646AE403443A0E7416999434161416941
:1005A00021434161F0BDB0B5846825468D43C368E1
:1005B000012A04D08B43002A04D10C4303E00B43EF
:1005C0002C4600E02C468460C360B0BD70B582B09C
:1005D000064668460022828000922E498D5D0124E5
:1005E0004455017821404378DB079B0F59188378E5
:1005F000DB075B0FC918C078C007000F0818019906
:10060000C907C90E40180004A1032346FFF73AFFAB
:100610000E48825D70001E490E5A28463146FFF78B
:1006200025FEA8001C490D586E620222284631465C
:10063000FFF7B9FF284631462246FFF749FF284613
:1006400031462246FFF73AFF02B070BD900E00001F
:1006500041000F4A515A0F4A105C80000E4A105850
:100660004162704741000A4A515A0A4A105C8000B0
:10067000094A1058816270474100054A515A054A9B
:10068000105C8000044A1058026A4A4002627047B7
:10069000960E0000930E0000780E000006480168D8
:1006A000002908D10168002905D10168002902D17B
:1006B00001680029F3D0704724000020704770477C
:1006C0007047000002480168491C01607047C0463D
:1006D0008C000020F0B586B05948102105910160CA
:1006E0005849C86A402203921043C86256480268BB
:1006F000272A08D00268272A05D00268272A02D0B4
:100700000268272AF3D10324A0020A6A82430A62FC
:100710000122D0020B6803430B604868000708D42D
:100720004868000705D44868000702D448680007F5
:10073000F3D5086804942043042302939843086087
:10074000086B0724204003280BD0086B20400328A7
:1007500007D0086B2040032803D0086B20400328F3
:10076000EED13A4B1868104306250195A84318604E
:1007700000200090C86157020868B843086013025F
:10078000081F05681D4305600D680826B5430D6008
:1007900005683D43056095020E682E430E604D6866
:1007A0006D0708D44D686D0705D44D686D0702D4F8
:1007B0004D686D07F3D5CD6A039EB543CD620F2515
:1007C000ED054D6115074E692E434E6105689D4349
:1007D00005600868384308604868800708D448689E
:1007E000800705D44868800702D448688007F3D59D
:1007F000164D2868049B1843029B98432860009874
:10080000C86108681043019B98430860086B20404A
:1008100001280BD0086B2040012807D0086B20402E
:10082000012803D0086B20400128EFD128680599E2
:1008300008432860100329680143296006B0F0BD11
:100840000C8108400480084008A1064000020840CE
:1008500000690840411E884170470000B0B50D4650
:100860000446406819490140E8880843A9880143C3
:1008700028890843698901436160002014498C423A
:100880000BDC012189078C4212D061498C4211D0C6
:1008900012498C4215D1082011E00E498C420BD030
:1008A0000D498C420AD05D498C420AD11A2006E0DB
:1008B000182004E01C2002E00A2000E01E20FFF7C0
:1008C00093FD2968FFF7A0FC6062B0BDFCE0FFFF6C
:1008D000FFFF0340002004400010044000200040BF
:1008E000006880B270470160704710238B40002A77
:1008F00003D04168194341607047416899434160A2
:1009000070470000F0B599B0414C424D05E0684693
:100910002946FFF755FC002817D168466421FFF7E8
:1009200044FC002620212046FFF792FF0028F9D042
:100930002046FFF7D5FF69468855C0B20A28E6D0A1
:10094000701C632E0646EDD1E1E7334C6946204624
:10095000FFF751FC2078002813D000272F4DE65DCB
:10096000012001022846FFF773FF0028F8D028462F
:100970003146FFF7B8FF7F1C2046FFF735FC874262
:10098000EDD3274800BF00BF00BF00BF00BF00BFBE
:1009900000BF00BF00BF00BF00BF00BF00BF00BF5F
:1009A00000BF00BF00BF00BF00BF00BF00BF00BF4F
:1009B00000BF00BF00BF00BF00BF00BF00BF00BF3F
:1009C00000BF00BF00BF00BF00BF00BF00BF00BF2F
:1009D00000BF00BF00BF00BF00BF00BF00BF00BF1F
:1009E00000BF00BF00BF00BF00BF00BF00BF00BF0F
:1009F00000BF00BF00BF00BF00BF00BF00BF00BFFF
:100A000000BF00BF00BF00BF4238BBD119B0F0BD6E
:100A1000001000409C0E0000280000200000044050
:100A2000E08DF901024800F005F8FFF76BFFFCE7E5
:100A300010000020F0B587B00290DC4800687D21EE
:100A4000C900FFF7E1FB401E010E0DD1D849D94A7C
:100A50005060D94803680B40032189075918016089
:100A6000002090600720106000242046FFF7AEFDB4
:100A700001273846FFF7AAFD02252846FFF7A6FD05
:100A80002046FFF7EFFD3846FFF7E2FD2846FFF767
:100A9000E9FD7804112189023B46FFF7F3FC3E0291
:100AA000C64831462246FFF77EFD80210625039584
:100AB00038462A46FFF7DAFB384631462A46FFF722
:100AC000D5FB069405964B20C0010490BC4D04A9AB
:100AD0002846FFF7C3FE284621463A46FFF705FFA2
:100AE000284639463A46FFF700FF38040190412175
:100AF00009023B46FFF7C6FCB24808210091224696
:100B0000FFF751FD04212046039D2A46FFF7AEFB67
:100B1000204600992A46FFF7A9FB06940596E12096
:100B2000400200900490BD0704A92846FFF796FEF6
:100B3000284621463A46FFF7D8FE284639463A4627
:100B4000FFF7D3FE2120410201983B46FFF79AFCB4
:100B5000202101919B482246FFF725FD10212046C8
:100B6000039D2A46FFF782FB204601992A46FFF79C
:100B70007DFB0694059600980490934D04A92846A1
:100B8000FFF76CFE284621463A46FFF7AEFE2846A0
:100B900039463A46FFF7A9FE8C4800F037F9029F24
:100BA00038600390002826D0884800F02FF9B860FC
:100BB000002869D0642000F029F93861002800D1AC
:100BC000ABE083A11522039F3846FFF7D5FA3F5DBE
:100BD00028463146FFF73CFE0028F9D02846394622
:100BE000FFF781FE641C039F3846FFF7FDFA84423D
:100BF000EDD307B0F0BD7C4800BF00BF00BF00BF11
:100C000000BF00BF00BF00BF00BF00BF00BF00BFEC
:100C100000BF00BF00BF00BF00BF00BF00BF00BFDC
:100C200000BF00BF00BF00BF00BF00BF00BF00BFCC
:100C300000BF00BF00BF00BF00BF00BF00BF00BFBC
:100C400000BF00BF00BF00BF00BF00BF00BF00BFAC
:100C500000BF00BF00BF00BF00BF00BF00BF00BF9C
:100C600000BF00BF00BF00BF00BF00BF00BF00BF8C
:100C700000BF00BF00BF00BF00BF00BF4238BBD1F4
:100C80000020FFF7F9FCFEE7574800BF00BF00BF98
:100C900000BF00BF00BF00BF00BF00BF00BF00BF5C
:100CA00000BF00BF00BF00BF00BF00BF00BF00BF4C
:100CB00000BF00BF00BF00BF00BF00BF00BF00BF3C
:100CC00000BF00BF00BF00BF00BF00BF00BF00BF2C
:100CD00000BF00BF00BF00BF00BF00BF00BF00BF1C
:100CE00000BF00BF00BF00BF00BF00BF00BF00BF0C
:100CF00000BF00BF00BF00BF00BF00BF00BF00BFFC
:100D000000BF00BF00BF00BF00BF00BF00BF423830
:100D1000BBD10020FFF7B0FCFEE7334800BF00BFA7
:100D200000BF00BF00BF00BF00BF00BF00BF00BFCB
:100D300000BF00BF00BF00BF00BF00BF00BF00BFBB
:100D400000BF00BF00BF00BF00BF00BF00BF00BFAB
:100D500000BF00BF00BF00BF00BF00BF00BF00BF9B
:100D600000BF00BF00BF00BF00BF00BF00BF00BF8B
:100D700000BF00BF00BF00BF00BF00BF00BF00BF7B
:100D800000BF00BF00BF00BF00BF00BF00BF00BF6B
:100D900000BF00BF00BF00BF00BF00BF00BF00BF5B
:100DA0004238BBD10020FFF767FCFEE708000020B7
:100DB000FFFFFF0010E000E020ED00E000200B400E
:100DC0000010004000000B4000000440A40600009A
:100DD0005365747570207375636365737366756CA2
:100DE0006C79210A00000000308E320002E008C851
:100DF000121F08C1002AFAD170477047002001E095
:100E000001C1121F002AFBD170470000F0B50B3062
:100E1000C108C900144F0026144A0FE003688B4232
:100E20000BD38B4205D95C1A4318456830C3083B85
:100E300000E04368136002C004E0021D106800284F
:100E4000ECD13046002803D13868002801D00020BA
:100E5000F0BD064A06481060064A121AD208D200AF
:100E600044C001203860D7E70400002000000020C3
:100E7000940000209000002000000B4000200B4058
:100E800000400B4000600B4000800B400000000061
:100E900001010102020100010002800024474E52BC
:100EA0004D430000C40E0000000000200C000000B4
:100EB000EC0D0000D00E00001000002080020000A9
:100EC000FC0D0000000000000000000000879303FC
:04000005000000C136
:00000001FF
