:020000040000FA
:1000000038020020C1000000210800006506000041
:10001000FFFFFFFFFFFFFFFFFFFFFFFFFFFFFFFFF0
:10002000FFFFFFFFFFFFFFFFFFFFFFFF31090000A2
:10003000FFFFFFFFFFFFFFFF23080000350900005F
:1000400035010000350100003501000035010000D8
:1000500035010000350100003501000035010000C8
:1000600035010000350100003501000035010000B8
:1000700035010000350100003501000035010000A8
:100080003501000035010000350100003501000098
:100090003501000035010000350100003501000088
:1000A0003501000035010000350100003501000078
:1000B0003501000035010000350100003501000068
:1000C0001D4880471D4880471D4800471D4801695D
:1000D000002908D14169002905D18169002902D18F
:1000E000C169002909D01848C1680901090D002912
:1000F0000ED005290CD006290AD0BFF34F8F134824
:100100001349016013491248C860BFF34F8FFEE7DF
:100110000E4801680E48884200D070470E480F49CB
:1001200001600A480E4901607047FEE7FEE7FEE7FE
:10013000FEE7FEE7FEE70000CD00000045090000F5
:100140006501000000030840800108400000002015
:100150000400FA0500ED00E0008108400100000005
:10016000000000000348854600F052F800480047B0
:100170006D0D00003802002003460B439B0703D09F
:1001800009E008C9121F08C0042AFAD203E00B785C
:100190000370401C491C521EF9D2704730B5054609
:1001A0002A460B4610781C78521C5B1C002801D094
:1001B000A042F7D0002C03D0002802D06D1CEFE73E
:1001C000284630BD421C0178401C0029FBD1801A12
:1001D000704770B50446002903D000202022012377
:1001E00010E0002801D00020C043C046C0460DE00A
:1001F0002546D5408D4205D30D469540641B1D46CE
:10020000954040191546521E002DF1DC214670BD67
:10021000064C0125064E05E0E36807CC2B430C3C59
:1002200098471034B442F7D3FFF7A0FFC819000075
:10023000E8190000F0B58EB0C0005C4BC4180F2365
:1002400018020790180308901804099018050A90DE
:1002500018060B9018070C900E060D9452D0012032
:10026000084045422F461F408807059000D5F037CB
:100270004807049001D5079807430807039001D564
:1002800008980743C806029001D5099807438806D5
:10029000019001D50A9807434806009003D53046DF
:1002A0000B9E374306460696002E01D50C9E37431B
:1002B0000D9C2468BC4317010598C6173E401540A5
:1002C000354316020498C71737402F431503039888
:1002D000C6172E403E4315040298C7172F403743D8
:1002E00015050198C6172E403E4315060098C01705
:1002F000284030431507069EF6172E400643264336
:100300000D9C26600E04300E41D0C805C7173B4037
:100310008805069000D5F0334805059001D507986B
:1003200003430805079001D508980343C8040890C3
:100330002FD4880431D4490433D4002E01D50C9D28
:100340002B4365689D431301069CE4171C4017402E
:1003500027431302059CE4171C403C431303079FEB
:10036000FF171F4027431304089CE4171C403C431D
:100370001305C017184020431306C917194001433D
:100380001007F21702400A432A430D9842600EB04C
:10039000F0BD099803438804CDD50A9D2B43490439
:1003A000CBD50B9D2B43002EC9D4CAE72020024099
:1003B00070B541098900234BC9180A6AD9691C46DE
:1003C000183C246807240C405D68194614390968F4
:1003D000890501D4002110E01968C900CE0F1A491F
:1003E000F140002D09D41D686D012D0F00D110259D
:1003F00069431D686D02AD0FE940641E062C09D8E3
:100400007C4424796400A7440C03030505070A0013
:100410000D4906E0002104E00121C90301E07D212E
:1004200009021F2404400325A5402A40E2402E284B
:1004300000D1921C9868052800D30520C140D14006
:10044000084670BD1880084000127A0070B50C4C48
:100450002568002B01D0054300E08543A668E068CD
:100460002560002B01D00E4300E08E43A660002BD8
:1004700002D01043E06070BD9043E06070BDC046A4
:1004800024800840002A03D002680A4302607047B3
:1004900002688A4302607047F0B500230E251C46AF
:1004A00003E0090A10352E2D5AD0CE070ED18E0743
:1004B00016D44E071ED40E0726D4CE062ED48E0692
:1004C00035D44E063CD40E06EBD542E02E460E3E09
:1004D0000327B7403B431746B7403C438E07E8D558
:1004E0002E460C3E0327B7403B431746B7403C43DC
:1004F0004E07E0D52E460A3E0327B7403B4317463A
:10050000B7403C430E07D8D52E46083E0327B740D8
:100510003B431746B7403C43CE06D0D5AE1F03271A
:10052000B7403B431746B7403C438E06C9D52E1F04
:100530000327B7403B431746B7403C434E06C2D55E
:10054000AE1E0327B7403B431746B7403C430E0659
:10055000A7D50326AE4033431646AE403443A0E74A
:10056000416999434161416921434161F0BDB0B5A1
:10057000846825468D43C368012A04D08B43002A32
:1005800004D10C4303E00B432C4600E02C4684606E
:10059000C360B0BD70B582B0064668460022828056
:1005A00000922E498D5D0124445501782140437805
:1005B000DB079B0F59188378DB075B0FC918C078DE
:1005C000C007000F08180199C907C90E4018000498
:1005D000A1032346FFF73AFF0E48825D70001E49D3
:1005E0000E5A28463146FFF725FEA8001C490D5833
:1005F0006E62022228463146FFF7B9FF284631468F
:100600002246FFF749FF284631462246FFF73AFFC8
:1006100002B070BDC418000041000F4A515A0F4A81
:10062000105C80000E4A10584162704741000A4A2F
:10063000515A0A4A105C8000094A1058816270477A
:100640004100054A515A054A105C8000044A10587E
:10065000026A4A4002627047CA180000C7180000C8
:10066000AC18000006480168002908D1016800297B
:1006700005D10168002902D101680029F3D0704733
:100680002C0000204A1E9141C900026808239A43A9
:10069000511801607047000070B584B013490025FF
:1006A000012428462A462346FFF7D0FE02210726CA
:1006B00020463246FFF7BEFD204621463246FFF770
:1006C000B9FD01A90D810A4802900195334D2846D4
:1006D00000F016F828462146FFF7D4FF7D20C10020
:1006E000284600F06DF804B070BDC046014000001F
:1006F000A0860100016802220A43026070470000E0
:10070000F0B581B00D4604460068852188432978FC
:10071000014368780843A978014321602889A060D3
:1007200000261E48844203D01D48844204D102267C
:100730003046FFF73DFE064603208103206808404F
:100740000121CA03904207D08903884207D00028BC
:1007500008D10620009007E00920009004E008205E
:10076000009001E000200090092070436968142780
:100770004F433946FFF72DFDE978009A5518401B85
:10078000C117884320610B2070433946FFF721FDD4
:10079000401BC1178843606101B0F0BD0080044078
:1007A0000090044081B00022009200900098401810
:1007B00000900098006801B07047816170470000A8
:1007C000826A024B13400B43836270470000FFFFB5
:1007D00003689B0708D503689B0705D503689B073B
:1007E00002D503689B07F3D4002A02D001229202AB
:1007F0001143C161704710B582B001A8002101709A
:100800004C200721012200F059FA4C20052101ACAF
:10081000224600F007F820780128F6D102B010BD7A
:1008200070477047F0B583B00292009101463E4C8C
:1008300025460C3D002228460191FFF7C9FF3B4F9A
:100840002068B84208D02068B84205D02068B84275
:1008500002D02068B842F3D11D204604301D216823
:10086000814212D0216881420FD0216881420CD090
:1008700021688142F2D108E02068B04208D02068A7
:10088000B04205D02068B04202D02068B042F3D117
:1008900028460099FFF791FF2068B04208D02068F1
:1008A000B04205D02068B04202D02068B042F3D1F7
:1008B0000120820228460199FFF78AFF2068B8428A
:1008C00012D02068B8420FD02068B8420CD02068FF
:1008D000B842F3D108E02168814209D02168814201
:1008E00006D02168814203D0F81C21688142F2D1F0
:1008F000192000042168814208D02168814205D076
:100900002168814202D021688142F3D1E0680299D6
:1009100008702846FFF7EEFE0C212846FFF742FF3D
:100920000003F9D403B0F0BD0C80044001001800AE
:100930007047000002480168491C01607047C046CA
:1009400030000020F0B586B05948102105910160B3
:100950005849C86A402203921043C8625648026848
:10096000272A08D00268272A05D00268272A02D041
:100970000268272AF3D10324A0020A6A82430A628A
:100980000122D0020B6803430B604868000708D4BB
:100990004868000705D44868000702D44868000783
:1009A000F3D5086804942043042302939843086015
:1009B000086B0724204003280BD0086B2040032835
:1009C00007D0086B2040032803D0086B2040032881
:1009D000EED13A4B1868104306250195A8431860DC
:1009E00000200090C86157020868B84308601302ED
:1009F000081F05681D4305600D680826B5430D6096
:100A000005683D43056095020E682E430E604D68F3
:100A10006D0708D44D686D0705D44D686D0702D485
:100A20004D686D07F3D5CD6A039EB543CD620F25A2
:100A3000ED054D6115074E692E434E6105689D43D6
:100A400005600868384308604868800708D448682B
:100A5000800705D44868800702D448688007F3D52A
:100A6000164D2868049B1843029B98432860009801
:100A7000C86108681043019B98430860086B2040D8
:100A800001280BD0086B2040012807D0086B2040BC
:100A9000012803D0086B20400128EFD12868059970
:100AA00008432860100329680143296006B0F0BD9F
:100AB0000C8108400480084008A10640000208405C
:100AC000F0B583B001246004112189022346FFF7A9
:100AD000BDFC26021348002531462A46FFF747FD94
:100AE0008021062720463A46FFF7A4FB20463146E0
:100AF0003A46FFF79FFB029501964B20C0010090FC
:100B0000634E6946304600F081F830462946224659
:100B100000F0C7F830462146224600F0C2F803B084
:100B2000F0BDC04600200B40F0B581B00446012660
:100B3000B5072021284600F063F8012808D128468F
:100B400000F0AAF82169A2898854A089401CA081DC
:100B50000D4F396825692846FFF720FB002400283F
:100B60000FD179682846FFF719FB002809D10748FB
:100B700001682846FFF712FB002801D0344600E048
:100B80000224204601B0F0BD0C0000200800002027
:100B9000F0B583B00746007800282ED0012005026A
:100BA0008607002401973F5D3046294600F028F86B
:100BB0000028F9D03046394600F071F8641C019FD6
:100BC0003846FFF7FFFA8442EDD33878002814D076
:100BD0003C4600272D4EE05D02903046294600F04D
:100BE0000FF80028F9D03046029900F058F87F1C21
:100BF0002046FFF7E7FA8742EDD303B0F0BDC046C9
:100C000000690840411E884170470000B0B50D469C
:100C10000446406819490140E8880843A98801430F
:100C200028890843698901436160002014498C4286
:100C30000BDC012189078C4212D015498C4211D05E
:100C400014498C4215D1082011E00E498C420BD07A
:100C50000D498C420AD00D498C420AD11A2006E077
:100C6000182004E01C2002E00A2000E01E20FFF70C
:100C70009FFB2968FFF7ADFA6062B0BDFCE0FFFFA3
:100C8000FFFF034000200440001004400000044027
:100C90000010004000200040006880B270470160F2
:100CA000704710238B40002A03D0416819434160EC
:100CB000704741689943416070470000F0B581B0CA
:100CC00000920E460146274F3C460C3C002220462F
:100CD000FFF77EFD24483968814208D03968814297
:100CE00005D03968814202D039688142F3D11D2094
:100CF0004504281D3968814208D03968814205D0F1
:100D00003968814202D039688142F2D120463146A9
:100D1000FFF753FD3868A84208D03868A84205D0CC
:100D20003868A84202D03868A842F3D1204600991A
:100D3000FFF743FD3868A84208D03868A84205D0BC
:100D40003868A84202D03868A842F3D12046FFF79D
:100D5000D1FC0C212046FFF725FD0003F9D401B09A
:100D6000F0BDC0460C80044001001800014800F0AE
:100D700023FBFEE718000020F0B583B0054680682D
:100D8000D0A11E22FFF7F8F92868AA68D54900F01B
:100D9000BBFC0120040201952E683078D24D00285A
:100DA00013D000270296F65D28462146FFF728FF5C
:100DB0000028F9D028463146FFF771FF7F1C029EBC
:100DC0003046FFF7FFF98742EDD30020019EB08146
:100DD0000146326989B25054B189491CB1818AB245
:100DE000C72A18D8336900219954B289521CB2819C
:100DF00092B2C72A0FD833699954B289521CB28172
:100E000092B2C72A07D833699954B189491CB18174
:100E10008AB2C82ADDD300200290B081B068FFF703
:100E2000B7FEB248FFF7B4FEB149086870600868C1
:100E30007168401AAF4FB8420AD2019E3046FFF7A0
:100E400073FEAB490A687168511AB942F6D300E0E3
:100E500004200090A84800BF00BF00BF00BF00BF33
:100E600000BF00BF00BF00BF00BF00BF00BF00BF8A
:100E700000BF00BF00BF00BF00BF00BF00BF00BF7A
:100E800000BF00BF00BF00BF00BF00BF00BF00BF6A
:100E900000BF00BF00BF00BF00BF00BF00BF00BF5A
:100EA00000BF00BF00BF00BF00BF00BF00BF00BF4A
:100EB00000BF00BF00BF00BF00BF00BF00BF00BF3A
:100EC00000BF00BF00BF00BF00BF00BF00BF00BF2A
:100ED00000BF00BF00BF00BF00BF4238BBD1019EB2
:100EE000B06886A10622FFF747F9B068FFF750FE09
:100EF0007E48FFF74DFE7E4908687060086871689B
:100F0000401A804FB84209D23046FFF70DFE7849AB
:100F10000A687168511AB942F6D300903269306894
:100F2000794900F0F1FB316808780028029E14D05E
:100F300002960F468E5D28462146FFF761FE002887
:100F4000F9D028463146FFF7AAFE029E761C3846A5
:100F5000FFF738F939468642EAD30020019EB08176
:100F60000146326989B25054B189491CB1818AB2B3
:100F7000C72A18D8336900219954B289521CB2810A
:100F800092B2C72A0FD833699954B289521CB281E0
:100F900092B2C72A07D833699954B189491CB181E3
:100FA0008AB2C82ADDD30027B781306800990429A6
:100FB00004D849B28900554A525800E0F94AFB4921
:100FC00000F0A2FB306802900078002815D0029E45
:100FD000F65D28462146FFF713FE0028F9D0284683
:100FE0003146FFF75CFE7F1C029E3046FFF7EAF8B1
:100FF0008742EDD3019E306800E00298EC490C2254
:10100000FFF7BAF837683878002813D0002602971F
:10101000BF5D28462146FFF7F3FD0028F9D028469A
:101020003946FFF73CFE761C029F3846FFF7CAF8A8
:101030008642EDD3DF4800BF00BF00BF00BF00BF46
:1010400000BF00BF00BF00BF00BF00BF00BF00BFA8
:1010500000BF00BF00BF00BF00BF00BF00BF00BF98
:1010600000BF00BF00BF00BF00BF00BF00BF00BF88
:1010700000BF00BF00BF00BF00BF00BF00BF00BF78
:1010800000BF00BF00BF00BF00BF00BF00BF00BF68
:1010900000BF00BF00BF00BF00BF00BF00BF00BF58
:1010A00000BF00BF00BF00BF00BF00BF00BF00BF48
:1010B00000BF00BF00BF00BF00BF4238BBD10098D7
:1010C00003B0F0BD41542B514D545055423D302C8E
:1010D000302C302C302C22746F7069632F70756245
:1010E00022000000DF18000000000440DC180000AF
:1010F00030000020411F0000C01BF30368656C6CCA
:101100006F000000B90B0000D01800009818000014
:10111000F0B583B00546826800689C4900F0F4FA97
:101120000120040201952F683878994D002813D0CA
:1011300000260297BF5D28462146FFF761FD002883
:10114000F9D028463946FFF7AAFD761C029F38469B
:10115000FFF738F88642EDD30020019FB8810146A1
:101160003A6989B25054B989491CB9818AB2C72AEF
:1011700018D83B6900219954BA89521CBA8192B29D
:10118000C72A0FD83B699954BA89521CBA8192B2C6
:10119000C72A07D83B699954B989491CB9818AB2D1
:1011A000C82ADDD30026BE81B868FFF7F1FC794874
:1011B000FFF7EEFC78490868786008687968401A9B
:1011C000764FB8420ED20296019E3046FFF7ACFC35
:1011D00071490A687168511AB942F6D30090019FAB
:1011E000029E02E004200090019F3A6938686C4931
:1011F00000F08AFA3F683878002812D00297BF5D65
:1012000028462146FFF7FCFC0028F9D0284639463D
:10121000FFF745FD761C029F3846FEF7D3FF864256
:10122000EDD30020019FB88101463A6989B250543C
:10123000B989491CB9818AB2C72A18D83B690021EB
:101240009954BA89521CBA8192B2C72A0FD83B6905
:101250009954BA89521CBA8192B2C72A07D83B69FD
:101260009954B989491CB9818AB2C82ADDD30026AC
:10127000BE8138680099042904D849B289004A4AD5
:10128000525800E0474A494900F03EFA3868029057
:101290000078002815D0029FBF5D28462146FFF741
:1012A000AFFC0028F9D028463946FFF7F8FC761C39
:1012B000029F3846FEF786FF8642EDD3019F3868CD
:1012C00000E002983A490C22FEF756FF3F68387852
:1012D000002813D000260297BF5D28462146FFF75D
:1012E0008FFC0028F9D028463946FFF7D8FC761C39
:1012F000029F3846FEF766FF8642EDD32D4800BFB9
:1013000000BF00BF00BF00BF00BF00BF00BF00BFE5
:1013100000BF00BF00BF00BF00BF00BF00BF00BFD5
:1013200000BF00BF00BF00BF00BF00BF00BF00BFC5
:1013300000BF00BF00BF00BF00BF00BF00BF00BFB5
:1013400000BF00BF00BF00BF00BF00BF00BF00BFA5
:1013500000BF00BF00BF00BF00BF00BF00BF00BF95
:1013600000BF00BF00BF00BF00BF00BF00BF00BF85
:1013700000BF00BF00BF00BF00BF00BF00BF00BF75
:1013800000BF4238BBD1009803B0F0BDDF180000A9
:1013900000000440DC18000030000020B90B000001
:1013A000D01800003019000098180000F61800004E
:1013B0004C190000B0E2EF04F0B589B00490BE48CB
:1013C00000687D21C900FEF704FF401E010E0DD10B
:1013D000BA49BB4A5060BB4803680B4003218907E8
:1013E00059180160002090600720106000252846F1
:1013F000FFF7D0F801273846FFF7CCF80224204643
:10140000FFF7C8F82846FFF711F93846FFF704F947
:101410002046FFF70BF9FFF753FB380405904121F5
:10142000039109023B46FFF711F8A7480826314609
:101430002A46FFF79CF804210624019428462246F8
:10144000FEF7F8FE284631462246FEF7F3FE0895E1
:101450003E020796E120400202900690BC0706A9D2
:101460002046FFF7D3FB204629463A46FFF719FCF2
:10147000204639463A46FFF714FC212041020598E0
:101480003B46FEF7E3FF202105918F482A46FFF7F0
:101490006EF810212846019C2246FEF7CBFE284616
:1014A00005992246FEF7C6FE089507960298069013
:1014B000864C06A92046FFF7A9FB2046029529463F
:1014C0003A46FFF7EEFB204639463A46FFF7E9FB7E
:1014D000FFF7E2F8FFF78FF9642000F0A7F9049F07
:1014E0003860002800D19DE00546794800F09EF95B
:1014F000B860C82000F09AF9386176A11522284614
:10150000FEF73AFE2F460298059505463F5C2046B9
:101510003146FFF775FB0028F9D020463946FFF722
:10152000BEFB6D1C059F3846FEF74CFE85422846E3
:10153000EBD3049DA868002181700F4654244470A9
:10154000039E06702846FFF7E3FDA8680670447006
:1015500026460194059787702846FFF7D9FDA868AD
:1015600062490522FEF708FE2846FFF7D1FDA8686C
:10157000C7714E218171532141714721029101713F
:101580004327C7702B2484704670039E067028463C
:10159000FFF7BEFDA8680599C1714D2181714171A8
:1015A00002990171C77084700199417006702846D4
:1015B000FFF7AEFDA8684E490A242246FEF7DCFD7F
:1015C0002846FFF7A5FDA8684A492246FEF7D4FD44
:1015D0002846FFF79DFDA868474C0D262146324658
:1015E000FEF7CAFD2846FFF793FDA8684349262267
:1015F000FEF7C2FD2846FFF78BFDA86840491D2273
:10160000FEF7BAFD2846FFF783FD2846FFF7B4FB37
:10161000A86821463246FEF7AFFD2846FFF778FD61
:1016200009B0F0BD374800BF00BF00BF00BF00BF1A
:1016300000BF00BF00BF00BF00BF00BF00BF00BFB2
:1016400000BF00BF00BF00BF00BF00BF00BF00BFA2
:1016500000BF00BF00BF00BF00BF00BF00BF00BF92
:1016600000BF00BF00BF00BF00BF00BF00BF00BF82
:1016700000BF00BF00BF00BF00BF00BF00BF00BF72
:1016800000BF00BF00BF00BF00BF00BF00BF00BF62
:1016900000BF00BF00BF00BF00BF00BF00BF00BF52
:1016A00000BF00BF00BF00BF00BF4238BBD1002059
:1016B000FEF7C6FFFEE7C04614000020FFFFFF0054
:1016C00010E000E020ED00E000000B4000000440CE
:1016D0004C04000053657475702073756363657303
:1016E0007366756C6C79210A000000000A1900000D
:1016F000BC19000088190000781900009419000036
:1017000058190000308E32000FB410B504A9074BF1
:1017100002AA039800F01BF8044602A9002000F07A
:101720007FF8204610BC08BC04B018472118000000
:1017300002E008C8121F08C1002AFAD1704770479A
:10174000002001E001C1121F002AFBD17047FFB544
:1017500081B00546002706E025280AD0049A03999F
:1017600090476D1C7F1C28780028F5D1384605B0BD
:10177000F0BD002269786D1C10462E2913D16978BE
:1017800004226D1C2A2909D102996D1C01C90291FC
:1017900009E00A235843303808186D1C29780B4695
:1017A000303B092BF5D92B78002BDFD0632B07D0EA
:1017B000732B10D0049A1846039990477F1C2DE094
:1017C00002996C460B782370091D0291002161700B
:1017D0006E46012104E0029940C902910021C943EB
:1017E00052070AD5002400E0641C84420DDA8C42C2
:1017F000FADB325D002AF7D107E0002400E0641C28
:101800008C42FCDB305D0028F9D13F1904E03078D0
:10181000049A761C03999047641EF8D26D1CA2E7C7
:101820000A68531C0B60107070470000F0B50B3055
:10183000C108C900144F0026144A0FE003688B4208
:101840000BD38B4205D95C1A4318456830C3083B5B
:1018500000E04368136002C004E0021D1068002825
:10186000ECD13046002803D13868002801D0002090
:10187000F0BD064A06481060064A121AD208D20085
:1018800044C001203860D7E7040000200000002099
:101890003C00002038000020281900001719000023
:1018A000431900001D1900000F19000000000B4033
:1018B00000200B4000400B4000600B4000800B40BC
:1018C000000000000101010202010001000280008D
:1018D00025730A0A000D0A0D0A004F4B0D0A000A73
:1018E0003D3D3D2053454E44494E47203C25733EE7
:1018F000203D3D3D0A00436F6D6D616E6420737441
:10190000617475733A2025730A00415445300055BF
:101910004E4B4E4F574E004552524F52005041527F
:10192000414D45544552530053554343455353008D
:10193000554E535550504F525445442053544154E2
:1019400055530054494D454F555400003D3D3D3DD4
:101950003D3D3D3D3D3D0A0041542B514D54434FCB
:101960004E4E3D302C22616E6874746D38636C6924
:10197000656E74220000000041542B514D544449BF
:1019800053433D300000000041542B51454E473D2C
:101990003000000041542B514D544F50454E3D30C6
:1019A0002C2262726F6B65722E686976656D712E7E
:1019B000636F6D222C3138383300000041542B43C3
:1019C000455245473F000000E81900000000002094
:1019D0001800000030170000001A00001800002056
:1019E000200200004017000000000000000000007E
:1019F00017190000D5180000DA18000000879303BB
:04000005000000C136
:00000001FF
