:020000040000FA
:1000000020030020C100000059170000291500003E
:10001000FFFFFFFFFFFFFFFFFFFFFFFFFFFFFFFFF0
:10002000FFFFFFFFFFFFFFFFFFFFFFFF951800002F
:10003000FFFFFFFFFFFFFFFF5B17000099180000A5
:1000400035010000350100003501000035010000D8
:1000500035010000350100003501000035010000C8
:1000600035010000350100003501000035010000B8
:1000700035010000350100003501000035010000A8
:100080003501000035010000350100003501000098
:100090003501000035010000350100003501000088
:1000A0003501000035010000350100003501000078
:1000B0003501000035010000350100003501000068
:1000C0001D4880471D4880471D4800471D4801695D
:1000D000002908D14169002905D18169002902D18F
:1000E000C169002909D01848C1680901090D002912
:1000F0000ED005290CD006290AD0BFF34F8F134824
:100100001349016013491248C860BFF34F8FFEE7DF
:100110000E4801680E48884200D070470E480F49CB
:1001200001600A480E4901607047FEE7FEE7FEE7FE
:10013000FEE7FEE7FEE70000CD000000A918000082
:100140006501000000030840800108400000002015
:100150000400FA0500ED00E0008108400100000005
:10016000000000000348854600F042FD00480047BB
:100170002D2100002003002003460B439B0703D0E2
:1001800009E008C9121F08C0042AFAD203E00B785C
:100190000370401C491C521EF9D27047D2B201E0D4
:1001A0000270401C491EFBD270470022F6E710B5D2
:1001B00013460A4604461946FFF7F0FF204610BDD5
:1001C00030B505462A460B4610781C78521C5B1C3D
:1001D000002801D0A042F7D0002C03D0002802D084
:1001E0006D1CEFE7284630BD421C0178401C0029F9
:1001F000FBD1801A704710B5002200E0521C835CCE
:100200008C5CA34201D1002BF8D1D8B2E1B2401AE4
:1002100010BD03460A780270401C491C002AF9D11F
:100220001846704770B5104D002800D1286800248A
:1002300014E00A4602E09E4203D0521C1378002BC1
:10024000F9D1DAB2224307D0002B06D0002C04D01B
:1002500000210170401C04E00446401C0678002E7A
:10026000E7D12860204670BD00000020F8B50246A6
:100270004A40D40F42004B0052085B089A4202D217
:100280000246084611464A0023D0C30D4A00DDB29B
:10029000120EAD1A202D35DA49020126490AF6055B
:1002A0008A19002C00D0524220214F1B1146B94020
:1002B0002A411018C20D9A4221D0002C17D0012DCE
:1002C00008DCDA05801AD20F8019D207DBB200F001
:1002D000E3FAF8BDDA05801A012340001B06C018B6
:1002E00080185A428018CA0F1043490007E0490895
:1002F000C2071143DA05801A80194008801800F0FF
:10030000C3FAF8BD61000122511A001BF7E7012270
:10031000D2075140AAE70122D2075040A6E7024681
:1003200070B54A40D30FDB0740002DD04A002AD0D9
:10033000010E140E000212020919400A520A841812
:10034000E50104465443000A120A2E045043A4193E
:100350004219200CC543AA18120C0125AD03521CEA
:10036000521912047F39240400D0521C104301D4C6
:100370004000491EC2B20C06C0092018401C4008AB
:10038000802A02D003E0002070BD40084000002910
:1003900000DA0020184370BD70B502464A40D50F00
:1003A00040004A00ED0740085208002814D0002AF7
:1003B00012D0C40DD30D41020120C0055202490ADA
:1003C000520AE41A091812187D34914201D3641CB0
:1003D00000E04900002C01DA002070BD00239142AA
:1003E00001D3891A0343400849000028F7D10029A6
:1003F0000AD0914202D10121C90705E0914201D200
:10040000012101E00121C943E005C018401900F0B5
:100410003BFA70BDF0B507460846584087B0C00F9C
:10042000049048000E46590040084908BC1A88410B
:1004300005D2384631461E4617460B46024658003E
:10044000400810434CD0300D039040055900400D3A
:10045000490D0590401A0290402872DA18030121D4
:10046000000B09050843019004980092002805D06C
:100470000199524200208841009201900298402147
:100480000A1A0199009800F082F905460C466B465D
:1004900007CB00F08CF9C0197141039A0E0D0023AF
:1004A000D71756401A467A40164344D0049A002A79
:1004B0002DD0029A012A039A15DC1205C01A914127
:1004C00001263605001C7141D20F059ED20700930C
:1004D000019202962A46234600F024FA07B0F0BDA6
:1004E00038463146FAE71605224A0F46B218C01AB6
:1004F000B74101210905001C4F4100187F411146F9
:1005000018187941E20F10436D19644113E0E207B6
:100510006D0815436408C2071443039A01261205A7
:10052000C01A91413605001C7141CE074008304386
:100530004908C01851412A46234600F0E6F9CDE7A4
:10054000FFE7049801224000C117121A00238B41D3
:1005500004983146C417381AA141EEE730B401249B
:10056000E407634030BC55E730B40124E407614040
:1005700030BC4FE70000E0FFF0B51FB488B00B9926
:100580000998002448400999C00F49004908099179
:10059000C0070B990090490049080B9109990898E8
:1005A000A64608431CD00B990A98084318D009980E
:1005B00001244000420D4800410D09982405000324
:1005C000000B204309900B980003000B20430B9075
:1005D00050181C494018002201901446104605E0AE
:1005E000002001460DB0F0BD032801DA034600E00B
:1005F00003239C46C11A0AAE0AE05F0008ADED5B1A
:100600004F00F75B7D430027AA187C41491C5B1E05
:100610006145F2DD410004AB5A522104120C0A4339
:10062000240C401C0828DFDB0198029000997046DA
:1006300001910090059B049A0799069800F072F9C1
:10064000D0E700000DFCFFFFC217C10F504010B5EE
:100650004018CA079623002100F01EF910BDC20FF2
:10066000410040020123400ADB05D207090EC018F1
:100670007F2901DA00207047962903DC9623591A56
:10068000C84001E096398840002AF4D040427047C3
:10069000C20FD207400040080BD0C10D0723DB0179
:1006A000C91840020905400A1143C2084007114316
:1006B0007047002001467047CB0FDB07490010B59B
:1006C000490802460A4307D00A0D07240903E4013A
:1006D000090B121B002A01DC002010BDC900440FC9
:1006E0000C43C100E018D205801800F0CDF810BD11
:1006F00070B50446002903D000202022012310E019
:10070000002801D00020C043C046C0460DE0254669
:10071000D5408D4205D30D469540641B1D4695403E
:1007200040191546521E002DF1DC214670BDF0B572
:100730001FB40646002082B0054640240191009077
:100740001BE0019922460F46304600F063FA049AF6
:10075000059B801A994110D310461946224600F095
:1007600016F8361A8F410197224601200021009F7A
:1007700000F00DF838184D4100902046641E002806
:10078000DFDC019B00982946324607B0F0BD10B56A
:10079000202A04DB0146203A9140002010BD914000
:1007A00020239C1A0346E3401943904010BD10B526
:1007B000202A06DBCB170846203A1041C1170B430D
:1007C00006E00B461341D0402024A21A9140084372
:1007D000194610BD0FB400B589B00A460DA90091A5
:1007E00000230C99002ACB60234B0693234B0793DD
:1007F00001D0042300E00023214A0292214A0892FA
:10080000019302466B46002000F0ABFA09B008BC29
:1008100004B01847F0B585B007460020C0430190EA
:100820001E46002015460C460091029104903B465E
:100830006A46314604A8FFF7CDFF049902466018C6
:10084000002D05D0002901D0034600E023462B608F
:1008500000290ED0002A02DD0099814209D0001B38
:10086000019000943B466A463146029404A8FFF783
:10087000B1FF05B0F0BD0000B90F0000D90F0000B6
:10088000FFFFFF7F370C0000002904DA401C4900FD
:1008900001D140084000704770B40024050C05D118
:1008A0001024000402D1002921D01124050E01D109
:1008B00000020834050F01D10001241D850F01D16C
:1008C0008000A41C002801DB4000641C002908D023
:1008D00020252E1B0D46F540A14000D001212943C3
:1008E000084301061B1B000ADB1D02D5002070BC5B
:1008F0007047DB05181880180029F8DA401C4900F9
:10090000F5D170BC40084000704710B5002B08DAE4
:100910000024401C614192185B411A4301D14008F8
:10092000400010BDF0B51FB482B005460C0003D0E6
:10093000084601F007FE02E001F004FE2030024606
:10094000009021462846FFF722FF049B059A0446A3
:100950000F4618431143084314D0184610431BD0C8
:10096000009840210A1A1846059900F053F90546E7
:100970000E46009A05990498FFF709FF084305D031
:10098000012004E02046394607B0F0BD0020C11721
:1009900005430E432C43374300990E986305401AD4
:1009A0007905E40A00220C43FD0A0A3002D5002032
:1009B0000146E9E70105101969410C9C0D9D0019DC
:1009C0006941FFF7A2FFDFE7F0B50C465C4085B058
:1009D000E40FE40703944C00002664085900944691
:1009E000490802460296224321D062460A431ED09D
:1009F0006200570D4A000E032303550D01240246E1
:100A00002C492405781B1B0B360B40182343264327
:100A1000614600901C46501AB44103D30098401C14
:100A2000009002E0921800985B41002803DA002051
:100A3000014605B0F0BD00200121090507468646A4
:100A400011E064461D46141BB54106D36546521B92
:100A5000B341744607430C43A646CD0740084908F6
:100A6000284392185B4105460D43EAD110461843CE
:100A700013D06046194650407140084306D0604686
:100A8000101AB34106D20122002306E000220123FE
:100A9000DB0702E00122D24353100098744601059F
:100AA000381C6141029C039D00196941FFF72DFF2D
:100AB000BFE70000FD03000070B54B005B08034377
:100AC0000BD04B005C0D002633466542B341D41772
:100AD000AD1AA34102DB0020014670BD120530189B
:100AE000514170BDFEB500231A461B1A8A4103DB33
:100AF0000020014603B0F0BD4A000D0301212D0B7B
:100B00000905520D0D43D10702D100186D41521E47
:100B10005110FF31FF310131002704463E4638466F
:100B200000970191024601210020090500F072F8AA
:100B3000C3197141F818324684468E464A416146CF
:100B40002846611A904104D36046241A954176469E
:100B50001F46241900986D41401C00903428E1DDA7
:100B6000F91930467041091BA84103D20022D24333
:100B7000134601E00022134601980105381C71411B
:100B8000FFF7C3FEB6E700004A0009030123090B83
:100B90001B0519430A4B10B5520D9A4202DA002088
:100BA000014610BD064B34339A4203DC9A1A00F01A
:100BB00031F810BD034BD218FFF7E9FD10BD00005E
:100BC000FF030000CDFBFFFF10B5002904DB01246B
:100BD000E40740428C412146002B04DB1C460123E4
:100BE000DB075242A341994200D1904210BD000060
:100BF000064C0125064E05E0E36807CC2B430C3C70
:100C000098471034B442F7D3FFF7B0FAB83B00006E
:100C1000D83B000010B5202A04DB0846203AD0401B
:100C2000002110BD0B46D340D0402024A21A914091
:100C30000843194610BD10B50F21C0B2490200F09B
:100C40003BFA10BDFFB5087889B01546FF2805D0DE
:100C5000491C2D2804D00022002407E000240BE0CA
:100C60000122F9E70A235C430419491C0878FF288C
:100C7000F8D1002A00D06442002004902A7801466E
:100C80002D2A01D02B2A0FD16D1C2D2A02D0002233
:100C9000049209E00122FBE700260A2233466D1C7C
:100CA00000F0F2F9381871412F78FF2FF4D10C9A27
:100CB000A218069202460A4304D0FF23069A9133F3
:100CC000DA4205DA002109980A4606C00DB0F0BDE7
:100CD0000024B74AB54D2646079200F0FFF902906E
:100CE00006980391002801DA474200E007463905DB
:100CF0000020AF4A001C51410191009012E0F8071A
:100D000007D022462B4630460799FFF735FC0646AA
:100D1000079122462B4610461946FFF72DFC044644
:100D20000D467F10002FEAD10698019B0028009AFB
:100D30000399029806DAFFF747FE3246079BFFF752
:100D400043FE05E0FFF718FC3246079BFFF714FC53
:100D5000049A002A02D00122D2075140099A03C204
:100D6000B4E7FFB591B0002009900025ED432E2097
:100D70009E685C681F460190B9696D1C129888478F
:100D80000090396A88470028F6D10098401C0AD0A4
:100D90000D20C0018443002E12DD00982B2809D0BD
:100DA0002D280DD103E00020C04315B0F0BD012077
:100DB00080020443B9696D1C12988847761E009022
:100DC00003A9600501D52D2000E02B206A46107391
:100DD000491C0CA80F9102900AE0B9696D1C129889
:100DE000884700900120400204431398761E056056
:100DF000002E02DD00983028EFD00199009888423B
:100E000045D18020044308E00998401E0990012044
:100E1000400204431399681C0860B9696D1C761E72
:100E20001298884700903028EED030E0019988422F
:100E300005D1200603D480200443761E1DE00098CF
:100E400001F0C8FF002825D0012149020C43009879
:100E500007AA0F9903323038761E914208D20870E3
:100E60000F98401C0F90200607D50998401E03E0FC
:100E7000200602D40998401C0990A00502D51399B8
:100E8000681C0860B9696D1C129888470090002E94
:100E9000CCDC59E0002E57DD0098652801D04528AC
:100EA00052D1A00550D5032000028443B9696D1CBE
:100EB000761E129888470090002E0CDD2B2804D057
:100EC0002D2808D1FF2001300443B9696D1C129808
:100ED0008847761E0090E00501D52D2100E02B21EA
:100EE000029801700298401C0290019025E00120B8
:100EF000400204430EA902980131761E88420ED2A8
:100F00000098029930380006000E087003D102994B
:100F1000019881420AD90298401C029006E0E0053F
:100F200001D5244801E0234840420990B9696D1C6D
:100F300012988847009013980560002E04DD0098F1
:100F400001F048FF0028D2D1F969129888470F991B
:100F5000FF200870029903AA087000200A900B90E5
:100F60000CA90AA8099BFFF76DFEA00502D4012079
:100F7000C0431AE72420044209D0E00713D138689F
:100F80000B9A0A99031D3B60006806C00BE00B99A1
:100F90000A98FFF791FB0146E00704D13868021D6B
:100FA0003A60006801602846FFE600000000144037
:100FB0000000F03FF1D8FFFF4268002A08D0016826
:100FC0000B78491C002B03D0521E06C018467047F0
:100FD0000121C160881E70474268002A0BD0C36897
:100FE0000168002B07D183688B4204D0491E521C34
:100FF00006C0002070470020C04370470EB5C217DE
:10100000C10F5040CA0740180021054B02930192BE
:1010100000910A460B46FFF785FC03B000BD0000B7
:10102000330400000EB505490291002100910A46E3
:101030000B460191FFF776FC03B000BD33040000BE
:1010400070B5CD0F4A0009030123090B1B05194395
:101050000B4BED070024520D9A4201DA002070BDBF
:10106000074B34339A4203DC9A1AFFF7D3FD02E0B0
:101070000449511888402C43F1D0404270BD000013
:10108000FF030000CDFBFFFF30B5434351435C1825
:10109000010C130C0D465D432C1980B292B205462B
:1010A000554351430A0C09044D1962415843010C40
:1010B00000044019514130BD7F2801D9002207E0CA
:1010C000054B42089A5CC00700D112091207120FA3
:1010D0000120904008407047283B00000EB5054AAB
:1010E00002920022009213460192FFF71BFC03B00C
:1010F00000BD000033040000F0B58EB0C0005C4BB2
:10110000C4180F23180207901803089018040990B8
:1011100018050A9018060B9018070C900E060D94EF
:1011200052D00120084045422F461F4088070590B5
:1011300000D5F0374807049001D507980743080702
:10114000039001D508980743C806029001D5099875
:1011500007438806019001D50A9807434806009086
:1011600003D530460B9E374306460696002E01D522
:101170000C9E37430D9C2468BC4317010598C61785
:101180003E401540354316020498C71737402F4399
:1011900015030398C6172E403E4315040298C7173F
:1011A0002F40374315050198C6172E403E431506BC
:1011B0000098C017284030431507069EF6172E40AA
:1011C000064326430D9C26600E04300E41D0C80510
:1011D000C7173B408805069000D5F03348050590B9
:1011E00001D5079803430805079001D508980343E4
:1011F000C80408902FD4880431D4490433D4002E75
:1012000001D50C9D2B4365689D431301069CE41793
:101210001C40174027431302059CE4171C403C4325
:101220001303079FFF171F4027431304089CE4176D
:101230001C403C431305C017184020431306C91730
:10124000194001431007F21702400A432A430D9840
:1012500042600EB0F0BD099803438804CDD50A9DC5
:101260002B434904CBD50B9D2B43002EC9D4CAE791
:101270002020024070B541098900234BC9180A6A31
:10128000D9691C46183C246807240C405D6819463F
:1012900014390968890501D4002110E01968C900D2
:1012A000CE0F1A49F140002D09D41D686D012D0F94
:1012B00000D1102569431D686D02AD0FE940641E21
:1012C000062C09D87C4424796400A7440C03030548
:1012D00005070A000D4906E0002104E00121C903C9
:1012E00001E07D2109021F2404400325A5402A4076
:1012F000E2402E2800D1921C9868052800D30520D2
:10130000C140D140084670BD1880084000127A00E4
:1013100070B50C4C2568002B01D0054300E08543D7
:10132000A668E0682560002B01D00E4300E08E43E4
:10133000A660002B02D01043E06070BD9043E060D7
:1013400070BDC04624800840002A03D002680A43CA
:101350000260704702688A4302607047F0B500235C
:101360000E251C4603E0090A10352E2D5AD0CE0753
:101370000ED18E0716D44E071ED40E0726D4CE06E5
:101380002ED48E0635D44E063CD40E06EBD542E064
:101390002E460E3E0327B7403B431746B7403C431B
:1013A0008E07E8D52E460C3E0327B7403B43174631
:1013B000B7403C434E07E0D52E460A3E0327B740D0
:1013C0003B431746B7403C430E07D8D52E46083E50
:1013D0000327B7403B431746B7403C43CE06D0D522
:1013E000AE1F0327B7403B431746B7403C438E062A
:1013F000C9D52E1F0327B7403B431746B7403C4390
:101400004E06C2D5AE1E0327B7403B431746B74032
:101410003C430E06A7D50326AE4033431646AE40E6
:101420003443A0E7416999434161416921434161E6
:10143000F0BDB0B5846825468D43C368012A04D049
:101440008B43002A04D10C4303E00B432C4600E0FD
:101450002C468460C360B0BD70B582B00646684655
:101460000022828000922E498D5D0124445501782E
:1014700021404378DB079B0F59188378DB075B0F0C
:10148000C918C078C007000F08180199C907C90E0C
:1014900040180004A1032346FFF73AFF0E48825D7F
:1014A00070001E490E5A28463146FFF725FEA80057
:1014B0001C490D586E62022228463146FFF7B9FFDB
:1014C000284631462246FFF749FF28463146224644
:1014D000FFF73AFF02B070BD803B000041000F4AA9
:1014E000515A0F4A105C80000E4A105841627047F2
:1014F00041000A4A515A0A4A105C8000094A1058B1
:10150000816270474100054A515A054A105C8000CB
:10151000044A1058026A4A4002627047863B000043
:10152000833B0000683B000006480168002908D1A1
:101530000168002905D10168002902D1016800294C
:10154000F3D07047980000204A1E9141C9000268FC
:1015500008239A43511801607047000070B584B0A9
:1015600013490025012428462A462346FFF7D0FECA
:101570000221072620463246FFF7BEFD20462146BF
:101580003246FFF7B9FD01A90D810A480290019585
:10159000334D284600F016F828462146FFF7D4FFC1
:1015A0007D20C100284600F06DF804B070BDC04633
:1015B00001400000A0860100016802220A43026087
:1015C00070470000F0B581B00D46044600688521E3
:1015D00088432978014368780843A978014321604A
:1015E0002889A06000261E48844203D01D488442FA
:1015F00004D102263046FFF73DFE06460320810354
:10160000206808400121CA03904207D0890388421C
:1016100007D0002808D10620009007E0092000909C
:1016200004E00820009001E00020009009207043B1
:10163000696814274F433946FFF75AF8E978009A4A
:101640005518401BC117884320610B207043394651
:10165000FFF74EF8401BC1178843606101B0F0BD31
:10166000008004400090044081B00022009200906D
:101670000098401800900098006801B070478161A0
:1016800070470000826A024B13400B43836270472D
:101690000000FFFF03689B0708D503689B0705D57B
:1016A00003689B0702D503689B07F3D4002A02D086
:1016B000012292021143C161704710B582B001A8A6
:1016C000002101704C200721012200F007FA4C2074
:1016D000052101AC224600F041F820780128F6D11E
:1016E00002B010BDF0B581B000920D4607464C2403
:1016F0000E21184E2046324600F030F8721C0D21A3
:10170000204600F02BF8B21C1021204600F026F8ED
:10171000F21C0F21204600F021F8321D1221204634
:1017200000F01CF8721D1121204600F017F87078A7
:101730003178090208183880F078B1780902081861
:10174000288070793179090208180099088001B061
:10175000F0BDC0469C00002070477047F0B583B0D4
:101760000292009101463E4C25460C3D002228463F
:101770000191FFF78FFF3B4F2068B84208D02068E7
:10178000B84205D02068B84202D02068B842F3D1F0
:101790001D204604301D2168814212D021688142FB
:1017A0000FD0216881420CD021688142F2D108E03B
:1017B0002068B04208D02068B04205D02068B0420E
:1017C00002D02068B042F3D128460099FFF757FFB6
:1017D0002068B04208D02068B04205D02068B042EE
:1017E00002D02068B042F3D101208202284601993C
:1017F000FFF750FF2068B84212D02068B8420FD0DF
:101800002068B8420CD02068B842F3D108E02168C3
:10181000814209D02168814206D02168814203D0EB
:10182000F81C21688142F2D119200004216881420C
:1018300008D02168814205D02168814202D0216808
:101840008142F3D1E068029908702846FFF7B4FEA0
:101850000C212846FFF708FF0003F9D403B0F0BDC0
:101860000C8004400100180009490A46103AC3B22E
:101870001360012212020B68134208D10B68134255
:1018800005D10B68134202D10B681342F3D07047A5
:10189000100004407047000002480168491C0160C4
:1018A0007047C04618010020F0B586B05948102195
:1018B000059101605849C86A402203921043C862EA
:1018C00056480268272A08D00268272A05D00268ED
:1018D000272A02D00268272AF3D10324A0020A6A29
:1018E00082430A620122D0020B6803430B604868FE
:1018F000000708D44868000705D44868000702D4E8
:1019000048680007F3D50868049420430423029331
:1019100098430860086B0724204003280BD0086B0D
:101920002040032807D0086B2040032803D0086B11
:1019300020400328EED13A4B186810430625019544
:10194000A843186000200090C86157020868B84397
:1019500008601302081F05681D4305600D6808260E
:10196000B5430D6005683D43056095020E682E4342
:101970000E604D686D0708D44D686D0705D44D683D
:101980006D0702D44D686D07F3D5CD6A039EB5434C
:10199000CD620F25ED054D6115074E692E434E6151
:1019A00005689D43056008683843086048688007FB
:1019B00008D44868800705D44868800702D448687E
:1019C0008007F3D5164D2868049B1843029B984363
:1019D00028600098C86108681043019B984308601C
:1019E000086B204001280BD0086B2040012807D04D
:1019F000086B2040012803D0086B20400128EFD15C
:101A00002868059908432860100329680143296064
:101A100006B0F0BD0C8108400480084008A10640D3
:101A20000002084000690840411E884170470000DC
:101A3000B0B50D460446406819490140E88808439E
:101A4000A98801432889084369890143616000200E
:101A500014498C420BDC012189078C4212D0F049D9
:101A60008C4211D013498C4215D1082011E00E4947
:101A70008C420BD00D498C420AD00D498C420AD1C0
:101A80001A2006E0182004E01C2002E00A2000E0F2
:101A90001E20FFF7EFFB2968FEF72AFE6062B0BD4B
:101AA000FCE0FFFFFFFF0340002004400010044063
:101AB0000000044000200040006880B270470160D0
:101AC000704710238B40002A03D0416819434160BE
:101AD000704741689943416070470000F0B581B09C
:101AE00000920E460146274F3C460C3C0022204601
:101AF000FFF7D0FD24483968814208D03968814217
:101B000005D03968814202D039688142F3D11D2065
:101B10004504281D3968814208D03968814205D0C2
:101B20003968814202D039688142F2D1204631467B
:101B3000FFF7A5FD3868A84208D03868A84205D04C
:101B40003868A84202D03868A842F3D120460099EC
:101B5000FFF795FD3868A84208D03868A84205D03C
:101B60003868A84202D03868A842F3D12046FFF76F
:101B700023FD0C212046FFF777FD0003F9D401B0C7
:101B8000F0BDC0460C80044001001800F0B589B0DB
:101B90003C4805683C4C28462146FEF7C0FBFEF752
:101BA00077FD089007917B48066830462146FEF78E
:101BB000B6FBFEF76DFD0490039130462946FEF713
:101BC000A6FB2146FEF7ABFBFEF762FD07460E467D
:101BD000724800682D490968FEF799FB2146FEF717
:101BE0009EFBFEF755FD04460D463846314601F092
:101BF0006DFE069005913846314601F067FE029071
:101C000001910898079901F0DFFD06460F460498F8
:101C1000039901F0D9FD02460B4630463946FEF7DE
:101C2000ABFC06460F462046294601F04FFE024611
:101C30000B4630463946FEF79FFC06460F462046C7
:101C4000294601F043FE02460B4630463946FEF770
:101C500093FC04460D4606980599029A019BFEF7EF
:101C60008BFC22462B46FEF7D5FB01F07DFE01F0F2
:101C70005BFC01229207064BFEF77EFCFEF71CFD83
:101C800009B0F0BDA400002000004040A8000020E2
:101C9000A6546841F0B581B06448664C2146FEF711
:101CA000C1FA002630462146FEF7BCFA30462146EE
:101CB000FEF7B8FA30462146FEF7B4FA01F06EFDA1
:101CC000FEF7FAFC07463149FEF766FBFEF7C7FC54
:101CD0000546642420466843FEF7B6FC01463846B4
:101CE000FEF715FB07462846FEF7AEFC05462849D9
:101CF0003846FEF751FB2946FEF7B8FA254D286015
:101D000030464C49FEF78EFA2349FEF774FA002854
:101D100004D10120C00729684140296000254549B8
:101D20002846FEF77FFA01F039FDFEF7C5FC0746AD
:101D30001649FEF731FBFEF792FC06464443204667
:101D4000FEF782FC01463846FEF7E1FA04463046CB
:101D5000FEF77AFC06460E492046FEF71DFB31468B
:101D6000FEF784FAE74C206028463249FEF75AFA1B
:101D70000949FEF740FA002801D001B0F0BD01206A
:101D8000C00721684140216001B0F0BD0000C84299
:101D90000000704210010020B33B0000140100203D
:101DA00080B5FFF761FD80BD70B59AB01C4C1DA5D4
:101DB00005E001A82946FEF703FA002817D101A87B
:101DC0006421FEF7F2F9002620212046FFF72AFEC3
:101DD0000028F9D02046FFF76FFE01A98855C0B250
:101DE0000A28E6D0701C632E0646EDD1E1E7BE4816
:101DF00001A9FEF70EFA0E480E4C2146FEF712FA24
:101E0000002528462146FEF70DFA28462146FEF712
:101E100009FA0949FEF7EFF9414248411AB070BD8D
:101E20000010004024474E524D430000AC000020FB
:101E300034000020AF3B0000B13B0000F0B585B09E
:101E4000A648A749A74AFFF74DFCFFF7ADFF0120C1
:101E50000402A54E3078A54D002812D00027F65D6B
:101E600028462146FFF7DEFD0028F9D028463146F6
:101E7000FFF725FE7F1C9C4E3046FEF7B5F98742E2
:101E8000EDD3FFF791FF002801D09A4A00E0984A6D
:101E900001AE9949304600F041FB3078002812D05D
:101EA000002701A8C65D28462146FFF7BBFD002894
:101EB000F9D028463146FFF702FE7F1C01A8FEF745
:101EC00093F98742EDD3FFF7E5FE8C480068FEF7F3
:101ED000DFFB02460B4601AE8949304600F01EFB8F
:101EE0003078002812D0002701A8C65D2846214678
:101EF000FFF798FD0028F9D028463146FFF7DFFDAF
:101F00007F1C01A8FEF770F98742EDD37D48006879
:101F1000FEF7BEFB02460B4601AE7949304600F0A3
:101F2000FDFA3078002812D0002701A8C65D2846A7
:101F30002146FFF777FD0028F9D028463146FFF704
:101F4000BEFD7F1C01A8FEF74FF98742EDD3FFF7D6
:101F50001DFEFEF79DFB02460B4601AE684930466A
:101F600000F0DCFA3078002812D0002701A8C65D06
:101F700028462146FFF756FD0028F9D0284631466D
:101F8000FFF79DFD7F1C01A8FEF72EF98742EDD3D8
:101F90000027524EF15F5248C25F5248C35F5AA0B9
:101FA00000F0ACFAF25F01AE5E49304600F0B6FADE
:101FB0003078002811D001A8C65D28462146FFF7D9
:101FC00031FD0028F9D028463146FFF778FD7F1C07
:101FD00001A8FEF709F98742EDD300274048C25F08
:101FE00001AE5049304600F099FA3078002811D0FF
:101FF00001A8C65D28462146FFF714FD0028F9D048
:1020000028463146FFF75BFD7F1C01A8FEF7ECF880
:102010008742EDD300273348C25F01AE41493046C5
:1020200000F07CFA3078002811D001A8C65D28465F
:102030002146FFF7F7FC0028F9D028463146FFF784
:102040003EFD7F1C01A8FEF7CFF88742EDD336484E
:1020500000BF00BF00BF00BF00BF00BF00BF00BF88
:1020600000BF00BF00BF00BF00BF00BF00BF00BF78
:1020700000BF00BF00BF00BF00BF00BF00BF00BF68
:1020800000BF00BF00BF00BF00BF00BF00BF00BF58
:1020900000BF00BF00BF00BF00BF00BF00BF00BF48
:1020A00000BF00BF00BF00BF00BF00BF00BF00BF38
:1020B00000BF00BF00BF00BF00BF00BF00BF00BF28
:1020C00000BF00BF00BF00BF00BF00BF00BF00BF18
:1020D00000BF00BF4238BBD105B0F0BD18000020E2
:1020E0001A0000201C000020AC000020000004406A
:1020F000993B0000913B0000AA3B0000100100202A
:10210000A33B0000140100204178203D2025642CD1
:10211000204179203D2025642C20417A203D202536
:10212000640D0A008C3B0000E08DF901024800F0CC
:1021300005F8FFF783FEFCE720000020F0B587B02C
:102140000290DE4800687D21C900FEF7D1FA401EEA
:10215000010E0DD1DA49DB4A5060DB4803680B40C1
:102160000321890759180160002090600720106042
:1021700000242046FFF770F901273846FFF76CF975
:1021800002252846FFF768F92046FFF7B1F93846DF
:10219000FFF7A4F92846FFF7ABF97804112189026B
:1021A0003B46FFF7B5F83E02C84831462246FFF7E6
:1021B00040F980210625039538462A46FEF79CFF04
:1021C000384631462A46FEF797FF069405964B207F
:1021D000C0010490BE4D04A92846FFF729FC2846FB
:1021E00021463A46FFF76DFC284639463A46FFF746
:1021F00068FC38040190412109023B46FFF788F84A
:10220000B448082100912246FFF713F90421204623
:10221000039D2A46FEF770FF204600992A46FEF7E6
:102220006BFF06940596E120400200900490BD07E4
:1022300004A92846FFF7FCFB284621463A46FFF74B
:1022400040FC284639463A46FFF73BFC2120410234
:1022500001983B46FFF75CF8202101919D482246FA
:10226000FFF7E7F810212046039D2A46FEF744FFBA
:10227000204601992A46FEF73FFF069405960098EE
:102280000490954D04A92846FFF7D2FB2846214625
:102290003A46FFF716FC284639463A46FFF711FC46
:1022A000FFF75CF9FFF709FA8C4801F0D9FA029FB1
:1022B00038600390002826D0884801F0D1FAB86031
:1022C000002869D0642001F0CBFA3861002800D1E1
:1022D000ABE083A11522039F3846FDF74DFF3F5D1C
:1022E00028463146FFF79EFB0028F9D0284639469C
:1022F000FFF7E5FB641C039F3846FDF775FF84423A
:10230000EDD307B0F0BD7C4800BF00BF00BF00BFE9
:1023100000BF00BF00BF00BF00BF00BF00BF00BFC5
:1023200000BF00BF00BF00BF00BF00BF00BF00BFB5
:1023300000BF00BF00BF00BF00BF00BF00BF00BFA5
:1023400000BF00BF00BF00BF00BF00BF00BF00BF95
:1023500000BF00BF00BF00BF00BF00BF00BF00BF85
:1023600000BF00BF00BF00BF00BF00BF00BF00BF75
:1023700000BF00BF00BF00BF00BF00BF00BF00BF65
:1023800000BF00BF00BF00BF00BF00BF4238BBD1CD
:102390000020FFF7B7F8FEE7574800BF00BF00BFB7
:1023A00000BF00BF00BF00BF00BF00BF00BF00BF35
:1023B00000BF00BF00BF00BF00BF00BF00BF00BF25
:1023C00000BF00BF00BF00BF00BF00BF00BF00BF15
:1023D00000BF00BF00BF00BF00BF00BF00BF00BF05
:1023E00000BF00BF00BF00BF00BF00BF00BF00BFF5
:1023F00000BF00BF00BF00BF00BF00BF00BF00BFE5
:1024000000BF00BF00BF00BF00BF00BF00BF00BFD4
:1024100000BF00BF00BF00BF00BF00BF00BF423809
:10242000BBD10020FFF76EF8FEE7334800BF00BFC6
:1024300000BF00BF00BF00BF00BF00BF00BF00BFA4
:1024400000BF00BF00BF00BF00BF00BF00BF00BF94
:1024500000BF00BF00BF00BF00BF00BF00BF00BF84
:1024600000BF00BF00BF00BF00BF00BF00BF00BF74
:1024700000BF00BF00BF00BF00BF00BF00BF00BF64
:1024800000BF00BF00BF00BF00BF00BF00BF00BF54
:1024900000BF00BF00BF00BF00BF00BF00BF00BF44
:1024A00000BF00BF00BF00BF00BF00BF00BF00BF34
:1024B0004238BBD10020FFF725F8FEE714000020CA
:1024C000FFFFFF0010E000E020ED00E000200B40E7
:1024D0000010004000000B4000000440A406000073
:1024E0005365747570207375636365737366756C7B
:1024F0006C79210A00000000308E32000FB410B554
:1025000003A9044B044A029800F06CFC10BC08BC00
:1025100004B01847A11D0000040000200FB410B53E
:1025200004A9074B02AA039800F05CFC044602A928
:10253000002000F0F3FF204610BC08BC04B0184790
:102540001D3500002021020C01D010211046020A86
:1025500001D010460839020901D01046091F82082F
:1025600001D01046891E420801D0881E7047081A03
:102570007047F0B4040C8BB2264682B25E430D0C59
:102580001046370C5843360480190021794116460D
:102590006E43370C36048019794126466E438919FB
:1025A000F0BC70474900CA020243100000D004206A
:1025B0004A0D01D001221043044A490D914201D134
:1025C00002210843012800D105207047FF070000C1
:1025D000F7B596B014460021A160D1601799099112
:1025E0004D00CD496D088D4205DC17996160206072
:1025F000002019B0F0BDC949C94E8D4238DAD32741
:1026000009997F050029C74A1799334617DDFDF759
:10261000A5FFB54206D0C44AC44BFDF79FFF6160D9
:10262000206009E03A46C14BFDF798FFC04AC14B14
:10263000FDF794FF61602060012019B0F0BDFDF747
:10264000E9FEB54206D0B84AB84BFDF7E3FE61603B
:10265000206009E03A46B54BFDF7DCFEB44AB54BC5
:10266000FDF7D8FE616020600020C04319B0F0BDC6
:10267000B1498D42179977DC490049080746AF4AAE
:10268000AF4B0491FDF778FF0022AE4BFDF7C2FE81
:10269000FEF7D6FC0A90FEF7B1FCA24A334603913E
:1026A0000290FDF769FF3A46049BFDF75DFF064681
:1026B0000F469D4A9D4B03990298FDF75DFF2A0D39
:1026C00001250C9232463B46FDF74EFF61602060CB
:1026D000032D39D04800410D0C98401A6901691842
:1026E0001139814230DA98492801794408960D90D1
:1026F000081804974368026803990298FDF73CFFA5
:1027000002460B460791069004990898FDF726FFAC
:1027100006460F46049B089AFDF726FF079B069A7C
:10272000FDF71CFF05918949049079440D984018E4
:10273000C368826803990298FDF71EFF059B049AFF
:10274000FDF70CFF6D1CBDE70998002809DA01228E
:102750006068D207504060600A9819B04042F0BDEE
:1027600002E00A9819B0F0BD09030122090B120515
:102770000E9089181798109140007549400D401827
:102780004111C006C00E0D9113902021081A14901B
:102790000020069005250790139800280D980CD06E
:1027A000401982006B487844875813998F4010185D
:1027B00041681498C1400F4304E040198100664805
:1027C0007844475810993846FFF7D3FE06460A91D9
:1027D00038460E99FFF7CDFE8A190A9B8A4201D22C
:1027E000012100E00021C9188C46AF006946791824
:1027F0008B684E68C318834201D2012000E000209C
:1028000096193618002802D0964202D903E0964263
:1028100001D2012000E00020624612184E60684696
:102820008B60C25128466D1E0028B5DC012102983C
:1028300049074018800F1390029805998000039E65
:10284000049D0B91FEF7DAFB074630460891FEF730
:10285000E9FB1D22D243FEF72FF910900F91284675
:10286000FEF7E0FB3D22D243FEF726F90E900D91D4
:102870000B98FEF7D7FB5D22D243FEF71DF90B91B3
:102880000C900D9B0E9AFDF7C5FD0F9B109AFDF75E
:10289000C1FD3A46089BFDF7BDFD00250E463A46B0
:1028A0002846089BFDF75AFE0F9B109AFDF756FE2F
:1028B0000D9B0E9AFDF752FE0B9B0C9AFDF754FEF2
:1028C000264A274BFDF758FE07460D91254A264B11
:1028D00031462846FDF750FE3A460D9BFDF79AFD1E
:1028E0000F4615220C9092061D4B31462846FDF7E7
:1028F00043FE3B460C9AFDF78DFD179A002A05DA38
:10290000139A524213920122D20751406160206013
:10291000139819B0F0BD0000FB21E93F7CD90240BB
:10292000FB21F93F000040543163621A61B4D03D8D
:102930007370032E8A19A33BFB21394183C8C96DEB
:10294000305FE43F0000E03F42130000021300004C
:102950000BFCFFFFB61200009C120000182D44541F
:10296000FB21F93D3326A611460B113CF0B51FB4EF
:102970004E00F9207608800584B00F46864204DABE
:102980000498FEF75DFB002838D0049A3B461046B9
:102990001946FDF7F1FD044602462C480D460B464C
:1029A0000621784400F05CF822462B46FDF7E4FD52
:1029B000019100903946079B069A0498FDF7DCFDCB
:1029C0000746029120462946019B009AFDF7D4FD57
:1029D0003A46029BFDF7C2FD074600220091D24312
:1029E00020462946FEF768F8194A96420ADA3A461E
:1029F000009BFDF7B3FD0022164B23E00020154994
:102A000009B0F0BD144A964202DD0024134D03E0E4
:102A100001225205B51A002422462B46FDF79EFDE1
:102A20000646019122462B4600200A49FDF796FDF5
:102A30000D4604463A463046009B0199FDF78EFD4F
:102A400022462B46FDF790FD09B0F0BD5A1000005C
:102A50003333D33F0000F03F0000E93F0000D23F96
:102A6000F8B504464F1EC8000838211815461E4602
:102A7000086849683A4606239A4310D02A463346E6
:102A8000FDF77AFD3A46D200083AA3181A687F1E6D
:102A90005B68FDF7BFFC06223B469343EED1022F55
:102AA00023D0042F11D0062F2FD12A463346FDF70D
:102AB00063FDE36AA26AFDF7ADFC2A463346FDF7E3
:102AC0005BFD636A226AFDF7A5FC2A463346FDF7E3
:102AD00053FDE369A269FDF79DFC2A463346FDF7E5
:102AE0004BFD63692269FDF795FC2A463346FDF7E5
:102AF00043FDE368A268FDF78DFC2A463346FDF7E7
:102B00003BFD63682268FDF785FCF8BDF0B51FB496
:102B1000054648000C46F9214008890586B08842E0
:102B20000BDA28462146FFF73DFD042801D100F0CD
:102B300071F8284621460BB0F0BD2A4623461046C0
:102B40001946FDF719FD06460F462A462346FDF7AE
:102B500013FD00902548019132463B4605217844FB
:102B6000FFF77EFF029010980391002829D0204A99
:102B7000204B01990098FDF7FFFC049005916846F1
:102B80000FC8FDF7F9FC002201910090D24309998A
:102B90000898FDF791FF019B009AFDF7DFFC324694
:102BA0003B46FDF7E9FC099B089AFDF7D7FC059B1E
:102BB000049AFDF7D3FC2A462346FDF7D5FC0BB05B
:102BC000F0BD0B4630463946029AFDF7D5FC084A5F
:102BD000084BFDF71FFC019B009AFDF7CDFC2A4630
:102BE0002346FDF717FC0BB0F0BD00009E0F000060
:102BF000495555555555C5BF10B50122FDF75CFF28
:102C000010BD002210B5134610461146FDF7DCFE3C
:102C100010BD0000034A10B500201107FDF74CFF5E
:102C200010BD000001FDFFFF014800687047000073
:102C30001000002002E008C8121F08C1002AFAD1C3
:102C400070477047002001E001C1121F002AFBD12C
:102C50007047000001490860704700001000002024
:102C6000F0B51FB486B00998089A030D00210243FD
:102C700014D05148514A181850430514119801288E
:102C800010981AD0281A401C00264D4F4D49009626
:102C900001910490002812DA444211E011980124B5
:102CA00049A3012801D11098C1430698119A846064
:102CB0000360C26041600BB0F0BD4042E4E70446EF
:102CC000210500203F4A001C51410391029012E06F
:102CD000E00707D032463B4601990098FDF74CFCCF
:102CE0000191009032463B4610461946FDF744FCE0
:102CF00006460F466410002CEAD10498039B002876
:102D0000029A0999089806DAFDF736FC019B009AA9
:102D1000FDF732FC05E0FDF757FE019B009AFDF739
:102D200053FE04460E460022284BFDF74DFF03D804
:102D30000020C043014607E00022254B20463146D3
:102D4000FDF768FBFDF720FF102409E0002C0ADBEB
:102D50000A220023FDF7EBFC079B30321A55641E54
:102D600002460A43F2D11122641C079B121B1C1954
:102D7000119B012B03D0012308430ED10AE0084325
:102D800004D0112010900020119077E71098151AA8
:102D90006D1E0BE01098824202DD00236D1C03E0E3
:102DA000824201DA00236D1E002BEED006981199A5
:102DB0008260C16030C07EE701FCFFFF104D000063
:102DC000000014400000F03F300000000000F0431D
:102DD0000000E03F30380A2801D20120704700206F
:102DE00070470000FFB597B00646002518E2252879
:102DF00077D100242746FD49049400E00443761C63
:102E000032780120203A90400842F7D130782A28C1
:102E10000ED00222307801463039092916D804999B
:102E20000A235943303940181443761C0490F1E7C3
:102E3000189802C804911890002904DA0120400370
:102E400004434842049002200443761C30782E2824
:102E500014D1042004437078761C2A2809D11898CC
:102E6000761C80C8189009E00A214F43303FC719EB
:102E7000761C3078014630390929F5D930786C282C
:102E800010D006DC4C281AD068280ED06A2817D13A
:102E900004E0742813D07A2812D110E001204005F4
:102EA00004430CE00121090501E0032109050C435D
:102EB0007178814203D1012000052418761C761C0C
:102EC0003078119066280BD013DC58287DD009DCAF
:102ED00000287BD04528F6D04628F4D047281AD1C0
:102EE000A5E118E0632835D0642870D0652812D198
:102EF0009DE170286CD008DC6728F1D069287BD070
:102F00006E280DD06F2806D1BAE073282ED0752810
:102F100071D0782859D01A9A199990476D1C7EE182
:102F20006002400F022809D003280DD00428189809
:102F300001680DD00D60001D189070E11898EA1717
:102F400001680D604A60F6E7189801680D80F2E7A5
:102F50000D70F0E718986A4601781172001D1890FC
:102F60000020507202A80090012005E0189802C8C5
:102F7000189000200091C04361070DD5002101E0A9
:102F80000199491C0191B94212DA8142F8DB009A99
:102F9000515C0029F4D10BE0002101E00199491CAA
:102FA00001918142FADB019A0099895C0029F5D1EF
:102FB000019904981A9B471A21463846199A00F03D
:102FC00097FA0199401945180BE04FE02CE113E006
:102FD0004EE0009800990078491C00911A9A1999BE
:102FE00090470198401E0190401CF2D1214638467E
:102FF0001A9B199A10E137E00A20002100900191F4
:103000006002410F022907D0189A01CA1892C2170C
:103010009446032908D00AE01898C01DC108C900C9
:1030200005C91891944607E000B2C21794460429D6
:1030300002D140B2C1178C4600226146944506DA9F
:103040000A460021404291418C462D2102E0210593
:1030500004D52B216A461173012103E0E10701D059
:103060002021F7E7029155E00A200AE0102008E04D
:10307000102000900021042004430191082703E060
:1030800008200021019100906002410F022907D021
:10309000189A01CA189200229446032908D008E021
:1030A0001898C01DC108C90005C91891944603E0CD
:1030B00080B2042900D1C0B200210291210729D594
:1030C0001199702906D0009A1021019B4A401A4399
:1030D00005D00EE040216A461173012108E06146E7
:1030E000014306D030216A461173119951730221B0
:1030F0000291009A0821019B4A401A430AD1614675
:10310000014301D1610705D530216A4611730121C0
:103110007F1E02911199582904D035A10E910DA955
:103120000D910DE037A1F9E76146019B009AFDF78B
:10313000FEFA0E9B8C469B5C0D9A521E0D921370EC
:1031400061460143F0D10D9805A9081A203001907D
:10315000600703D501200004844300E001270198A3
:10316000874201DD381A00E00020019900904118E3
:10317000029809180498401A0490E00306D42146E6
:103180001A9B199A049800F0B3F94519002706E034
:1031900003A81A9AC05D199990476D1C7F1C02986C
:1031A0008742F5DBE0030CD521461A9B199A049857
:1031B00000F09EF9451904E01A9A302019999047B9
:1031C0006D1C0099481E00900029F5DC08E00D9860
:1031D0000D990078491C0D911A9A199990476D1C08
:1031E0000199481E01900029F1DC63E109280100E2
:1031F000303132333435363738396162636465666D
:10320000000000003031323334353637383941422E
:10321000434445460000000000F05AF94519761C69
:103220003078002800D0E2E528461BB0F0BD6007EA
:1032300000D406271898C01DC108C90048680A684C
:103240000831C30FDB071891190001D09CA108E0D9
:10325000210501D59BA104E0E10701D09AA100E07E
:103260009AA1430011985B08109165280CD006DCE8
:10327000452809D046281DD0472841D141E066287D
:1032800018D067283CD13CE00021112F01DB112030
:1032900000E0781C0191009008A911A8FFF7E0FC5C
:1032A000139905910021119A15927F1C129801978C
:1032B000009150E00120C00703900120019008A96F
:1032C000009711A8FFF7CCFC139A149905920022DD
:1032D000119B009212981593059A0192002901D032
:1032E000104602E0791C40180190381A01D5019867
:1032F00004E04042401E0090781C0190C01B0290E8
:1033000043E0012F00DA01270021112F01DD1120F8
:1033100000E038460191009008A911A8FFF7A0FC31
:1033200013990591119A0021129815920091019715
:1033300021070CD40599B94201DB019900E0019104
:10334000012904DD159A491E515C302906D0B84286
:1033500001DA011D05DA0121029115E00199491EEA
:10336000EDE7002805DC0099411800910199091A40
:1033700003E0019A411C914200DD01910099401A3D
:10338000401C02900120C0070390200706D4029938
:103390000198814202DB0020C04302900020694670
:1033A000C87707AF012103980337C907884224D0A3
:1033B000022011902B201290039800280CDA404232
:1033C00003902D20129007E00A210398FDF790F951
:1033D00030317F1E039039701199481E11900029D9
:1033E000F2DC03980028EFD1791E1298087030782B
:1033F000202108404530BF1E387006A8C01BC01DE4
:10340000039010980078002800D0012001994118FD
:103410000298C0170918039809180498401A401E0A
:103420000490E00306D421461A9B199A049800F0F0
:103430005FF8451910980078002803D01A9A199956
:1034400090476D1CE00324D521461A9B199A0498D5
:1034500000F04EF845191CE00098002807DB0099A1
:103460000598884203DD1598405C199901E0199987
:1034700030201A9A904700986D1C401C00900298CA
:10348000401E0290002804D11A9A2E2019999047C4
:103490006D1C0199481E01900029DDDC05E038789B
:1034A0001A9A7F1C199990476D1C0399481E039026
:1034B0000029F4DC21461A9B199A0498ACE6000016
:1034C0002D0000002B000000200000000000000084
:1034D000F8B5044600251E461746880404D405E0C6
:1034E00039462020B0476D1C641EF9D52846F8BD2A
:1034F000FFB50446002581B01E46C80301D530271C
:1035000000E02027880404D505E038460399B04739
:103510006D1C641EF9D5284605B0F0BD0A68531C21
:103520000B60107070470000F0B504464F008E48E5
:103530008FB07F080D460D91874228DB4042381836
:1035400020430CD08948874203DC874218D1002CE5
:1035500016D020462946FFF74FFB0FB0F0BD844A36
:10356000844B20462946FDF707F807460E46824A57
:10357000824B20462946FCF7FFFF3A46334649E096
:103580000120FFF767FBFFF73CFB0FB0F0BD7C4865
:10359000874243DAF920800587420BDA2046294624
:1035A000FFF700F8042801D1FFF734FB2046294635
:1035B0000FB0F0BD22462B4610462946FCF7DCFF33
:1035C000064602466F480F460B4606217844FFF731
:1035D00047FA32463B46FCF7CFFF06906A48079110
:1035E00032463B4604217844FFF73AFA32463B46DE
:1035F000FCF7C2FF00225C4BFCF70CFF02460B46B7
:1036000007990698FDF7E0F922462B46FCF7B4FF30
:1036100022462B46FCF7FEFE0FB0F0BD2046524C72
:103620006900490800222346FCF79EFF0022D2438E
:10363000FDF742FA0546024654480E460B4606215F
:103640007844FFF70DFA2A463346FCF795FF0690BB
:103650004F4807912A46334604217844FFF700FA81
:103660002A463346FCF788FF00222346FCF7D2FEA9
:10367000059104902846314600F076F908904548B7
:103680000C46874219DB059B049A07990698FDF7BB
:103690009BF902460B4621460898FCF76DFF23462E
:1036A000089AFCF7B7FE0122FDF706FA304A314BC3
:1036B000FCF754FF304A314B4AE000273A460B46AC
:1036C0000898FCF7A7FE3A4623460A910E9010464A
:1036D0001946FCF751FF2A463346FCF745FF0A9B83
:1036E0000E9AFDF771F905460E46059B049A079957
:1036F0000698FDF769F900910490012228463146A9
:10370000FDF7DAF91A4A1B4BFCF72EFF0E46054669
:10371000012221460898FDF7CFF9009B049AFCF797
:103720002BFF2A463346FCF719FF05460E460122B9
:1037300038462146FDF7C0F90F4C174F22463B464D
:10374000FCF712FF2A463346FCF70EFF22463B46A3
:10375000FCF70AFF0D9A002A00DD5DE70122D2077F
:1037600051400FB0F0BD00000000F03F0000F07FBE
:10377000075C143326A6913C182D4454FB21F93FD5
:103780000000E03FE0030000F60300006C030000CF
:10379000820300003333EF3FFB21E93F30B583B0B4
:1037A0000446FFF741FA05460020009002460190CA
:1037B000012321466846FDF72DF82846FFF74AFA0F
:1037C0000199009803B030BD00B54A00224B520861
:1037D00087B09A4202DC0022134625E01F4B9A4232
:1037E00008D1002808D10120FFF734FAFFF709FAC1
:1037F00007B000BD9A4203DBFFF7FEF907B000BD3A
:1038000002AAFEF7E5FE8107890F0BD001200129EE
:103810000ED0022916D0009002A80FC8FFF776F943
:1038200007B000BD02A80FC8FFF7A0F807B000BDA1
:10383000009002A80FC8FFF769F90122D207514092
:1038400007B000BD02A80FC8FFF790F80122D20709
:10385000514007B000BD0000FB21E93F0000F07FB0
:10386000F0B50B30C108C900144F0026144A0FE010
:1038700003688B420BD38B4205D95C1A4318456809
:1038800030C3083B00E04368136002C004E0021D3F
:1038900010680028ECD13046002803D13868002891
:1038A00001D00020F0BD064A06481060064A121AF0
:1038B000D208D20044C001203860D7E70C000020B5
:1038C00008000020240100202001002000B54A004B
:1038D000234B520887B09A4203DC00221346009221
:1038E00029E0204B9A4208D1002808D10120FFF797
:1038F000B1F9FFF786F907B000BD9A4203DBFFF785
:103900007BF907B000BD02AAFEF762FE8107890FAE
:10391000012000290CD0012911D0022915D002A8BC
:103920000FC8FFF723F80122D207514007B000BDAE
:10393000009002A80FC8FFF7E9F807B000BD02A881
:103940000FC8FFF713F807B000BD009002A80FC81A
:10395000FFF7DCF80122D207514007B000BD00009C
:10396000FB21E93F0000F07FF8B506460C46FDF765
:10397000B9F8051E0F4600D00120014349000B484D
:103980004908411AC90F0DD0002E01D0012100E0D5
:1039900000210C4361004908401AC00F02D10120E8
:1039A000FFF758F928463946F8BD00000000F07FBF
:1039B000555555555555C53F7D6FEB0312D6D4BFB0
:1039C0005544880E55C1C93F3B8F68B52882A4BFB6
:1039D00088B20175E0EF493F09F7FD0DE13D023F77
:1039E0004B2D8A1C273A03C0C88A599CE52A0040FF
:1039F00059018D1B6C06E6BF82922EB1C5B8B33F4C
:103A00004C5555555555A53F7751C1166CC156BFFC
:103A10009015CB19A001FA3EAD529C804F7E92BE0C
:103A2000C4B1B4BD9EEE213ED43888BEE9FAA8BD2B
:103A300000004054FB21F93F3163621A61B4D03D6C
:103A40000000601A61B4D03D7370032E8A19A33B45
:103A50000000002E8A19A33BC14920259A837B3997
:103A600000000000000000006E83F9A22915444EFA
:103A7000D15727FCC0DD34F5999562DB4190433C7A
:103A8000AB6351FE61C5BBDE3A6E24B7E0D24D4256
:103A9000EA2E49061C92D1091CEB1DFE3EA729B156
:103AA000F53582E88444BB2E26709CE9417E5FB4E4
:103AB00039D69139F43953838B5F849C3B28F9BD07
:103AC000FF97F81F0F9805DE8B112FEF1F6D0A5A15
:103AD000CF7E366DB709CB27663F464F2DEA5F9EF6
:103AE000C7BA27757BF1E5EBF739073DEA92528AB1
:103AF000B15FFB6B085D8D1F463003560000000070
:103B0000A6F810111111813FD561C119A0012ABF7A
:103B10007DFEB157E31DC73EEB9C2B8AE6E55ABEFE
:103B20007CD5CF5A3AD9E53DDDDDDDDDDCBBBBDD43
:103B3000DDDDDDDDDDDDDDDD98888888888888884D
:103B4000777777777788888885555556666666666D
:103B5000666666666668888883333332222222224C
:103B6000222222222228888D00000B4000200B40B8
:103B700000400B4000600B4000800B400000000044
:103B800001010102020100010002800025640D0A0A
:103B90000056616C69640D0A00496E76616C696457
:103BA0000D0A00252E36660D0A0025730D0A002C1D
:103BB0000041005300000000D83B0000000000203E
:103BC00018000000342C0000F03B0000180000201A
:103BD00008030000442C000000000000000000006A
:103BE00000000000000000000000000000879303B8
:04000005000000C136
:00000001FF
