:020000040000FA
:10000000B8020020C1000000270C00000D0600000F
:10001000FFFFFFFFFFFFFFFFFFFFFFFFFFFFFFFFF0
:10002000FFFFFFFFFFFFFFFFFFFFFFFF690D000066
:10003000FFFFFFFFFFFFFFFF390D00006B0D00000A
:1000400035010000350100003501000035010000D8
:1000500035010000350100003501000035010000C8
:1000600035010000350100003501000035010000B8
:1000700035010000350100003501000035010000A8
:100080003501000035010000350100003501000098
:100090003501000035010000350100003501000088
:1000A0003501000035010000350100003501000078
:1000B000350100003501000035010000290C000069
:1000C0001D4880471D4880471D4800471D4801695D
:1000D000002908D14169002905D18169002902D18F
:1000E000C169002909D01848C1680901090D002912
:1000F0000ED005290CD006290AD0BFF34F8F134824
:100100001349016013491248C860BFF34F8FFEE7DF
:100110000E4801680E48884200D070470E480F49CB
:1001200001600A480E4901607047FEE7FEE7FEE7FE
:10013000FEE7FEE7FEE70000CD0000006D0D0000C9
:100140006501000000030840800108400000002015
:100150000400FA0500ED00E0008108400100000005
:10016000000000000348854600F026F800480047DC
:1001700051100000B802002070B50446002903D0D9
:1001800000202022012310E0002801D00020C043DD
:10019000C046C0460DE02546D5408D4205D30D46EC
:1001A0009540641B1D46954040191546521E002D72
:1001B000F1DC214670BD0000064C0125064E05E02D
:1001C000E36807CC2B430C3C98471034B442F7D378
:1001D000FFF7CCFFF012000010130000F0B58EB056
:1001E000C0005C4BC4180F23180207901803089036
:1001F0001804099018050A9018060B9018070C901F
:100200000E060D9452D00120084045422F461F4053
:100210008807059000D5F0374807049001D5079866
:1002200007430807039001D508980743C8060290C2
:1002300001D5099807438806019001D50A9807431C
:100240004806009003D530460B9E37430646069677
:10025000002E01D50C9E37430D9C2468BC4317012A
:100260000598C6173E401540354316020498C71737
:1002700037402F4315030398C6172E403E431504FD
:100280000298C7172F40374315050198C6172E400F
:100290003E4315060098C017284030431507069EB8
:1002A000F6172E40064326430D9C26600E04300EA2
:1002B00041D0C805C7173B408805069000D5F033EC
:1002C0004805059001D5079803430805079001D517
:1002D00008980343C80408902FD4880431D44904F3
:1002E00033D4002E01D50C9D2B4365689D4313012B
:1002F000069CE4171C40174027431302059CE41793
:100300001C403C431303079FFF171F402743130460
:10031000089CE4171C403C431305C01718402043B9
:100320001306C917194001431007F21702400A4388
:100330002A430D9842600EB0F0BD0998034388042B
:10034000CDD50A9D2B434904CBD50B9D2B43002EC5
:10035000C9D4CAE72020024070B541098900234B67
:10036000C9180A6AD9691C46183C246807240C403D
:100370005D68194614390968890501D4002110E027
:100380001968C900CE0F1A49F140002D09D41D6823
:100390006D012D0F00D1102569431D686D02AD0F51
:1003A000E940641E062C09D87C4424796400A744E3
:1003B0000C03030505070A000D4906E0002104E0CF
:1003C0000121C90301E07D2109021F240440032506
:1003D000A5402A40E2402E2800D1921C98680528AA
:1003E00000D30520C140D140084670BD18800840A8
:1003F00000127A0070B50C4C2568002B01D0054323
:1004000000E08543A668E0682560002B01D00E431C
:1004100000E08E43A660002B02D01043E06070BD68
:100420009043E06070BDC04624800840002A03D09D
:1004300002680A430260704702688A43026070479C
:10044000F0B500230E251C4603E0090A10352E2DB9
:100450005AD0CE070ED18E0716D44E071ED40E07E3
:1004600026D4CE062ED48E0635D44E063CD40E06A7
:10047000EBD542E02E460E3E0327B7403B431746DE
:10048000B7403C438E07E8D52E460C3E0327B740C5
:100490003B431746B7403C434E07E0D52E460A3E45
:1004A0000327B7403B431746B7403C430E07D8D518
:1004B0002E46083E0327B7403B431746B7403C4310
:1004C000CE06D0D5AE1F0327B7403B431746B740F3
:1004D0003C438E06C9D52E1F0327B7403B43174622
:1004E000B7403C434E06C2D5AE1E0327B7403B4340
:1004F0001746B7403C430E06A7D50326AE4033430C
:100500001646AE403443A0E74169994341614169D1
:1005100021434161F0BDB0B5846825468D43C36871
:10052000012A04D08B43002A04D10C4303E00B437F
:100530002C4600E02C468460C360B0BD70B582B02C
:10054000064668460022828000922E498D5D012475
:100550004455017821404378DB079B0F5918837875
:10056000DB075B0FC918C078C007000F0818019996
:10057000C907C90E40180004A1032346FFF73AFF3C
:100580000E48825D70001E490E5A28463146FFF71C
:1005900025FEA8001C490D586E62022228463146ED
:1005A000FFF7B9FF284631462246FFF749FF2846A4
:1005B00031462246FFF73AFF02B070BD8C120000B0
:1005C00041000F4A515A0F4A105C80000E4A1058E1
:1005D0004162704741000A4A515A0A4A105C800041
:1005E000094A1058816270474100054A515A054A2C
:1005F000105C8000044A1058026A4A400262704748
:10060000921200008F120000741200000648016868
:10061000002908D10168002905D10168002902D10B
:1006200001680029F3D070470800002010B5014C84
:10063000204601E0807BE1FF00BF00BF00BF00BF9C
:1006400000BF00BF00BF00BF00BF00BF00BF00BFB2
:1006500000BF00BF00BF00BF00BF00BF00BF00BFA2
:1006600000BF00BF00BF00BF00BF00BF00BF00BF92
:1006700000BF00BF00BF00BF00BF00BF00BF00BF82
:1006800000BF00BF00BF00BF00BF00BF00BF00BF72
:1006900000BF00BF00BF00BF00BF00BF00BF00BF62
:1006A00000BF00BF00BF00BF00BF00BF00BF00BF52
:1006B00000BF00BF00BF00BF4030BDD10020FFF72A
:1006C00093FF0120FFF790FF0220FFF78DFF2046E8
:1006D00000BF00BF00BF00BF00BF00BF00BF00BF22
:1006E00000BF00BF00BF00BF00BF00BF00BF00BF12
:1006F00000BF00BF00BF00BF00BF00BF00BF00BF02
:1007000000BF00BF00BF00BF00BF00BF00BF00BFF1
:1007100000BF00BF00BF00BF00BF00BF00BF00BFE1
:1007200000BF00BF00BF00BF00BF00BF00BF00BFD1
:1007300000BF00BF00BF00BF00BF00BF00BF00BFC1
:1007400000BF00BF00BF00BF00BF00BF00BF00BFB1
:100750004030BDD10020FFF747FF0120FFF744FFE5
:100760000220FFF741FF204600BF00BF00BF00BFCF
:1007700000BF00BF00BF00BF00BF00BF00BF00BF81
:1007800000BF00BF00BF00BF00BF00BF00BF00BF71
:1007900000BF00BF00BF00BF00BF00BF00BF00BF61
:1007A00000BF00BF00BF00BF00BF00BF00BF00BF51
:1007B00000BF00BF00BF00BF00BF00BF00BF00BF41
:1007C00000BF00BF00BF00BF00BF00BF00BF00BF31
:1007D00000BF00BF00BF00BF00BF00BF00BF00BF21
:1007E00000BF00BF00BF00BF4030BDD10020FFF7F9
:1007F000FBFE0120FFF7F8FE0220FFF7F5FE204682
:1008000000BF00BF00BF00BF00BF00BF00BF00BFF0
:1008100000BF00BF00BF00BF00BF00BF00BF00BFE0
:1008200000BF00BF00BF00BF00BF00BF00BF00BFD0
:1008300000BF00BF00BF00BF00BF00BF00BF00BFC0
:1008400000BF00BF00BF00BF00BF00BF00BF00BFB0
:1008500000BF00BF00BF00BF00BF00BF00BF00BFA0
:1008600000BF00BF00BF00BF00BF00BF00BF00BF90
:1008700000BF00BF00BF00BF00BF00BF00BF00BF80
:100880004030BDD10020FFF7AFFE0120FFF7ACFEE6
:100890000220FFF7A9FE204600BF00BF00BF00BF37
:1008A00000BF00BF00BF00BF00BF00BF00BF00BF50
:1008B00000BF00BF00BF00BF00BF00BF00BF00BF40
:1008C00000BF00BF00BF00BF00BF00BF00BF00BF30
:1008D00000BF00BF00BF00BF00BF00BF00BF00BF20
:1008E00000BF00BF00BF00BF00BF00BF00BF00BF10
:1008F00000BF00BF00BF00BF00BF00BF00BF00BF00
:1009000000BF00BF00BF00BF00BF00BF00BF00BFEF
:1009100000BF00BF00BF00BF4030BDD10020FFF7C7
:1009200063FE0120FFF760FE0220FFF75DFE204618
:1009300000BF00BF00BF00BF00BF00BF00BF00BFBF
:1009400000BF00BF00BF00BF00BF00BF00BF00BFAF
:1009500000BF00BF00BF00BF00BF00BF00BF00BF9F
:1009600000BF00BF00BF00BF00BF00BF00BF00BF8F
:1009700000BF00BF00BF00BF00BF00BF00BF00BF7F
:1009800000BF00BF00BF00BF00BF00BF00BF00BF6F
:1009900000BF00BF00BF00BF00BF00BF00BF00BF5F
:1009A00000BF00BF00BF00BF00BF00BF00BF00BF4F
:1009B0004030BDD10020FFF717FE0120FFF714FEE5
:1009C0000220FFF711FE204600BF00BF00BF00BF9E
:1009D00000BF00BF00BF00BF00BF00BF00BF00BF1F
:1009E00000BF00BF00BF00BF00BF00BF00BF00BF0F
:1009F00000BF00BF00BF00BF00BF00BF00BF00BFFF
:100A000000BF00BF00BF00BF00BF00BF00BF00BFEE
:100A100000BF00BF00BF00BF00BF00BF00BF00BFDE
:100A200000BF00BF00BF00BF00BF00BF00BF00BFCE
:100A300000BF00BF00BF00BF00BF00BF00BF00BFBE
:100A400000BF00BF00BF00BF4030BDD10020FFF796
:100A5000CBFD0120FFF7C8FD0220FFF7C5FD2046B2
:100A600000BF00BF00BF00BF00BF00BF00BF00BF8E
:100A700000BF00BF00BF00BF00BF00BF00BF00BF7E
:100A800000BF00BF00BF00BF00BF00BF00BF00BF6E
:100A900000BF00BF00BF00BF00BF00BF00BF00BF5E
:100AA00000BF00BF00BF00BF00BF00BF00BF00BF4E
:100AB00000BF00BF00BF00BF00BF00BF00BF00BF3E
:100AC00000BF00BF00BF00BF00BF00BF00BF00BF2E
:100AD00000BF00BF00BF00BF00BF00BF00BF00BF1E
:100AE0004030BDD10020FFF77FFD0120FFF77CFDE6
:100AF0000220FFF779FD204600BF00BF00BF00BF06
:100B000000BF00BF00BF00BF00BF00BF00BF00BFED
:100B100000BF00BF00BF00BF00BF00BF00BF00BFDD
:100B200000BF00BF00BF00BF00BF00BF00BF00BFCD
:100B300000BF00BF00BF00BF00BF00BF00BF00BFBD
:100B400000BF00BF00BF00BF00BF00BF00BF00BFAD
:100B500000BF00BF00BF00BF00BF00BF00BF00BF9D
:100B600000BF00BF00BF00BF00BF00BF00BF00BF8D
:100B700000BF00BF00BF00BF4030BDD10020FFF765
:100B800033FD0120FFF730FD0220FFF72DFD00BFF0
:100B900000BF00BF00BF00BF00BF00BF00BF00BF5D
:100BA00000BF00BF00BF00BF00BF00BF00BF00BF4D
:100BB00000BF00BF00BF00BF00BF00BF00BF00BF3D
:100BC00000BF00BF00BF00BF00BF00BF00BF00BF2D
:100BD00000BF00BF00BF00BF00BF00BF00BF00BF1D
:100BE00000BF00BF00BF00BF00BF00BF00BF00BF0D
:100BF00000BF00BF00BF00BF00BF00BF00BF00BFFD
:100C000000BF00BF00BF00BF00BF00BF00BF403437
:100C1000BDD10020FFF7E8FC0120FFF7E5FC022032
:100C2000FFF7E2FC10BD704780B50220014600F0DE
:100C30005DF800280BD00220014600F029F800F0F2
:100C4000EFF9002803D00BA000F004FBFEE703201F
:100C5000082100F04BF800280AD00320082100F0FA
:100C600017F80A4800220260C248402100F088F9C3
:100C700080BDC0460D0A0D0A527820427566666531
:100C8000722046756C6C0D0A0D0000000C000020EF
:100C9000052242439140024802680A4302607047BD
:100CA0002801094018224243C87A8B890343C88926
:100CB000184380B20C4BD050D0180A6842604A6882
:100CC00082608A7A09890904891801617047C046DF
:100CD00010B54A1E9141182242430348135801247B
:100CE000A3435918115010BD00000940052242438A
:100CF0009140034800680840411E88417047C04643
:100D00002001094010B5032801D0002303E003238C
:100D1000DC028B02234005244443A14005480468BB
:100D2000002A03D00B431C43046010BD8C430460B5
:100D300010BDC046300109407047000009490A460D
:100D4000103AC3B21360012212020B68134208D199
:100D50000B68134205D10B68134202D10B68134292
:100D6000F3D070471000044070477047F0B586B06C
:100D700059481021059101605849C86A40220392E0
:100D80001043C86256480268272A08D00268272AFA
:100D900005D00268272A02D00268272AF3D103244B
:100DA000A0020A6A82430A620122D0020B6803434E
:100DB0000B604868000708D44868000705D44868F5
:100DC000000702D448680007F3D50868049420435C
:100DD0000423029398430860086B072420400328EB
:100DE0000BD0086B2040032807D0086B2040032855
:100DF00003D0086B20400328EED13A4B186810430B
:100E000006250195A843186000200090C86157028C
:100E10000868B84308601302081F05681D43056091
:100E20000D680826B5430D6005683D4305609502D1
:100E30000E682E430E604D686D0708D44D686D072F
:100E400005D44D686D0702D44D686D07F3D5CD6AA2
:100E5000039EB543CD620F25ED054D6115074E6923
:100E60002E434E6105689D4305600868384308605D
:100E70004868800708D44868800705D44868800718
:100E800002D448688007F3D5164D2868049B1843A0
:100E9000029B984328600098C86108681043019B32
:100EA00098430860086B204001280BD0086B204055
:100EB000012807D0086B2040012803D0086B204090
:100EC0000128EFD128680599084328601003296894
:100ED0000143296006B0F0BD0C8108400480084041
:100EE00008A106400002084000690840411E8841F0
:100EF00070470000B0B50D460446406819490140EE
:100F0000E8880843A988014328890843698901437F
:100F10006160002014498C420BDC012189078C425E
:100F200012D015498C4211D014498C4215D1082099
:100F300011E00E498C420BD00D498C420AD0B649C3
:100F40008C420AD11A2006E0182004E01C2002E09E
:100F50000A2000E01E20FFF7FFF92968FFF70CF9CF
:100F60006062B0BDFCE0FFFFFFFF034000200440D3
:100F70000010044000000440001000400020004029
:100F8000002A03D042680A434260704742688A439D
:100F9000426070470160704710238B40002A03D0E5
:100FA0004168194341607047416899434160704707
:100FB000F0B583B0012420044121090200252A460E
:100FC0002346FFF717FA9348082631462A46FFF7CB
:100FD000A2FA0421062728463A46FFF7FFF82846DA
:100FE00031463A46FFF7FAF8029520020190E120D7
:100FF00040020090A60769463046FFF77BFF80213C
:1010000030462246FFF7BCFF304629462246FFF70E
:10101000C3FF304621462246FFF7BEFF03B0F0BDB6
:1010200081480168090C012903D18048006800212A
:1010300005E00068000C4121081A7C490968411A42
:10104000484248417047C04680B5FFF777FE80BDF3
:1010500086B000263046FFF771FA01252846FFF7D3
:101060006DFA02242046FFF769FA3046FFF7B2FA1C
:101070002846FFF7A5FA2046FFF7ACFAFFF7D6FAA5
:1010800010200090314632462B46FFF7B3F95A49FB
:101090005A482C04AF07C0C10C604860092128469B
:1010A0002A46FFF72FFE56495648574A574B029794
:1010B0000F604B608A60C8603046FFF7F3FD304632
:1010C0002946FFF705FEE80751490860FFF770FF62
:1010D0002120410220462B46FFF78CF94D48009F06
:1010E00039463246FFF717FA06243046394622467B
:1010F000FFF774F8202130462246FFF76FF8059677
:1011000028020490E12040020390434C03A92046AA
:10111000FFF7F0FE2046009631462A46FFF73CFFD7
:10112000204629462A46FFF737FF3C4E48203746DF
:1011300081B22046FFF72EFF80212046FFF7D4FE24
:101140000028F9D078787F1C31460F318F42EFD1DB
:10115000334F3868012808D13868012805D138682C
:10116000012802D138680128F3D047222D482E4E9D
:10117000019501E010462A461F490A810860284669
:10118000FFF790FD28462946FFF7A2FD3D60402469
:10119000029821462A46FFF7F3FE244B186831686F
:1011A000090C611A81420ED13168090C611A814221
:1011B00009D13168090C611A814204D13168090CE6
:1011C000611A8142EBD0411C1960104A105C184A28
:1011D0001070402901D100981860019D38680128DD
:1011E000C8D138680128C5D138680128C2D138680B
:1011F0000128F3D0BEE7C0462000002000012004F3
:10120000100000200002800C40000100300000208F
:1012100000E100E000000B4000000440E01200008C
:101220000C000020981200004400094070000020CB
:101230007400002002E008C8121F08C1002AFAD179
:1012400070477047002001E001C1121F002AFBD146
:101250007047000010B5044601E0FFF7F5FE207866
:10126000641C03490028F8D10A20FFF7EDFE10BDE9
:101270000000002000000B4000200B4000400B400D
:1012800000600B4000800B400000000001010102E3
:10129000020100010002800048656C6C6F2C207414
:1012A0006869732069732055534152542054782F34
:1012B00052782050444D41206578616D706C652EE8
:1012C00020506C6561736520656E7465722063687B
:1012D00061726163746572732E2E2E2E2E0D0A00BC
:1012E00048656C6C6F2C20776F726C64210D0A005E
:1012F0001013000000000020040000003412000061
:101300001413000008000020B00200004412000086
:0413100000000000D9
:04000005000000C136
:00000001FF
