:020000040000FA
:1000000020030020C10000008515000055130000EA
:10001000FFFFFFFFFFFFFFFFFFFFFFFFFFFFFFFFF0
:10002000FFFFFFFFFFFFFFFFFFFFFFFF9516000031
:10003000FFFFFFFFFFFFFFFF87150000991600007D
:1000400035010000350100003501000035010000D8
:1000500035010000350100003501000035010000C8
:1000600035010000350100003501000035010000B8
:1000700035010000350100003501000035010000A8
:100080003501000035010000350100003501000098
:100090003501000035010000350100003501000088
:1000A0003501000035010000350100003501000078
:1000B0003501000035010000350100003501000068
:1000C0001D4880471D4880471D4800471D4801695D
:1000D000002908D14169002905D18169002902D18F
:1000E000C169002909D01848C1680901090D002912
:1000F0000ED005290CD006290AD0BFF34F8F134824
:100100001349016013491248C860BFF34F8FFEE7DF
:100110000E4801680E48884200D070470E480F49CB
:1001200001600A480E4901607047FEE7FEE7FEE7FE
:10013000FEE7FEE7FEE70000CD000000A916000084
:100140006501000000030840800108400000002015
:100150000400FA0500ED00E0008108400100000005
:10016000000000000348854600F09EFC0048004760
:10017000391D00002003002003460B439B0703D0DA
:1001800009E008C9121F08C0042AFAD203E00B785C
:100190000370401C491C521EF9D27047D2B201E0D4
:1001A0000270401C491EFBD270470022F6E710B5D2
:1001B00013460A4604461946FFF7F0FF204610BDD5
:1001C00030B505462A460B4610781C78521C5B1C3D
:1001D000002801D0A042F7D0002C03D0002802D084
:1001E0006D1CEFE7284630BD421C0178401C0029F9
:1001F000FBD1801A704710B5002200E0521C835CCE
:100200008C5CA34201D1002BF8D1D8B2E1B2401AE4
:1002100010BD03460A780270401C491C002AF9D11F
:100220001846704770B5104D002800D1286800248A
:1002300014E00A4602E09E4203D0521C1378002BC1
:10024000F9D1DAB2224307D0002B06D0002C04D01B
:1002500000210170401C04E00446401C0678002E7A
:10026000E7D12860204670BD00000020F8B50246A6
:100270004A40D40F42004B0052085B089A4202D217
:100280000246084611464A0023D0C30D4A00DDB29B
:10029000120EAD1A202D35DA49020126490AF6055B
:1002A0008A19002C00D0524220214F1B1146B94020
:1002B0002A411018C20D9A4221D0002C17D0012DCE
:1002C00008DCDA05801AD20F8019D207DBB200F001
:1002D000A7FAF8BDDA05801A012340001B06C018F2
:1002E00080185A428018CA0F1043490007E0490895
:1002F000C2071143DA05801A80194008801800F0FF
:1003000087FAF8BD61000122511A001BF7E70122AC
:10031000D2075140AAE70122D2075040A6E770B5A4
:1003200002464A40D50F40004A00ED0740085208F7
:10033000002814D0002A12D0C40DD30D4102012090
:10034000C0055202490A520AE41A091812187D34EB
:10035000914201D3641C00E04900002C01DA002026
:1003600070BD0023914201D3891A0343400849001C
:100370000028F7D100290AD0914202D10121C907F2
:1003800005E0914201D2012101E00121C943E005CC
:10039000C018401900F03CFA70BD0000F0B50746E7
:1003A0000846584087B0C00F049048000E465900D8
:1003B00040084908BC1A884105D2384631461E46D5
:1003C00017460B4602465800400810434CD0300DEB
:1003D000039040055900400D490D0590401A0290C8
:1003E000402872DA18030121000B09050843019027
:1003F00004980092002805D00199524200208841BB
:1004000000920190029840210A1A0199009800F088
:1004100082F905460C466B4607CB00F08CF9C019F3
:100420007141039A0E0D0023D71756401A467A40A1
:10043000164344D0049A002A2DD0029A012A039A26
:1004400015DC1205C01A914101263605001C7141C8
:10045000D20F059ED2070093019202962A462346A8
:1004600000F024FA07B0F0BD38463146FAE7160529
:10047000224A0F46B218C01AB74101210905001CD3
:100480004F4100187F41114618187941E20F10437F
:100490006D19644113E0E2076D0815436408C20753
:1004A0001443039A01261205C01A91413605001C17
:1004B0007141CE07400830434908C01851412A46CF
:1004C000234600F0E6F9CDE7FFE70498012240005B
:1004D000C117121A00238B4104983146C417381AE9
:1004E000A141EEE730B40124E407634030BC55E796
:1004F00030B40124E407614030BC4FE70000E0FF66
:10050000F0B51FB488B00B990998002448400999A8
:10051000C00F490049080991C0070B990090490094
:1005200049080B9109990898A64608431CD00B99D5
:100530000A98084318D0099801244000420D480049
:10054000410D099824050003000B204309900B98E6
:100550000003000B20430B9050181C494018002248
:1005600001901446104605E0002001460DB0F0BD94
:10057000032801DA034600E003239C46C11A0AAEB1
:100580000AE05F0008ADED5B4F00F75B7D4300279D
:10059000AA187C41491C5B1E6145F2DD410004AB99
:1005A0005A522104120C0A43240C401C0828DFDB99
:1005B000019802900099704601910090059B049A61
:1005C0000799069800F072F9D0E700000DFCFFFFD4
:1005D000C217C10F504010B54018CA07962300211A
:1005E00000F01EF910BDC20F410040020123400A75
:1005F000DB05D207090EC0187F2901DA00207047F9
:10060000962903DC9623591AC84001E096398840A0
:10061000002AF4D040427047C20FD2074000400881
:100620000BD0C10D0723DB01C91840020905400AA0
:100630001143C2084007114370470020014670472C
:10064000CB0FDB07490010B5490802460A4307D023
:100650000A0D07240903E401090B121B002A01DC1F
:10066000002010BDC900440F0C43C100E018D205A2
:10067000801800F0CDF810BD70B50446002903D0F5
:1006800000202022012310E0002801D00020C043D8
:10069000C046C0460DE02546D5408D4205D30D46E7
:1006A0009540641B1D46954040191546521E002D6D
:1006B000F1DC214670BDF0B51FB40646002082B0C3
:1006C00005464024019100901BE0019922460F4607
:1006D000304600F0FBF9049A059B801A994110D32B
:1006E00010461946224600F016F8361A8F41019737
:1006F000224601200021009F00F00DF838184D41DE
:1007000000902046641E0028DFDC019B00982946EB
:10071000324607B0F0BD10B5202A04DB0146203A6E
:100720009140002010BD914020239C1A0346E340D5
:100730001943904010BD10B5202A06DBCB170846A0
:10074000203A1041C1170B4306E00B461341D0403D
:100750002024A21A91400843194610BD0FB400B5D9
:1007600089B00A460DA9009100230C99002ACB609C
:10077000234B0693234B079301D0042300E000236F
:10078000214A0292214A0892019302466B460020B8
:1007900000F043FA09B008BC04B01847F0B585B0C2
:1007A00007460020C04301901E46002015460C4617
:1007B0000091029104903B466A46314604A8FFF737
:1007C000CDFF049902466018002D05D0002901D004
:1007D000034600E023462B6000290ED0002A02DDEC
:1007E0000099814209D0001B019000943B466A4663
:1007F0003146029404A8FFF7B1FF05B0F0BD000038
:10080000710E0000910E0000FFFFFF7FEF0A000055
:10081000002904DA401C490001D14008400070471B
:1008200070B40024050C05D11024000402D1002965
:1008300021D01124050E01D100020834050F01D189
:100840000001241D850F01D18000A41C002801DBBC
:100850004000641C002908D020252E1B0D46F540C1
:10086000A14000D001212943084301061B1B000AB7
:10087000DB1D02D5002070BC7047DB0518188018FE
:100880000029F8DA401C4900F5D170BC400840004E
:10089000704710B5002B08DA0024401C6141921803
:1008A0005B411A4301D14008400010BDF0B51FB4B0
:1008B00082B005460C0003D0084602F065FE02E057
:1008C00002F062FE20300246009021462846FFF7E3
:1008D00022FF049B059A04460F4618431143084320
:1008E00014D0184610431BD0009840210A1A18460D
:1008F000059900F0EBF805460E46009A0599049814
:10090000FFF709FF084305D0012004E020463946DF
:1009100007B0F0BD0020C11705430E432C433743F9
:1009200000990E986305401A7905E40A00220C43E9
:10093000FD0A0A3002D500200146E9E70105101939
:1009400069410C9C0D9D00196941FFF7A2FFDFE78B
:10095000F0B50C465C4085B0E40FE40703944C000E
:10096000002664085900944649080246029622432C
:1009700021D062460A431ED06200570D4A000E0382
:100980002303550D012402462C492405781B1B0B1B
:10099000360B401823432643614600901C46501AEC
:1009A000B44103D30098401C009002E092180098D4
:1009B0005B41002803DA0020014605B0F0BD0020AD
:1009C000012109050746864611E064461D46141BB1
:1009D000B54106D36546521BB341744607430C43E9
:1009E000A646CD0740084908284392185B410546B2
:1009F0000D43EAD11046184313D0604619465040C3
:100A00007140084306D06046101AB34106D2012255
:100A1000002306E000220123DB0702E00122D2438B
:100A20005310009874460105381C6141029C039DD7
:100A300000196941FFF72DFFBFE70000FD0300002B
:100A40004A0009030123090B1B0519430A4B10B582
:100A5000520D9A4202DA0020014610BD064B343393
:100A60009A4203DC9A1A00F031F810BD034BD218F9
:100A7000FFF751FE10BD0000FF030000CDFBFFFF9C
:100A800010B5002904DB0124E40740428C412146D3
:100A9000002B04DB1C460123DB075242A341994291
:100AA00000D1904210BD0000064C0125064E05E025
:100AB000E36807CC2B430C3C98471034B442F7D37F
:100AC000FFF754FB5C5100007C51000010B5202A58
:100AD00004DB0846203AD040002110BD0B46D3402D
:100AE000D0402024A21A91400843194610BD10B5E9
:100AF0000F21C0B2490200F0F5F910BDFFB508782A
:100B000089B01546FF2805D0491C2D2804D00022A5
:100B1000002407E000240BE00122F9E70A235C43EC
:100B20000419491C0878FF28F8D1002A00D0644233
:100B3000002004902A7801462D2A01D02B2A0FD1BB
:100B40006D1C2D2A02D00022049209E00122FBE74D
:100B500000260A2233466D1C00F0ACF938187141AA
:100B60002F78FF2FF4D10C9AA218069202460A435E
:100B700004D0FF23069A9133DA4205DA002109985E
:100B80000A4606C00DB0F0BD0024B74AB54D264652
:100B9000079200F0B9F9029006980391002801DA53
:100BA000474200E0074639050020AF4A001C51418A
:100BB0000191009012E0F80707D022462B463046FC
:100BC0000799FFF79DFC0646079122462B461046E3
:100BD0001946FFF795FC04460D467F10002FEAD119
:100BE0000698019B0028009A0399029806DAFFF7FD
:100BF000AFFE3246079BFFF7ABFE05E0FFF780FC38
:100C00003246079BFFF77CFC049A002A02D001229F
:100C1000D2075140099A03C2B4E7FFB591B0002052
:100C200009900025ED432E209E685C681F460190C8
:100C3000B9696D1C129888470090396A8847002866
:100C4000F6D10098401C0AD00D20C0018443002E2C
:100C500012DD00982B2809D02D280DD103E00020AB
:100C6000C04315B0F0BD012080020443B9696D1C7A
:100C700012988847761E009003A9600501D52D20A3
:100C800000E02B206A461073491C0CA80F910290BB
:100C90000AE0B9696D1C1298884700900120400253
:100CA00004431398761E0560002E02DD009830285C
:100CB000EFD001990098884245D18020044308E094
:100CC0000998401E09900120400204431399681CB2
:100CD0000860B9696D1C761E12988847009030280C
:100CE000EED030E00199884205D1200603D480205F
:100CF0000443761E1DE0009802F034FD002825D044
:100D0000012149020C43009807AA0F990332303899
:100D1000761E914208D208700F98401C0F90200652
:100D200007D50998401E03E0200602D40998401C0C
:100D30000990A00502D51399681C0860B9696D1C5B
:100D4000129888470090002ECCDC59E0002E57DD29
:100D50000098652801D0452852D1A00550D5032020
:100D600000028443B9696D1C761E12988847009072
:100D7000002E0CDD2B2804D02D2808D1FF200130B7
:100D80000443B9696D1C12988847761E0090E005EF
:100D900001D52D2100E02B21029801700298401C02
:100DA0000290019025E00120400204430EA9029820
:100DB0000131761E88420ED2009802993038000622
:100DC000000E087003D10299019881420AD9029855
:100DD000401C029006E0E00501D5244801E02348CC
:100DE00040420990B9696D1C129888470090139889
:100DF0000560002E04DD009802F0B4FC0028D2D17A
:100E0000F969129888470F99FF200870029903AA80
:100E1000087000200A900B900CA90AA8099BFFF704
:100E20006DFEA00502D40120C0431AE7242004422D
:100E300009D0E00713D138680B9A0A99031D3B606B
:100E4000006806C00BE00B990A98FFF7F9FB014612
:100E5000E00704D13868021D3A6000680160284646
:100E6000FFE60000000014400000F03FF1D8FFFF53
:100E70004268002A08D001680B78491C002B03D077
:100E8000521E06C0184670470121C160881E704777
:100E90004268002A0BD0C3680168002B07D1836821
:100EA0008B4204D0491E521C06C00020704700200F
:100EB000C043704730B5434351435C18010C130CD9
:100EC0000D465D432C1980B292B2054655435143FD
:100ED0000A0C09044D1962415843010C00044019E1
:100EE000514130BD7F2801D9002207E0054B42085F
:100EF0009A5CC00700D112091207120F012090401E
:100F000008407047503F00000EB5054A029200228B
:100F1000009213460192FFF7C9FC03B000BD000028
:100F200033040000F0B58EB0C0005C4BC4180F2332
:100F300018020790180308901804099018050A90E1
:100F400018060B9018070C900E060D9452D0012035
:100F5000084045422F461F408807059000D5F037CE
:100F60004807049001D5079807430807039001D567
:100F700008980743C806029001D5099807438806D8
:100F8000019001D50A9807434806009003D53046E2
:100F90000B9E374306460696002E01D50C9E37431E
:100FA0000D9C2468BC4317010598C6173E401540A8
:100FB000354316020498C71737402F43150303988B
:100FC000C6172E403E4315040298C7172F403743DB
:100FD00015050198C6172E403E4315060098C01708
:100FE000284030431507069EF6172E400643264339
:100FF0000D9C26600E04300E41D0C805C7173B403B
:101000008805069000D5F0334805059001D507986E
:1010100003430805079001D508980343C8040890C6
:101020002FD4880431D4490433D4002E01D50C9D2B
:101030002B4365689D431301069CE4171C40174031
:1010400027431302059CE4171C403C431303079FEE
:10105000FF171F4027431304089CE4171C403C4320
:101060001305C017184020431306C9171940014340
:101070001007F21702400A432A430D9842600EB04F
:10108000F0BD099803438804CDD50A9D2B4349043C
:10109000CBD50B9D2B43002EC9D4CAE7202002409C
:1010A00070B541098900234BC9180A6AD9691C46E1
:1010B000183C246807240C405D68194614390968F7
:1010C000890501D4002110E01968C900CE0F1A4922
:1010D000F140002D09D41D686D012D0F00D11025A0
:1010E00069431D686D02AD0FE940641E062C09D8E6
:1010F0007C4424796400A7440C03030505070A0017
:101100000D4906E0002104E00121C90301E07D2131
:1011100009021F2404400325A5402A40E2402E284E
:1011200000D1921C9868052800D30520C140D14009
:10113000084670BD1880084000127A0070B50C4C4B
:101140002568002B01D0054300E08543A668E068D0
:101150002560002B01D00E4300E08E43A660002BDB
:1011600002D01043E06070BD9043E06070BDC046A7
:1011700024800840002A03D002680A4302607047B6
:1011800002688A4302607047F0B500230E251C46B2
:1011900003E0090A10352E2D5AD0CE070ED18E0746
:1011A00016D44E071ED40E0726D4CE062ED48E0695
:1011B00035D44E063CD40E06EBD542E02E460E3E0C
:1011C0000327B7403B431746B7403C438E07E8D55B
:1011D0002E460C3E0327B7403B431746B7403C43DF
:1011E0004E07E0D52E460A3E0327B7403B4317463D
:1011F000B7403C430E07D8D52E46083E0327B740DC
:101200003B431746B7403C43CE06D0D5AE1F03271D
:10121000B7403B431746B7403C438E06C9D52E1F07
:101220000327B7403B431746B7403C434E06C2D561
:10123000AE1E0327B7403B431746B7403C430E065C
:10124000A7D50326AE4033431646AE403443A0E74D
:10125000416999434161416921434161F0BDB0B5A4
:10126000846825468D43C368012A04D08B43002A35
:1012700004D10C4303E00B432C4600E02C46846071
:10128000C360B0BD70B582B0064668460022828059
:1012900000922E498D5D0124445501782140437808
:1012A000DB079B0F59188378DB075B0FC918C078E1
:1012B000C007000F08180199C907C90E401800049B
:1012C000A1032346FFF73AFF0E48825D70001E49D6
:1012D0000E5A28463146FFF725FEA8001C490D5836
:1012E0006E62022228463146FFF7B9FF2846314692
:1012F0002246FFF749FF284631462246FFF73AFFCC
:1013000002B070BDBC3F000041000F4A515A0F4A65
:10131000105C80000E4A10584162704741000A4A32
:10132000515A0A4A105C8000094A1058816270477D
:101330004100054A515A054A105C8000044A105881
:10134000026A4A4002627047C23F0000BF3F00008D
:10135000A43F000006480168002908D1016800295F
:1013600005D10168002902D101680029F3D0704736
:10137000A00000204A1E9141C900026808239A4338
:10138000511801607047000070B584B01349002502
:10139000012428462A462346FFF7D0FE02210726CD
:1013A00020463246FFF7BEFD204621463246FFF773
:1013B000B9FD01A90D810A4802900195334D2846D7
:1013C00000F016F828462146FFF7D4FF7D20C10023
:1013D000284600F06DF804B070BDC0460140000022
:1013E000A0860100016802220A43026070470000E3
:1013F000F0B581B00D460446006885218843297800
:10140000014368780843A978014321602889A060D6
:1014100000261E48844203D01D48844204D102267F
:101420003046FFF73DFE0646032081032068084052
:101430000121CA03904207D08903884207D00028BF
:1014400008D10620009007E00920009004E0082061
:10145000009001E000200090092070436968142783
:101460004F433946FFF708F9E978009A5518401BB1
:10147000C117884320610B2070433946FFF7FCF801
:10148000401BC1178843606101B0F0BD008004407B
:101490000090044081B00022009200900098401813
:1014A00000900098006801B07047816170470000AB
:1014B000826A024B13400B43836270470000FFFFB8
:1014C00003689B0708D503689B0705D503689B073E
:1014D00002D503689B07F3D4002A02D001229202AE
:1014E0001143C161704710B582B001A8002101709D
:1014F0004C200721012200F05DFA4C20052101ACAF
:10150000224600F041F820780128F6D102B010BD43
:10151000F0B581B000920D4607464C240E21184EBE
:101520002046324600F030F8721C0D21204600F0B3
:101530002BF8B21C1021204600F026F8F21C0F21D7
:10154000204600F021F8321D1221204600F01CF840
:10155000721D1121204600F017F8707831780902C9
:1015600008183880F078B178090208182880707956
:101570003179090208180099088001B0F0BDC04611
:10158000A400002070477047F0B583B0029200912C
:1015900001463E4C25460C3D002228460191FFF7AE
:1015A0008FFF3B4F2068B84208D02068B84205D072
:1015B0002068B84202D02068B842F3D11D2046040A
:1015C000301D2168814212D0216881420FD02168EC
:1015D00081420CD021688142F2D108E02068B042FB
:1015E00008D02068B04205D02068B04202D0206800
:1015F000B042F3D128460099FFF757FF2068B04268
:1016000008D02068B04205D02068B04202D02068DF
:10161000B042F3D10120820228460199FFF750FF22
:101620002068B84212D02068B8420FD02068B84273
:101630000CD02068B842F3D108E02168814209D07B
:101640002168814206D02168814203D0F81C2168BC
:101650008142F2D1192000042168814208D021681A
:10166000814205D02168814202D021688142F3D1B4
:10167000E068029908702846FFF7B4FE0C2128465E
:10168000FFF708FF0003F9D403B0F0BD0C8004405D
:10169000010018007047000002480168491C016001
:1016A0007047C04618010020F0B586B05948102197
:1016B000059101605849C86A402203921043C862EC
:1016C00056480268272A08D00268272A05D00268EF
:1016D000272A02D00268272AF3D10324A0020A6A2B
:1016E00082430A620122D0020B6803430B60486800
:1016F000000708D44868000705D44868000702D4EA
:1017000048680007F3D50868049420430423029333
:1017100098430860086B0724204003280BD0086B0F
:101720002040032807D0086B2040032803D0086B13
:1017300020400328EED13A4B186810430625019546
:10174000A843186000200090C86157020868B84399
:1017500008601302081F05681D4305600D68082610
:10176000B5430D6005683D43056095020E682E4344
:101770000E604D686D0708D44D686D0705D44D683F
:101780006D0702D44D686D07F3D5CD6A039EB5434E
:10179000CD620F25ED054D6115074E692E434E6153
:1017A00005689D43056008683843086048688007FD
:1017B00008D44868800705D44868800702D4486880
:1017C0008007F3D5164D2868049B1843029B984365
:1017D00028600098C86108681043019B984308601E
:1017E000086B204001280BD0086B2040012807D04F
:1017F000086B2040012803D0086B20400128EFD15E
:101800002868059908432860100329680143296066
:1018100006B0F0BD0C8108400480084008A10640D5
:1018200000020840F0B581B004460126B50720212A
:10183000284600F063F8012808D1284600F0A8F8EF
:101840002169A2898854A089401CA0810D4F396864
:1018500025692846FEF7B4FC002400280FD17968DA
:101860002846FEF7ADFC002809D107480168284644
:10187000FEF7A6FC002801D0344600E002242046F2
:1018800001B0F0BD1400002010000020F0B583B0BE
:101890000746007800282ED0012005028607002484
:1018A00001973F5D3046294600F028F80028F9D01E
:1018B0003046394600F06FF8641C019F3846FEF749
:1018C00093FC8442EDD33878002814D03C4600279E
:1018D0002D4EE05D02903046294600F00FF80028BA
:1018E000F9D03046029900F056F87F1C2046FEF7EA
:1018F0007BFC8742EDD303B0F0BDC04600690840D1
:10190000411E884170470000B0B50D46044640684E
:1019100019490140E8880843A988014328890843F8
:10192000698901436160002014498C420BDC01216C
:1019300089078C4212D0AC498C4211D013498C4299
:1019400015D1082011E00E498C420BD00D498C4274
:101950000AD00D498C420AD11A2006E0182004E072
:101960001C2002E00A2000E01E20FFF799FB2968F6
:10197000FEF782FE6062B0BDFCE0FFFFFFFF0340A8
:1019800000200440001004400000044000200040FB
:10199000006880B270470160704710238B40002AB6
:1019A00003D04168194341607047416899434160E1
:1019B00070470000F0B581B000920E460146274FF7
:1019C0003C460C3C00222046FFF77AFD244839684B
:1019D000814208D03968814205D03968814202D0FD
:1019E00039688142F3D11D204504281D39688142A0
:1019F00008D03968814205D03968814202D03968FF
:101A00008142F2D120463146FFF74FFD3868A842A7
:101A100008D03868A84205D03868A84202D0386893
:101A2000A842F3D120460099FFF73FFD3868A8424D
:101A300008D03868A84205D03868A84202D0386873
:101A4000A842F3D12046FFF7CDFC0C212046FFF73A
:101A500021FD0003F9D401B0F0BDC0460C80044064
:101A600001001800F0B581B06248644C2146FEF7D1
:101A7000D9FB002630462146FEF7D4FB30462146EE
:101A8000FEF7D0FB30462146FEF7CCFB02F013FAFE
:101A9000FEF7D6FD07463149FEF741FCFEF7A3FDF0
:101AA0000546642420466843FEF792FD0146384609
:101AB000FEF72DFC07462846FEF78AFD0546284915
:101AC0003846FEF72CFC2946FEF7D0FB254D286052
:101AD00030464A49FEF7A6FB2349FEF78CFB002857
:101AE00004D10120C00729684140296000254349ED
:101AF0002846FEF797FB02F0DEF9FEF7A1FD074648
:101B00001649FEF70CFCFEF76EFD064644432046E0
:101B1000FEF75EFD01463846FEF7F9FB0446304607
:101B2000FEF756FD06460E492046FEF7F8FB314605
:101B3000FEF79CFB0D4C206028463049FEF772FBF7
:101B40000949FEF758FB002801D001B0F0BD012083
:101B5000C00721684140216001B0F0BD0000C842CB
:101B600000007042100100203D40000014010020E0
:101B700070B59AB01C4C1DA505E001A82946FEF7DA
:101B80001FFB002817D101A86421FEF70EFB0026D9
:101B900020212046FFF7B2FE0028F9D02046FFF7AB
:101BA000F7FE01A98855C0B20A28E6D0701C632E42
:101BB0000646EDD1E1E70F4801A9FEF72AFB0E48E2
:101BC0000E4C2146FEF72EFB002528462146FEF747
:101BD00029FB28462146FEF725FB0949FEF70BFBAA
:101BE000414248411AB070BD0010004024474E5297
:101BF0004D430000AA0000203C00002002400000ED
:101C00000940000070B5044641484249424AFFF786
:101C10007FFCFFF7ADFFFFF725FFA0683F490B22D0
:101C2000FEF7AAFA7D2005010326204631462A4602
:101C300000F08AFAA0683A494822FEF79DFA394A2C
:101C40002046314600F080FAA06837491D22FEF791
:101C500093FA364A2046314600F076FA204600F0E4
:101C600075F8204600F072F8204600F06FF8A06882
:101C70002F490E22FEF780FA022120462A4600F064
:101C800063FA2C4800BF00BF00BF00BF00BF00BF09
:101C900000BF00BF00BF00BF00BF00BF00BF00BF4C
:101CA00000BF00BF00BF00BF00BF00BF00BF00BF3C
:101CB00000BF00BF00BF00BF00BF00BF00BF00BF2C
:101CC00000BF00BF00BF00BF00BF00BF00BF00BF1C
:101CD00000BF00BF00BF00BF00BF00BF00BF00BF0C
:101CE00000BF00BF00BF00BF00BF00BF00BF00BFFC
:101CF00000BF00BF00BF00BF00BF00BF00BF00BFEC
:101D000000BF00BF00BF00BF4238BBD170BDC0469E
:101D1000200000202200002024000020EC500000C1
:101D200014510000F82A0000184C00001027000091
:101D3000DC500000E08DF901034C204601F0FCF975
:101D40002046FFF75FFFFBE728000020F0B58DB0CD
:101D500005468068E1A12522FEF70EFA2868AA68E8
:101D6000E84901F0FDFB012004020C952F6838784A
:101D7000E54D002813D000260B97BF5D284621466D
:101D8000FFF7BCFD0028F9D028463946FFF703FECF
:101D9000761C0B9F3846FEF727FA8642EDD30020CB
:101DA0000C9FB88101463A6989B25054B989491CDF
:101DB000B9818AB2632A18D83B6900219954BA893B
:101DC000521CBA8192B2632A0FD83B699954BA89DE
:101DD000521CBA8192B2632A07D83B699954B989D7
:101DE000491CB9818AB2642ADDD30026BE81B86855
:101DF000FFF74CFDC548FFF749FDC5490868786005
:101E000008687968401AC34FB8420ED20B960C9EF0
:101E10003046FFF707FDBE490A687168511AB9429A
:101E2000F6D30A900C9F0B9E02E004200A900C9FB0
:101E300039693868FEF7EDF93F683878002812D024
:101E40000B97BF5D28462146FFF758FD0028F9D0C3
:101E500028463946FFF79FFD761C0B9F3846FEF754
:101E6000C3F98642EDD300200C9FB88101463A6940
:101E700089B25054B989491CB9818AB2632A18D8E9
:101E80003B6900219954BA89521CBA8192B2632AE3
:101E90000FD83B699954BA89521CBA8192B2632A0D
:101EA00007D83B699954B989491CB9818AB2642A17
:101EB000DDD30026BE819848805F0B90974800686C
:101EC000FEF7AAFB0990089195480068FEF7A4FB6D
:101ED00003469448805F07909348805F0690B868F7
:101EE000099A0292089A0392049305910B99009122
:101EF0008E49079A069B01F033FBB868FFF7C6FCD2
:101F00008248FFF7C3FC824B1868786018687968CC
:101F1000401A874988420FD20B9638461F460E4614
:101F2000FFF780FC3B460C9F1A687968511AB14252
:101F30003146F2D30A900B9E3A6938687D4901F028
:101F40000FFB3F683878002812D00B97BF5D2846FA
:101F50002146FFF7D3FC0028F9D028463946FFF781
:101F60001AFD761C0B9F3846FEF73EF98642EDD3EC
:101F700000200C9FB88101463A6989B25054B98952
:101F8000491CB9818AB2632A18D83B690021995447
:101F9000BA89521CBA8192B2632A0FD83B6999540C
:101FA000BA89521CBA8192B2632A07D83B69995404
:101FB000B989491CB9818AB2642ADDD30026BE8161
:101FC00038680A99042904D849B289005B4A5258F2
:101FD00000E0594A5A4901F0C3FA38680B9000787A
:101FE000002815D00B9FBF5D28462146FFF786FCD1
:101FF0000028F9D028463946FFF7CDFC761C0B9F08
:102000003846FEF7F1F88642EDD30C9F386800E0C1
:102010000B984C490C22FEF7AFF83F68387800283F
:1020200013D000260C97BF5D28462146FFF766FCBB
:102030000028F9D028463946FFF7ADFC761C0C9FE6
:102040003846FEF7D1F88642EDD3FA4800BF00BF0C
:1020500000BF00BF00BF00BF00BF00BF00BF00BF88
:1020600000BF00BF00BF00BF00BF00BF00BF00BF78
:1020700000BF00BF00BF00BF00BF00BF00BF00BF68
:1020800000BF00BF00BF00BF00BF00BF00BF00BF58
:1020900000BF00BF00BF00BF00BF00BF00BF00BF48
:1020A00000BF00BF00BF00BF00BF00BF00BF00BF38
:1020B00000BF00BF00BF00BF00BF00BF00BF00BF28
:1020C00000BF00BF00BF00BF00BF00BF00BF00BF18
:1020D0004238BBD10A980DB0F0BDC04641542B51D7
:1020E0004D545055423D302C302C302C302C227425
:1020F0007261636B65722F64617461222C333030BE
:1021000000000000D73F000000000440D43F000062
:1021100018010020D1070000240000201001002039
:102120001401002020000020220000204740000071
:10213000A10F0000C83F00002C400000903F0000AD
:10214000EE3F00000C4C0000F0B587B005460029BA
:1021500000D10321012007020423A44C0E46029261
:1021600005950191300600D13CE10493761EAA68E2
:10217000286800910396F3B2CB1A9DA101F0F0F903
:102180002D682878002813D000260695AD5D2046DE
:102190003946FFF7B3FB0028F9D020462946FFF760
:1021A000FAFB761C069D2846FEF71EF88642EDD304
:1021B0000020059DA88101462A6989B25054A98949
:1021C000491CA9818AB2632A18D82B690021995425
:1021D000AA89521CAA8192B2632A0FD82B699954FA
:1021E000AA89521CAA8192B2632A07D82B699954F2
:1021F000A989491CA9818AB2642ADDD30026AE814F
:10220000A868FFF743FB8448FFF740FB8349086851
:10221000686008686968401A2B46029DA8420AD87F
:102220001846FFF7FFFA059B7C490A685968511A5E
:10223000A942F5D904901A69186879491D4601F038
:102240008FF92D682878002812D00695AD5D2046BC
:102250003946FFF753FB0028F9D020462946FFF7FF
:102260009AFB761C069D2846FDF7BEFF8642EDD3FD
:102270000020059DA88101462A6989B25054A98988
:10228000491CA9818AB2632A18D82B690021995464
:10229000AA89521CAA8192B2632A0FD82B69995439
:1022A000AA89521CAA8192B2632A07D82B69995431
:1022B000A989491CA9818AB2642ADDD30026AE818E
:1022C0002868049BD9B20429564A03D859B2890018
:1022D000554A5258554901F043F92868069000784C
:1022E000002815D0069DAD5D20463946FFF706FB58
:1022F0000028F9D020462946FFF74DFB761C069DA5
:102300002846FDF771FF8642EDD3059D286800E061
:1023100006980C224649FDF72FFF2D6828780028E3
:1023200013D000260695AD5D20463946FFF7E6FA44
:102330000028F9D020462946FFF72DFB761C069D84
:102340002846FDF751FF8642EDD33A4800BF00BF53
:1023500000BF00BF00BF00BF00BF00BF00BF00BF85
:1023600000BF00BF00BF00BF00BF00BF00BF00BF75
:1023700000BF00BF00BF00BF00BF00BF00BF00BF65
:1023800000BF00BF00BF00BF00BF00BF00BF00BF55
:1023900000BF00BF00BF00BF00BF00BF00BF00BF45
:1023A00000BF00BF00BF00BF00BF00BF00BF00BF35
:1023B00000BF00BF00BF00BF00BF00BF00BF00BF25
:1023C00000BF00BF00BF00BF00BF00BF00BF00BF15
:1023D0004238BBD1049B1806059D0199039E00D08D
:1023E000C0E60023D8B207B0F0BDC04600000440EC
:1023F0000A3D3D3D2053454E44494E47203C257300
:102400003E207C20415454454D50542025752F25A5
:1024100075203D3D3D0A0000D43F0000180100201A
:10242000C83F00002C400000903F0000EE3F00003D
:102430000C4C0000F0C6FC00F0B585B00546806885
:10244000FDA11822FDF798FE2868AA68F94901F055
:1024500087F801200190040204952E683078FC4D25
:10246000002813D000270396F65D28462146FFF783
:1024700045FA0028F9D028463146FFF78CFA7F1C30
:10248000039E3046FDF7B0FE8742EDD30020049E48
:10249000B0810146326989B25054B189491CB18179
:1024A0008AB2632A18D8336900219954B289521C20
:1024B000B28192B2632A0FD833699954B289521CFF
:1024C000B28192B2632A07D833699954B189491C01
:1024D000B1818AB2642ADDD30027B781B068FFF7E3
:1024E000D5F9DC48FFF7D2F9DB4908687060086865
:1024F0007168401AD94EB0420ED20397049F3846F5
:10250000FFF790F9D4490A687968511AB142F6D3B5
:102510000290049E039F02E004200290049E326910
:102520003068CFA101F01CF836683078002812D04E
:102530000396F65D28462146FFF7E0F90028F9D01A
:1025400028463146FFF727FA7F1C039E3046FDF7E9
:102550004BFE8742EDD30020049EB08101463269D4
:1025600089B25054B189491CB1818AB2632A18D802
:10257000336900219954B289521CB28192B2632A04
:102580000FD833699954B289521CB28192B2632A2E
:1025900007D833699954B189491CB1818AB2642A38
:1025A000DDD300200090B081B068AF49AF4AFDF79D
:1025B000E3FDB068FFF76AF9A648FFF767F9AC4892
:1025C00000BF00BF00BF00BF00BF00BF00BF00BF13
:1025D00000BF00BF00BF00BF00BF00BF00BF00BF03
:1025E00000BF00BF00BF00BF00BF00BF00BF00BFF3
:1025F00000BF00BF00BF00BF00BF00BF00BF00BFE3
:1026000000BF00BF00BF00BF00BF00BF00BF00BFD2
:1026100000BF00BF00BF00BF00BF00BF00BF00BFC2
:1026200000BF00BF00BF00BF00BF00BF00BF00BFB2
:1026300000BF00BF00BF00BF00BF00BF00BF00BFA2
:1026400000BF00BF4238BBD1019886073046214603
:10265000FFF754F90028F9D01A213046FFF79BF90B
:102660007D4B1868049E706018687168401A814F2D
:10267000B8420BD230461E46FFF7D4F83346049ECC
:102680001A687168511AB942F4D3029032693068FD
:10269000794900F065FF366830780028009814D03A
:1026A00003960746365C28462146FFF727F900289F
:1026B000F9D028463146FFF76EF97F1C039E30465D
:1026C000FDF792FD87423846EBD30020049EB0818F
:1026D0000146326989B25054B189491CB1818AB22C
:1026E000632A18D8336900219954B289521CB281E7
:1026F00092B2632A0FD833699954B289521CB281BD
:1027000092B2632A07D833699954B189491CB181BF
:102710008AB2642ADDD30027B78130680299042980
:1027200004D849B28900564A525800E0534A5549E4
:1027300000F016FF306803900078002815D0039E43
:10274000F65D28462146FFF7D9F80028F9D028463B
:102750003146FFF720F97F1C039E3046FDF744FD0C
:102760008742EDD3049E306800E0039846490C226E
:10277000FDF702FD37683878002813D0002604974B
:10278000BF5D28462146FFF7B9F80028F9D0284652
:102790003946FFF700F9761C049F3846FDF724FD03
:1027A0008642EDD3394800BF00BF00BF00BF00BF65
:1027B00000BF00BF00BF00BF00BF00BF00BF00BF21
:1027C00000BF00BF00BF00BF00BF00BF00BF00BF11
:1027D00000BF00BF00BF00BF00BF00BF00BF00BF01
:1027E00000BF00BF00BF00BF00BF00BF00BF00BFF1
:1027F00000BF00BF00BF00BF00BF00BF00BF00BFE1
:1028000000BF00BF00BF00BF00BF00BF00BF00BFD0
:1028100000BF00BF00BF00BF00BF00BF00BF00BFC0
:1028200000BF00BF00BF00BF00BF4238BBD102984D
:1028300005B0F0BDD73F000041542B5153534C43DA
:1028400046473D302C302C22636163657274220050
:1028500000000440D43F000018010020D107000010
:102860007C25737C00000000384C0000A4040000AC
:10287000308E3200A10F0000C83F00002C40000045
:10288000903F0000EE3F00000C4C0000F0C6FC0042
:10289000F0B585B005468068FDA11C22FDF76CFCF3
:1028A0002868AA68F94900F05BFE01200190040243
:1028B00004952E683078FD4D002813D0002703962C
:1028C000F65D28462146FFF719F80028F9D028467A
:1028D0003146FFF760F87F1C039E3046FDF784FC0D
:1028E0008742EDD30020049EB0810146326989B24F
:1028F0005054B189491CB1818AB2632A18D833690E
:1029000000219954B289521CB28192B2632A0FD825
:1029100033699954B289521CB28192B2632A07D8A2
:1029200033699954B189491CB1818AB2642ADDD3D3
:102930000027B781B068FEF7A9FFDD48FEF7A6FFC4
:10294000DC490868706008687168401ADA4EB04265
:102950000ED20397049F3846FEF764FFD5490A68F4
:102960007968511AB142F6D30290049E039F02E0A7
:1029700004200290049E31693068FDF74AFC3668F5
:102980003078002812D00396F65D28462146FEF7DF
:10299000B5FF0028F9D028463146FEF7FCFF7F1C22
:1029A000039E3046FDF720FC8742EDD30020049EB5
:1029B000B0810146326989B25054B189491CB18154
:1029C0008AB2632A18D8336900219954B289521CFB
:1029D000B28192B2632A0FD833699954B289521CDA
:1029E000B28192B2632A07D833699954B189491CDC
:1029F000B1818AB2642ADDD300200090B081B06832
:102A0000AE49AF4AFDF7B8FBB068FEF73FFFA848F4
:102A1000FEF73CFFAB4800BF00BF00BF00BF00BFD8
:102A200000BF00BF00BF00BF00BF00BF00BF00BFAE
:102A300000BF00BF00BF00BF00BF00BF00BF00BF9E
:102A400000BF00BF00BF00BF00BF00BF00BF00BF8E
:102A500000BF00BF00BF00BF00BF00BF00BF00BF7E
:102A600000BF00BF00BF00BF00BF00BF00BF00BF6E
:102A700000BF00BF00BF00BF00BF00BF00BF00BF5E
:102A800000BF00BF00BF00BF00BF00BF00BF00BF4E
:102A900000BF00BF00BF00BF00BF4238BBD10198DC
:102AA000860730462146FEF729FF0028F9D01A2173
:102AB0003046FEF770FF7F4B1868049E7060186800
:102AC0007168401A804FB8420BD230461E46FEF75E
:102AD000A9FE3346049E1A687168511AB942F4D3AC
:102AE000029032693068794900F03AFD36683078F2
:102AF0000028009814D003960746365C28462146E5
:102B0000FEF7FCFE0028F9D028463146FEF743FFC9
:102B10007F1C039E3046FDF767FB87423846EBD3A8
:102B20000020049EB0810146326989B25054B189B7
:102B3000491CB1818AB2632A18D83369002199549B
:102B4000B289521CB28192B2632A0FD83369995468
:102B5000B289521CB28192B2632A07D83369995460
:102B6000B189491CB1818AB2642ADDD30027B781BB
:102B700030680299042904D849B28900554A52584C
:102B800000E0534A544900F0EBFC306803900078B1
:102B9000002815D0039EF65D28462146FEF7AEFEBE
:102BA0000028F9D028463146FEF7F5FE7F1C039E2B
:102BB0003046FDF719FB8742EDD3049E306800E0F4
:102BC000039846490C22FDF7D7FA37683878002871
:102BD00013D000260497BF5D28462146FEF78EFEDF
:102BE0000028F9D028463946FEF7D5FE761C049F0A
:102BF0003846FDF7F9FA8642EDD3394800BF00BFE9
:102C000000BF00BF00BF00BF00BF00BF00BF00BFCC
:102C100000BF00BF00BF00BF00BF00BF00BF00BFBC
:102C200000BF00BF00BF00BF00BF00BF00BF00BFAC
:102C300000BF00BF00BF00BF00BF00BF00BF00BF9C
:102C400000BF00BF00BF00BF00BF00BF00BF00BF8C
:102C500000BF00BF00BF00BF00BF00BF00BF00BF7C
:102C600000BF00BF00BF00BF00BF00BF00BF00BF6C
:102C700000BF00BF00BF00BF00BF00BF00BF00BF5C
:102C80004238BBD1029805B0F0BDC046D73F000026
:102C900041542B5153534C4346473D302C302C224A
:102CA000636C69656E746365727422000000044091
:102CB000D43F000018010020D1070000B8400000F8
:102CC000C5040000308E3200A10F0000C83F000094
:102CD0002C400000903F0000EE3F00000C4C000034
:102CE000F0C6FC00F0B585B005468068FDA11B224A
:102CF000FDF742FA2868AA68F94900F031FC012082
:102D00000190040204952E683078FD4D002813D000
:102D100000270396F65D28462146FEF7EFFD0028C2
:102D2000F9D028463146FEF736FE7F1C039E30461A
:102D3000FDF75AFA8742EDD30020049EB081014688
:102D4000326989B25054B189491CB1818AB2632A6F
:102D500018D8336900219954B289521CB28192B2B9
:102D6000632A0FD833699954B289521CB28192B246
:102D7000632A07D833699954B189491CB1818AB251
:102D8000642ADDD30027B781B068FEF77FFDDD48F8
:102D9000FEF77CFDDC490868706008687168401ABD
:102DA000DA4EB0420ED20397049F3846FEF73AFD42
:102DB000D5490A687968511AB142F6D30290049E47
:102DC000039F02E004200290049E31693068FDF701
:102DD00020FA36683078002812D00396F65D28462F
:102DE0002146FEF78BFD0028F9D028463146FEF734
:102DF000D2FD7F1C039E3046FDF7F6F98742EDD3E6
:102E00000020049EB0810146326989B25054B189D4
:102E1000491CB1818AB2632A18D8336900219954B8
:102E2000B289521CB28192B2632A0FD83369995485
:102E3000B289521CB28192B2632A07D8336999547D
:102E4000B189491CB1818AB2642ADDD30020009087
:102E5000B081B068AE49AF4AFDF78EF9B068FEF7B1
:102E600015FDA848FEF712FDAB4800BF00BF00BF2C
:102E700000BF00BF00BF00BF00BF00BF00BF00BF5A
:102E800000BF00BF00BF00BF00BF00BF00BF00BF4A
:102E900000BF00BF00BF00BF00BF00BF00BF00BF3A
:102EA00000BF00BF00BF00BF00BF00BF00BF00BF2A
:102EB00000BF00BF00BF00BF00BF00BF00BF00BF1A
:102EC00000BF00BF00BF00BF00BF00BF00BF00BF0A
:102ED00000BF00BF00BF00BF00BF00BF00BF00BFFA
:102EE00000BF00BF00BF00BF00BF00BF00BF42382F
:102EF000BBD10198860730462146FEF7FFFC00282B
:102F0000F9D01A213046FEF746FD7F4B1868049E23
:102F1000706018687168401A804FB8420BD2304612
:102F20001E46FEF77FFC3346049E1A687168511AEC
:102F3000B942F4D3029032693068794900F010FB4D
:102F4000366830780028009814D003960746365C1F
:102F500028462146FEF7D2FC0028F9D02846314603
:102F6000FEF719FD7F1C039E3046FDF73DF98742B1
:102F70003846EBD30020049EB0810146326989B205
:102F80005054B189491CB1818AB2632A18D8336977
:102F900000219954B289521CB28192B2632A0FD88F
:102FA00033699954B289521CB28192B2632A07D80C
:102FB00033699954B189491CB1818AB2642ADDD33D
:102FC0000027B78130680299042904D849B28900E2
:102FD000554A525800E0534A544900F0C1FA30684B
:102FE00003900078002815D0039EF65D2846214600
:102FF000FEF784FC0028F9D028463146FEF7CBFCCA
:103000007F1C039E3046FDF7EFF88742EDD3049E08
:10301000306800E0039846490C22FDF7ADF83768A8
:103020003878002813D000260497BF5D2846214633
:10303000FEF764FC0028F9D028463946FEF7ABFCC1
:10304000761C049F3846FDF7CFF88642EDD3394809
:1030500000BF00BF00BF00BF00BF00BF00BF00BF78
:1030600000BF00BF00BF00BF00BF00BF00BF00BF68
:1030700000BF00BF00BF00BF00BF00BF00BF00BF58
:1030800000BF00BF00BF00BF00BF00BF00BF00BF48
:1030900000BF00BF00BF00BF00BF00BF00BF00BF38
:1030A00000BF00BF00BF00BF00BF00BF00BF00BF28
:1030B00000BF00BF00BF00BF00BF00BF00BF00BF18
:1030C00000BF00BF00BF00BF00BF00BF00BF00BF08
:1030D00000BF00BF4238BBD1029805B0F0BDC0466A
:1030E000D73F000041542B5153534C4346473D308A
:1030F0002C302C22636C69656E746B65792200003C
:1031000000000440D43F000018010020D107000057
:10311000804500008C060000308E3200A10F0000B8
:10312000C83F00002C400000903F0000EE3F000030
:103130000C4C0000F0C6FC00F0B589B00490F648D5
:1031400000687D210191C900FDF796FA401E010E2D
:103150000DD1F249F24A5060F24803680B40032156
:103160008907591801600020906007201060002531
:103170002846FEF787F801273846FEF783F8022431
:103180002046FEF77FF82846FEF7C8F83846FEF7D7
:10319000BBF82046FEF7C2F87804112189023B46AD
:1031A000FDF7CCFF3E02E04831462A46FEF757F8CD
:1031B00080210624059438462246FDF7B3FE3846A2
:1031C00031462246FDF7AEFE089507964B20C0011A
:1031D0000690D64C06A92046FEF796FB20462946C7
:1031E0003A46FEF7DAFB204639463A46FEF7D5FB6B
:1031F000380403904121009109023B46FDF79EFFF0
:10320000CB48082102912A46FEF729F804212846D6
:10321000059C2246FDF786FE284602992246FDF7C8
:1032200081FE08950796E120400202900690BC07B7
:1032300006A92046FEF768FB204629463A46FEF7D7
:10324000ACFB204639463A46FEF7A7FB2120410257
:1032500003983B46FDF772FF20210391B4482A46AC
:10326000FDF7FDFF10212846059C2246FDF75AFE7A
:10327000284603992246FDF755FE089507960298C1
:103280000690AC4C06A92046FEF73EFB2046294698
:103290003A46FEF782FB204639463A46FEF77DFB6A
:1032A000FEF772F8FEF71FF9A34800F01BFE049F1B
:1032B00038600590002854D09F4800F013FEB86095
:1032C000002800D196E0642000F00CFE3861002850
:1032D00000D1D8E099A11522059F3846FCF74CFF94
:1032E0007F5D20463146FEF709FB0028F9D02046D5
:1032F0003946FEF750FB6D1C059F3846FCF774FFFE
:103300008542EDD3049EB068002181705421417044
:103310000099017001980401032530462946224690
:10332000FEF712FFB0688B490522FCF725FF3046F7
:1033300029462246FEF708FFB06887491C22FCF7A1
:103340001BFF304629462246FEF7FEFE3046FFF7B9
:1033500073F83046FFF79CFA3046FFF7C3FC09B01C
:10336000F0BD7E4800BF00BF00BF00BF00BF00BF70
:1033700000BF00BF00BF00BF00BF00BF00BF00BF55
:1033800000BF00BF00BF00BF00BF00BF00BF00BF45
:1033900000BF00BF00BF00BF00BF00BF00BF00BF35
:1033A00000BF00BF00BF00BF00BF00BF00BF00BF25
:1033B00000BF00BF00BF00BF00BF00BF00BF00BF15
:1033C00000BF00BF00BF00BF00BF00BF00BF00BF05
:1033D00000BF00BF00BF00BF00BF00BF00BF00BFF5
:1033E00000BF00BF00BF00BF4238BBD10020FDF7C7
:1033F0009FFFFEE7594800BF00BF00BF00BF00BFEE
:1034000000BF00BF00BF00BF00BF00BF00BF00BFC4
:1034100000BF00BF00BF00BF00BF00BF00BF00BFB4
:1034200000BF00BF00BF00BF00BF00BF00BF00BFA4
:1034300000BF00BF00BF00BF00BF00BF00BF00BF94
:1034400000BF00BF00BF00BF00BF00BF00BF00BF84
:1034500000BF00BF00BF00BF00BF00BF00BF00BF74
:1034600000BF00BF00BF00BF00BF00BF00BF00BF64
:1034700000BF00BF00BF00BF00BF4238BBD100206B
:10348000FDF756FFFEE7354800BF00BF00BF00BF95
:1034900000BF00BF00BF00BF00BF00BF00BF00BF34
:1034A00000BF00BF00BF00BF00BF00BF00BF00BF24
:1034B00000BF00BF00BF00BF00BF00BF00BF00BF14
:1034C00000BF00BF00BF00BF00BF00BF00BF00BF04
:1034D00000BF00BF00BF00BF00BF00BF00BF00BFF4
:1034E00000BF00BF00BF00BF00BF00BF00BF00BFE4
:1034F00000BF00BF00BF00BF00BF00BF00BF00BFD4
:1035000000BF00BF00BF00BF00BF00BF4238BBD13B
:103510000020FDF70DFFFEE71C000020FFFFFF006D
:1035200010E000E020ED00E000200B400010004023
:1035300000000B4000000440A406000053657475B1
:1035400070207375636365737366756C6C79210A9B
:103550000000000004400000F8500000308E3200EF
:103560000FB410B504A9074B02AA039800F002F9A2
:10357000044602A9002000F099FC204610BC08BCBB
:1035800004B01847AD3E00002021020C01D01021EC
:103590001046020A01D010460839020901D010462F
:1035A000091F820801D01046891E420801D0881EDA
:1035B0007047081A70470000014800687047000013
:1035C0000C00002002E008C8121F08C1002AFAD12E
:1035D00070477047002001E001C1121F002AFBD193
:1035E0007047000001490860704700000C0000208F
:1035F000F0B51FB486B00998089A030D0021024364
:1036000014D05148514A18185043051411980128F4
:1036100010981AD0281A401C00264D4F4D4900968C
:1036200001910490002812DA444211E0119801241B
:1036300049A3012801D11098C1430698119A8460CA
:103640000360C26041600BB0F0BD4042E4E7044655
:10365000210500203F4A001C51410391029012E0D5
:10366000E00707D032463B4601990098FCF748FF37
:103670000191009032463B4610461946FCF740FF48
:1036800006460F466410002CEAD10498039B0028DC
:10369000029A0999089806DAFCF732FF019B009A12
:1036A000FCF72EFF05E0FDF753F9019B009AFDF7AB
:1036B0004FF904460E460022284BFDF7E1F903D8E6
:1036C0000020C043014607E00022254B204631463A
:1036D000FCF764FEFDF7B4F9102409E0002C0ADBC6
:1036E0000A220023FCF7E7FF079B30321A55641EBD
:1036F00002460A43F2D11122641C079B121B1C19BB
:10370000119B012B03D0012308430ED10AE008438B
:1037100004D0112010900020119077E71098151A0E
:103720006D1E0BE01098824202DD00236D1C03E049
:10373000824201DA00236D1E002BEED0069811990B
:103740008260C16030C07EE701FCFFFF104D0000C9
:10375000000014400000F03F300000000000F04383
:103760000000E03F30380A2801D2012070470020D5
:1037700070470000FFB597B00646002518E22528DF
:1037800077D100242746FD49049400E00443761CC9
:1037900032780120203A90400842F7D130782A2828
:1037A0000ED00222307801463039092916D8049902
:1037B0000A235943303940181443761C0490F1E72A
:1037C000189802C804911890002904DA01204003D7
:1037D00004434842049002200443761C30782E288B
:1037E00014D1042004437078761C2A2809D1189833
:1037F000761C80C8189009E00A214F43303FC71952
:10380000761C3078014630390929F5D930786C2892
:1038100010D006DC4C281AD068280ED06A2817D1A0
:1038200004E0742813D07A2812D110E0012040055A
:1038300004430CE00121090501E0032109050C43C3
:103840007178814203D1012000052418761C761C72
:103850003078119066280BD013DC58287DD009DC15
:1038600000287BD04528F6D04628F4D047281AD126
:10387000A5E118E0632835D0642870D0652812D1FE
:103880009DE170286CD008DC6728F1D069287BD0D6
:103890006E280DD06F2806D1BAE073282ED0752877
:1038A00071D0782859D01A9A199990476D1C7EE1E9
:1038B0006002400F022809D003280DD00428189870
:1038C00001680DD00D60001D189070E11898EA177E
:1038D00001680D604A60F6E7189801680D80F2E70C
:1038E0000D70F0E718986A4601781172001D189063
:1038F0000020507202A80090012005E0189802C82C
:10390000189000200091C04361070DD5002101E00F
:103910000199491C0191B94212DA8142F8DB009AFF
:10392000515C0029F4D10BE0002101E00199491C10
:1039300001918142FADB019A0099895C0029F5D155
:10394000019904981A9B471A21463846199A00F0A3
:1039500097FA0199401945180BE04FE02CE113E06C
:103960004EE0009800990078491C00911A9A199924
:1039700090470198401E0190401CF2D121463846E4
:103980001A9B199A10E137E00A200021009001915A
:103990006002410F022907D0189A01CA1892C21773
:1039A0009446032908D00AE01898C01DC108C90030
:1039B00005C91891944607E000B2C217944604293D
:1039C00002D140B2C1178C4600226146944506DA06
:1039D0000A460021404291418C462D2102E02105FA
:1039E00004D52B216A461173012103E0E10701D0C0
:1039F0002021F7E7029155E00A200AE0102008E0B4
:103A0000102000900021042004430191082703E0C6
:103A100008200021019100906002410F022907D087
:103A2000189A01CA189200229446032908D008E087
:103A30001898C01DC108C90005C91891944603E033
:103A400080B2042900D1C0B200210291210729D5FA
:103A50001199702906D0009A1021019B4A401A43FF
:103A600005D00EE040216A461173012108E061464D
:103A7000014306D030216A46117311995173022116
:103A80000291009A0821019B4A401A430AD16146DB
:103A9000014301D1610705D530216A461173012127
:103AA0007F1E02911199582904D035A10E910DA9BC
:103AB0000D910DE037A1F9E76146019B009AFCF7F3
:103AC000FAFD0E9B8C469B5C0D9A521E0D92137054
:103AD00061460143F0D10D9805A9081A20300190E4
:103AE000600703D501200004844300E0012701980A
:103AF000874201DD381A00E000200199009041184A
:103B0000029809180498401A0490E00306D421464C
:103B10001A9B199A049800F0B3F94519002706E09A
:103B200003A81A9AC05D199990476D1C7F1C0298D2
:103B30008742F5DBE0030CD521461A9B199A0498BD
:103B400000F09EF9451904E01A9A3020199990471F
:103B50006D1C0099481E00900029F5DC08E00D98C6
:103B60000D990078491C0D911A9A199990476D1C6E
:103B70000199481E01900029F1DC63E10928010048
:103B800030313233343536373839616263646566D3
:103B90000000000030313233343536373839414295
:103BA000434445460000000000F05AF94519761CD0
:103BB0003078002800D0E2E528461BB0F0BD600751
:103BC00000D406271898C01DC108C90048680A68B3
:103BD0000831C30FDB071891190001D09CA108E040
:103BE000210501D59BA104E0E10701D09AA100E0E5
:103BF0009AA1430011985B08109165280CD006DC4F
:103C0000452809D046281DD0472841D141E06628E3
:103C100018D067283CD13CE00021112F01DB112096
:103C200000E0781C0191009008A911A8FFF7E0FCC2
:103C3000139905910021119A15927F1C12980197F2
:103C4000009150E00120C00703900120019008A9D5
:103C5000009711A8FFF7CCFC139A14990592002243
:103C6000119B009212981593059A0192002901D098
:103C7000104602E0791C40180190381A01D50198CD
:103C800004E04042401E0090781C0190C01B02904E
:103C900043E0012F00DA01270021112F01DD11205F
:103CA00000E038460191009008A911A8FFF7A0FC98
:103CB00013990591119A002112981592009101977C
:103CC00021070CD40599B94201DB019900E001916B
:103CD000012904DD159A491E515C302906D0B842ED
:103CE00001DA011D05DA0121029115E00199491E51
:103CF000EDE7002805DC0099411800910199091AA7
:103D000003E0019A411C914200DD01910099401AA3
:103D1000401C02900120C0070390200706D402999E
:103D20000198814202DB0020C043029000206946D6
:103D3000C87707AF012103980337C907884224D009
:103D4000022011902B201290039800280CDA404298
:103D500003902D20129007E00A210398FCF78CFCB9
:103D600030317F1E039039701199481E119000293F
:103D7000F2DC03980028EFD1791E12980870307891
:103D8000202108404530BF1E387006A8C01BC01D4A
:103D9000039010980078002800D001200199411864
:103DA0000298C0170918039809180498401A401E71
:103DB0000490E00306D421461A9B199A049800F057
:103DC0005FF8451910980078002803D01A9A1999BD
:103DD00090476D1CE00324D521461A9B199A04983C
:103DE00000F04EF845191CE00098002807DB009908
:103DF0000598884203DD1598405C199901E01999EE
:103E000030201A9A904700986D1C401C0090029830
:103E1000401E0290002804D11A9A2E20199990472A
:103E20006D1C0199481E01900029DDDC05E0387801
:103E30001A9A7F1C199990476D1C0399481E03908C
:103E40000029F4DC21461A9B199A0498ACE600007C
:103E50002D0000002B0000002000000000000000EA
:103E6000F8B5044600251E461746880404D405E02C
:103E700039462020B0476D1C641EF9D52846F8BD90
:103E8000FFB50446002581B01E46C80301D5302782
:103E900000E02027880404D505E038460399B047A0
:103EA0006D1C641EF9D5284605B0F0BD0A68531C88
:103EB0000B601070704730B583B00446FFF77CFB91
:103EC00005460020009002460190012321466846E5
:103ED000FCF764FC2846FFF785FB0199009803B0C6
:103EE00030BD0000F0B50B30C108C900144F0026EA
:103EF000144A0FE003688B420BD38B4205D95C1A3E
:103F00004318456830C3083B00E04368136002C0B3
:103F100004E0021D10680028ECD13046002803D1CF
:103F20003868002801D00020F0BD064A064810601D
:103F3000064A121AD208D20044C001203860D7E7DE
:103F4000080000200400002024010020200100209F
:103F5000DDDDDDDDDCBBBBDDDDDDDDDDDDDDDDDDD6
:103F60009888888888888888777777777788888816
:103F700085555556666666666666666666688888AE
:103F80008333333222222222222222222228888DA7
:103F900024400000134000003F4000001940000092
:103FA0000B40000000000B4000200B4000400B4085
:103FB00000600B4000800B40000000000101010286
:103FC000020100010002800025730A0A000D0A0D9B
:103FD0000A004F4B0D0A000A3D3D3D2053454E441B
:103FE000494E47203C25733E203D3D3D0A00436F2E
:103FF0006D6D616E64207374617475733A202573FE
:104000000A002C0041544530004100554E4B4E4FA4
:10401000574E004552524F5200504152414D455467
:10402000455253005355434345535300554E535542
:1040300050504F525445442053544154555300540A
:10404000494D454F5554007B226D6573736167651B
:10405000223A7B2274696D65223A2231352D303542
:104060002D323032332031353A31313A3335222C4A
:1040700022616363655F78223A22256864222C22DC
:10408000616363655F79223A22256864222C22618C
:104090006363655F7A223A22256864222C226C6170
:1040A00074223A222566222C226C6F6E67223A22F5
:1040B0002566227D7D0000002D2D2D2D2D424547AA
:1040C000494E2043455254494649434154452D2DBC
:1040D0002D2D2D0A4D49494457544343416B4767A1
:1040E0004177494241674955534879333630324A1E
:1040F000374573474439797537697844324E684596
:1041000057384D774451594A4B6F5A496876634E38
:104110004151454C0A425141775454464C4D456BF0
:1041200047413155454377784351573168656D397B
:10413000754946646C596942545A584A3261574E1F
:104140006C6379425050554674595870766269359F
:104150006A623230670A5357356A4C69424D50568D
:104160004E6C595852306247556755315139563265
:10417000467A61476C755A335276626942445056AA
:1041800056544D4234584454497A4D4449774F541B
:1041900041334D7A59790A4D466F58445451354D43
:1041A00054497A4D54497A4E546B314F566F774883
:1041B0006A45634D426F47413155454177775451C8
:1041C00056645449456C76564342445A584A3061C5
:1041D000575A70593246300A5A544343415349772B
:1041E0004451594A4B6F5A496876634E4151454292
:1041F00042514144676745504144434341516F43F5
:1042000067674542414C72526753615349326A4F66
:104210003671393130746A710A304956376D7850C9
:10422000795476546F712F2B6E7559496277767772
:104230005A61536570465A38434958744364565915
:10424000526C764E63612F48486244615070704EE4
:10425000736A72304B566170510A3964324D733251
:10426000502F544A6A4F6C4159415A52454B705134
:1042700043584139744D68676F4E2F67362F6D4F25
:10428000354D72384230675A424B4F434879467930
:1042900076467944372F6D7257410A4D4B35457933
:1042A00057366936557475577554435244534B58B5
:1042B0003047555830786E324976306763736B6695
:1042C0006A3779534A4755574F46316B704D4C7397
:1042D00032614358717655652B6E710A556A454AAD
:1042E000644F416B6D71646D3676767174584242DD
:1042F000786C4E623674544A736256322F73553955
:1043000031734E4561316978543033492B687946B1
:1043100067434378636B46784E2B72640A6D6F4136
:104320004756314D574F71637256566744784B6804
:104330007A374833324450643336676344503133FC
:1043400075327950564179366145612B68674A3735
:10435000304239626674583254374D70390A484FCA
:1043600063434177454141614E674D463477487715
:1043700059445652306A42426777466F4155346E0F
:10438000547266484C4147696256427A762F4473AC
:10439000374D6672525832384D77485159440A5653
:1043A00052304F4242594546505076466F49503739
:1043B000745255344F79456A4F2B686A6D42416B90
:1043C00079434E4D41774741315564457745422FFA
:1043D0007751434D41417744675944565230500A12
:1043E0004151482F42415144416765414D41304759
:1043F00043537147534962334451454243775541D2
:1044000041344942415141783137496D2F4E596904
:10441000514F7276365648784C2B646F6752696AF2
:104420000A566C6450595A5A547872513665484C41
:104430005369593061585937302B344877306762A7
:104440004E7A673179514A684258766C77596C4395
:1044500056786C2B74343979313049377578755109
:10446000380A765454516A6964494854566654511E
:104470004A4F532F36483156365441724373475191
:10448000614B6E4B6A3272324F6D79475873624F8F
:10449000314350436A3638577A484D536C66394633
:1044A000536D0A336B34426C7767752F71594552DF
:1044B0004443517555315357394C723179765254C2
:1044C0004D556F364358783836746C336D4D3442E1
:1044D000657833684530586D726677776E52633809
:1044E0006564350A384B6F32446A7059737A6B6F62
:1044F0007143572B394E7A4F736437457149737640
:104500006E354675787945486B3646704754696212
:104510004B4E6B45676E4B7665736A3165503471EF
:1045200047796A580A41366854424944576A446D8B
:104530003176766A4B446C746361534B61755435C4
:104540005433553649447A3872387A685545574E4F
:10455000704E4D5A79774D2B4B346A373572575818
:10456000540A2D2D2D2D2D454E442043455254499E
:104570004649434154452D2D2D2D2D0A00000000A4
:104580002D2D2D2D2D424547494E2052534120506F
:10459000524956415445204B45592D2D2D2D2D0A5C
:1045A0004D4949456F77494241414B43415145414E
:1045B000757447424A70496A614D37717233585376
:1045C000324F725168587562452F4A4F394F6972A0
:1045D0002F366535676876432F426C704A366B56C6
:1045E0000A6E77496865304A3156684757383178DE
:1045F00072386364734E6F2B6D6B32794F765170E6
:1046000056716C44313359797A592F394D6D4D3685
:10461000554267426C4551716C414A63443230796E
:10462000470A4367332B44722B59376B79767748A7
:1046300053426B456F34496649584B385849507658
:104640002B6174594177726B544A62714C705332CA
:104650003561354D4A454E497066515A5266544748
:1046600066590A692F53427979522B50764A496B21
:104670005A5259345857536B77757A5A6F4A657145
:10468000395237366570534D516C30344353617035
:104690003262712B2B713163454847553176713148
:1046A0004D6D780A7458622B7854335777305272B4
:1046B000574C465054636A3648495741494C4679ED
:1046C000515845333674326167415A5855785936D6
:1046D0007079745657415045714850736666594D0C
:1046E000393366710A42774D2F586537624939551B
:1046F000444C706F52723647416E76514831742B7C
:1047000031665A5073796E3063357749444151416F
:1047100042416F4942414671593277372F633969B7
:10472000523739486A0A533773534E4D6C6D3567AB
:104730002F49524734556E38533962414D697632AC
:10474000354F5447614659777A586C6245577935E9
:1047500078507232715A655765704646747055705C
:104760006A50336E44690A6F435357576F56306827
:10477000464B4D4C6E4D3053796956374731565143
:10478000697546454D4F36326F3370747A6B6A786F
:104790005742624A436771312B4A48652B314B5867
:1047A000393545626858500A4578484E3973327336
:1047B000596873624F6850776B6E65356C6958380D
:1047C000724C4536464C37365749347741574F641B
:1047D00036414B6B30697332323553626A725047DF
:1047E0006142766F3959476F0A6B417962312F49BF
:1047F0005147684437724842747359725073647AEF
:104800007850686D6F2B6834483066496734713072
:1048100073456854394F6D426D525A594B61376632
:10482000744A4A3657707031440A4D4A362B7362C7
:10483000596F437331544273422F6C4A4F70765410
:10484000474F50516A4C4D7377453251364E69741B
:10485000766D62774E31686F4E7A535041302B77C8
:104860006B73554974566C7855460A4143623174EE
:104870005445436759454134593567567453596C0B
:104880004E444E767A374A7479654C7A6E396C6448
:10489000596D4633374D436F7351344465704F59EA
:1048A00066316B48753469413070480A37506C7313
:1048B00041342F5970384C5544626E6C636F3077B9
:1048C00038306F695874552F41794B4D614A5851B2
:1048D000576338434335303165504C792F4D42355D
:1048E000704C597A4F6E466F354C37460A585435DE
:1048F0004E7A2B497543653558564F696F31467767
:10490000493772797475796A5A506C53356D4F4ACC
:10491000416D49594C30503532434D6C72363662D8
:104920002B7057734367594541314169660A384EC8
:10493000364563664E6D7472393876434D50794A08
:104940005A4D4E5659492F6C4D7A30443853414494
:104950002F6244554F303967306F4F6E456732468E
:1049600064526F57516C73524E524C454B650A5A04
:104970005344665876594E4269643557714A4D76AC
:10498000614C694B383932775A6E566D5573514DBB
:1049900039595076424F506D764948705733707987
:1049A00056736C595742424B50774A5A716C650A9C
:1049B0005932623552636244656B62435A774543AC
:1049C000554C6D7454683538665A6F703549306A85
:1049D000526C7A515358554367594242504A653692
:1049E000705853594869685439776F4B6B6B4B4B10
:1049F0000A634368644C5842742B653136504478DE
:104A00006D4D653248772B305155526D2F543932E8
:104A100072755A77334434532F534D64695450455B
:104A20004442376B76744C4A714D553076542B2F77
:104A3000430A564170563331796446565167376B95
:104A4000752F4E4D4136466F534D6B373664346C7F
:104A50007464453663587944672B6F5250624F41F6
:104A600075556D43587850747355746354586C562B
:104A70004F300A31304F4E6D622B544B2F586870B7
:104A800072677A43544B2F6A774B426743364B53D6
:104A9000686B44726F7959675859685A383666336B
:104AA000346F4775326D466E656D383934574249FB
:104AB0006F46640A67735A526B7A6E69763236387B
:104AC00067426F6361485746567553634F64662B60
:104AD0004D326739492B706A4659374251566A4DF3
:104AE00067513271332F762F794C424D424E396CDB
:104AF00034344F4E0A4F397A72616A7A33585168AA
:104B00004A724F51656C6F44654D4D382F4B77306D
:104B10005770666F706B784E6D776D646E657170EF
:104B20004452572F556F5A36684148424E553136D8
:104B3000775141726B0A756D3831416F4742414A76
:104B40006F39574B454E6E5035674945546D433666
:104B5000524841466D41594F6B546F524B32376446
:104B600069644C2B576F6B476131597563485669BF
:104B7000446B6665554C0A686D6D704F3532392F40
:104B8000545978564774506C68492B667330777661
:104B9000343369413446446A4557557A367542572D
:104BA0004A376E4C67722F352F52692F564D6B4C1A
:104BB000527339576933720A4862674D45536E68BC
:104BC0004D7A6A79396E6F525976707441617565A4
:104BD000363068367564754F4249316B2B587673A1
:104BE000547A4F7238765A5A785577390A2D2D2DC6
:104BF0002D2D454E44205253412050524956415488
:104C000045204B45592D2D2D2D2D0A003D3D3D3D77
:104C10003D3D3D3D3D3D0A0041542B514D54434FD8
:104C20004E4E3D302C22616E6874746D38636C6931
:104C3000656E7422000000002D2D2D2D2D4245475C
:104C4000494E2043455254494649434154452D2D30
:104C50002D2D2D0A4D4949445154434341696D67F7
:104C60004177494241674954426D79667A356D2FE3
:104C70006A416F3534764234696B506D6C6A5A62A2
:104C8000796A414E42676B71686B69473977304288
:104C9000415173460A414441354D5173774351594F
:104CA000445651514745774A56557A45504D413003
:104CB000474131554543684D4751573168656D3916
:104CC000754D526B77467759445651514445784259
:104CD00042625746360A62323467556D397664430C
:104CE0004244515341784D423458445445314D4427
:104CF00055794E6A41774D4441774D466F5844543B
:104D00004D344D4445784E7A41774D4441774D4678
:104D10006F774F54454C0A4D416B474131554542E1
:104D2000684D4356564D78447A414E42674E56423E
:104D3000416F54426B467459587076626A455A4DB9
:104D40004263474131554541784D5151573168656E
:104D50006D397549464A760A623351675130456765
:104D60004D544343415349774451594A4B6F5A4933
:104D70006876634E41514542425141446767455010
:104D80004144434341516F4367674542414C4A3474
:104D90006748484B654E586A0A636139486746421E
:104DA000306657375931346832394A6C6F39316758
:104DB0006859506C30684145767241497468744F47
:104DC000675133704F737154514E726F42766F3327
:104DD00062534D6748467A5A4D0A394F3649493829
:104DE000632B367A663174526E3453576977337455
:104DF0006535646A6764595A366B2F6F493270653E
:104E0000564B5675524634666E3974426236644E5D
:104E100071636D7A55354C2F71770A494641476267
:104E2000487251674C4B6D2B612F7352786D505502
:104E3000446748334B4B484F566A34757457702B50
:104E400055686E4D4A62756C48686562346D6A5586
:104E5000634177686D6168525761360A564F756ACB
:104E600077354835534E7A2F306567774C58307414
:104E7000644841313134676B3935374557573637D8
:104E800063346358386A4A474B4C68442B726364F6
:104E9000717371303870386B4469314C0A3933465C
:104EA00063586D6E2F36705543797A694B726C4139
:104EB00034623976374C57496278636365564F469A
:104EC0003334476649443579484939592F5143426B
:104ED0002F494944456745772B4F79516D0A6A67D9
:104EE0005375624A72497167304341774541416168
:104EF0004E434D45417744775944565230544151C1
:104F0000482F42415577417745422F7A414F4267BA
:104F10004E56485138424166384542414D430A4158
:104F2000595977485159445652304F424259454693
:104F30004951597A495530374C774D6C4A51754330
:104F4000466D637837495154676F494D4130474347
:104F50005371475349623344514542437755410A9F
:104F60004134494241514359386A6461515A436856
:104F700047735632555367674E694D4F7275596F77
:104F8000753672346C4B35497044422F472F776B1E
:104F90006A557530794B475839726278656E444965
:104FA0000A5535504D43436A6A6D4358504936544B
:104FB00035336948546649554A72553661645472AE
:104FC000434332714A65485A455278686C624931A8
:104FD000426A6A742F6D737630746164513177550B
:104FE000730A4E2B674453363370596141436276DE
:104FF0005879384D5779375675333350715558486D
:1050000065654536562F55713256387669544F3995
:10501000364C5846764B576C4A62594B38553930A6
:1050200076760A6F2F7566514A56744D565438512C
:105030007450485268386A72646B50534843613206
:1050400058563463644679517A5231626C645A77A7
:10505000674A634A6D41707A794D5A466F364951B5
:105060003658550A354D73492B794D52512B6844AA
:105070004B584A696F616C6458676A556B4B36349C
:10508000324D345577744256386F6232784A4E4406
:1050900064325A68774C6E6F516465586547414475
:1050A000626B70790A7271585266626F516E6F5AF4
:1050B00073473471355754503436385351767647E8
:1050C000350A2D2D2D2D2D454E4420434552544952
:1050D0004649434154452D2D2D2D2D0041542B5132
:1050E0004D54434C4F53453D3000000041542B512B
:1050F00053434C4B3D30000041542B5153534C43D0
:1051000046473D302C302C227365636C6576656CA8
:10511000222C320041542B514D544F50454E3D30BE
:105120002C2261326874377262646B7436303430AA
:105130002D6174732E696F742E61702D6E6F727491
:1051400068656173742D322E616D617A6F6E61775F
:10515000732E636F6D222C38383833007C51000079
:105160000000002020000000C43500009C51000019
:105170002000002000030000D435000000000000E3
:1051800000000000000000000000000013400000CC
:0C519000CD3F0000D23F000000879303D9
:04000005000000C136
:00000001FF
