:020000040000FA
:1000000070230020C10000002B0100002D01000022
:10001000FFFFFFFFFFFFFFFFFFFFFFFFFFFFFFFFF0
:10002000FFFFFFFFFFFFFFFFFFFFFFFFC502000015
:10003000FFFFFFFFFFFFFFFF81020000C90200007A
:1000400035010000350100003501000035010000D8
:1000500035010000350100003501000035010000C8
:1000600035010000350100003501000035010000B8
:1000700035010000350100003501000035010000A8
:100080003501000035010000350100003501000098
:100090003501000035010000350100003501000088
:1000A0003501000035010000350100003501000078
:1000B0003501000035010000350100003501000068
:1000C0001D4880471D4880471D4800471D4801695D
:1000D000002908D14169002905D18169002902D18F
:1000E000C169002909D01848C1680901090D002912
:1000F0000ED005290CD006290AD0BFF34F8F134824
:100100001349016013491248C860BFF34F8FFEE7DF
:100110000E4801680E48884200D070470E480F49CB
:1001200001600A480E4901607047FEE7FEE7FEE7FE
:10013000FEE7FEE7FEE70000CD00000075030000CB
:100140006501000000030840800108400000002015
:100150000400FA0500ED00E0008108400100000005
:10016000000000000348854600F062F800480047A0
:10017000450500007023002030B5434351435C180F
:10018000010C130C0D465D432C1980B292B205464A
:10019000554351430A0C09044D1962415843010C5F
:1001A00000044019514130BD03460B439B0703D067
:1001B00009E008C9121F08C0042AFAD203E00B782C
:1001C0000370401C491C521EF9D27047D2B201E0A4
:1001D0000270401C491EFBD270470022F6E710B5A2
:1001E00013460A4604461946FFF7F0FF204610BDA5
:1001F00070B50446002903D000202022012310E01E
:10020000002801D00020C043C046C0460DE025466E
:10021000D5408D4205D30D469540641B1D46954043
:1002200040191546521E002DF1DC214670BD00001C
:10023000064C0125064E05E0E36807CC2B430C3C39
:1002400098471034B442F7D3FFF790FF301C0000FA
:10025000501C00004100054A515A054A105C8000BC
:10026000044A1058026A4A4002627047241C000087
:10027000201C0000081C000000000000000000001E
:10028000EFF309800E4B1A6820381060F0C0444626
:100290004D4656465F46F0C008B572B600F0B4FF52
:1002A00062B60CBC116808681030F0C8A046A946B8
:1002B000B246BB4680F309882038F0C81847C046CC
:1002C0000C0000207047000010B500F01AFD044635
:1002D00001F054FA002803D0012000070249086009
:1002E000204600F029FD10BD04ED00E0F0B581B01E
:1002F0001D4CA0680721256822685201120F03D007
:1003000022685201120F00E0102200922668E26972
:100310000A40571E062F25D8144AC0467F443F790D
:100320007F00BF44031B1B1F1F0B0E00ED006768FF
:10033000183C2368002F07DA002407E00122D203CB
:100340000CE07D22120209E073029C0F009BED0F6E
:10035000002F00DA0123EA405A43E2400840C2403D
:100360000348026001B0F0BD1880084000127A0016
:1003700000000020F0B586B05948102105910160B9
:100380005849C86A402203921043C862564802681E
:10039000272A08D00268272A05D00268272A02D017
:1003A0000268272AF3D10324A0020A6A82430A6260
:1003B0000122D0020B6803430B604868000708D491
:1003C0004868000705D44868000702D44868000759
:1003D000F3D50868049420430423029398430860EB
:1003E000086B0724204003280BD0086B204003280B
:1003F00007D0086B2040032803D0086B2040032857
:10040000EED13A4B1868104306250195A8431860B1
:1004100000200090C86157020868B84308601302C2
:10042000081F05681D4305600D680826B5430D606B
:1004300005683D43056095020E682E430E604D68C9
:100440006D0708D44D686D0705D44D686D0702D45B
:100450004D686D07F3D5CD6A039EB543CD620F2578
:10046000ED054D6115074E692E434E6105689D43AC
:1004700005600868384308604868800708D4486801
:10048000800705D44868800702D448688007F3D500
:10049000164D2868049B1843029B984328600098D7
:1004A000C86108681043019B98430860086B2040AE
:1004B00001280BD0086B2040012807D0086B204092
:1004C000012803D0086B20400128EFD12868059946
:1004D00008432860100329680143296006B0F0BD75
:1004E0000C8108400480084008A106400002084032
:1004F00080B50020FFF7AEFE80BD80B50120FFF77C
:10050000A9FE80BD0C4801680020002900D070477A
:100510000A4909680029FAD1094909680029F6D170
:100520004C48006881490968491E884201D0012071
:10053000704702207047C046182100206C2100201F
:100540001421002082B0FFF7D1FE0024022600967D
:100550000194114811A110252A46234600F0FEFF00
:10056000009601940F4810A12A46234600F0F6FF9A
:10057000009601940E480FA12A46234600F0EEFF94
:10058000009601940D480EA12A46234600F0E6FF8E
:1005900000F0D4FDFEE7C046D90C00007461736B17
:1005A0005F310000E50C00007461736B5F32000086
:1005B000F30C00007461736B5F330000FB0C0000F0
:1005C0007461736B5F340000F0B581B00D46044672
:1005D0005B480768584E3068552100224254306805
:1005E000001D00F092FB601C16D1002D14D0316864
:1005F0001848426893683468E3608A609168336899
:100600001B1D4B603168091D9160316848610168AC
:10061000491C016001B0F0BD3C193068446007D34B
:100620000B4800683168091D00F096FB01B0F0BD71
:10063000064800683168091D00F08EFB3F480168DC
:100640008C4200D2046001B0F0BDC046140000200E
:100650001C0000203821002082B001200190314E82
:10066000314D324F14E000F095FBE868C468201D5E
:1006700000F04BFB3868401E38603068401E306028
:1006800000F092FB206B00F09DFB204600F09AFBEF
:1006900030680028E7D126480068022801D300F01E
:1006A000A3FC2448006824490968C96A0029EFD1DD
:1006B000411E88411E4909680129019900D8014657
:1006C0000029E5D11D4800681D490968401A022823
:1006D000DED31C490868401C0860184800681849A7
:1006E000096888421CD31348006813490968C96A1D
:1006F000002912D1411E88410D490968012901993B
:1007000000D80146002908D10C4800680C49096846
:10071000401A022801D300F0E5FB01F083F9B7E7A6
:1007200072B6FEE7942000204C210020902000208B
:1007300024000020A02000200C0000200421002024
:100740006021002098200020F0B583B00290846CD6
:10075000002C1DD0E06BA16B81421BD2A16B8142AA
:100760001AD245202756F8B20190226CA66B002AB7
:1007700014D0606802A9FFF717FD206C61680818A3
:100780006060A1680025884213D32068606010E093
:1007900072B6FEE772B6FEE7002525E02068002865
:1007A00001D0002505E0A06801F092F80546002080
:1007B000A060701CA063019EFF2E07D000F0B6FA67
:1007C000B84211D97F2E0CD172B6FEE7606A0028BC
:1007D0000AD02434204601F0B5F8002804D00125C1
:1007E00002E04534701C2070284603B0F0BD0000C4
:1007F000F0B583B0044600F0BBFF224A116888427E
:1008000031D201900294AA4D07E031462831FE22F0
:1008100010400870316A304688472868016800290E
:1008200023D0C0680468C668371D384600F06DFAEA
:100830002820305C4107E8D5B0690519756036613C
:10084000A54209D3316A30468847B06940197060C3
:100850003661A8420546F5D296480068394600F050
:100860007BFA934DD6E7002107E092490A682A6097
:1008700008600121029C0198024A1060216003B0C7
:10088000F0BDC0460800002081B0002000900A485A
:10089000006872B6401C09D0FEE70098002808D115
:1008A0000098002805D10098002802D1009800285F
:1008B000F3D001B07047C0460400002086B07E4FE0
:1008C0007B4800680568002D02D0C068066800E01B
:1008D000002600F093FC02A8FFF78AFF0446029866
:1008E000002802D001F09EF847E0002D28D0A64253
:1008F00026D801F097F86E480068C068C568281DC2
:10090000009000F002FA2820285C41070CD4294608
:100910002831FE22104008702CE0A11B814223D315
:10092000296A284688473E46A86987196F602D6165
:10093000A742F2D9B44201D2B742F1D25C4814E0E6
:10094000002D01D0002204E05A48006800684242AD
:100950004241311B386800F053FB01F063F8002876
:100960000BD100F041FB08E052480068009900F00C
:10097000F3F9514F296A28468847386802A90022AE
:1009800000F00EFD00289BD00298002806D505999E
:100990000498039A904702980028EED4049C60695A
:1009A000002802D0201D00F0B0F901A8FFF720FFB9
:1009B00005460298401E0828DFD8C04678440079D2
:1009C000400087440A0A0426450A0A042600282013
:1009D000215CFE220A402254CFE72820215C01221C
:1009E0000A432254A069039A831863602461261D78
:1009F000AB4223D995422E4F24D293422C4F21D380
:100A00004A072DD420462830FE22114001702A4F7B
:100A100047E02820215C01220A4322540398A06168
:100A2000002842D0401960602461A842204800D8C4
:100A300020480068211D00F08FF99EE7AA1A824223
:100A40001C4FDDD23868314600F086F91A4F94E722
:100A50002820205C810719D4204600F0B3F98CE7E8
:100A60000399091807E0691A814214D3216A2046C4
:100A70008847A06939460F1867602461AF42F2D9F0
:100A80008D4201D28F42F1D2094805E02834FE217F
:100A90000840207071E70748074F0068314600F0B2
:100AA0005BF9216A2046884767E772B6FEE7C046D1
:100AB000100000202000002064210020F0B581B04B
:100AC00004460646443600F065F9012030560128F8
:100AD0001BDB2546243503E0781E79B2012914DD9D
:100AE0000746A06C002805D02046FFF72DFE002801
:100AF00008D1F1E72868002807D0284600F022FF37
:100B00000028E9D000F0E2FAE6E7FF25757000F072
:100B10004BF900F03FF900203756012F11DB10345C
:100B200004E0781E79B2012907460ADD2068002812
:100B300007D0204600F006FF0028F2D000F0C6FAE9
:100B4000EFE7357000F030F901B0F0BDF0B583B0DB
:100B5000054600F053FBBF480068002822D1BC4E78
:100B6000002171600720504C27460740C343E01D19
:100B70001840002F024600D122463260012676033B
:100B8000002F01D0201A8619901918400838B14B4F
:100B9000186001604160811A5160444B1960AB4B91
:100BA000196010600024002D75D0072028400146F0
:100BB0001139A9426FD32D1A1035A44800680123BA
:100BC00000248542184600D82046012D194600DB36
:100BD000214601435FD19E4E31684F68AF4207D234
:100BE0000A68002A04D00E4611465768AF42F7D370
:100BF0009848006881424ED0346808683060781B9D
:100C0000112833D34E19720701D072B6FEE7706017
:100C10004D608F4D2868B04204D20568B542074642
:100C2000F8D301E02F46054678683A1801927268B9
:100C30000292019AB24204D1029A121802927A6088
:100C40003E46844800682A1A50425041029AB2181F
:100C5000AA4200D10346002B04D16868029A80188A
:100C600070602D683560B74200D03E604868774BB1
:100C70001A68121A1A600D4B1D68AA4200D21A6037
:100C8000083400220123DB0718430A604860084843
:100C90000168491C016000F0C5FE600701D072B612
:100CA000FEE7204603B0F0BD8800002000210020B0
:100CB0000C2100200346083B1960011F01231B067D
:100CC0000B6001460C39034B0B60014620390A606A
:100CD0004038704789080000FFF70AFC642000F0E4
:100CE000B1F9F9E7FFF709FC7D20800000F0AAF9CF
:100CF000F8E7642000F0A6F9FBE7642000F0A2F911
:100D0000FBE7EFF3108072B67047416882688A6033
:100D10008268516001694B68834200D14A600A6869
:100D2000521E0A600022026108687047014800688C
:100D30007047C0469020002080F310887047002143
:100D4000016002460832C94342608160C2600261AC
:100D50007047002101617047B0B50B685A1C0BD079
:100D600004460834626815689D4208D854682568AE
:100D70009D422546F6D904E00269556801E0154612
:100D80002246A96008614D608A6051600168491C73
:100D90000160B0BD72B60A480168491C0160BFF32A
:100DA0004F8FBFF36F8F704705480168002903D04C
:100DB000491E016002D0704772B6FEE762B6704706
:100DC00004000020B0B500283ED00446051F286866
:100DD000002801D472B6FEE7083C2168002901D042
:100DE00072B6FEE70121C9078843286000F006FAC1
:100DF0002968164802685218026015480368A34221
:100E000004D21868A0421A46F8D301E002461846F8
:100E10005368D518A54202D1C91851601446631809
:100E2000834207D10B4B1B68984203D04368591883
:100E3000616000682060A24200D01460064801682A
:100E4000491C016000F0EEFDB0BDC046F42000205A
:100E500030210020180000201021002070B56148CA
:100E6000012101700D4D28687D21CC002146FFF73E
:100E7000BFF901465A4801600948FFF7B9F95649D8
:100E80000860564E00203060B06028682146FFF7A9
:100E9000AFF9401E70600720306070BD0000002078
:100EA000FFFFFF0000000000000000000000000045
:100EB0000B4A13681868203080F30988022080F3F9
:100EC0001488BFF36F8F3FBCAE4608BC04BC62B64B
:100ED0001847C046C046C046C046C046C046C04689
:100EE0000C000020F0B581B03B490D68854200D36D
:100EF000054672B6BFF34F8FBFF36F8FFFF702FB4C
:100F0000002848D0354E06213160B268681E344B47
:100F10001C6803466343002A00D01446E418374A8D
:100F200013685B0105D501235B0613602C4A126828
:100F3000A41A2C4A1378002B00D05E23E31A00D8A1
:100F4000234673600027B760346801222243326071
:100F5000002D04D0BFF34F8F30BFBFF36F8F62B649
:100F6000BFF34F8FBFF36F8F72B6BFF34F8FBFF3D7
:100F70006F8F31603168C90310D4B06818490C68AC
:100F800065432D1A28462146FFF732F9411C61437B
:100F9000491B134D14E062B601B0F0BD104D2A6834
:100FA000B168CB1A511E5C1894420B4600D82346F8
:100FB0000C4A1278002A00D05E22944200D91946C9
:100FC0007160B760072131602968491E716000F0C7
:100FD000E7F862B601B0F0BDFC20002010E000E0B0
:100FE0008C20002088200020012000070349086091
:100FF000BFF34F8FBFF36F8F7047C04604ED00E023
:1010000070B515460E460446FFF7C4FE4420215C29
:1010100020464430FF2901D1002101704178FF2989
:1010200001D100214170FFF7BFFEA06B002805D160
:101030002046243031462A4600F05CF82046FFF76F
:101040003DFD70BD70B500282FD004469248016860
:10105000002901D072B6FEE70168491C01606448AE
:101060000668914D28685521002242542868001DC9
:10107000FFF74BFE34192868446006D30D4800681A
:101080002968091DFFF768FE0AE009480068296819
:10109000091DFFF761FE574801688C4200D20460C9
:1010A00000F0C0FC002800D070BDFFF79DFF70BDB0
:1010B000140000201C0000200349096801604C490D
:1010C000096841607047C04608210020734801212B
:1010D0000160704710B500280AD00C4672490968B3
:1010E0001831FFF739FE01212046FFF76DFA10BDD8
:1010F00072B6FEE7F0B581B000281CD06A4B1C68C0
:101100004568AE681F683E62E561AC681E681836C7
:1011100066601C681834AC601B68986203685B1CCE
:101120000360002A01D00020C14308461146FFF7A2
:101130004BFA01B0F0BD72B6FEE7C046B0B582B062
:10114000114800240094019001252A020F4810A1A3
:10115000234600F003FA012801D100F003FD411CF1
:101160000FD0012809D172B6E043224908600A482D
:101170000560F848046000F099F80848006802B07B
:10118000B0BD72B6FEE7C046F82000205906000048
:1011900049444C45000000002C2100202C1C00007C
:1011A000B0B50446EB4D2868011912480268914217
:1011B00001D972B6FEE729680919006881420ED18B
:1011C0003548006800280ED0002C0ED0FFF7E2FD55
:1011D00009480168491C0160FFF7E6FD641E2868A4
:1011E00000192860B0BD72B6FEE772B6FEE7C046D1
:1011F00060210020042100201421002026480168DD
:10120000491C01607047C046B0B5234800680028FB
:1012100003D0224801210160B0BD204800210160B7
:101220001F480168142214464C431E4B1D59002DC3
:1012300010D04A439B185A6852685A601C460834BA
:10124000A24202D11B1D52681A60D268C24B1A60BA
:101250000160B0BDE418503C002914D0E56B002DAE
:1012600013D101290FD0A56A002D10D102290AD06F
:101270006569002D0DD1032905D0091F2568503C53
:10128000002DE9D0D5E772B6FEE7491ED1E7891EE9
:10129000CFE7C91ECDE7C046982000206C21002072
:1012A000A0200020240000200C000020B0B582B057
:1012B000FF200104124A13680B43136000061168F3
:1012C00001431160FFF7CAFD0E4C00252560FFF7B2
:1012D000EFFDFFF799FF0195206872B6401C09D019
:1012E000FEE70198002808D10198002805D101984F
:1012F000002802D101980028F3D0002002B0B0BD30
:1013000020ED00E004000020F0B583B0002845D0B7
:1013100016460F460446002529463A462B46FEF758
:101320002BFF481E814139D1204678435421C943BF
:10133000884233D802965430FFF708FC064600284E
:1013400029D0304644300190F4633764002F304692
:1013500001D0304654303060FFF71CFDB563FF20EC
:10136000019C207031686070F06B326C431E5043FA
:1013700008185343CA187160B060F26030461030EC
:10138000FFF7DDFC30462430FFF7D9FCFFF70CFDFA
:10139000B56402982073304603B0F0BD72B6FEE724
:1013A000F0B585B0049200280CD016460D460446D0
:1013B00000292BD000F0CEF9002805D1002E03D053
:1013C00072B6FEE772B6FEE7FFF7E4FCA66B002EEE
:1013D00021D0226C002A0AD0E0688118E160A06860
:1013E000814201D32168E1602846FEF7DDFE701ED0
:1013F000A06320690125002862D01034204600F047
:10140000A1FA00285CD0FFF7EFFD59E0206C00281E
:10141000D0D072B6FEE727464437204624300190EC
:10142000012011E02046FFF749FB00F0FBFAFFF72F
:10143000B1FCA66BFFF7B8FC002E46D0FFF7AAFC64
:10144000A66B0020002EC4D10499002937D0C00714
:1014500002D002A8FFF730FEFFF7A6FCFFF7CEFE92
:10146000FFF798FC3878FF2801D100203870787891
:10147000FF2801D100207870FFF796FC02A804A98C
:1014800000F026F80028CDD1FFF784FCA66BFFF70B
:101490008BFC002E05D02046FFF710FB00F0C2FAAF
:1014A000CCE704990198FFF715FE2046FFF706FBED
:1014B00000F0B8FA0028C1D1FFF796FDBEE700257D
:1014C000FFF772FC284605B0F0BD0025FAE70000E2
:1014D000F0B581B0002817D00C46002916D005467B
:1014E000FFF758FC6968A4480268944B1F685526AA
:1014F000BF5D002F0CD01868002181550126FFF731
:1015000053FC304601B0F0BD72B6FEE772B6FEE79E
:10151000236800265F1CF2D0EC4F3F6800972F68CD
:101520000098B84205D08A4203D3002020600126EB
:10153000E5E7511A8B4208D9591A2160E349096835
:101540002960E04800686860D9E700202060012633
:10155000D5E7C046602100200C000020F0B585B022
:101560001C460491039090000646FFF7EFFA0546EB
:101570000020C743002D00D1DAE0029001945820EA
:10158000FFF7E4FA002845D004460A9F5821FEF7E9
:1015900024FE2563A52228463146FEF717FE206B60
:1015A000049B002B32D0214634311A780A701A7805
:1015B000002A29D05A784A705A78002A24D09A787A
:1015C0008A709A78002A1FD0DA78CA70DA78002AEE
:1015D0001AD01A790A711A79002A15D05A794A71E3
:1015E0005A79002A10D09A798A719A79002A0BD0F8
:1015F000DA79CA71DA79002A06D01A7A0A721A7A66
:10160000002A01D05A7A4A72029A4A72052F05D3EB
:1016100072B6FEE72846FFF7D5FB89E03018061FB3
:1016200007200B9D8643A764E762201D0490FFF707
:1016300090FB20461830FFF78CFB0520C01BA061F3
:101640006462246130460399019AFFF733FB2060FE
:10165000002D00D02C60FFF79DFB37480168491C26
:101660000160B74E316800290BD04048006800285F
:10167000049D35D1E06A3168C96A814230D834604E
:101680002EE0346000680128049D29D1E24E3046E6
:10169000FFF755FB30461430FFF751FB304628303A
:1016A000FFF74DFB30463C30FFF749FB50363046E4
:1016B000FFF745FB224E3046FFF741FB214F3846EE
:1016C000FFF73DFBD248FFF73AFB1F48FFF737FB18
:1016D0001E48FFF734FBD1480660D14E7A480760B8
:1016E0001B480168491C21640160E06AC9490A6815
:1016F000904200D9086014214143C7484258521C07
:101700004250401841688A68A160E2606061886860
:1017100045608D60FFF748FB1448006801270028EA
:1017200006D0E06A3168C96A814201D2FFF75CFCE9
:10173000384605B0F0BDC046902000200C000020C7
:10174000CC200020E02000204C2100203821002067
:101750009C20002005480068002805D0AB480068A0
:101760004142414148007047012070472C21002030
:10177000544800687047C04660210020F0B582B030
:10178000EE480068002806D04D480168491C0160F9
:10179000002002B0F0BD4B490868461C0E601BD308
:1017A000ED490A681268002A01D072B6FEE70A689D
:1017B000454B1C680C601A60444A13685B1C13603C
:1017C0000A681268002A03D00968C968096801E03C
:1017D0000021C943E14A1160E04A116800238E42AA
:1017E0005AD3DC43DC4801680968002953D00094CF
:1017F0000021019103E001680968002944D00168D3
:10180000C968CB6859688E4242D31A1D9F68D9684F
:10181000B960D9684F605F697D68954200D1796091
:101820003968491E39609F6A002F0FD0DD69196A37
:10183000A960196A4D601D4618357C68AC4200D11C
:101840007960002199623968491E3960DF6ABE49B2
:1018500009688F4201D9BC490F6014217943BB4DFF
:101860006C58641C6C5069184C68A5689C60DD60FD
:101870005961A1684A60A260B5490968C96A8F4286
:10188000B9D901210191B6E7019BB44A009C02E05D
:101890000C46019BB14A1460AD480068C06A14212F
:1018A0004143AA48405801220128104600D8184652
:1018B000A8490968002900D16BE7104602B0F0BDC5
:1018C00014210020602100201C000020082100209D
:1018D000B0B504460020002C2ED09D490968A142D5
:1018E00001D072B6FEE7E16C002926D0491EE16402
:1018F000A26CE36A93421FD000291DD1251D284602
:10190000FFF703FAA06CE0620521091AA1618E4974
:101910000A68904200D90860142141438B4842581C
:10192000521C4250401841688A68A160E2606061C0
:10193000886845608D600120B0BD72B6FEE7C04684
:101940000C00002070B5C068C168002922D0C869A9
:101950000A6A82600B6A58600A461832886A4468CC
:10196000944200D1436003685B1E036000208862DC
:10197000724B1B68002B0FD0724B5C68A568CC6162
:101980000D628B621D686D1C1D60A3685A60A260A9
:10199000CA6A31E072B6FEE78A68CB689360CC68A9
:1019A00062600B1D4A6955689D4200D154601468FD
:1019B000641E1460CA6A644C2568AA4200D9226079
:1019C00014245443614D2E59761C2E512C196568F0
:1019D000AE688D60CE604C61A9684B60AB605E49BB
:1019E0000B681B68002B03D00968C968096801E00F
:1019F0000021C943594B196055490968C96A8A428F
:101A000002D954490120086070BDC04698200020CA
:101A100018210020A0200020240000201400002015
:101A20000C000020F0B581B0444C206800280DD097
:101A3000FFF7B0F92068401E2060206800270028CA
:101A400006D0FFF7B1F9384601B0F0BD72B6FEE737
:101A50003B4800680028F4D03A4B1968002953D05D
:101A6000009703E013461068002840D01A46DB6850
:101A7000DF68FB693C6A9C603D6A6B603B461833DB
:101A8000BC6A66689E4200D165600026BE6223681B
:101A90005B1E2360BC68FB68A360FB685C603C1D48
:101AA0007D696968A14200D16B602968491E29607F
:101AB000FD6A254801688D4201D92348056014213B
:101AC0006943224843585B1C435041184B6898684F
:101AD000BB60F8607961986844609C601C4800684D
:101AE000C06A8542BED301201A490860BAE71A4885
:101AF00001680968002903D00068C068006800E038
:101B0000F043009F15490860154C2568002D0CD046
:101B1000104E01E06D1E06D0FFF730FE0028F9D010
:101B200001203060F6E7002020600A4800680028A5
:101B300087D0FFF759FA012783E7C0469820002095
:101B40009020002018210020A02000202400002048
:101B50000C0000206C210020140000200421002033
:101B60001421002070B582B0FFF714F9154E3068CB
:101B7000002811D1144C2046FFF7E1F8134D2846F8
:101B8000FFF7DDF8124805601248046005201021B7
:101B90000022FFF7B9FB3060FFF706F93068002834
:101BA0000ED00D48022100910190012042020B4805
:101BB0000BA10023FFF7D2FC002801D002B070BDBA
:101BC00072B6FEE764210020A4200020B820002087
:101BD000200000201000002068210020BD08000027
:101BE000546D72205376630002E008C8121F08C1CA
:101BF000002AFAD170477047002001E001C1121F8E
:101C0000002AFBD17047000000000B4000200B4071
:101C100000400B4000600B4000800B4000000000C3
:101C20000202010000010002800000000400000028
:101C3000501C00000000002008000000E81B00000D
:101C4000581C00000800002068230000F81B00005A
:081C500000879303AAAAAAAAC7
:04000005000000C136
:00000001FF
