:020000040000FA
:1000000010020020C10000002D0600000D060000B7
:10001000FFFFFFFFFFFFFFFFFFFFFFFFFFFFFFFFF0
:10002000FFFFFFFFFFFFFFFFFFFFFFFF7506000061
:10003000FFFFFFFFFFFFFFFF450600007706000000
:1000400035010000350100003501000035010000D8
:1000500035010000350100003501000035010000C8
:1000600035010000350100003501000035010000B8
:1000700035010000350100003501000035010000A8
:100080003501000035010000350100003501000098
:100090003501000035010000350100003501000088
:1000A0003501000035010000350100003501000078
:1000B0003501000035010000350100003501000068
:1000C0001D4880471D4880471D4800471D4801695D
:1000D000002908D14169002905D18169002902D18F
:1000E000C169002909D01848C1680901090D002912
:1000F0000ED005290CD006290AD0BFF34F8F134824
:100100001349016013491248C860BFF34F8FFEE7DF
:100110000E4801680E48884200D070470E480F49CB
:1001200001600A480E4901607047FEE7FEE7FEE7FE
:10013000FEE7FEE7FEE70000CD00000079060000C4
:100140006501000000030840800108400000002015
:100150000400FA0500ED00E0008108400100000005
:10016000000000000348854600F026F800480047DC
:100170009D0800001002002070B50446002903D03D
:1001800000202022012310E0002801D00020C043DD
:10019000C046C0460DE02546D5408D4205D30D46EC
:1001A0009540641B1D46954040191546521E002D72
:1001B000F1DC214670BD0000064C0125064E05E02D
:1001C000E36807CC2B430C3C98471034B442F7D378
:1001D000FFF7CCFF3411000054110000F0B58EB0D1
:1001E000C0005C4BC4180F23180207901803089036
:1001F0001804099018050A9018060B9018070C901F
:100200000E060D9452D00120084045422F461F4053
:100210008807059000D5F0374807049001D5079866
:1002200007430807039001D508980743C8060290C2
:1002300001D5099807438806019001D50A9807431C
:100240004806009003D530460B9E37430646069677
:10025000002E01D50C9E37430D9C2468BC4317012A
:100260000598C6173E401540354316020498C71737
:1002700037402F4315030398C6172E403E431504FD
:100280000298C7172F40374315050198C6172E400F
:100290003E4315060098C017284030431507069EB8
:1002A000F6172E40064326430D9C26600E04300EA2
:1002B00041D0C805C7173B408805069000D5F033EC
:1002C0004805059001D5079803430805079001D517
:1002D00008980343C80408902FD4880431D44904F3
:1002E00033D4002E01D50C9D2B4365689D4313012B
:1002F000069CE4171C40174027431302059CE41793
:100300001C403C431303079FFF171F402743130460
:10031000089CE4171C403C431305C01718402043B9
:100320001306C917194001431007F21702400A4388
:100330002A430D9842600EB0F0BD0998034388042B
:10034000CDD50A9D2B434904CBD50B9D2B43002EC5
:10035000C9D4CAE72020024070B541098900234B67
:10036000C9180A6AD9691C46183C246807240C403D
:100370005D68194614390968890501D4002110E027
:100380001968C900CE0F1A49F140002D09D41D6823
:100390006D012D0F00D1102569431D686D02AD0F51
:1003A000E940641E062C09D87C4424796400A744E3
:1003B0000C03030505070A000D4906E0002104E0CF
:1003C0000121C90301E07D2109021F240440032506
:1003D000A5402A40E2402E2800D1921C98680528AA
:1003E00000D30520C140D140084670BD18800840A8
:1003F00000127A0070B50C4C2568002B01D0054323
:1004000000E08543A668E0682560002B01D00E431C
:1004100000E08E43A660002B02D01043E06070BD68
:100420009043E06070BDC04624800840002A03D09D
:1004300002680A430260704702688A43026070479C
:10044000F0B500230E251C4603E0090A10352E2DB9
:100450005AD0CE070ED18E0716D44E071ED40E07E3
:1004600026D4CE062ED48E0635D44E063CD40E06A7
:10047000EBD542E02E460E3E0327B7403B431746DE
:10048000B7403C438E07E8D52E460C3E0327B740C5
:100490003B431746B7403C434E07E0D52E460A3E45
:1004A0000327B7403B431746B7403C430E07D8D518
:1004B0002E46083E0327B7403B431746B7403C4310
:1004C000CE06D0D5AE1F0327B7403B431746B740F3
:1004D0003C438E06C9D52E1F0327B7403B43174622
:1004E000B7403C434E06C2D5AE1E0327B7403B4340
:1004F0001746B7403C430E06A7D50326AE4033430C
:100500001646AE403443A0E74169994341614169D1
:1005100021434161F0BDB0B5846825468D43C36871
:10052000012A04D08B43002A04D10C4303E00B437F
:100530002C4600E02C468460C360B0BD70B582B02C
:10054000064668460022828000922E498D5D012475
:100550004455017821404378DB079B0F5918837875
:10056000DB075B0FC918C078C007000F0818019996
:10057000C907C90E40180004A1032346FFF73AFF3C
:100580000E48825D70001E490E5A28463146FFF71C
:1005900025FEA8001C490D586E62022228463146ED
:1005A000FFF7B9FF284631462246FFF749FF2846A4
:1005B00031462246FFF73AFF02B070BD2811000015
:1005C00041000F4A515A0F4A105C80000E4A1058E1
:1005D0004162704741000A4A515A0A4A105C800041
:1005E000094A1058816270474100054A515A054A2C
:1005F000105C8000044A1058026A4A400262704748
:100600002E1100002B110000101100000648016897
:10061000002908D10168002905D10168002902D10B
:1006200001680029F3D070470800002070470000DF
:10063000024A0A40024302480260704780FFFF1FDF
:1006400008ED00E07047000009490A46103AC3B2BD
:100650001360012212020B68134208D10B68134287
:1006600005D10B68134202D10B681342F3D07047D7
:100670001000044070477047F0B586B0594810210B
:10068000059101605849C86A402203921043C8622C
:1006900056480268272A08D00268272A05D002682F
:1006A000272A02D00268272AF3D10324A0020A6A6B
:1006B00082430A620122D0020B6803430B60486840
:1006C000000708D44868000705D44868000702D42A
:1006D00048680007F3D50868049420430423029374
:1006E00098430860086B0724204003280BD0086B50
:1006F0002040032807D0086B2040032803D0086B54
:1007000020400328EED13A4B186810430625019586
:10071000A843186000200090C86157020868B843D9
:1007200008601302081F05681D4305600D68082650
:10073000B5430D6005683D43056095020E682E4384
:100740000E604D686D0708D44D686D0705D44D687F
:100750006D0702D44D686D07F3D5CD6A039EB5438E
:10076000CD620F25ED054D6115074E692E434E6193
:1007700005689D430560086838430860486880073D
:1007800008D44868800705D44868800702D44868C0
:100790008007F3D5164D2868049B1843029B9843A5
:1007A00028600098C86108681043019B984308605E
:1007B000086B204001280BD0086B2040012807D08F
:1007C000086B2040012803D0086B20400128EFD19E
:1007D00028680599084328601003296801432960A7
:1007E00006B0F0BD0C8108400480084008A1064016
:1007F00000020840B0B50D46044640681949014062
:10080000E8880843A9880143288908436989014386
:100810006160002014498C420BDC012189078C4265
:1008200012D014498C4211D013498C4215D10820A2
:1008300011E00E498C420BD00D498C420AD041493F
:100840008C420AD11A2006E0182004E01C2002E0A5
:100850000A2000E01E20FFF77FFD2968FFF78CFCCF
:100860006062B0BDFCE0FFFFFFFF034000200440DA
:1008700000100440001000400020004010238B4076
:10088000002A03D041681943416070474168994389
:100890004160704780B5FFF7D7FE80BD84B000246B
:1008A00020462146FFF7C4FE4F20010201252046C5
:1008B00022462B46FFF79EFD2804212149022246AD
:1008C0002B46FFF797FD1E48102631462246FFF7BC
:1008D00022FE0627204631463A46FFF77FFC2021BC
:1008E00020463A46FFF77AFC039428020290E12062
:1008F00040020190134E01A93046FFF77BFF3046BE
:1009000021462A46FFF7BAFF304629462A46FFF716
:10091000B5FF2046FFF712FE2846FFF70FFE02261E
:100920003046FFF70BFE2046FFF754FE2846FFF740
:1009300047FE3046FFF74EFE034D284606E0C04610
:1009400000000B4000000440807BE1FF00BF00BFBF
:1009500000BF00BF00BF00BF00BF00BF00BF00BF9F
:1009600000BF00BF00BF00BF00BF00BF00BF00BF8F
:1009700000BF00BF00BF00BF00BF00BF00BF00BF7F
:1009800000BF00BF00BF00BF00BF00BF00BF00BF6F
:1009900000BF00BF00BF00BF00BF00BF00BF00BF5F
:1009A00000BF00BF00BF00BF00BF00BF00BF00BF4F
:1009B00000BF00BF00BF00BF00BF00BF00BF00BF3F
:1009C00000BF00BF00BF00BF00BF00BF4030BDD1AF
:1009D0000020FFF709FE0120FFF706FE0220FFF7C7
:1009E00003FE284600BF00BF00BF00BF00BF00BF1E
:1009F00000BF00BF00BF00BF00BF00BF00BF00BFFF
:100A000000BF00BF00BF00BF00BF00BF00BF00BFEE
:100A100000BF00BF00BF00BF00BF00BF00BF00BFDE
:100A200000BF00BF00BF00BF00BF00BF00BF00BFCE
:100A300000BF00BF00BF00BF00BF00BF00BF00BFBE
:100A400000BF00BF00BF00BF00BF00BF00BF00BFAE
:100A500000BF00BF00BF00BF00BF00BF00BF00BF9E
:100A600000BF00BF4030BDD10020FFF7BDFD012019
:100A7000FFF7BAFD0220FFF7B7FD284600BF00BF11
:100A800000BF00BF00BF00BF00BF00BF00BF00BF6E
:100A900000BF00BF00BF00BF00BF00BF00BF00BF5E
:100AA00000BF00BF00BF00BF00BF00BF00BF00BF4E
:100AB00000BF00BF00BF00BF00BF00BF00BF00BF3E
:100AC00000BF00BF00BF00BF00BF00BF00BF00BF2E
:100AD00000BF00BF00BF00BF00BF00BF00BF00BF1E
:100AE00000BF00BF00BF00BF00BF00BF00BF00BF0E
:100AF00000BF00BF00BF00BF00BF00BF4030BDD17E
:100B00000020FFF771FD0120FFF76EFD0220FFF7C7
:100B10006BFD284600BF00BF00BF00BF00BF00BF85
:100B200000BF00BF00BF00BF00BF00BF00BF00BFCD
:100B300000BF00BF00BF00BF00BF00BF00BF00BFBD
:100B400000BF00BF00BF00BF00BF00BF00BF00BFAD
:100B500000BF00BF00BF00BF00BF00BF00BF00BF9D
:100B600000BF00BF00BF00BF00BF00BF00BF00BF8D
:100B700000BF00BF00BF00BF00BF00BF00BF00BF7D
:100B800000BF00BF00BF00BF00BF00BF00BF00BF6D
:100B900000BF00BF4030BDD10020FFF725FD012080
:100BA000FFF722FD0220FFF71FFD284600BF00BF10
:100BB00000BF00BF00BF00BF00BF00BF00BF00BF3D
:100BC00000BF00BF00BF00BF00BF00BF00BF00BF2D
:100BD00000BF00BF00BF00BF00BF00BF00BF00BF1D
:100BE00000BF00BF00BF00BF00BF00BF00BF00BF0D
:100BF00000BF00BF00BF00BF00BF00BF00BF00BFFD
:100C000000BF00BF00BF00BF00BF00BF00BF00BFEC
:100C100000BF00BF00BF00BF00BF00BF00BF00BFDC
:100C200000BF00BF00BF00BF00BF00BF4030BDD14C
:100C30000020FFF7D9FC0120FFF7D6FC0220FFF7C8
:100C4000D3FC284600BF00BF00BF00BF00BF00BFED
:100C500000BF00BF00BF00BF00BF00BF00BF00BF9C
:100C600000BF00BF00BF00BF00BF00BF00BF00BF8C
:100C700000BF00BF00BF00BF00BF00BF00BF00BF7C
:100C800000BF00BF00BF00BF00BF00BF00BF00BF6C
:100C900000BF00BF00BF00BF00BF00BF00BF00BF5C
:100CA00000BF00BF00BF00BF00BF00BF00BF00BF4C
:100CB00000BF00BF00BF00BF00BF00BF00BF00BF3C
:100CC00000BF00BF4030BDD10020FFF78DFC0120E8
:100CD000FFF78AFC0220FFF787FC284600BF00BF11
:100CE00000BF00BF00BF00BF00BF00BF00BF00BF0C
:100CF00000BF00BF00BF00BF00BF00BF00BF00BFFC
:100D000000BF00BF00BF00BF00BF00BF00BF00BFEB
:100D100000BF00BF00BF00BF00BF00BF00BF00BFDB
:100D200000BF00BF00BF00BF00BF00BF00BF00BFCB
:100D300000BF00BF00BF00BF00BF00BF00BF00BFBB
:100D400000BF00BF00BF00BF00BF00BF00BF00BFAB
:100D500000BF00BF00BF00BF00BF00BF4030BDD11B
:100D60000020FFF741FC0120FFF73EFC0220FFF7C7
:100D70003BFC284600BF00BF00BF00BF00BF00BF54
:100D800000BF00BF00BF00BF00BF00BF00BF00BF6B
:100D900000BF00BF00BF00BF00BF00BF00BF00BF5B
:100DA00000BF00BF00BF00BF00BF00BF00BF00BF4B
:100DB00000BF00BF00BF00BF00BF00BF00BF00BF3B
:100DC00000BF00BF00BF00BF00BF00BF00BF00BF2B
:100DD00000BF00BF00BF00BF00BF00BF00BF00BF1B
:100DE00000BF00BF00BF00BF00BF00BF00BF00BF0B
:100DF00000BF00BF4030BDD10020FFF7F5FB012050
:100E0000FFF7F2FB0220FFF7EFFB284600BF00BF11
:100E100000BF00BF00BF00BF00BF00BF00BF00BFDA
:100E200000BF00BF00BF00BF00BF00BF00BF00BFCA
:100E300000BF00BF00BF00BF00BF00BF00BF00BFBA
:100E400000BF00BF00BF00BF00BF00BF00BF00BFAA
:100E500000BF00BF00BF00BF00BF00BF00BF00BF9A
:100E600000BF00BF00BF00BF00BF00BF00BF00BF8A
:100E700000BF00BF00BF00BF00BF00BF00BF00BF7A
:100E800000BF00BF00BF00BF00BF00BF4030BDD1EA
:100E900000242046FFF7A8FB0120FFF7A5FB022056
:100EA000FFF7A2FB00BF00BF00BF00BF00BF00BF35
:100EB00000BF00BF00BF00BF00BF00BF00BF00BF3A
:100EC00000BF00BF00BF00BF00BF00BF00BF00BF2A
:100ED00000BF00BF00BF00BF00BF00BF00BF00BF1A
:100EE00000BF00BF00BF00BF00BF00BF00BF00BF0A
:100EF00000BF00BF00BF00BF00BF00BF00BF00BFFA
:100F000000BF00BF00BF00BF00BF00BF00BF00BFE9
:100F100000BF00BF00BF00BF00BF00BF00BF00BFD9
:100F200000BF00BF4035BDD12046FFF75DFB01206B
:100F3000FFF75AFB0220FFF757FB0BA52846214677
:100F400000F01EF8641C642CF8D10C4C204600BF45
:100F5000401EFCD10020FFF747FB0120FFF744FBB8
:100F60000220FFF741FBF1E748656C6C6F20576F7B
:100F7000726C64212025640D0A00000080841E002C
:100F80000FB410B503A9044B044A029800F018F8F6
:100F900010BC08BC04B018479508000000000020F1
:100FA00002E008C8121F08C1002AFAD17047704732
:100FB000002001E001C1121F002AFBD17047000090
:100FC000FFB58DB00446002506E025280AD0109A0A
:100FD0000F999047641C6D1C20780028F5D1284695
:100FE00011B0F0BD00270121484A009700E00743F7
:100FF000641C23780846203B98401042F7D12078A3
:101000002E2817D1042007436078641C2A280CD1AD
:101010000E98641C02C800910E900BE000990A2201
:10102000514330394018641C009020780146303913
:101030000929F3D920780028D1D0642808D069285C
:1010400006D075281ED0109A0F9990476D1C5BE052
:101050000A200E99019001C90E91002802DA40423F
:101060002D2102E0390504D52B216A461172012198
:1010700003E0F90704D02021F7E70BAE0B910DE058
:101080000021FAE70A200E99019001C90E91F7E7B5
:101090000199FFF771F83031761E31700028F7D1D1
:1010A00003A8801B20300190780701D5009801E04B
:1010B000012000900199884201DD401A00E00020E3
:1010C0000027009006E002A8109AC05D0F99904793
:1010D0006D1C7F1C0B988742F5DB04E0109A3020D2
:1010E0000F9990476D1C0099481E00900029F5DC6F
:1010F00005E03078109A761C0F9990476D1C019985
:10110000481E01900029F4DC641C65E709280100F1
:1011100000000B4000200B4000400B4000600B40E3
:1011200000800B40000000000101010202010001EB
:1011300000028000541100000000002004000000A4
:10114000A00F000058110000080000200802000055
:08115000B00F000000000000D8
:04000005000000C136
:00000001FF
