:020000040000FA
:1000000078230020C1000000F5050000D5050000A0
:10001000FFFFFFFFFFFFFFFFFFFFFFFFFFFFFFFFF0
:10002000FFFFFFFFFFFFFFFFFFFFFFFF4506000091
:10003000FFFFFFFFFFFFFFFF010600004906000072
:1000400035010000350100003501000035010000D8
:1000500035010000350100003501000035010000C8
:1000600035010000350100003501000035010000B8
:1000700035010000350100003501000035010000A8
:100080003501000035010000350100003501000098
:100090003501000035010000350100003501000088
:1000A0003501000035010000350100003501000078
:1000B0003501000035010000350100003501000068
:1000C0001D4880471D4880471D4800471D4801695D
:1000D000002908D14169002905D18169002902D18F
:1000E000C169002909D01848C1680901090D002912
:1000F0000ED005290CD006290AD0BFF34F8F134824
:100100001349016013491248C860BFF34F8FFEE7DF
:100110000E4801680E48884200D070470E480F49CB
:1001200001600A480E4901607047FEE7FEE7FEE7FE
:10013000FEE7FEE7FEE70000CD000000F506000048
:100140006501000000030840800108400000002015
:100150000400FA0500ED00E0008108400100000005
:10016000000000000348854600F062F800480047A0
:10017000B10800007823002030B5434351435C1898
:10018000010C130C0D465D432C1980B292B205464A
:10019000554351430A0C09044D1962415843010C5F
:1001A00000044019514130BD03460B439B0703D067
:1001B00009E008C9121F08C0042AFAD203E00B782C
:1001C0000370401C491C521EF9D27047D2B201E0A4
:1001D0000270401C491EFBD270470022F6E710B5A2
:1001E00013460A4604461946FFF7F0FF204610BDA5
:1001F00070B50446002903D000202022012310E01E
:10020000002801D00020C043C046C0460DE025466E
:10021000D5408D4205D30D469540641B1D46954043
:1002200040191546521E002DF1DC214670BD00001C
:10023000064C0125064E05E0E36807CC2B430C3C39
:1002400098471034B442F7D3FFF790FFC01F000067
:10025000E01F0000F0B58EB0C0005C4BC4180F2347
:1002600018020790180308901804099018050A90BE
:1002700018060B9018070C900E060D9452D0012012
:10028000084045422F461F408807059000D5F037AB
:100290004807049001D5079807430807039001D544
:1002A00008980743C806029001D5099807438806B5
:1002B000019001D50A9807434806009003D53046BF
:1002C0000B9E374306460696002E01D50C9E3743FB
:1002D0000D9C2468BC4317010598C6173E40154085
:1002E000354316020498C71737402F431503039868
:1002F000C6172E403E4315040298C7172F403743B8
:1003000015050198C6172E403E4315060098C017E4
:10031000284030431507069EF6172E400643264315
:100320000D9C26600E04300E41D0C805C7173B4017
:100330008805069000D5F0334805059001D507984B
:1003400003430805079001D508980343C8040890A3
:100350002FD4880431D4490433D4002E01D50C9D08
:100360002B4365689D431301069CE4171C4017400E
:1003700027431302059CE4171C403C431303079FCB
:10038000FF171F4027431304089CE4171C403C43FD
:100390001305C017184020431306C917194001431D
:1003A0001007F21702400A432A430D9842600EB02C
:1003B000F0BD099803438804CDD50A9D2B43490419
:1003C000CBD50B9D2B43002EC9D4CAE72020024079
:1003D00070B50C4C2568002B01D0054300E0854327
:1003E000A668E0682560002B01D00E4300E08E4334
:1003F000A660002B02D01043E06070BD9043E06027
:1004000070BDC04624800840002A03D002680A4319
:100410000260704702688A4302607047F0B50023AB
:100420000E251C4603E0090A10352E2D5AD0CE07A2
:100430000ED18E0716D44E071ED40E0726D4CE0634
:100440002ED48E0635D44E063CD40E06EBD542E0B3
:100450002E460E3E0327B7403B431746B7403C436A
:100460008E07E8D52E460C3E0327B7403B43174680
:10047000B7403C434E07E0D52E460A3E0327B7401F
:100480003B431746B7403C430E07D8D52E46083E9F
:100490000327B7403B431746B7403C43CE06D0D571
:1004A000AE1F0327B7403B431746B7403C438E0679
:1004B000C9D52E1F0327B7403B431746B7403C43DF
:1004C0004E06C2D5AE1E0327B7403B431746B74082
:1004D0003C430E06A7D50326AE4033431646AE4036
:1004E0003443A0E741699943416141692143416136
:1004F000F0BDB0B5846825468D43C368012A04D099
:100500008B43002A04D10C4303E00B432C4600E04C
:100510002C468460C360B0BD70B582B006466846A4
:1005200000228280009229498D5D01244455017882
:1005300021404378DB079B0F59188378DB075B0F5B
:10054000C918C078C007000F08180199C907C90E5B
:1005500040180004A1032346FFF73AFF0E48825DCE
:10056000700019490E5A28463146FFF773FEA8005D
:1005700017490D586E62022228463146FFF7B9FF2F
:10058000284631462246FFF749FF28463146224693
:10059000FFF73AFF02B070BDB01F000041000A4AE9
:1005A000515A0A4A105C8000094A1058416270474B
:1005B0004100054A515A054A105C8000044A10580F
:1005C000026A4A4002627047B61F0000B31F000073
:1005D000981F000006480168002908D10168002919
:1005E00005D10168002902D101680029F3D07047C4
:1005F000080000207047000000000000000000001C
:10060000EFF309800E4B1A6820381060F0C04446A2
:100610004D4656465F46F0C008B572B600F0BCFFC6
:1006200062B60CBC116808681030F0C8A046A94634
:10063000B246BB4680F309882038F0C81847C04648
:10064000100000207047000010B500F024FD0446A3
:1006500001F05CFA002803D001200007024908607D
:10066000204600F033FD10BD04ED00E0F0B581B090
:100670001D4CA0680721256822685201120F03D083
:1006800022685201120F00E0102200922668E269EF
:100690000A40571E062F25D8144AC0467F443F798A
:1006A0007F00BF44031B1B1F1F0B0E00ED0067687C
:1006B000183C2368002F07DA002407E00122D20348
:1006C0000CE07D22120209E073029C0F009BED0FEB
:1006D000002F00DA0123EA405A43E2400840C240BA
:1006E0000348026001B0F0BD1880084000127A0093
:1006F00000000020F0B586B0594810210591016036
:100700005849C86A402203921043C862564802689A
:10071000272A08D00268272A05D00268272A02D093
:100720000268272AF3D10324A0020A6A82430A62DC
:100730000122D0020B6803430B604868000708D40D
:100740004868000705D44868000702D448680007D5
:10075000F3D5086804942043042302939843086067
:10076000086B0724204003280BD0086B2040032887
:1007700007D0086B2040032803D0086B20400328D3
:10078000EED13A4B1868104306250195A84318602E
:1007900000200090C86157020868B843086013023F
:1007A000081F05681D4305600D680826B5430D60E8
:1007B00005683D43056095020E682E430E604D6846
:1007C0006D0708D44D686D0705D44D686D0702D4D8
:1007D0004D686D07F3D5CD6A039EB543CD620F25F5
:1007E000ED054D6115074E692E434E6105689D4329
:1007F00005600868384308604868800708D448687E
:10080000800705D44868800702D448688007F3D57C
:10081000164D2868049B1843029B98432860009853
:10082000C86108681043019B98430860086B20402A
:1008300001280BD0086B2040012807D0086B20400E
:10084000012803D0086B20400128EFD128680599C2
:1008500008432860100329680143296006B0F0BDF1
:100860000C8108400480084008A1064000020840AE
:100870000C4801680020002900D070470A49096827
:100880000029FAD1094909680029F6D155480068BC
:100890008A490968491E884201D001207047022018
:1008A0007047C0461C210020702100201821002024
:1008B00082B000242046FFF72FFE01263046FFF7C6
:1008C0002BFE02252846FFF727FE2046FFF766FE8F
:1008D0003046FFF763FE2846FFF760FEFFF7C6FECF
:1008E00000950194104811A110263246234600F0CD
:1008F000FDFF009501940F480FA13246234600F0FA
:10090000F5FF009501940E480EA13246234600F0F3
:10091000EDFF009501940D480DA13246234600F0ED
:10092000E5FF00F0D3FDFEE7691000007461736B12
:100930005F310000771000007461736B5F3200005C
:10094000871000007461736B5F3300008F1000002C
:100950007461736B5F340000F0B581B00D460446DE
:100960005B480768584E3068552100224254306871
:10097000001D00F094FB601C16D1002D14D03168CE
:100980001848426893683468E3608A609168336805
:100990001B1D4B603168091D916031684861016819
:1009A000491C016001B0F0BD3C193068446007D3B8
:1009B0000B4800683168091D00F098FB01B0F0BDDC
:1009C000064800683168091D00F090FB3F48016847
:1009D0008C4200D2046001B0F0BDC0461800002077
:1009E000200000203C21002082B001200190314EE7
:1009F000314D324F14E000F097FBE868C468201DC9
:100A000000F04DFB3868401E38603068401E306092
:100A100000F094FB206B00F09FFB204600F09CFB55
:100A200030680028E7D126480068022801D300F08A
:100A3000A3FC2448006824490968C96A0029EFD149
:100A4000411E88411E4909680129019900D80146C3
:100A50000029E5D11D4800681D490968401A02288F
:100A6000DED31C490868401C086018480068184913
:100A7000096888421CD31348006813490968C96A89
:100A8000002912D1411E88410D49096801290199A7
:100A900000D80146002908D10C4800680C490968B3
:100AA000401A022801D300F0E5FB01F083F9B7E713
:100AB00072B6FEE7982000205021002094200020EC
:100AC00028000020A4200020100000200821002081
:100AD000642100209C200020F0B583B00290846C3B
:100AE000002C1DD0E06BA16B81421BD2A16B814217
:100AF0001AD245202756F8B20190226CA66B002A24
:100B000014D0606802A9FFF74FFB206C61680818D9
:100B10006060A1680025884213D32068606010E0FF
:100B200072B6FEE772B6FEE7002525E020680028D1
:100B300001D0002505E0A06801F092F805460020EC
:100B4000A060701CA063019EFF2E07D000F0B8FAD1
:100B5000B84211D97F2E0CD172B6FEE7606A002828
:100B60000AD02434204601F0B5F8002804D001252D
:100B700002E04534701C2070284603B0F0BD000030
:100B8000F0B583B0044600F0BBFF224A11688842EA
:100B900031D201900294AA4D07E031462831FE225D
:100BA00010400870316A304688472868016800297B
:100BB00023D0C0680468C668371D384600F06FFA55
:100BC0002820305C4107E8D5B069051975603661A9
:100BD000A54209D3316A30468847B0694019706030
:100BE0003661A8420546F5D296480068394600F0BD
:100BF0007DFA934DD6E7002107E092490A682A6002
:100C000008600121029C0198024A1060216003B033
:100C1000F0BDC0460C00002081B0002000900A48C2
:100C2000006872B6401C09D0FEE70098002808D181
:100C30000098002805D10098002802D100980028CB
:100C4000F3D001B07047C0460400002086B07E4F4C
:100C50007B4800680568002D02D0C068066800E087
:100C6000002600F093FC02A8FFF78AFF04460298D2
:100C7000002802D001F09EF847E0002D28D0A642BF
:100C800026D801F097F86E480068C068C568281D2E
:100C9000009000F004FA2820285C41070CD4294673
:100CA0002831FE22104008702CE0A11B814223D382
:100CB000296A284688473E46A86987196F602D61D2
:100CC000A742F2D9B44201D2B742F1D25C4814E053
:100CD000002D01D0002204E05A480068006842421A
:100CE0004241311B386800F053FB01F063F80028E3
:100CF0000BD100F041FB08E052480068009900F079
:100D0000F5F9514F296A28468847386802A9002218
:100D100000F00EFD00289BD00298002806D505990A
:100D20000498039A904702980028EED4049C6069C6
:100D3000002802D0201D00F0B2F901A8FFF720FF23
:100D400005460298401E0828DFD8C046784400793E
:100D5000400087440A0A0426450A0A04260028207F
:100D6000215CFE220A402254CFE72820215C012288
:100D70000A432254A069039A831863602461261DE4
:100D8000AB4223D995422E4F24D293422C4F21D3EC
:100D90004A072DD420462830FE22114001702A4FE8
:100DA00047E02820215C01220A4322540398A061D5
:100DB000002842D0401960602461A842204800D831
:100DC00020480068211D00F091F99EE7AA1A82428E
:100DD0001C4FDDD23868314600F088F91A4F94E78D
:100DE0002820205C810719D4204600F0B5F98CE753
:100DF0000399091807E0691A814214D3216A204631
:100E00008847A06939460F1867602461AF42F2D95C
:100E10008D4201D28F42F1D2094805E02834FE21EB
:100E20000840207071E70748074F0068314600F01E
:100E30005DF9216A2046884767E772B6FEE7C0463B
:100E4000140000202400002068210020F0B581B0AB
:100E500004460646443600F067F901203056012862
:100E60001BDB2546243503E0781E79B2012914DD09
:100E70000746A06C002805D02046FFF72DFE00286D
:100E800008D1F1E72868002807D0284600F022FFA3
:100E90000028E9D000F0E2FAE6E7FF25757000F0DF
:100EA0004DF900F041F900203756012F11DB1034C5
:100EB00004E0781E79B2012907460ADD206800287F
:100EC00007D0204600F006FF0028F2D000F0C6FA56
:100ED000EFE7357000F032F901B0F0BDF0B583B046
:100EE000054600F053FBC0480068002822D1BD4EE3
:100EF000002171600720504C27460740C343E01D86
:100F00001840002F024600D12246326001267603A7
:100F1000002F01D0201A8619901918400838B24BBA
:100F2000186001604160811A5160444B1960AC4BFC
:100F3000196010600024002D75D00720284001465C
:100F40001139A9426FD32D1A1035A5480068012325
:100F500000248542184600D82046012D194600DBA2
:100F6000214601435FD19F4E31684F68AF4207D29F
:100F70000A68002A04D00E4611465768AF42F7D3DC
:100F80009948006881424ED0346808683060781B08
:100F9000112833D34E19720701D072B6FEE7706084
:100FA0004D60904D2868B04204D20568B5420746AE
:100FB000F8D301E02F46054678683A180192726826
:100FC0000292019AB24204D1029A121802927A60F5
:100FD0003E46854800682A1A50425041029AB2188B
:100FE000AA4200D10346002B04D16868029A8018F7
:100FF00070602D683560B74200D03E604868784B1D
:101000001A68121A1A600D4B1D68AA4200D21A60A3
:10101000083400220123DB0718430A6048600848AF
:101020000168491C016000F0C5FE600701D072B67E
:10103000FEE7204603B0F0BD8C0000200421002014
:10104000102100200346083B1960011F01231B06E5
:101050000B6001460C39034B0B60014620390A60D6
:1010600040387047190C00000020FFF7A1FA6420F7
:1010700000F0B0F9F8E70120FFF79AFA7D20800030
:1010800000F0A8F9F7E7642000F0A4F9FBE764207A
:1010900000F0A0F9FBE7EFF3108072B670474168EB
:1010A00082688A608268516001694B68834200D11E
:1010B0004A600A68521E0A6000220261086870478E
:1010C000014800687047C0469420002080F31088D3
:1010D00070470021016002460832C94342608160C6
:1010E000C26002617047002101617047B0B50B68B2
:1010F0005A1C0BD004460834626815689D4208D813
:10110000546825689D422546F6D904E00269556871
:1011100001E015462246A96008614D608A60516071
:101120000168491C0160B0BD72B60A480168491CDB
:101130000160BFF34F8FBFF36F8F704705480168A1
:10114000002903D0491E016002D0704772B6FEE745
:1011500062B6704704000020B0B500283ED00446B7
:10116000051F2868002801D472B6FEE7083C2168F4
:10117000002901D072B6FEE70121C9078843286023
:1011800000F004FA296816480268521802601548EF
:101190000368A34204D21868A0421A46F8D301E0BB
:1011A000024618465368D518A54202D1C9185160A5
:1011B00014466318834207D10B4B1B68984203D037
:1011C00043685918616000682060A24200D0146032
:1011D00006480168491C016000F0ECFDB0BDC04646
:1011E000F8200020342100201C00002014210020C1
:1011F00070B56048012101700D4D28687D21CC003B
:101200002146FEF7F5FF0146594801600948FEF7FF
:10121000EFFF55490860554E00203060B0602868E7
:101220002146FEF7E5FF401E70600720306070BD6C
:1012300000000020FFFFFF00000000000000000091
:101240000B4A13681868203080F30988022080F365
:101250001488BFF36F8F3FBCAE4608BC04BC62B6B7
:101260001847C046C046C046C046C046C046C046F5
:1012700010000020F0B581B03B490D68854200D3D5
:10128000054672B6BFF34F8FBFF36F8FFFF7F0FACB
:10129000002848D0354E06213160B268681E344BB4
:1012A0001C6803466343002A00D01446E418374AFA
:1012B00013685B0105D501235B0613602C4A126895
:1012C000A41A2C4A1378002B00D05E23E31A00D80E
:1012D000234673600027B7603468012222433260DE
:1012E000002D04D0BFF34F8F30BFBFF36F8F62B6B6
:1012F000BFF34F8FBFF36F8F72B6BFF34F8FBFF344
:101300006F8F31603168C90310D4B06818490C6818
:1013100065432D1A28462146FEF76AFF411C6143AA
:10132000491B134D14E062B601B0F0BD104D2A68A0
:10133000B168CB1A511E5C1894420B4600D8234664
:101340000C4A1278002A00D05E22944200D9194635
:101350007160B760072131602968491E716000F033
:10136000E7F862B601B0F0BD0021002010E000E017
:10137000902000208C2000200120000703490860F5
:10138000BFF34F8FBFF36F8F7047C04604ED00E08F
:1013900070B515460E460446FFF7C6FE4420215C94
:1013A00020464430FF2901D1002101704178FF29F6
:1013B00001D100214170FFF7C1FEA06B002805D1CB
:1013C0002046243031462A4600F05CF82046FFF7DC
:1013D0003DFD70BD70B500282FD0044692480168CD
:1013E000002901D072B6FEE70168491C016064481B
:1013F0000668914D28685521002242542868001D36
:10140000FFF74DFE34192868446006D30D48006884
:101410002968091DFFF76AFE0AE009480068296883
:10142000091DFFF763FE574801688C4200D2046033
:1014300000F0C0FC002800D070BDFFF79DFF70BD1C
:1014400018000020200000200349096801604C4971
:10145000096841607047C0460C2100207348012193
:101460000160704710B500280AD00C46724909681F
:101470001831FFF73BFE01212046FFF76DFA10BD42
:1014800072B6FEE7F0B581B000281CD06A4B1C682C
:101490004568AE681F683E62E561AC681E68183634
:1014A00066601C681834AC601B68986203685B1C3B
:1014B0000360002A01D00020C14308461146FFF70F
:1014C0004BFA01B0F0BD72B6FEE7C046B0B582B0CF
:1014D000114800240094019001252A020F4810A110
:1014E000234600F003FA012801D100F003FD411C5E
:1014F0000FD0012809D172B6E043224908600A489A
:101500000560F848046000F099F80848006802B0E7
:10151000B0BD72B6FEE7C046FC200020E90900001D
:1015200049444C450000000030210020BC1F000051
:10153000B0B50446EB4D2868011912480268914283
:1015400001D972B6FEE729680919006881420ED1F7
:101550003548006800280ED0002C0ED0FFF7E4FDBF
:1015600009480168491C0160FFF7E8FD641E28680E
:1015700000192860B0BD72B6FEE772B6FEE7C0463D
:10158000642100200821002018210020264801683D
:10159000491C01607047C046B0B523480068002868
:1015A00003D0224801210160B0BD20480021016024
:1015B0001F480168142214464C431E4B1D59002D30
:1015C00010D04A439B185A6852685A601C46083427
:1015D000A24202D11B1D52681A60D268C24B1A6027
:1015E0000160B0BDE418503C002914D0E56B002D1B
:1015F00013D101290FD0A56A002D10D102290AD0DC
:101600006569002D0DD1032905D0091F2568503CBF
:10161000002DE9D0D5E772B6FEE7491ED1E7891E55
:10162000CFE7C91ECDE7C0469C20002070210020D6
:10163000A42000202800002010000020B0B582B0B7
:10164000FF200104124A13680B431360000611685F
:1016500001431160FFF7CCFD0E4C00252560FFF71C
:10166000EFFDFFF799FF0195206872B6401C09D085
:10167000FEE70198002808D10198002805D10198BB
:10168000002802D101980028F3D0002002B0B0BD9C
:1016900020ED00E004000020F0B583B0002845D024
:1016A00016460F460446002529463A462B46FEF7C5
:1016B00063FD481E814139D1204678435421C943F6
:1016C000884233D802965430FFF708FC06460028BB
:1016D00029D0304644300190F4633764002F3046FF
:1016E00001D0304654303060FFF71EFDB563FF2057
:1016F000019C207031686070F06B326C431E504367
:1017000008185343CA187160B060F2603046103058
:10171000FFF7DFFC30462430FFF7DBFCFFF70EFD60
:10172000B56402982073304603B0F0BD72B6FEE790
:10173000F0B585B0049200280CD016460D4604463C
:1017400000292BD000F0CEF9002805D1002E03D0BF
:1017500072B6FEE772B6FEE7FFF7E6FCA66B002E58
:1017600021D0226C002A0AD0E0688118E160A068CC
:10177000814201D32168E1602846FEF715FD701E05
:10178000A06320690125002862D01034204600F0B3
:10179000A1FA00285CD0FFF7EFFD59E0206C00288B
:1017A000D0D072B6FEE72746443720462430019059
:1017B000012011E02046FFF749FB00F0FBFAFFF79C
:1017C000B3FCA66BFFF7BAFC002E46D0FFF7ACFCCB
:1017D000A66B0020002EC4D10499002937D0C00781
:1017E00002D002A8FFF730FEFFF7A8FCFFF7CEFEFD
:1017F000FFF79AFC3878FF2801D1002038707878FC
:10180000FF2801D100207870FFF798FC02A804A9F6
:1018100000F026F80028CDD1FFF786FCA66BFFF775
:101820008DFC002E05D02046FFF710FB00F0C2FA19
:10183000CCE704990198FFF715FE2046FFF706FB59
:1018400000F0B8FA0028C1D1FFF796FDBEE70025E9
:10185000FFF774FC284605B0F0BD0025FAE700004C
:10186000F0B581B0002817D00C46002916D00546E7
:10187000FFF75AFC6968A4480268944B1F68552614
:10188000BF5D002F0CD01868002181550126FFF79D
:1018900055FC304601B0F0BD72B6FEE772B6FEE709
:1018A000236800265F1CF2D0EC4F3F6800972F683A
:1018B0000098B84205D08A4203D300202060012658
:1018C000E5E7511A8B4208D9591A2160E3490968A2
:1018D0002960E04800686860D9E7002020600126A0
:1018E000D5E7C0466421002010000020F0B585B087
:1018F0001C460491039090000646FFF7EFFA054658
:101900000020C743002D00D1DAE002900194582056
:10191000FFF7E4FA002845D004460A9F5821FEF755
:101920005CFC2563A52228463146FEF74FFC206B60
:10193000049B002B32D0214634311A780A701A7871
:10194000002A29D05A784A705A78002A24D09A78E6
:101950008A709A78002A1FD0DA78CA70DA78002A5A
:101960001AD01A790A711A79002A15D05A794A714F
:101970005A79002A10D09A798A719A79002A0BD064
:10198000DA79CA71DA79002A06D01A7A0A721A7AD2
:10199000002A01D05A7A4A72029A4A72052F05D358
:1019A00072B6FEE72846FFF7D7FB89E03018061F1E
:1019B00007200B9D8643A764E762201D0490FFF774
:1019C00092FB20461830FFF78EFB0520C01BA0615C
:1019D0006462246130460399019AFFF733FB20606B
:1019E000002D00D02C60FFF79FFB37480168491C91
:1019F0000160B74E316800290BD0404800680028CC
:101A0000049D35D1E06A3168C96A814230D83460BA
:101A10002EE0346000680128049D29D1E24E304652
:101A2000FFF757FB30461430FFF753FB30462830A2
:101A3000FFF74FFB30463C30FFF74BFB503630464C
:101A4000FFF747FB224E3046FFF743FB214F384656
:101A5000FFF73FFBD248FFF73CFB1F48FFF739FB7E
:101A60001E48FFF736FBD1480660D14E7A48076022
:101A70001B480168491C21640160E06AC9490A6881
:101A8000904200D9086014214143C7484258521C73
:101A90004250401841688A68A160E26060618868CD
:101AA00045608D60FFF74AFB144800680127002855
:101AB00006D0E06A3168C96A814201D2FFF75CFC56
:101AC000384605B0F0BDC04694200020100000202C
:101AD000D0200020E4200020502100203C210020C4
:101AE000A020002005480068002805D0AB48006809
:101AF0004142414148007047012070473021002099
:101B0000544800687047C04664210020F0B582B098
:101B1000EE480068002806D04D480168491C016065
:101B2000002002B0F0BD4B490868461C0E601BD374
:101B3000ED490A681268002A01D072B6FEE70A6809
:101B4000454B1C680C601A60444A13685B1C1360A8
:101B50000A681268002A03D00968C968096801E0A8
:101B60000021C943E14A1160E04A116800238E4216
:101B70005AD3DC43DC4801680968002953D000943B
:101B80000021019103E001680968002944D001683F
:101B9000C968CB6859688E4242D31A1D9F68D968BC
:101BA000B960D9684F605F697D68954200D17960FE
:101BB0003968491E39609F6A002F0FD0DD69196AA4
:101BC000A960196A4D601D4618357C68AC4200D189
:101BD0007960002199623968491E3960DF6ABE491F
:101BE00009688F4201D9BC490F6014217943BB4D6C
:101BF0006C58641C6C5069184C68A5689C60DD606A
:101C00005961A1684A60A260B5490968C96A8F42F2
:101C1000B9D901210191B6E7019BB44A009C02E0C9
:101C20000C46019BB14A1460AD480068C06A14219B
:101C30004143AA48405801220128104600D81846BE
:101C4000A8490968002900D16BE7104602B0F0BD31
:101C50001821002064210020200000200C210020F9
:101C6000B0B504460020002C2ED09D490968A14241
:101C700001D072B6FEE7E16C002926D0491EE1646E
:101C8000A26CE36A93421FD000291DD1251D28466E
:101C9000FFF705FAA06CE0620521091AA1618E49DF
:101CA0000A68904200D90860142141438B48425889
:101CB000521C4250401841688A68A160E26060612D
:101CC000886845608D600120B0BD72B6FEE7C046F1
:101CD0001000002070B5C068C168002922D0C86912
:101CE0000A6A82600B6A58600A461832886A446839
:101CF000944200D1436003685B1E03600020886249
:101D0000724B1B68002B0FD0724B5C68A568CC61CE
:101D10000D628B621D686D1C1D60A3685A60A26015
:101D2000CA6A31E072B6FEE78A68CB689360CC6815
:101D300062600B1D4A6955689D4200D15460146869
:101D4000641E1460CA6A644C2568AA4200D92260E5
:101D500014245443614D2E59761C2E512C1965685C
:101D6000AE688D60CE604C61A9684B60AB605E4927
:101D70000B681B68002B03D00968C968096801E07B
:101D80000021C943594B196055490968C96A8A42FB
:101D900002D954490120086070BDC0469C20002033
:101DA0001C210020A4200020280000201800002072
:101DB00010000020F0B581B0444C206800280DD000
:101DC000FFF7B2F92068401E206020680027002835
:101DD00006D0FFF7B3F9384601B0F0BD72B6FEE7A2
:101DE0003B4800680028F4D03A4B1968002953D0CA
:101DF000009703E013461068002840D01A46DB68BD
:101E0000DF68FB693C6A9C603D6A6B603B46183347
:101E1000BC6A66689E4200D165600026BE62236887
:101E20005B1E2360BC68FB68A360FB685C603C1DB4
:101E30007D696968A14200D16B602968491E2960EB
:101E4000FD6A254801688D4201D9234805601421A7
:101E50006943224843585B1C435041184B689868BB
:101E6000BB60F8607961986844609C601C480068B9
:101E7000C06A8542BED301201A490860BAE71A48F1
:101E800001680968002903D00068C068006800E0A4
:101E9000F043009F15490860154C2568002D0CD0B3
:101EA000104E01E06D1E06D0FFF730FE0028F9D07D
:101EB00001203060F6E7002020600A480068002812
:101EC00087D0FFF759FA012783E7C0469C200020FE
:101ED000942000201C210020A420002028000020A5
:101EE0001000002070210020180000200821002090
:101EF0001821002070B582B0FFF716F9154E306832
:101F0000002811D1144C2046FFF7E3F8134D284662
:101F1000FFF7DFF812480560124804600520102121
:101F20000022FFF7B9FB3060FFF708F9306800289E
:101F30000ED00D48022100910190012042020B4871
:101F40000BA10023FFF7D2FC002801D002B070BD26
:101F500072B6FEE768210020A8200020BC200020E7
:101F600024000020140000206C2100204D0C0000F3
:101F7000546D72205376630002E008C8121F08C136
:101F8000002AFAD170477047002001E001C1121FFA
:101F9000002AFBD17047000000000B4000200B40DE
:101FA00000400B4000600B4000800B400000000030
:101FB0000101010202010001000280000400000092
:101FC000E01F00000000002008000000781F000053
:101FD000E81F00000800002070230000881F000098
:081FE00000879303AAAAAAAA34
:04000005000000C136
:00000001FF
