:020000040000FA
:1000000008020020C10000002D0600000D060000BF
:10001000FFFFFFFFFFFFFFFFFFFFFFFFFFFFFFFFF0
:10002000FFFFFFFFFFFFFFFFFFFFFFFF470600008F
:10003000FFFFFFFFFFFFFFFF45060000490600002E
:1000400035010000350100003501000035010000D8
:1000500035010000350100003501000035010000C8
:1000600035010000350100003501000035010000B8
:1000700035010000350100003501000035010000A8
:100080003501000035010000350100003501000098
:100090003501000035010000350100003501000088
:1000A0003501000035010000350100003501000078
:1000B0003501000035010000350100003501000068
:1000C0001D4880471D4880471D4800471D4801695D
:1000D000002908D14169002905D18169002902D18F
:1000E000C169002909D01848C1680901090D002912
:1000F0000ED005290CD006290AD0BFF34F8F134824
:100100001349016013491248C860BFF34F8FFEE7DF
:100110000E4801680E48884200D070470E480F49CB
:1001200001600A480E4901607047FEE7FEE7FEE7FE
:10013000FEE7FEE7FEE70000CD0000004D060000F0
:100140006501000000030840800108400000002015
:100150000400FA0500ED00E0008108400100000005
:10016000000000000348854600F026F800480047DC
:100170007D0800000802002070B50446002903D065
:1001800000202022012310E0002801D00020C043DD
:10019000C046C0460DE02546D5408D4205D30D46EC
:1001A0009540641B1D46954040191546521E002D72
:1001B000F1DC214670BD0000064C0125064E05E02D
:1001C000E36807CC2B430C3C98471034B442F7D378
:1001D000FFF7CCFF4810000058100000F0B58EB0BB
:1001E000C0005C4BC4180F23180207901803089036
:1001F0001804099018050A9018060B9018070C901F
:100200000E060D9452D00120084045422F461F4053
:100210008807059000D5F0374807049001D5079866
:1002200007430807039001D508980743C8060290C2
:1002300001D5099807438806019001D50A9807431C
:100240004806009003D530460B9E37430646069677
:10025000002E01D50C9E37430D9C2468BC4317012A
:100260000598C6173E401540354316020498C71737
:1002700037402F4315030398C6172E403E431504FD
:100280000298C7172F40374315050198C6172E400F
:100290003E4315060098C017284030431507069EB8
:1002A000F6172E40064326430D9C26600E04300EA2
:1002B00041D0C805C7173B408805069000D5F033EC
:1002C0004805059001D5079803430805079001D517
:1002D00008980343C80408902FD4880431D44904F3
:1002E00033D4002E01D50C9D2B4365689D4313012B
:1002F000069CE4171C40174027431302059CE41793
:100300001C403C431303079FFF171F402743130460
:10031000089CE4171C403C431305C01718402043B9
:100320001306C917194001431007F21702400A4388
:100330002A430D9842600EB0F0BD0998034388042B
:10034000CDD50A9D2B434904CBD50B9D2B43002EC5
:10035000C9D4CAE72020024070B541098900234B67
:10036000C9180A6AD9691C46183C246807240C403D
:100370005D68194614390968890501D4002110E027
:100380001968C900CE0F1A49F140002D09D41D6823
:100390006D012D0F00D1102569431D686D02AD0F51
:1003A000E940641E062C09D87C4424796400A744E3
:1003B0000C03030505070A000D4906E0002104E0CF
:1003C0000121C90301E07D2109021F240440032506
:1003D000A5402A40E2402E2800D1921C98680528AA
:1003E00000D30520C140D140084670BD18800840A8
:1003F00000127A0070B50C4C2568002B01D0054323
:1004000000E08543A668E0682560002B01D00E431C
:1004100000E08E43A660002B02D01043E06070BD68
:100420009043E06070BDC04624800840002A03D09D
:1004300002680A430260704702688A43026070479C
:10044000F0B500230E251C4603E0090A10352E2DB9
:100450005AD0CE070ED18E0716D44E071ED40E07E3
:1004600026D4CE062ED48E0635D44E063CD40E06A7
:10047000EBD542E02E460E3E0327B7403B431746DE
:10048000B7403C438E07E8D52E460C3E0327B740C5
:100490003B431746B7403C434E07E0D52E460A3E45
:1004A0000327B7403B431746B7403C430E07D8D518
:1004B0002E46083E0327B7403B431746B7403C4310
:1004C000CE06D0D5AE1F0327B7403B431746B740F3
:1004D0003C438E06C9D52E1F0327B7403B43174622
:1004E000B7403C434E06C2D5AE1E0327B7403B4340
:1004F0001746B7403C430E06A7D50326AE4033430C
:100500001646AE403443A0E74169994341614169D1
:1005100021434161F0BDB0B5846825468D43C36871
:10052000012A04D08B43002A04D10C4303E00B437F
:100530002C4600E02C468460C360B0BD70B582B02C
:10054000064668460022828000922E498D5D012475
:100550004455017821404378DB079B0F5918837875
:10056000DB075B0FC918C078C007000F0818019996
:10057000C907C90E40180004A1032346FFF73AFF3C
:100580000E48825D70001E490E5A28463146FFF71C
:1005900025FEA8001C490D586E62022228463146ED
:1005A000FFF7B9FF284631462246FFF749FF2846A4
:1005B00031462246FFF73AFF02B070BD2C10000012
:1005C00041000F4A515A0F4A105C80000E4A1058E1
:1005D0004162704741000A4A515A0A4A105C800041
:1005E000094A1058816270474100054A515A054A2C
:1005F000105C8000044A1058026A4A400262704748
:10060000321000002F10000014100000064801688E
:10061000002908D10168002905D10168002902D10B
:1006200001680029F3D070470000002070470000E7
:10063000024A0A40024302480260704780FFFF1FDF
:1006400008ED00E07047704770470000F0B586B0D5
:1006500059481021059101605849C86A4022039207
:100660001043C86256480268272A08D00268272A21
:1006700005D00268272A02D00268272AF3D1032472
:10068000A0020A6A82430A620122D0020B68034375
:100690000B604868000708D44868000705D448681C
:1006A000000702D448680007F3D508680494204383
:1006B0000423029398430860086B07242040032812
:1006C0000BD0086B2040032807D0086B204003287C
:1006D00003D0086B20400328EED13A4B1868104332
:1006E00006250195A843186000200090C8615702B4
:1006F0000868B84308601302081F05681D430560B9
:100700000D680826B5430D6005683D4305609502F8
:100710000E682E430E604D686D0708D44D686D0756
:1007200005D44D686D0702D44D686D07F3D5CD6AC9
:10073000039EB543CD620F25ED054D6115074E694A
:100740002E434E6105689D43056008683843086084
:100750004868800708D44868800705D4486880073F
:1007600002D448688007F3D5164D2868049B1843C7
:10077000029B984328600098C86108681043019B59
:1007800098430860086B204001280BD0086B20407C
:10079000012807D0086B2040012803D0086B2040B7
:1007A0000128EFD1286805990843286010032968BB
:1007B0000143296006B0F0BD0C8108400480084068
:1007C00008A106400002084000690840411E884117
:1007D00070470000B0B50D46044640681949014015
:1007E000E8880843A98801432889084369890143A7
:1007F0006160002014498C420BDC012189078C4286
:1008000012D060498C4211D012498C4215D1082077
:1008100011E00E498C420BD00D498C420AD0574949
:100820008C420AD11A2006E0182004E01C2002E0C5
:100830000A2000E01E20FFF78FFD2968FFF79CFCCF
:100840006062B0BDFCE0FFFFFFFF034000200440FA
:100850000010044000200040006880B27047016032
:10086000704710238B40002A03D041681943416030
:1008700070474168994341607047000086B0002589
:1008800028462946FFF7D4FE4F20010201272846BB
:100890002A463B46FFF7AEFD3804212149023B467C
:1008A000FFF7A8FD3448102421462A46FFF733FEFF
:1008B00006260196284621463246FFF78FFC202166
:1008C00028463246FFF78AFC05952E463C020494E2
:1008D000E12040020390294D03A92846FFF77AFF43
:1008E0002846314602963A46FFF7BBFF284639466E
:1008F0003A46FFF7B6FF7804112189023B46FFF71D
:1009000079FD1F4821463246FFF705FE8021384613
:10091000019E3246FFF762FC384621463246FFF719
:100920005DFC0298059004944B20C0010390154E85
:1009300003A93046FFF74EFF304602993A46FFF7CB
:1009400090FF304639463A46FFF78BFF0298FFF793
:10095000F5FD3846FFF7F2FD02200190FFF7EEFDAE
:100960000298FFF737FE3846FFF72AFE0198FFF797
:1009700031FE054F384609E000000B4000000440FE
:1009800000200B4000100040807BE1FF00BF00BF53
:1009900000BF00BF00BF00BF00BF00BF00BF00BF5F
:1009A00000BF00BF00BF00BF00BF00BF00BF00BF4F
:1009B00000BF00BF00BF00BF00BF00BF00BF00BF3F
:1009C00000BF00BF00BF00BF00BF00BF00BF00BF2F
:1009D00000BF00BF00BF00BF00BF00BF00BF00BF1F
:1009E00000BF00BF00BF00BF00BF00BF00BF00BF0F
:1009F00000BF00BF00BF00BF00BF00BF00BF00BFFF
:100A000000BF00BF00BF00BF00BF00BF4030BDD16E
:100A10000020FFF7E9FD0120FFF7E6FD0220FFF7C8
:100A2000E3FD384600BF00BF00BF00BF00BF00BFEE
:100A300000BF00BF00BF00BF00BF00BF00BF00BFBE
:100A400000BF00BF00BF00BF00BF00BF00BF00BFAE
:100A500000BF00BF00BF00BF00BF00BF00BF00BF9E
:100A600000BF00BF00BF00BF00BF00BF00BF00BF8E
:100A700000BF00BF00BF00BF00BF00BF00BF00BF7E
:100A800000BF00BF00BF00BF00BF00BF00BF00BF6E
:100A900000BF00BF00BF00BF00BF00BF00BF00BF5E
:100AA00000BF00BF4030BDD10020FFF79DFD0120F9
:100AB000FFF79AFD0220FFF797FD384600BF00BF01
:100AC00000BF00BF00BF00BF00BF00BF00BF00BF2E
:100AD00000BF00BF00BF00BF00BF00BF00BF00BF1E
:100AE00000BF00BF00BF00BF00BF00BF00BF00BF0E
:100AF00000BF00BF00BF00BF00BF00BF00BF00BFFE
:100B000000BF00BF00BF00BF00BF00BF00BF00BFED
:100B100000BF00BF00BF00BF00BF00BF00BF00BFDD
:100B200000BF00BF00BF00BF00BF00BF00BF00BFCD
:100B300000BF00BF00BF00BF00BF00BF4030BDD13D
:100B40000020FFF751FD0120FFF74EFD0220FFF7C7
:100B50004BFD384600BF00BF00BF00BF00BF00BF55
:100B600000BF00BF00BF00BF00BF00BF00BF00BF8D
:100B700000BF00BF00BF00BF00BF00BF00BF00BF7D
:100B800000BF00BF00BF00BF00BF00BF00BF00BF6D
:100B900000BF00BF00BF00BF00BF00BF00BF00BF5D
:100BA00000BF00BF00BF00BF00BF00BF00BF00BF4D
:100BB00000BF00BF00BF00BF00BF00BF00BF00BF3D
:100BC00000BF00BF00BF00BF00BF00BF00BF00BF2D
:100BD00000BF00BF4030BDD10020FFF705FD012060
:100BE000FFF702FD0220FFF7FFFC384600BF00BF01
:100BF00000BF00BF00BF00BF00BF00BF00BF00BFFD
:100C000000BF00BF00BF00BF00BF00BF00BF00BFEC
:100C100000BF00BF00BF00BF00BF00BF00BF00BFDC
:100C200000BF00BF00BF00BF00BF00BF00BF00BFCC
:100C300000BF00BF00BF00BF00BF00BF00BF00BFBC
:100C400000BF00BF00BF00BF00BF00BF00BF00BFAC
:100C500000BF00BF00BF00BF00BF00BF00BF00BF9C
:100C600000BF00BF00BF00BF00BF00BF4030BDD10C
:100C70000020FFF7B9FC0120FFF7B6FC0220FFF7C8
:100C8000B3FC384600BF00BF00BF00BF00BF00BFBD
:100C900000BF00BF00BF00BF00BF00BF00BF00BF5C
:100CA00000BF00BF00BF00BF00BF00BF00BF00BF4C
:100CB00000BF00BF00BF00BF00BF00BF00BF00BF3C
:100CC00000BF00BF00BF00BF00BF00BF00BF00BF2C
:100CD00000BF00BF00BF00BF00BF00BF00BF00BF1C
:100CE00000BF00BF00BF00BF00BF00BF00BF00BF0C
:100CF00000BF00BF00BF00BF00BF00BF00BF00BFFC
:100D000000BF00BF4030BDD10020FFF76DFC0120C7
:100D1000FFF76AFC0220FFF767FC384600BF00BF00
:100D200000BF00BF00BF00BF00BF00BF00BF00BFCB
:100D300000BF00BF00BF00BF00BF00BF00BF00BFBB
:100D400000BF00BF00BF00BF00BF00BF00BF00BFAB
:100D500000BF00BF00BF00BF00BF00BF00BF00BF9B
:100D600000BF00BF00BF00BF00BF00BF00BF00BF8B
:100D700000BF00BF00BF00BF00BF00BF00BF00BF7B
:100D800000BF00BF00BF00BF00BF00BF00BF00BF6B
:100D900000BF00BF00BF00BF00BF00BF4030BDD1DB
:100DA0000020FFF721FC0120FFF71EFC0220FFF7C7
:100DB0001BFC384600BF00BF00BF00BF00BF00BF24
:100DC00000BF00BF00BF00BF00BF00BF00BF00BF2B
:100DD00000BF00BF00BF00BF00BF00BF00BF00BF1B
:100DE00000BF00BF00BF00BF00BF00BF00BF00BF0B
:100DF00000BF00BF00BF00BF00BF00BF00BF00BFFB
:100E000000BF00BF00BF00BF00BF00BF00BF00BFEA
:100E100000BF00BF00BF00BF00BF00BF00BF00BFDA
:100E200000BF00BF00BF00BF00BF00BF00BF00BFCA
:100E300000BF00BF4030BDD10020FFF7D5FB01202F
:100E4000FFF7D2FB0220FFF7CFFB384600BF00BF01
:100E500000BF00BF00BF00BF00BF00BF00BF00BF9A
:100E600000BF00BF00BF00BF00BF00BF00BF00BF8A
:100E700000BF00BF00BF00BF00BF00BF00BF00BF7A
:100E800000BF00BF00BF00BF00BF00BF00BF00BF6A
:100E900000BF00BF00BF00BF00BF00BF00BF00BF5A
:100EA00000BF00BF00BF00BF00BF00BF00BF00BF4A
:100EB00000BF00BF00BF00BF00BF00BF00BF00BF3A
:100EC00000BF00BF00BF00BF00BF00BF4030BDD1AA
:100ED0000020FFF789FB0120FFF786FB0220FFF7C8
:100EE00083FB00BF00BF00BF00BF00BF00BF00BF4B
:100EF00000BF00BF00BF00BF00BF00BF00BF00BFFA
:100F000000BF00BF00BF00BF00BF00BF00BF00BFE9
:100F100000BF00BF00BF00BF00BF00BF00BF00BFD9
:100F200000BF00BF00BF00BF00BF00BF00BF00BFC9
:100F300000BF00BF00BF00BF00BF00BF00BF00BFB9
:100F400000BF00BF00BF00BF00BF00BF00BF00BFA9
:100F500000BF00BF00BF00BF00BF00BF00BF00BF99
:100F600000BF4037BDD10020FFF73EFB0120FFF757
:100F70003BFB0220FFF738FB1D4F482081B228467B
:100F8000FFF76DFC80212846FFF71EFC0028F9D0F2
:100F900078787F1C16490F318F42EFD103E0284645
:100FA0003946FFF75CFC20212846FFF70DFC01289D
:100FB0000DD12846FFF750FC074628462146FFF78B
:100FC00003FC0028F9D028463946FFF748FC2021C9
:100FD0003046FFF7F9FB0028F9D03046FFF73CFC1C
:100FE000074628462146FFF7EFFB0028F9D0D6E751
:100FF0003810000002E008C8121F08C1002AFAD108
:1010000070477047002001E001C1121F002AFBD188
:101010007047000000000B4000200B4000400B40D8
:1010200000600B4000800B40000000000101010245
:10103000020100010002800048656C6C6F2C207773
:101040006F726C64210D0A0058100000000000202F
:0810500008020000041000007A
:04000005000000C136
:00000001FF
