:020000040000FA
:1000000008020020C1000000330C000019060000A7
:10001000FFFFFFFFFFFFFFFFFFFFFFFFFFFFFFFFF0
:10002000FFFFFFFFFFFFFFFFFFFFFFFF370C000099
:10003000FFFFFFFFFFFFFFFF350C0000390C000042
:1000400035010000350100003501000035010000D8
:1000500035010000350100003501000035010000C8
:1000600035010000350100003501000035010000B8
:1000700035010000350100003501000035010000A8
:100080003501000035010000350100003501000098
:100090003501000035010000350100003501000088
:1000A0003501000035010000350100003501000078
:1000B0003501000035010000350100003501000068
:1000C0001D4880471D4880471D4800471D4801695D
:1000D000002908D14169002905D18169002902D18F
:1000E000C169002909D01848C1680901090D002912
:1000F0000ED005290CD006290AD0BFF34F8F134824
:100100001349016013491248C860BFF34F8FFEE7DF
:100110000E4801680E48884200D070470E480F49CB
:1001200001600A480E4901607047FEE7FEE7FEE7FE
:10013000FEE7FEE7FEE70000CD0000003D0C0000FA
:100140006501000000030840800108400000002015
:100150000400FA0500ED00E0008108400100000005
:10016000000000000348854600F02CF800480047D6
:10017000DD0E000008020020421C0178401C00290E
:10018000FBD1801A704770B50446002903D00020C7
:100190002022012310E0002801D00020C043C046E7
:1001A000C0460DE02546D5408D4205D30D4695400D
:1001B000641B1D46954040191546521E002DF1DC6A
:1001C000214670BD064C0125064E05E0E36807CCCC
:1001D0002B430C3C98471034B442F7D3FFF7C6FFCB
:1001E000E8100000F8100000F0B58EB0C0005C4BC5
:1001F000C4180F23180207901803089018040990D8
:1002000018050A9018060B9018070C900E060D940E
:1002100052D00120084045422F461F4088070590D4
:1002200000D5F0374807049001D507980743080721
:10023000039001D508980743C806029001D5099894
:1002400007438806019001D50A98074348060090A5
:1002500003D530460B9E374306460696002E01D541
:100260000C9E37430D9C2468BC4317010598C617A4
:100270003E401540354316020498C71737402F43B8
:1002800015030398C6172E403E4315040298C7175E
:100290002F40374315050198C6172E403E431506DB
:1002A0000098C017284030431507069EF6172E40C9
:1002B000064326430D9C26600E04300E41D0C8052F
:1002C000C7173B408805069000D5F03348050590D8
:1002D00001D5079803430805079001D50898034303
:1002E000C80408902FD4880431D4490433D4002E94
:1002F00001D50C9D2B4365689D431301069CE417B3
:100300001C40174027431302059CE4171C403C4344
:100310001303079FFF171F4027431304089CE4178C
:100320001C403C431305C017184020431306C9174F
:10033000194001431007F21702400A432A430D985F
:1003400042600EB0F0BD099803438804CDD50A9DE4
:100350002B434904CBD50B9D2B43002EC9D4CAE7B0
:100360002020024070B541098900234BC9180A6A50
:10037000D9691C46183C246807240C405D6819465E
:1003800014390968890501D4002110E01968C900F1
:10039000CE0F1A49F140002D09D41D686D012D0FB3
:1003A00000D1102569431D686D02AD0FE940641E40
:1003B000062C09D87C4424796400A7440C03030567
:1003C00005070A000D4906E0002104E00121C903E8
:1003D00001E07D2109021F2404400325A5402A4095
:1003E000E2402E2800D1921C9868052800D30520F1
:1003F000C140D140084670BD1880084000127A0004
:1004000070B50C4C2568002B01D0054300E08543F6
:10041000A668E0682560002B01D00E4300E08E4303
:10042000A660002B02D01043E06070BD9043E060F6
:1004300070BDC04624800840002A03D002680A43E9
:100440000260704702688A4302607047F0B500237B
:100450000E251C4603E0090A10352E2D5AD0CE0772
:100460000ED18E0716D44E071ED40E0726D4CE0604
:100470002ED48E0635D44E063CD40E06EBD542E083
:100480002E460E3E0327B7403B431746B7403C433A
:100490008E07E8D52E460C3E0327B7403B43174650
:1004A000B7403C434E07E0D52E460A3E0327B740EF
:1004B0003B431746B7403C430E07D8D52E46083E6F
:1004C0000327B7403B431746B7403C43CE06D0D541
:1004D000AE1F0327B7403B431746B7403C438E0649
:1004E000C9D52E1F0327B7403B431746B7403C43AF
:1004F0004E06C2D5AE1E0327B7403B431746B74052
:100500003C430E06A7D50326AE4033431646AE4005
:100510003443A0E741699943416141692143416105
:10052000F0BDB0B5846825468D43C368012A04D068
:100530008B43002A04D10C4303E00B432C4600E01C
:100540002C468460C360B0BD70B582B00646684674
:100550000022828000922E498D5D0124445501784D
:1005600021404378DB079B0F59188378DB075B0F2B
:10057000C918C078C007000F08180199C907C90E2B
:1005800040180004A1032346FFF73AFF0E48825D9E
:1005900070001E490E5A28463146FFF725FEA80076
:1005A0001C490D586E62022228463146FFF7B9FFFA
:1005B000284631462246FFF749FF28463146224663
:1005C000FFF73AFF02B070BDDC10000041000F4A97
:1005D000515A0F4A105C80000E4A10584162704711
:1005E00041000A4A515A0A4A105C8000094A1058D0
:1005F000816270474100054A515A054A105C8000EB
:10060000044A1058026A4A4002627047E210000031
:10061000DF100000C410000006480168002908D15E
:100620000168002905D10168002902D1016800296B
:10063000F3D070470000002010B5014C204601E0C7
:10064000807BE1FF00BF00BF00BF00BF00BF00BF55
:1006500000BF00BF00BF00BF00BF00BF00BF00BFA2
:1006600000BF00BF00BF00BF00BF00BF00BF00BF92
:1006700000BF00BF00BF00BF00BF00BF00BF00BF82
:1006800000BF00BF00BF00BF00BF00BF00BF00BF72
:1006900000BF00BF00BF00BF00BF00BF00BF00BF62
:1006A00000BF00BF00BF00BF00BF00BF00BF00BF52
:1006B00000BF00BF00BF00BF00BF00BF00BF00BF42
:1006C00000BF00BF4030BDD10020FFF793FF0120E5
:1006D000FFF790FF0220FFF78DFF204600BF00BF0D
:1006E00000BF00BF00BF00BF00BF00BF00BF00BF12
:1006F00000BF00BF00BF00BF00BF00BF00BF00BF02
:1007000000BF00BF00BF00BF00BF00BF00BF00BFF1
:1007100000BF00BF00BF00BF00BF00BF00BF00BFE1
:1007200000BF00BF00BF00BF00BF00BF00BF00BFD1
:1007300000BF00BF00BF00BF00BF00BF00BF00BFC1
:1007400000BF00BF00BF00BF00BF00BF00BF00BFB1
:1007500000BF00BF00BF00BF00BF00BF4030BDD121
:100760000020FFF747FF0120FFF744FF0220FFF7BB
:1007700041FF204600BF00BF00BF00BF00BF00BF59
:1007800000BF00BF00BF00BF00BF00BF00BF00BF71
:1007900000BF00BF00BF00BF00BF00BF00BF00BF61
:1007A00000BF00BF00BF00BF00BF00BF00BF00BF51
:1007B00000BF00BF00BF00BF00BF00BF00BF00BF41
:1007C00000BF00BF00BF00BF00BF00BF00BF00BF31
:1007D00000BF00BF00BF00BF00BF00BF00BF00BF21
:1007E00000BF00BF00BF00BF00BF00BF00BF00BF11
:1007F00000BF00BF4030BDD10020FFF7FBFE01204D
:10080000FFF7F8FE0220FFF7F5FE204600BF00BF0D
:1008100000BF00BF00BF00BF00BF00BF00BF00BFE0
:1008200000BF00BF00BF00BF00BF00BF00BF00BFD0
:1008300000BF00BF00BF00BF00BF00BF00BF00BFC0
:1008400000BF00BF00BF00BF00BF00BF00BF00BFB0
:1008500000BF00BF00BF00BF00BF00BF00BF00BFA0
:1008600000BF00BF00BF00BF00BF00BF00BF00BF90
:1008700000BF00BF00BF00BF00BF00BF00BF00BF80
:1008800000BF00BF00BF00BF00BF00BF4030BDD1F0
:100890000020FFF7AFFE0120FFF7ACFE0220FFF7BC
:1008A000A9FE204600BF00BF00BF00BF00BF00BFC1
:1008B00000BF00BF00BF00BF00BF00BF00BF00BF40
:1008C00000BF00BF00BF00BF00BF00BF00BF00BF30
:1008D00000BF00BF00BF00BF00BF00BF00BF00BF20
:1008E00000BF00BF00BF00BF00BF00BF00BF00BF10
:1008F00000BF00BF00BF00BF00BF00BF00BF00BF00
:1009000000BF00BF00BF00BF00BF00BF00BF00BFEF
:1009100000BF00BF00BF00BF00BF00BF00BF00BFDF
:1009200000BF00BF4030BDD10020FFF763FE0120B3
:10093000FFF760FE0220FFF75DFE204600BF00BF0C
:1009400000BF00BF00BF00BF00BF00BF00BF00BFAF
:1009500000BF00BF00BF00BF00BF00BF00BF00BF9F
:1009600000BF00BF00BF00BF00BF00BF00BF00BF8F
:1009700000BF00BF00BF00BF00BF00BF00BF00BF7F
:1009800000BF00BF00BF00BF00BF00BF00BF00BF6F
:1009900000BF00BF00BF00BF00BF00BF00BF00BF5F
:1009A00000BF00BF00BF00BF00BF00BF00BF00BF4F
:1009B00000BF00BF00BF00BF00BF00BF4030BDD1BF
:1009C0000020FFF717FE0120FFF714FE0220FFF7BB
:1009D00011FE204600BF00BF00BF00BF00BF00BF28
:1009E00000BF00BF00BF00BF00BF00BF00BF00BF0F
:1009F00000BF00BF00BF00BF00BF00BF00BF00BFFF
:100A000000BF00BF00BF00BF00BF00BF00BF00BFEE
:100A100000BF00BF00BF00BF00BF00BF00BF00BFDE
:100A200000BF00BF00BF00BF00BF00BF00BF00BFCE
:100A300000BF00BF00BF00BF00BF00BF00BF00BFBE
:100A400000BF00BF00BF00BF00BF00BF00BF00BFAE
:100A500000BF00BF4030BDD10020FFF7CBFD01201B
:100A6000FFF7C8FD0220FFF7C5FD204600BF00BF0D
:100A700000BF00BF00BF00BF00BF00BF00BF00BF7E
:100A800000BF00BF00BF00BF00BF00BF00BF00BF6E
:100A900000BF00BF00BF00BF00BF00BF00BF00BF5E
:100AA00000BF00BF00BF00BF00BF00BF00BF00BF4E
:100AB00000BF00BF00BF00BF00BF00BF00BF00BF3E
:100AC00000BF00BF00BF00BF00BF00BF00BF00BF2E
:100AD00000BF00BF00BF00BF00BF00BF00BF00BF1E
:100AE00000BF00BF00BF00BF00BF00BF4030BDD18E
:100AF0000020FFF77FFD0120FFF77CFD0220FFF7BC
:100B000079FD204600BF00BF00BF00BF00BF00BF8F
:100B100000BF00BF00BF00BF00BF00BF00BF00BFDD
:100B200000BF00BF00BF00BF00BF00BF00BF00BFCD
:100B300000BF00BF00BF00BF00BF00BF00BF00BFBD
:100B400000BF00BF00BF00BF00BF00BF00BF00BFAD
:100B500000BF00BF00BF00BF00BF00BF00BF00BF9D
:100B600000BF00BF00BF00BF00BF00BF00BF00BF8D
:100B700000BF00BF00BF00BF00BF00BF00BF00BF7D
:100B800000BF00BF4030BDD10020FFF733FD012082
:100B9000FFF730FD0220FFF72DFD00BF00BF00BFB3
:100BA00000BF00BF00BF00BF00BF00BF00BF00BF4D
:100BB00000BF00BF00BF00BF00BF00BF00BF00BF3D
:100BC00000BF00BF00BF00BF00BF00BF00BF00BF2D
:100BD00000BF00BF00BF00BF00BF00BF00BF00BF1D
:100BE00000BF00BF00BF00BF00BF00BF00BF00BF0D
:100BF00000BF00BF00BF00BF00BF00BF00BF00BFFD
:100C000000BF00BF00BF00BF00BF00BF00BF00BFEC
:100C100000BF00BF00BF00BF00BF4034BDD10020F7
:100C2000FFF7E8FC0120FFF7E5FC0220FFF7E2FCFC
:100C300010BD70477047704770470000F0B586B030
:100C400059481021059101605849C86A4022039211
:100C50001043C86256480268272A08D00268272A2B
:100C600005D00268272A02D00268272AF3D103247C
:100C7000A0020A6A82430A620122D0020B6803437F
:100C80000B604868000708D44868000705D4486826
:100C9000000702D448680007F3D50868049420438D
:100CA0000423029398430860086B0724204003281C
:100CB0000BD0086B2040032807D0086B2040032886
:100CC00003D0086B20400328EED13A4B186810433C
:100CD00006250195A843186000200090C8615702BE
:100CE0000868B84308601302081F05681D430560C3
:100CF0000D680826B5430D6005683D430560950203
:100D00000E682E430E604D686D0708D44D686D0760
:100D100005D44D686D0702D44D686D07F3D5CD6AD3
:100D2000039EB543CD620F25ED054D6115074E6954
:100D30002E434E6105689D4305600868384308608E
:100D40004868800708D44868800705D44868800749
:100D500002D448688007F3D5164D2868049B1843D1
:100D6000029B984328600098C86108681043019B63
:100D700098430860086B204001280BD0086B204086
:100D8000012807D0086B2040012803D0086B2040C1
:100D90000128EFD1286805990843286010032968C5
:100DA0000143296006B0F0BD0C8108400480084072
:100DB00008A1064000020840F0B583B0074600785D
:100DC00000282ED0012005028607002401973F5DF0
:100DD0003046294600F028F80028F9D03046394638
:100DE00000F06DF8641C019F3846FFF7C5F9844296
:100DF000EDD33878002814D03C460027A64EE05D9D
:100E000002903046294600F00FF80028F9D030460D
:100E1000029900F054F87F1C2046FFF7ADF9874295
:100E2000EDD303B0F0BDC04600690840411E8841C3
:100E300070470000B0B50D460446406819490140AE
:100E4000E8880843A9880143288908436989014340
:100E50006160002014498C420BDC012189078C421F
:100E600012D08B498C4211D012498C4215D10820E6
:100E700011E00E498C420BD00D498C420AD08649B4
:100E80008C420AD11A2006E0182004E01C2002E05F
:100E90000A2000E01E20FFF765FA2968FFF773F9C2
:100EA0006062B0BDFCE0FFFFFFFF03400020044094
:100EB0000010044000200040006880B270470160CC
:100EC000704710238B40002A03D0416819434160CA
:100ED00070474168994341607047000086B0002622
:100EE0003046FFF731FB01252846FFF72DFB022492
:100EF0002046FFF729FB3046FFF772FB2846FFF735
:100F000065FB2046FFF76CFBFFF796FB6804112199
:100F100089022B46FFF774FA2C025C4821463246C0
:100F2000FFF7FFFA80210627029728463A46FFF787
:100F30005BF9284621463A46FFF756F90596049490
:100F40004B20C0010390524F03A93846FFF772FFB0
:100F5000384631462A46FFF7B4FF384629462A4626
:100F6000FFF7AFFF28040190412109022B46FFF74C
:100F700047FA4848082100913246FFF7D2FA042187
:100F80003046029F3A46FFF72FF9304600993A461D
:100F9000FFF72AF905960494E1204002009003909F
:100FA000AF0703A93846FFF745FF384631462A46C2
:100FB000FFF787FF384629462A46FFF782FF2120A0
:100FC000410201982B46FFF71BFA2021019131487D
:100FD0003246FFF7A6FA10213046029F3A46FFF745
:100FE00003F9304601993A46FFF7FEF80596049456
:100FF00000980390284F03A93846FFF71BFF384697
:1010000031462A46FFF75DFF384629462A46FFF754
:1010100058FF22A0FFF7D0FE38462146FFF704FF15
:101020000028F9D041213846FFF749FF38462146CC
:10103000FFF7FAFE0028F9D054213846FFF73FFFAA
:1010400038462146FFF7F0FE0028F9D00D2138463A
:10105000FFF735FF38462146FFF7E6FE0028F9D0B6
:101060000A25A9B23846FFF72AFF20213846FFF7A4
:10107000DBFE0128F9D13846FFF71EFF054638464A
:101080002146FFF7D1FE0028F9D0EAE700200B4007
:101090000010004000000B400000044041540D0AC5
:1010A0000000000002E008C8121F08C1002AFAD19F
:1010B00070477047002001E001C1121F002AFBD1D8
:1010C0007047000000000B4000200B4000400B4028
:1010D00000600B4000800B40000000000101010295
:1010E0000201000100028000F81000000000002052
:0810F00008020000B41000002A
:04000005000000C136
:00000001FF
