:020000040000FA
:1000000080020020C10000003D0500001D05000029
:10001000FFFFFFFFFFFFFFFFFFFFFFFFFFFFFFFFF0
:10002000FFFFFFFFFFFFFFFFFFFFFFFF4105000096
:10003000FFFFFFFFFFFFFFFF3F050000450500003A
:1000400035010000350100003501000035010000D8
:1000500035010000350100003501000035010000C8
:1000600035010000350100003501000035010000B8
:1000700035010000350100003501000035010000A8
:100080003501000035010000350100003501000098
:100090003501000035010000350100003501000088
:1000A0003501000035010000350100003501000078
:1000B0003501000035010000350100003501000068
:1000C0001D4880471D4880471D4800471D4801695D
:1000D000002908D14169002905D18169002902D18F
:1000E000C169002909D01848C1680901090D002912
:1000F0000ED005290CD006290AD0BFF34F8F134824
:100100001349016013491248C860BFF34F8FFEE7DF
:100110000E4801680E48884200D070470E480F49CB
:1001200001600A480E4901607047FEE7FEE7FEE7FE
:10013000FEE7FEE7FEE70000CD00000055050000E9
:100140006501000000030840800108400000002015
:100150000400FA0500ED00E0008108400100000005
:10016000000000000348854600F006F800480047FC
:10017000D106000080020020064C0125064E05E055
:10018000E36807CC2B430C3C98471034B442F7D3B8
:10019000FFF7ECFF8008000090080000F0B58EB07B
:1001A000C0005C4BC4180F23180207901803089076
:1001B0001804099018050A9018060B9018070C905F
:1001C0000E060D9452D00120084045422F461F4094
:1001D0008807059000D5F0374807049001D50798A7
:1001E00007430807039001D508980743C806029003
:1001F00001D5099807438806019001D50A9807435D
:100200004806009003D530460B9E374306460696B7
:10021000002E01D50C9E37430D9C2468BC4317016A
:100220000598C6173E401540354316020498C71777
:1002300037402F4315030398C6172E403E4315043D
:100240000298C7172F40374315050198C6172E404F
:100250003E4315060098C017284030431507069EF8
:10026000F6172E40064326430D9C26600E04300EE2
:1002700041D0C805C7173B408805069000D5F0332C
:100280004805059001D5079803430805079001D557
:1002900008980343C80408902FD4880431D4490433
:1002A00033D4002E01D50C9D2B4365689D4313016B
:1002B000069CE4171C40174027431302059CE417D3
:1002C0001C403C431303079FFF171F4027431304A1
:1002D000089CE4171C403C431305C01718402043FA
:1002E0001306C917194001431007F21702400A43C9
:1002F0002A430D9842600EB0F0BD0998034388046C
:10030000CDD50A9D2B434904CBD50B9D2B43002E05
:10031000C9D4CAE72020024070B50C4C2568002BD8
:1003200001D0054300E08543A668E0682560002B06
:1003300001D00E4300E08E43A660002B02D0104394
:10034000E06070BD9043E06070BDC046248008400E
:10035000002A03D002680A430260704702688A4399
:1003600002607047F0B500230E251C4603E0090A21
:1003700010352E2D5AD0CE070ED18E0716D44E072B
:100380001ED40E0726D4CE062ED48E0635D44E06A5
:100390003CD40E06EBD542E02E460E3E0327B74076
:1003A0003B431746B7403C438E07E8D52E460C3EEC
:1003B0000327B7403B431746B7403C434E07E0D5C1
:1003C0002E460A3E0327B7403B431746B7403C43FF
:1003D0000E07D8D52E46083E0327B7403B431746A5
:1003E000B7403C43CE06D0D5AE1F0327B7403B43B2
:1003F0001746B7403C438E06C9D52E1F0327B7408A
:100400003B431746B7403C434E06C2D5AE1E0327BA
:10041000B7403B431746B7403C430E06A7D50326DB
:10042000AE4033431646AE403443A0E7416999439A
:100430004161416921434161F0BDB0B58468254601
:100440008D43C368012A04D08B43002A04D10C4396
:1004500003E00B432C4600E02C468460C360B0BD33
:1004600070B582B006466846002282800092294913
:100470008D5D01244455017821404378DB079B0FB3
:1004800059188378DB075B0FC918C078C007000FC5
:1004900008180199C907C90E40180004A103234692
:1004A000FFF73AFF0E48825D700019490E5A284640
:1004B0003146FFF773FEA80017490D586E620222FD
:1004C00028463146FFF7B9FF284631462246FFF756
:1004D00049FF284631462246FFF73AFF02B070BD79
:1004E0007408000041000A4A515A0A4A105C800010
:1004F000094A1058416270474100054A515A054A5D
:10050000105C8000044A1058026A4A400262704738
:100510007A080000770800005C08000006480168BF
:10052000002908D10168002905D10168002902D1FC
:1005300001680029F3D07047000000207047704721
:100540007047000002480168491C01607047C046BE
:100550006C000020F0B586B059481021059101606B
:100560005849C86A402203921043C862564802683C
:10057000272A08D00268272A05D00268272A02D035
:100580000268272AF3D10324A0020A6A82430A627E
:100590000122D0020B6803430B604868000708D4AF
:1005A0004868000705D44868000702D44868000777
:1005B000F3D5086804942043042302939843086009
:1005C000086B0724204003280BD0086B2040032829
:1005D00007D0086B2040032803D0086B2040032875
:1005E000EED13A4B1868104306250195A8431860D0
:1005F00000200090C86157020868B84308601302E1
:10060000081F05681D4305600D680826B5430D6089
:1006100005683D43056095020E682E430E604D68E7
:100620006D0708D44D686D0705D44D686D0702D479
:100630004D686D07F3D5CD6A039EB543CD620F2596
:10064000ED054D6115074E692E434E6105689D43CA
:1006500005600868384308604868800708D448681F
:10066000800705D44868800702D448688007F3D51E
:10067000164D2868049B1843029B984328600098F5
:10068000C86108681043019B98430860086B2040CC
:1006900001280BD0086B2040012807D0086B2040B0
:1006A000012803D0086B20400128EFD12868059964
:1006B00008432860100329680143296006B0F0BD93
:1006C0000C8108400480084008A106400002084050
:1006D00000242046FFF7C4FE01252846FFF7C0FE90
:1006E00002263046FFF7BCFE2046FFF7FBFE2846F9
:1006F000FFF7F8FE3046FFF7F5FE264C0020FFF727
:10070000FBFE0120FFF7F8FE204600BF00BF00BF40
:1007100000BF00BF00BF00BF00BF00BF00BF00BFE1
:1007200000BF00BF00BF00BF00BF00BF00BF00BFD1
:1007300000BF00BF00BF00BF00BF00BF00BF00BFC1
:1007400000BF00BF00BF00BF00BF00BF00BF00BFB1
:1007500000BF00BF00BF00BF00BF00BF00BF00BFA1
:1007600000BF00BF00BF00BF00BF00BF00BF00BF91
:1007700000BF00BF00BF00BF00BF00BF00BF00BF81
:1007800000BF00BF00BF00BF00BF00BF00BF4238B6
:10079000BBD1B3E7308E3200B0B5234800680028E3
:1007A00003D0224801210160B0BD20480021016032
:1007B0001F480168142214464C431E4B1D59002D3E
:1007C00010D04A439B185A6852685A601C46083435
:1007D000A24202D11B1D52681A60D268164B1A60E1
:1007E0000160B0BDE418503C002914D0E56B002D29
:1007F00013D101290FD0A56A002D10D102290AD0EA
:100800006569002D0DD1032905D0091F2568503CCD
:10081000002DE9D0D5E772B6FEE7491ED1E7891E63
:10082000CFE7C91ECDE7C046700000207800002049
:1008300074000020080000200400002002E008C826
:10084000121F08C1002AFAD170477047002001E04A
:1008500001C1121F002AFBD17047000000000B40AD
:1008600000200B4000400B4000600B4000800B401C
:1008700000000000010101020201000100028000ED
:100880009008000000000020800200004C080000DA
:04000005000000C136
:00000001FF
