:020000040000FA
:1000000078130020C1000000F5050000D5050000B0
:10001000FFFFFFFFFFFFFFFFFFFFFFFFFFFFFFFFF0
:10002000FFFFFFFFFFFFFFFFFFFFFFFF4506000091
:10003000FFFFFFFFFFFFFFFF010600004906000072
:1000400035010000350100003501000035010000D8
:1000500035010000350100003501000035010000C8
:1000600035010000350100003501000035010000B8
:1000700035010000350100003501000035010000A8
:100080003501000035010000350100003501000098
:100090003501000035010000350100003501000088
:1000A0003501000035010000350100003501000078
:1000B0003501000035010000350100003501000068
:1000C0001D4880471D4880471D4800471D4801695D
:1000D000002908D14169002905D18169002902D18F
:1000E000C169002909D01848C1680901090D002912
:1000F0000ED005290CD006290AD0BFF34F8F134824
:100100001349016013491248C860BFF34F8FFEE7DF
:100110000E4801680E48884200D070470E480F49CB
:1001200001600A480E4901607047FEE7FEE7FEE7FE
:10013000FEE7FEE7FEE70000CD000000F506000048
:100140006501000000030840800108400000002015
:100150000400FA0500ED00E0008108400100000005
:10016000000000000348854600F062F800480047A0
:10017000B10800007813002030B5434351435C18A8
:10018000010C130C0D465D432C1980B292B205464A
:10019000554351430A0C09044D1962415843010C5F
:1001A00000044019514130BD03460B439B0703D067
:1001B00009E008C9121F08C0042AFAD203E00B782C
:1001C0000370401C491C521EF9D27047D2B201E0A4
:1001D0000270401C491EFBD270470022F6E710B5A2
:1001E00013460A4604461946FFF7F0FF204610BDA5
:1001F00070B50446002903D000202022012310E01E
:10020000002801D00020C043C046C0460DE025466E
:10021000D5408D4205D30D469540641B1D46954043
:1002200040191546521E002DF1DC214670BD00001C
:10023000064C0125064E05E0E36807CC2B430C3C39
:1002400098471034B442F7D3FFF790FF5C1F0000CB
:100250007C1F0000F0B58EB0C0005C4BC4180F23AB
:1002600018020790180308901804099018050A90BE
:1002700018060B9018070C900E060D9452D0012012
:10028000084045422F461F408807059000D5F037AB
:100290004807049001D5079807430807039001D544
:1002A00008980743C806029001D5099807438806B5
:1002B000019001D50A9807434806009003D53046BF
:1002C0000B9E374306460696002E01D50C9E3743FB
:1002D0000D9C2468BC4317010598C6173E40154085
:1002E000354316020498C71737402F431503039868
:1002F000C6172E403E4315040298C7172F403743B8
:1003000015050198C6172E403E4315060098C017E4
:10031000284030431507069EF6172E400643264315
:100320000D9C26600E04300E41D0C805C7173B4017
:100330008805069000D5F0334805059001D507984B
:1003400003430805079001D508980343C8040890A3
:100350002FD4880431D4490433D4002E01D50C9D08
:100360002B4365689D431301069CE4171C4017400E
:1003700027431302059CE4171C403C431303079FCB
:10038000FF171F4027431304089CE4171C403C43FD
:100390001305C017184020431306C917194001431D
:1003A0001007F21702400A432A430D9842600EB02C
:1003B000F0BD099803438804CDD50A9D2B43490419
:1003C000CBD50B9D2B43002EC9D4CAE72020024079
:1003D00070B50C4C2568002B01D0054300E0854327
:1003E000A668E0682560002B01D00E4300E08E4334
:1003F000A660002B02D01043E06070BD9043E06027
:1004000070BDC04624800840002A03D002680A4319
:100410000260704702688A4302607047F0B50023AB
:100420000E251C4603E0090A10352E2D5AD0CE07A2
:100430000ED18E0716D44E071ED40E0726D4CE0634
:100440002ED48E0635D44E063CD40E06EBD542E0B3
:100450002E460E3E0327B7403B431746B7403C436A
:100460008E07E8D52E460C3E0327B7403B43174680
:10047000B7403C434E07E0D52E460A3E0327B7401F
:100480003B431746B7403C430E07D8D52E46083E9F
:100490000327B7403B431746B7403C43CE06D0D571
:1004A000AE1F0327B7403B431746B7403C438E0679
:1004B000C9D52E1F0327B7403B431746B7403C43DF
:1004C0004E06C2D5AE1E0327B7403B431746B74082
:1004D0003C430E06A7D50326AE4033431646AE4036
:1004E0003443A0E741699943416141692143416136
:1004F000F0BDB0B5846825468D43C368012A04D099
:100500008B43002A04D10C4303E00B432C4600E04C
:100510002C468460C360B0BD70B582B006466846A4
:1005200000228280009229498D5D01244455017882
:1005300021404378DB079B0F59188378DB075B0F5B
:10054000C918C078C007000F08180199C907C90E5B
:1005500040180004A1032346FFF73AFF0E48825DCE
:10056000700019490E5A28463146FFF773FEA8005D
:1005700017490D586E62022228463146FFF7B9FF2F
:10058000284631462246FFF749FF28463146224693
:10059000FFF73AFF02B070BD4C1F000041000A4A4D
:1005A000515A0A4A105C8000094A1058416270474B
:1005B0004100054A515A054A105C8000044A10580F
:1005C000026A4A4002627047521F00004F1F00003B
:1005D000341F000006480168002908D1016800297D
:1005E00005D10168002902D101680029F3D07047C4
:1005F000080000207047000000000000000000001C
:10060000EFF309800E4B1A6820381060F0C04446A2
:100610004D4656465F46F0C008B572B600F08AFFF8
:1006200062B60CBC116808681030F0C8A046A94634
:10063000B246BB4680F309882038F0C81847C04648
:10064000100000207047000010B500F02FFD044698
:1006500001F02AFA002803D00120000702490860AF
:10066000204600F03FFD10BD04ED00E0F0B581B084
:100670001D4CA0680721256822685201120F03D083
:1006800022685201120F00E0102200922668E269EF
:100690000A40571E062F25D8144AC0467F443F798A
:1006A0007F00BF44031B1B1F1F0B0E00ED0067687C
:1006B000183C2368002F07DA002407E00122D20348
:1006C0000CE07D22120209E073029C0F009BED0FEB
:1006D000002F00DA0123EA405A43E2400840C240BA
:1006E0000348026001B0F0BD1880084000127A0093
:1006F00000000020F0B586B0594810210591016036
:100700005849C86A402203921043C862564802689A
:10071000272A08D00268272A05D00268272A02D093
:100720000268272AF3D10324A0020A6A82430A62DC
:100730000122D0020B6803430B604868000708D40D
:100740004868000705D44868000702D448680007D5
:10075000F3D5086804942043042302939843086067
:10076000086B0724204003280BD0086B2040032887
:1007700007D0086B2040032803D0086B20400328D3
:10078000EED13A4B1868104306250195A84318602E
:1007900000200090C86157020868B843086013023F
:1007A000081F05681D4305600D680826B5430D60E8
:1007B00005683D43056095020E682E430E604D6846
:1007C0006D0708D44D686D0705D44D686D0702D4D8
:1007D0004D686D07F3D5CD6A039EB543CD620F25F5
:1007E000ED054D6115074E692E434E6105689D4329
:1007F00005600868384308604868800708D448687E
:10080000800705D44868800702D448688007F3D57C
:10081000164D2868049B1843029B98432860009853
:10082000C86108681043019B98430860086B20402A
:1008300001280BD0086B2040012807D0086B20400E
:10084000012803D0086B20400128EFD128680599C2
:1008500008432860100329680143296006B0F0BDF1
:100860000C8108400480084008A1064000020840AE
:100870000C4801680020002900D070470A49096827
:100880000029FAD1094909680029F6D140480068D1
:1008900075490968491E884201D00120704702202D
:1008A0007047C0461C110020701100201811002054
:1008B00082B000242046FFF72FFE01252846FFF7CF
:1008C0002BFE02263046FFF727FE2046FFF766FE86
:1008D0002846FFF763FE3046FFF760FEFFF7C6FECF
:1008E00000950194044805A14022234600F0CCFF66
:1008F00000F0BAFDFEE7C046151000007461736B8E
:100900005F310000F0B581B00D4604465B480768D2
:10091000584E30685521002242543068001D00F0C6
:10092000C9FB601C16D1002D14D0316818484268EC
:1009300093683468E3608A60916833681B1D4B607C
:100940003168091D9160316848610168491C016086
:1009500001B0F0BD3C193068446007D30B48006813
:100960003168091D00F0CEFB01B0F0BD06480068FB
:100970003168091D00F0C6FB3F4801688C4200D277
:10098000046001B0F0BDC046180000202000002027
:100990003C11002082B001200190314E314D324F88
:1009A00014E000F0CDFBE868C468201D00F082FB75
:1009B0003868401E38603068401E306000F0CAFB66
:1009C000206B00F0D5FB204600F0D2FB30680028F9
:1009D000E7D126480068022801D300F0D5FC24485E
:1009E000006824490968C96A0029EFD1411E88417D
:1009F0001E4909680129019900D801460029E5D15D
:100A00001D4800681D490968401A0228DED31C49A8
:100A10000868401C0860184800681849096888423E
:100A20001CD31348006813490968C96A002912D108
:100A3000411E88410D4909680129019900D80146E4
:100A4000002908D10C4800680C490968401A02289E
:100A500001D300F017FC01F07BF9B7E772B6FEE7AF
:100A60009810002050110020941000202800002031
:100A7000A4100020100000200811002064110020A4
:100A80009C100020F0B583B00290846C002C1DD027
:100A9000E06BA16B81421BD2A16B81421AD245202F
:100AA0002756F8B20190226CA66B002A14D0606819
:100AB00002A9FFF779FB206C616808186060A168E3
:100AC0000025884213D32068606010E072B6FEE70C
:100AD00072B6FEE7002525E02068002801D0002539
:100AE00005E0A06801F08AF805460020A060701CAF
:100AF000A063019EFF2E07D000F0EEFAB84211D994
:100B00007F2E0CD172B6FEE7606A00280AD024342A
:100B1000204601F0ADF8002804D0012502E045345C
:100B2000701C2070284603B0F0BD0000F0B583B003
:100B3000044600F0B3FF224A1168884231D2019086
:100B40000294AA4D07E031462831FE221040087079
:100B5000316A3046884728680168002923D0C06878
:100B60000468C668371D384600F0A4FA2820305CB7
:100B70004107E8D5B069051975603661A54209D30A
:100B8000316A30468847B069401970603661A842C2
:100B90000546F5D296480068394600F0B3FA934D01
:100BA000D6E7002107E092490A682A60086001211F
:100BB000029C0198024A1060216003B0F0BDC0465B
:100BC0000C00002081B0002000900A48006872B636
:100BD000401C09D0FEE70098002808D100980028A2
:100BE00005D10098002802D100980028F3D001B068
:100BF0007047C0460400002086B07E4F7B480068E6
:100C00000568002D02D0C068066800E0002600F0EC
:100C10008BFC02A8FFF78AFF04460298002802D046
:100C200001F096F847E0002D28D0A64226D801F022
:100C30008FF86E480068C068C568281D009000F0F5
:100C400039FA2820285C41070CD429462831FE2295
:100C5000104008702CE0A11B814223D3296A28464A
:100C600088473E46A86987196F602D61A742F2D96F
:100C7000B44201D2B742F1D25C4814E0002D01D059
:100C8000002204E05A480068006842424241311B99
:100C9000386800F085FB01F05BF800280BD100F00C
:100CA00073FB08E052480068009900F02BFA514F9E
:100CB000296A28468847386802A9002200F006FD04
:100CC00000289BD00298002806D505990498039A1D
:100CD000904702980028EED4049C6069002802D056
:100CE000201D00F0E7F901A8FFF720FF0546029854
:100CF000401E0828DFD8C046784400794000874469
:100D00000A0A0426450A0A0426002820215CFE223D
:100D10000A402254CFE72820215C01220A432254B2
:100D2000A069039A831863602461261DAB4223D90E
:100D300095422E4F24D293422C4F21D34A072DD4D3
:100D400020462830FE22114001702A4F47E028201B
:100D5000215C01220A4322540398A061002842D05A
:100D6000401960602461A842204800D820480068EB
:100D7000211D00F0C7F99EE7AA1A82421C4FDDD25E
:100D80003868314600F0BEF91A4F94E72820205CFD
:100D9000810719D4204600F0EBF98CE70399091874
:100DA00007E0691A814214D3216A20468847A06966
:100DB00039460F1867602461AF42F2D98D4201D2E3
:100DC0008F42F1D2094805E02834FE210840207006
:100DD00071E70748074F0068314600F093F9216A30
:100DE0002046884767E772B6FEE7C0461400002039
:100DF0002400002068110020F0B581B004460646AA
:100E0000443600F09DF90120305601281BDB2546B1
:100E1000243503E0781E79B2012914DD0746A06C61
:100E2000002805D02046FFF72DFE002808D1F1E765
:100E30002868002807D0284600F01AFF0028E9D0CB
:100E400000F0DAFAE6E7FF25757000F083F900F0AC
:100E500077F900203756012F11DB103404E0781E9B
:100E600079B2012907460ADD2068002807D020460C
:100E700000F0FEFE0028F2D000F0BEFAEFE7357079
:100E800000F068F901B0F0BDF0B583B0054600F0A0
:100E90004BFBDB480068002822D1D84E002171604E
:100EA0000720504C27460740C343E01D1840002F41
:100EB000024600D12246326001263603002F01D0BF
:100EC000201A8619901918400838CD4B1860016017
:100ED0004160811A5160444B1960C74B1960106022
:100EE0000024002D75D00720284001461139A94261
:100EF0006FD32D1A1035C0480068012300248542A5
:100F0000184600D82046012D194600DB2146014332
:100F10005FD1BA4E31684F68AF4207D20A68002AE3
:100F200004D00E4611465768AF42F7D3B448006864
:100F300081424ED0346808683060781B112833D362
:100F40004E19720701D072B6FEE770604D60AB4D6E
:100F50002868B04204D20568B5420746F8D301E0DC
:100F60002F46054678683A18019272680292019AF3
:100F7000B24204D1029A121802927A603E46A04808
:100F800000682A1A50425041029AB218AA4200D16F
:100F90000346002B04D16868029A801870602D689F
:100FA0003560B74200D03E604868934B1A68121A09
:100FB0001A600D4B1D68AA4200D21A600834002244
:100FC0000123DB0718430A60486008480168491C90
:100FD000016000F0BDFE600701D072B6FEE720465A
:100FE00003B0F0BD8C00002004110020101100207F
:100FF0000346083B1960011F01231B060B600146D5
:101000000C39034B0B60014620390A6040387047A9
:10101000C50B0000244C0020FFF7CAFA204600BF91
:1010200000BF00BF00BF00BF00BF00BF00BF00BFC8
:1010300000BF00BF00BF00BF00BF00BF00BF00BFB8
:1010400000BF00BF00BF00BF00BF00BF00BF00BFA8
:1010500000BF00BF00BF00BF00BF00BF00BF00BF98
:1010600000BF00BF00BF00BF00BF00BF00BF00BF88
:1010700000BF00BF00BF00BF00BF00BF00BF00BF78
:1010800000BF00BF00BF00BF00BF00BF00BF00BF68
:1010900000BF00BF00BF00BF00BF00BF00BF00BF58
:1010A00000BF4238BBD1B6E7308E3200EFF310807C
:1010B00072B67047416882688A60826851600169CF
:1010C0004B68834200D14A600A68521E0A600022BF
:1010D0000261086870470000014800687047C04618
:1010E0009410002080F310887047002101600246B0
:1010F0000832C94342608160C260026170470021CA
:1011000001617047B0B50B685A1C0BD00446083417
:10111000626815689D4208D8546825689D42254636
:10112000F6D904E00269556801E015462246A96037
:1011300008614D608A6051600168491C0160B0BD62
:1011400072B60A480168491C0160BFF34F8FBFF3B4
:101150006F8F704705480168002903D0491E016060
:1011600002D0704772B6FEE762B6704704000020F6
:10117000B0B500283ED00446051F2868002801D4D9
:1011800072B6FEE7083C2168002901D072B6FEE77E
:101190000121C9078843286000F0C6F9296816486C
:1011A00002685218026015480368A34204D2186806
:1011B000A0421A46F8D301E0024618465368D518F3
:1011C000A54202D1C918516014466318834207D161
:1011D0000B4B1B68984203D0436859186160006844
:1011E0002060A24200D0146006480168491C0160DA
:1011F00000F0AEFDB0BDC046F81000203411002054
:101200001C0000201411002070B55E4801210170FF
:101210000D4D28687D21CC002146FEF7E9FF0146EF
:10122000574801600948FEF7E3FF53490860534EF1
:1012300000203060B06028682146FEF7D9FF401ECC
:1012400070600720306070BD00000020FFFFFF00CD
:101250000B4A13681868203080F30988022080F355
:101260001488BFF36F8F3FBCAE4608BC04BC62B6A7
:101270001847C046C046C046C046C046C046C046E5
:1012800010000020F0B581B03B490D68854200D3C5
:10129000054672B6BFF34F8FBFF36F8FFFF7E8FAC3
:1012A000002848D0354E06213160B268681E344BA4
:1012B0001C6803466343002A00D01446E418374AEA
:1012C00013685B0105D501235B0613602C4A126885
:1012D000A41A2C4A1378002B00D05E23E31A00D8FE
:1012E000234673600027B7603468012222433260CE
:1012F000002D04D0BFF34F8F30BFBFF36F8F62B6A6
:10130000BFF34F8FBFF36F8F72B6BFF34F8FBFF333
:101310006F8F31603168C90310D4B06818490C6808
:1013200065432D1A28462146FEF762FF411C6143A2
:10133000491B134D14E062B601B0F0BD104D2A6890
:10134000B168CB1A511E5C1894420B4600D8234654
:101350000C4A1278002A00D05E22944200D9194625
:101360007160B760072131602968491E716000F023
:10137000ADF862B601B0F0BD0011002010E000E051
:10138000901000208C100020012000070349086005
:10139000BFF34F8FBFF36F8F7047C04604ED00E07F
:1013A00070B515460E460446FFF7CAFE4420215C80
:1013B00020464430FF2901D1002101704178FF29E6
:1013C00001D100214170FFF7C5FEA06B002805D1B7
:1013D0002046243031462A4600F022F82046FFF706
:1013E0000BFD70BD0349096801604C490968416003
:1013F0007047C0460C1100207348012101607047FE
:1014000010B500280AD00C46724909681831FFF758
:1014100079FE01212046FFF775FA10BD72B6FEE78E
:10142000F0B581B000281CD06A4B1C684568AE68D6
:101430001F683E62E561AC681E68183666601C680D
:101440001834AC601B68986203685B1C0360002A58
:1014500001D00020C14308461146FFF753FA01B0FE
:10146000F0BD72B6FEE7C046B0B582B011480024A8
:101470000094019001252A020F4810A1234600F094
:1014800003FA012801D100F003FD411C0FD001280F
:1014900009D172B6E043224908600A480560F8485D
:1014A000046000F099F80848006802B0B0BD72B658
:1014B000FEE7C046FC1000209509000049444C4559
:1014C0000000000030110020581F0000B0B5044695
:1014D000EB4D2868011912480268914201D972B691
:1014E000FEE729680919006881420ED13548006875
:1014F00000280ED0002C0ED0FFF722FE094801680C
:10150000491C0160FFF726FE641E28680019286048
:10151000B0BD72B6FEE772B6FEE7C04664110020A9
:10152000081100201811002026480168491C01609C
:101530007047C046B0B523480068002803D0224851
:1015400001210160B0BD2048002101601F480168F1
:10155000142214464C431E4B1D59002D10D04A43F3
:101560009B185A6852685A601C460834A24202D13D
:101570001B1D52681A60D268C24B1A600160B0BD70
:10158000E418503C002914D0E56B002D13D101293B
:101590000FD0A56A002D10D102290AD06569002D4F
:1015A0000DD1032905D0091F2568503C002DE9D035
:1015B000D5E772B6FEE7491ED1E7891ECFE7C91EFF
:1015C000CDE7C0469C10002070110020A410002020
:1015D0002800002010000020B0B582B0FF200104D8
:1015E000124A13680B43136000061168014311602F
:1015F000FFF70AFE0E4C00252560FFF729FEFFF7D6
:1016000099FF0195206872B6401C09D0FEE7019849
:10161000002808D10198002805D10198002802D19E
:1016200001980028F3D0002002B0B0BD20ED00E00A
:1016300004000020F0B583B0002845D016460F46C0
:101640000446002529463A462B46FEF795FD481EDE
:10165000814139D1204678435421C943884233D847
:1016600002965430FFF710FC0646002829D0304679
:1016700044300190F4633764002F304601D0304687
:1016800054303060FFF75CFDB563FF20019C207093
:1016900031686070F06B326C431E5043081853433E
:1016A000CA187160B060F26030461030FFF71DFD5F
:1016B00030462430FFF719FDFFF74CFDB564029862
:1016C0002073304603B0F0BD72B6FEE7F0B585B0CA
:1016D000049200280CD016460D46044600292BD053
:1016E00000F0CEF9002805D1002E03D072B6FEE737
:1016F00072B6FEE7FFF724FDA66B002E21D0226C08
:10170000002A0AD0E0688118E160A068814201D314
:101710002168E1602846FEF747FD701EA06320693E
:101720000125002862D01034204600F0A1FA0028DC
:101730005CD0FFF729FE59E0206C0028D0D072B6AB
:10174000FEE727464437204624300190012011E06F
:101750002046FFF751FB00F0FBFAFFF7F1FCA66B08
:10176000FFF7F8FC002E46D0FFF7EAFCA66B00203E
:10177000002EC4D10499002937D0C00702D002A896
:10178000FFF730FEFFF7E6FCFFF7CEFEFFF7D8FCD1
:101790003878FF2801D1002038707878FF2801D1EF
:1017A00000207870FFF7D6FC02A804A900F026F804
:1017B0000028CDD1FFF7C4FCA66BFFF7CBFC002EB1
:1017C00005D02046FFF718FB00F0C2FACCE70499D9
:1017D0000198FFF715FE2046FFF70EFB00F0B8FA60
:1017E0000028C1D1FFF7D0FDBEE70025FFF7B2FC0E
:1017F000284605B0F0BD0025FAE70000F0B581B03D
:10180000002817D00C46002916D00546FFF798FC93
:101810006968A4480268944B1F685526BF5D002F75
:101820000CD01868002181550126FFF793FC304643
:1018300001B0F0BD72B6FEE772B6FEE7236800267F
:101840005F1CF2D0EC4F3F6800972F680098B842B9
:1018500005D08A4203D3002020600126E5E7511A13
:101860008B4208D9591A2160E34909682960E04888
:1018700000686860D9E7002020600126D5E7C046EF
:101880006411002010000020F0B585B01C460491C2
:10189000039090000646FFF7F7FA05460020C7437D
:1018A000002D00D1DAE0029001945820FFF7ECFA05
:1018B000002845D004460A9F5821FEF78EFC256378
:1018C000A52228463146FEF781FC206B049B002BA5
:1018D00032D0214634311A780A701A78002A29D079
:1018E0005A784A705A78002A24D09A788A709A785E
:1018F000002A1FD0DA78CA70DA78002A1AD01A794A
:101900000A711A79002A15D05A794A715A79002A2F
:1019100010D09A798A719A79002A0BD0DA79CA7133
:10192000DA79002A06D01A7A0A721A7A002A01D0C5
:101930005A7A4A72029A4A72052F05D372B6FEE7A6
:101940002846FFF715FC89E03018061F07200B9D7D
:101950008643A764E762201D0490FFF7D0FB204672
:101960001830FFF7CCFB0520C01BA0616462246126
:1019700030460399019AFFF73BFB2060002D00D011
:101980002C60FFF7DDFB37480168491C0160B74E4A
:10199000316800290BD0404800680028049D35D1EB
:1019A000E06A3168C96A814230D834602EE0346020
:1019B00000680128049D29D1E24E3046FFF795FBCF
:1019C00030461430FFF791FB30462830FFF78DFB8F
:1019D00030463C30FFF789FB50363046FFF785FB39
:1019E000224E3046FFF781FB214F3846FFF77DFB43
:1019F000D248FFF77AFB1F48FFF777FB1E48FFF737
:101A000074FBD1480660D14E7A4807601B480168D4
:101A1000491C21640160E06AC9490A68904200D902
:101A2000086014214143C7484258521C4250401894
:101A300041688A68A160E2606061886845608D6085
:101A4000FFF788FB144800680127002806D0E06AE9
:101A50003168C96A814201D2FFF796FC384605B069
:101A6000F0BDC0469410002010000020D0100020CF
:101A7000E4100020501100203C110020A010002094
:101A800005480068002805D0AB4800684142414144
:101A9000480070470120704730110020544800680A
:101AA0007047C04664110020F0B582B0EE4800686F
:101AB000002806D04D480168491C0160002002B092
:101AC000F0BD4B490868461C0E601BD3ED490A68FF
:101AD0001268002A01D072B6FEE70A68454B1C68FE
:101AE0000C601A60444A13685B1C13600A68126831
:101AF000002A03D00968C968096801E00021C943C8
:101B0000E14A1160E04A116800238E425AD3DC4357
:101B1000DC4801680968002953D000940021019134
:101B200003E001680968002944D00168C968CB68EE
:101B300059688E4242D31A1D9F68D968B960D96826
:101B40004F605F697D68954200D179603968491EB0
:101B500039609F6A002F0FD0DD69196AA960196A80
:101B60004D601D4618357C68AC4200D1796000217B
:101B700099623968491E3960DF6ABE4909688F4237
:101B800001D9BC490F6014217943BB4D6C58641CCA
:101B90006C5069184C68A5689C60DD605961A1684B
:101BA0004A60A260B5490968C96A8F42B9D9012162
:101BB0000191B6E7019BB44A009C02E00C46019BF0
:101BC000B14A1460AD480068C06A14214143AA4874
:101BD000405801220128104600D81846A849096833
:101BE000002900D16BE7104602B0F0BD18110020AB
:101BF00064110020200000200C110020B0B5044624
:101C00000020002C2ED09D490968A14201D072B657
:101C1000FEE7E16C002926D0491EE164A26CE36A6C
:101C200093421FD000291DD1251D2846FFF742FAF7
:101C3000A06CE0620521091AA1618E490A689042F0
:101C400000D90860142141438B484258521C42502D
:101C5000401841688A68A160E260606188684560F8
:101C60008D600120B0BD72B6FEE7C04610000020B6
:101C700070B5C068C168002922D0C8690A6A82604C
:101C80000B6A58600A461832886A4468944200D148
:101C9000436003685B1E036000208862724B1B6810
:101CA000002B0FD0724B5C68A568CC610D628B6213
:101CB0001D686D1C1D60A3685A60A260CA6A31E08D
:101CC00072B6FEE78A68CB689360CC6862600B1DD1
:101CD0004A6955689D4200D154601468641E1460BE
:101CE000CA6A644C2568AA4200D92260142454436D
:101CF000614D2E59761C2E512C196568AE688D6089
:101D0000CE604C61A9684B60AB605E490B681B6894
:101D1000002B03D00968C968096801E00021C943A4
:101D2000594B196055490968C96A8A4202D9544910
:101D30000120086070BDC0469C1000201C110020CE
:101D4000A41000202800002018000020100000200F
:101D5000F0B581B0444C206800280DD0FFF7F0F9B1
:101D60002068401E206020680027002806D0FFF76A
:101D7000F1F9384601B0F0BD72B6FEE73B480068A5
:101D80000028F4D03A4B1968002953D0009703E09B
:101D900013461068002840D01A46DB68DF68FB69EC
:101DA0003C6A9C603D6A6B603B461833BC6A66685F
:101DB0009E4200D165600026BE6223685B1E2360E0
:101DC000BC68FB68A360FB685C603C1D7D6969685A
:101DD000A14200D16B602968491E2960FD6A25482F
:101DE00001688D4201D923480560142169432248C6
:101DF00043585B1C435041184B689868BB60F860BF
:101E00007961986844609C601C480068C06A85429B
:101E1000BED301201A490860BAE71A480168096868
:101E2000002903D00068C068006800E0F043009F0C
:101E300015490860154C2568002D0CD0104E01E0A6
:101E40006D1E06D0FFF730FE0028F9D0012030606B
:101E5000F6E7002020600A480068002887D0FFF7D6
:101E600093FA012783E7C0469C10002094100020BD
:101E70001C110020A41000202800002010000020C9
:101E800070110020180000200811002018110020F7
:101E900070B582B0FFF754F9154E3068002811D1A3
:101EA000144C2046FFF721F9134D2846FFF71DF982
:101EB0001248056012480460052010210022FFF737
:101EC000B9FB3060FFF746F9306800280ED00D48A6
:101ED000022100910190012042020B480BA1002336
:101EE000FFF7D2FC002801D002B070BD72B6FEE749
:101EF00068110020A8100020BC1000202400002041
:101F0000140000206C110020F90B0000546D7220A9
:101F10005376630002E008C8121F08C1002AFAD1F4
:101F200070477047002001E001C1121F002AFBD159
:101F30007047000000000B4000200B4000400B40A9
:101F400000600B4000800B40000000000101010216
:101F50000201000100028000040000007C1F00005C
:101F60000000002008000000141F0000841F000073
:101F70000800002070130000241F00000087930356
:041F8000AAAAAAAAB5
:04000005000000C136
:00000001FF
