:020000040000FA
:1000000040440020C10000002B0100002D01000031
:10001000FFFFFFFFFFFFFFFFFFFFFFFFFFFFFFFFF0
:10002000FFFFFFFFFFFFFFFFFFFFFFFFA532000005
:10003000FFFFFFFFFFFFFFFF61320000A93200005A
:1000400035010000350100003501000035010000D8
:1000500035010000350100003501000035010000C8
:1000600035010000350100003501000035010000B8
:1000700035010000350100003501000035010000A8
:100080003501000035010000350100003501000098
:100090003501000035010000350100003501000088
:1000A0003501000035010000350100003501000078
:1000B0003501000035010000350100003501000068
:1000C0001D4880471D4880471D4800471D4801695D
:1000D000002908D14169002905D18169002902D18F
:1000E000C169002909D01848C1680901090D002912
:1000F0000ED005290CD006290AD0BFF34F8F134824
:100100001349016013491248C860BFF34F8FFEE7DF
:100110000E4801680E48884200D070470E480F49CB
:1001200001600A480E4901607047FEE7FEE7FEE7FE
:10013000FEE7FEE7FEE70000CD00000055330000BB
:100140006501000000030840800108400000002015
:100150000400FA0500ED00E0008108400100000005
:10016000000000000348854600F04AFE00480047B2
:10017000CD3C00004044002030B5434351435C185F
:10018000010C130C0D465D432C1980B292B205464A
:10019000554351430A0C09044D1962415843010C5F
:1001A00000044019514130BD38B50446C0681821DB
:1001B000401E4843A16840183C21484361684018EC
:1001C0003C2148432168451860690C214843216956
:1001D00040186921C900401A302100F0E9FB114A9A
:1001E00050434219084600921A2902DB0E49511861
:1001F00000910C2100F0DCFB0C4A5043009A80185F
:1002000000900B4806E0491E425C074B5A43009B96
:10021000D21800920029F6DC2146684600F044FC22
:10022000009838BD801F8607805101008033E101AE
:100230004079000010B5431A934209D283188818F8
:1002400003E0401E01785B1E1970521EF9D210BDEA
:1002500003460B439B0703D009E008C9121F08C0DF
:10026000042AFAD203E00B780370401C491C521E8A
:10027000F9D210BDD2B201E00270401C491EFBD27F
:1002800070470022F6E710B513460A4604461946A1
:10029000FFF7F0FF204610BD421E5378521C002B82
:1002A000FBD10B781370491C521C002BF9D17047FD
:1002B00030B505462A460B4610781C78521C5B1C4C
:1002C000002801D0A042F7D0002C03D0002802D093
:1002D0006D1CEFE7284630BD10B5044605E00B78ED
:1002E0000370401C002B00D0491C521EF7D2204640
:1002F00010BDCAB2401E4178401C8A4202D000297B
:10030000F9D100207047421C0178401C0029FBD124
:10031000801A704710B5002200E0521C835C8C5C90
:10032000A34201D1002BF8D1D8B2E1B2401A10BDDE
:1003300003460A780270401C491C002AF9D118466D
:100340007047000070B5104D002800D128680024C7
:1003500014E00A4602E09E4203D0521C1378002BA0
:10036000F9D1DAB2224307D0002B06D0002C04D0FA
:1003700000210170401C04E00446401C0678002E59
:10038000E7D12860204670BD0000002070B5064609
:1003900006F036F8046805460A220021304600F0CF
:1003A000BDFB2C6070BDF8B502464A40D40F420038
:1003B0004B0052085B089A4202D202460846114698
:1003C0004A0023D0C30D4A00DDB2120EAD1A202D13
:1003D00035DA49020126490AF6058A19002C00D0AF
:1003E000524220214F1B1146B9402A411018C20D1C
:1003F0009A4221D0002C17D0012D08DCDA05801A92
:10040000D20F8019D207DBB200F0C8FBF8BDDA05C5
:10041000801A012340001B06C01880185A42801819
:10042000CA0F1043490007E04908C2071143DA0523
:10043000801A80194008801800F0A8FBF8BD610000
:100440000122511A001BF7E70122D2075140AAE707
:100450000122D2075040A6E7024670B54A40D30FAA
:10046000DB0740002DD04A002AD0010E140E0002F6
:1004700012020919400A520A8418E501044654433D
:10048000000A120A2E045043A4194219200CC54335
:10049000AA18120C0125AD03521C521912047F39FF
:1004A000240400D0521C104301D44000491EC2B2A3
:1004B0000C06C0092018401C4008802A02D003E026
:1004C000002070BD40084000002900DA00201843D9
:1004D00070BD70B502464A40D50F40004A00ED0796
:1004E00040085208002814D0002A12D0C40DD30DA1
:1004F00041020120C0055202490A520AE41A0918B1
:1005000012187D34914201D3641C00E04900002C94
:1005100001DA002070BD0023914201D3891A034300
:10052000400849000028F7D100290AD0914202D1A1
:100530000121C90705E0914201D2012101E0012119
:10054000C943E005C018401900F020FB70BD000051
:10055000F0B507460846584087B0C00F04904800E1
:100560000E46590040084908BC1A884105D2384651
:1005700031461E4617460B460246580040081043B7
:100580004CD0300D039040055900400D490D0590A9
:10059000401A0290402872DA18030121000B090565
:1005A0000843019004980092002805D00199524216
:1005B0000020884100920190029840210A1A019976
:1005C000009800F04DFA05460C466B4607CB00F04C
:1005D00057FAC0197141039A0E0D0023D7175640E0
:1005E0001A467A40164344D0049A002A2DD0029A23
:1005F000012A039A15DC1205C01A9141012636051D
:10060000001C7141D20F059ED20700930192029601
:100610002A46234600F008FB07B0F0BD38463146B5
:10062000FAE71605224A0F46B218C01AB74101214F
:100630000905001C4F4100187F41114618187941E7
:10064000E20F10436D19644113E0E2076D08154392
:100650006408C2071443039A01261205C01A914187
:100660003605001C7141CE07400830434908C018C8
:1006700051412A46234600F0CAFACDE7FFE7049825
:1006800001224000C117121A00238B410498314601
:10069000C417381AA141EEE730B40124E4076340DF
:1006A00030BC55E730B40124E407614030BC4FE76B
:1006B0000000E0FFF0B51FB488B00B990998002442
:1006C00048400999C00F490049080991C0070B9992
:1006D0000090490049080B9109990898A6460843DB
:1006E0001CD00B990A98084318D00998012440009F
:1006F000420D4800410D099824050003000B2043DA
:1007000009900B980003000B20430B9050181C49D4
:100710004018002201901446104605E000200146D2
:100720000DB0F0BD032801DA034600E003239C4628
:10073000C11A0AAE0AE05F0008ADED5B4F00F75B3F
:100740007D430027AA187C41491C5B1E6145F2DDF0
:10075000410004AB5A522104120C0A43240C401CE1
:100760000828DFDB01980290009970460191009003
:10077000059B049A0799069800F056FAD0E7000006
:100780000DFCFFFFF0B50C465C4085B0E40FE407BC
:1007900003944C0000266408590094464908024618
:1007A0000296224321D062460A431ED06200570DB2
:1007B0004A000E032303550D012402462C4924054B
:1007C000781B1B0B360B40182343264361460090D1
:1007D0001C46501AB44103D30098401C009002E01C
:1007E000921800985B41002803DA0020014605B00A
:1007F000F0BD0020012109050746864611E0644648
:100800001D46141BB54106D36546521BB3417446C1
:1008100007430C43A646CD074008490828439218D1
:100820005B4105460D43EAD11046184313D060469C
:10083000194650407140084306D06046101AB34133
:1008400006D20122002306E000220123DB0702E09A
:100850000122D2435310009874460105381C6141AF
:10086000029C039D0019694100F0D1F9BFE7000027
:10087000FD0300000122D207002800DB101A002926
:1008800000DB511A814201D30120704700207047DC
:1008900010B5002904DB0C460121C9074042A141E3
:1008A000002B04DB1C460123DB075242A341801AC4
:1008B000994101D3012010BD002010BD10B50022C8
:1008C0009623114600F06AF910BD00000EB5C2175C
:1008D000C10F5040CA0740180021054B02930192F6
:1008E00000910A460B4600F09FF903B000BD0000DE
:1008F000330400000EB505490291002100910A461B
:100900000B46019100F090F903B000BD33040000E4
:10091000C20FD207400040080BD0C10D0723DB01F6
:10092000C91840020905400A1143C2084007114393
:100930007047002001467047CB0FDB07490010B518
:10094000490802460A4307D00A0D07240903E401B7
:10095000090B121B002A01DC002010BDC900440F46
:100960000C43C100E018D205801800F00FF910BD4B
:1009700070B50446002903D000202022012310E096
:10098000002801D00020C043C046C0460DE02546E7
:10099000D5408D4205D30D469540641B1D469540BC
:1009A00040191546521E002DF1DC214670BD000095
:1009B00070B5002504462E46002911D0002C01DA1E
:1009C00001254442002901DA012649422046FFF769
:1009D000CFFFB54200D04042002D00D0494270BD4B
:1009E000002C02DA0121C90702E0002C00DD0349D6
:1009F0000846C046C046214670BD0000FFFFFF7F8D
:100A0000F0B51FB40646002082B00546402401918F
:100A100000901BE0019922460F46304600F002FA92
:100A2000049A059B801A994110D310461946224614
:100A300000F016F8361A8F41019722460120002156
:100A4000009F00F00DF838184D4100902046641EBC
:100A50000028DFDC019B00982946324607B0F0BD34
:100A600010B5202A04DB0146203A9140002010BD39
:100A7000914020239C1A0346E3401943904010BD47
:100A800010B5202A06DBCB170846203A1041C117C3
:100A90000B4306E00B461341D0402024A21A91409C
:100AA0000843194610BD000070B50C4600683C2193
:100AB000FFF75EFF21603C21FFF75AFF61601821BC
:100AC000FFF756FF0546A1600721001DFFF750FF05
:100AD000A1610F48A90008180E49FFF749FF024617
:100AE000443288086261E0613B2802D3910700D05C
:100AF000401C0021084B0A462161995C814203D8C1
:100B0000401A521C2261F8E7401CE060204670BD8C
:100B10006C0B0000B5050000187B0000F7B5009CC9
:100B20000F4600262578641C002D05D000F08CF9B6
:100B30000068405DC007F5D12B2D02D02D2D18D0B7
:100B4000641E39462046029A00F082F9002F04D034
:100B50003968A14201D10099396071050224002948
:100B60000BDA4042002803DD05F04AFC0460A007D0
:100B7000FEBD012080020643E3E70028F8DA05F015
:100B80003FFC04600048FEBDFFFFFF7F002904DA40
:100B9000401C490001D140084000704770B4002457
:100BA000050C05D11024000402D1002921D0112404
:100BB000050E01D100020834050F01D10001241DEA
:100BC000850F01D18000A41C002801DB4000641CBB
:100BD000002908D020252E1B0D46F540A14000D04D
:100BE00001212943084301061B1B000ADB1D02D516
:100BF000002070BC7047DB05181880180029F8DA4F
:100C0000401C4900F5D170BC40084000704710B549
:100C1000002B08DA0024401C614192185B411A4302
:100C200001D14008400010BDF0B51FB482B00546A8
:100C30000C0003D0084605F09DFB02E005F09AFB8E
:100C400020300246009021462846FFF709FF049B0A
:100C5000059A04460F4618431143084314D018461A
:100C600010431BD0009840210A1A1846059900F03D
:100C7000D9F805460E46009A05990498FFF7F0FE4C
:100C8000084305D0012004E02046394607B0F0BDF6
:100C90000020C11705430E432C43374300990E989B
:100CA0006305401A7905E40A00220C43FD0A0A3064
:100CB00002D500200146E9E70105101969410C9CA5
:100CC0000D9D00196941FFF7A2FFDFE7FEB5002384
:100CD0001A461B1A8A4103DB0020014603B0F0BD0F
:100CE0004A000D0301212D0B0905520D0D43D107BB
:100CF00002D100186D41521E5110FF31FF310131F8
:100D0000002704463E4638460097019102460121DD
:100D10000020090500F086F8C3197141F818324621
:100D200084468E464A4161462846611A904104D362
:100D30006046241A954176461F46241900986D4155
:100D4000401C00903428E1DDF91930467041091B40
:100D5000A84103D20022D243134601E000221346E9
:100D600001980105381C7141FFF751FFB6E70000FB
:100D70004A0009030123090B1B0519430A4B10B54F
:100D8000520D9A4202DA0020014610BD064B343360
:100D90009A4203DC9A1A00F045F810BD034BD218B2
:100DA000FFF75EFE10BD0000FF030000CDFBFFFF5C
:100DB00010B5002904DB0124E40740428C412146A0
:100DC000002B04DB1C460123DB075242A3418B426C
:100DD00000D1824210BD000010B5002904DB0124BF
:100DE000E40740428C412146002B04DB1C460123D2
:100DF000DB075242A341994200D1904210BD00004E
:100E0000064C0125064E05E0E36807CC2B430C3C5D
:100E100098471034B442F7D3FFF7A8F9CC8F0000FD
:100E2000EC8F000010B5202A04DB0846203AD040A1
:100E3000002110BD0B46D340D0402024A21A91407F
:100E40000843194610BD000000487047A87B000009
:100E5000F7B582B0029C00272078641C15460197E4
:100E6000302802D0002D15D015E020780127641C11
:100E7000782804D0582802D0002D09D00BE0002D8E
:100E800001D0102D07D1002710252078641C02E026
:100E9000082500E00A250026009610E000990127A9
:100EA00069430818020C294680B2714300908E18DD
:100EB0003804864201D3012001902078641C294621
:100EC00000F054F80028E9DA0398002805D0002F34
:100ED00001D0641E00E0029C04600198002806D046
:100EE00005F08EFA02210160C81E05B0F0BD009920
:100EF00030040843F9E770B54B005B0803430BD09F
:100F00004B005C0D002633466542B341D417AD1A41
:100F1000A34102DB0020014670BD1205301851418B
:100F200070BD000070B5CD0F4A0009030123090B05
:100F30001B0519430B4BED070024520D9A4201DAB1
:100F4000002070BD074B34339A4203DC9A1AFFF736
:100F500069FF02E00449511888402C43F1D0404217
:100F600070BD0000FF030000CDFBFFFF3A2800D258
:100F70003038202302469A43412A01D3104637389D
:100F8000884201D30020C04370470000F0B58EB006
:100F9000C0005C4BC4180F23180207901803089078
:100FA0001804099018050A9018060B9018070C9061
:100FB0000E060D9452D00120084045422F461F4096
:100FC0008807059000D5F0374807049001D50798A9
:100FD00007430807039001D508980743C806029005
:100FE00001D5099807438806019001D50A9807435F
:100FF0004806009003D530460B9E374306460696BA
:10100000002E01D50C9E37430D9C2468BC4317016C
:101010000598C6173E401540354316020498C71779
:1010200037402F4315030398C6172E403E4315043F
:101030000298C7172F40374315050198C6172E4051
:101040003E4315060098C017284030431507069EFA
:10105000F6172E40064326430D9C26600E04300EE4
:1010600041D0C805C7173B408805069000D5F0332E
:101070004805059001D5079803430805079001D559
:1010800008980343C80408902FD4880431D4490435
:1010900033D4002E01D50C9D2B4365689D4313016D
:1010A000069CE4171C40174027431302059CE417D5
:1010B0001C403C431303079FFF171F4027431304A3
:1010C000089CE4171C403C431305C01718402043FC
:1010D0001306C917194001431007F21702400A43CB
:1010E0002A430D9842600EB0F0BD0998034388046E
:1010F000CDD50A9D2B434904CBD50B9D2B43002E08
:10110000C9D4CAE720200240B0B500293FD00D461F
:101110000446087800283AD0228960681CA105F0AE
:1011200015F9606802F0D6FBE068002829D0238911
:101130003C2B14D360681B493C2205F007F960681A
:1011400002F0C8FBE068416CA269824200D1A16153
:10115000E1602189491E218106F020FBE068426C94
:10116000002A01460BD0506C0028114607D0426C73
:10117000002A014603D0506C00281146EFD14431BB
:1011800001E021460C310D602089401C2081B0BD5A
:10119000524F555445204C454E4754483A202575EA
:1011A00000000000957C0000F0B585B0019001269C
:1011B000300441210902334600F02AFA2548082765
:1011C000002539462A4601F009F80421062428465C
:1011D0002246FFF7DBFE28463946019F2246FFF7ED
:1011E000D5FE049530020390E12040020290B4073E
:1011F00002A9204602F00EFA20462946324602F0A5
:1012000052FA20463146324602F04DFA7D2426013C
:10121000304606F0EDFA3860002801D100F062FF98
:10122000304606F0E5FAB860002801D100F05AFF18
:10123000A00006F0DDFAF860002801D100F052FFAE
:101240003846163004A10922FEF7F4FF3D8405B0AC
:10125000F0BDC04600000B40303030303030303010
:1012600000000000F0B589B014460546002900D101
:1012700003217D20800002900120070286070422BE
:101280000B4607940495039113E060A105F05EF806
:10129000286802F01FFB28680C2261A1FEF7CAFF34
:1012A000286802F017FB069A10060399059B00D1E7
:1012B00090E0180600D18EE006925B1EAA682868AE
:1012C00000910593DBB2CB1A44A105F03FF82868E2
:1012D00002F000FB002028820146029CEA6889B2E5
:1012E0005054298A491C29828AB2A24218D2EB683A
:1012F000002199542A8A521C2A8292B2A2420FD209
:10130000EB6899542A8A521C2A8292B2A24207D2CE
:10131000EB689954298A491C29828AB2A242DDD3FA
:1013200000242C82A86802F0D5FAAD68287800283D
:1013300012D008952D5D3046394602F066F9002836
:10134000F9D03046294602F0ACF9641C089D2846C5
:10135000FEF7D9FF8442EDD33046394602F055F905
:101360000028F9D00D21304602F09BF9079C049D1E
:101370003046394602F049F90028F9D00A213046B2
:1013800002F08FF904F0A6FD686004F0A3FD69681F
:10139000401AA0420BD8284600F048F8044604F052
:1013A00099FD6968401A07998842F4D90694E9685A
:1013B0002868FEF7BDFF286802F08CFA2868069BB3
:1013C000D9B204290F4A00D95FE759B289000E4A01
:1013D00052585AE70022D0B209B0F0BD0A3D3D3D57
:1013E0002053454E44494E47203C25733E207C20E7
:1013F000415454454D50542025752F2575203D3DB1
:101400003D000000297E0000AC7B0000436F6D6D45
:10141000616E64207374617475733A2025730A00D9
:101420003D3D3D3D3D3D3D3D3D3D0A0070B50446E1
:101430000126B5072021284602F0E7F8012808D147
:10144000284602F02BF9E168228A8854208A401C41
:101450002082E5680CA12846FEF72AFF0024002818
:1014600001D0204670BD0AA12846FEF721FF0028C2
:10147000F7D109492846FEF71BFF002802D0344661
:10148000204670BD022070BD0D0A0D0A000000004C
:101490004F4B0D0A00000000107E0000F0B581B037
:1014A0000446002606707D25280106F0A1F960603B
:1014B00027468837002801D100F014FEA80006F066
:1014C00097F97860002801D100F00CFE642006F046
:1014D0008FF938600028009701D100F003FE204604
:1014E0001C30FFF761FE2046403001F057F82046DF
:1014F0007C3001F0ADF826816670482006F078F95E
:10150000054660610672C6800670FF200230A88022
:10151000154868802846163014491222FEF78AFEC4
:101520006E822E82AE816E8128460A30C6860120E8
:101530002875A873AE62EE622E63284628300673C3
:10154000284636300A4909273A46FEF773FE6E648C
:1015500025619034204606493A46FEF76BFE009816
:101560008682468201B0F0BDB20700007C7E00009A
:10157000907E000070B541098900234BC9180A6AA2
:10158000D9691C46183C246807240C405D6819463C
:1015900014390968890501D4002110E01968C900CF
:1015A000CE0F1A49F140002D09D41D686D012D0F91
:1015B00000D1102569431D686D02AD0FE940641E1E
:1015C000062C09D87C4424796400A7440C03030545
:1015D00005070A000D4906E0002104E00121C903C6
:1015E00001E07D2109021F2404400325A5402A4073
:1015F000E2402E2800D1921C9868052800D30520CF
:10160000C140D140084670BD1880084000127A00E1
:1016100070B50C4C2568002B01D0054300E08543D4
:10162000A668E0682560002B01D00E4300E08E43E1
:10163000A660002B02D01043E06070BD9043E060D4
:1016400070BDC04624800840F0B587B00446807E57
:10165000FFF750F906460F46E07EFFF74BF90025ED
:10166000B44B2A46FFF78EF832463B46FEF770FF32
:1016700006460F46A08BFFF73DF9AF4B2A46FFF712
:1016800081F802460B4630463946FEF761FF0646B2
:101690000F461E202056FFF719F902460B4630462A
:1016A0003946FFF707F8FFF747F9FFF731F9A34A83
:1016B000A34BFEF7FFFFA34B2A46FFF763F8FFF7A4
:1016C0003BF905902E202646205CFFF713F9049085
:1016D000029106942E346078FFF70CF92A46954B58
:1016E000FFF750F8049A029BFEF732FF04900F4672
:1016F000308EFFF7FFF82A4603958F4BFFF742F82D
:1017000002460B4604983946FEF722FF06460F466E
:10171000042004902056FFF7D9F802460B463046C5
:101720003946FEF7C7FFFFF707F9FFF7F1F8834ADD
:10173000834BFEF7BFFF2A46824BFFF723F8FFF7E4
:10174000FBF802900599FEF77FFE01902020069E8F
:10175000305CFFF7CFF800900F46354620356878AB
:10176000FFF7C8F8039C2246724BFFF70BF8009A6C
:101770003B46FEF7EDFE00900F46708CFFF7BAF87F
:1017800022466D4BFEF7FEFF02460B460098394697
:10179000FEF7DEFE06460F4604982856FFF796F839
:1017A00002460B4630463946FEF784FFFFF7C4F881
:1017B000FFF7AEF8614A624BFEF77CFF25462246F2
:1017C000604BFEF7DFFFFFF7B7F800903420069F6D
:1017D000385CFFF78FF804460E4634377878FFF709
:1017E00089F82A46534BFEF7CDFF22463346FEF7D3
:1017F000AFFE06460C460698C08EFFF77BF82A46D9
:101800004D4BFEF7BFFF02460B4630462146FEF722
:101810009FFE05460E4604983856FFF757F80246D5
:101820000B4628463146FEF745FFFFF785F8FFF7E0
:101830006FF8424A424BFEF73DFF039A414BFEF7D9
:10184000A1FFFFF779F80099FEF7FEFD04463F205F
:10185000050601982946FEF7FFFDFFF759F80646F1
:101860000F4605F0FBFF069004913046394605F01F
:10187000F5FF039001910598FFF74AF805F042FF44
:1018800006460F460298FFF743F805F03BFF024675
:101890000B4630463946FEF70DFF06460F462046FA
:1018A0002946FEF7D9FDFFF733F804460D4605F04B
:1018B000D5FF02460B4630463946FEF7FBFE06468C
:1018C0000F462046294605F0C9FF02460B46304622
:1018D0003946FEF7EFFE04460D4606980499039A32
:1018E000019BFEF7E7FE22462B46FEF731FEFFF78F
:1018F00023F80646FFF70CF805F0FEFF04460D46F8
:101900007F20C0053146FEF79FFDFFF701F805F087
:10191000F3FF02460B462046294605F025FE024607
:101920000B46FEF715FEFFF707F80749FEF794FD93
:1019300007B0F0BD00004E40804F2241182D4454A6
:10194000FB2109400080664060A5C24AF0B5A1B005
:101950000446FFF779FE0A902820205C0990234670
:1019600028331D7958780890E68C98780790D878B5
:101970000690207E0590637D227D608AA17DE77DB3
:101980001797189164301B901A9219930598169026
:10199000069B0C93079A0D926436109609980F9047
:1019A00008980E900B9520680095194904F0CEFC1C
:1019B000206801F08FFF16A8FEF7F6FB05460BA87E
:1019C000FEF7F2FB401BFEF779FF0646FEF7A0FF8D
:1019D000089007910A9D28463146FEF77AFD099046
:1019E000FEF796FF06460F462846FEF791FF024691
:1019F0000B46206808990091079901ADC2C505A161
:101A000004F0A4FC206801F065FF099821B0F0BD46
:101A1000707E000044495354414E43453A202566A8
:101A20002C2054494D455F494E54455256414C3A3D
:101A30002025662C2053504545443A202566000059
:101A4000F0B589B00446007821462E31069127462C
:101A50008C370028089405D0012800D0E4E0254602
:101A60001C3558E025461C35F2A602E020780028F7
:101A7000F2D100207874304601F02CFF284601F0A6
:101A80007BFF0028F2D1284601F076FF284601F0BE
:101A900073FF284601F070FF284601F06DFF2846CD
:101AA00002F0B2F90028E1D10021284602F004F842
:101AB0000028DBD10021284602F0DAF90028D5D130
:101AC000284602F061FF0028D0D1284602F078FFB6
:101AD0000028CBD1284603F0C5F80028C6D12846F7
:101AE00003F020FA0028C1D1284602F063F800284C
:101AF000BCD10221284601F099FF0028B6D101206F
:101B00002070ACE7284601F011FF00282FD0207884
:101B1000012800D088E000267E74CEA001F0DAFE15
:101B20002846314601F0C8FF0028F0D1284602F0CF
:101B30005BF80028EBD1012603E0761C092E00D1CA
:101B4000EDE060680823CB49324604F0FFFB606893
:101B500001F0C0FE284601F01DFF0028EDD10698D7
:101B600000780128CED0C44803F04CFDE5E7069884
:101B70004078002855D1606801220523BD4904F052
:101B8000E5FB606801F0A6FE284602F04FF9002848
:101B900038D0606802220523B64904F0D7FB60689C
:101BA00001F098FE284602F041F900282AD060682A
:101BB00003220523AF4904F0C9FB606801F08AFEE7
:101BC000284602F033F900281CD06068042205235F
:101BD000A84904F0BBFB606801F07CFE284602F0D7
:101BE00025F900280ED060680522FD49134604F04F
:101BF000ADFB606801F06EFE284602F017F9002880
:101C000000D08CE0284601F06FFF002803D0284662
:101C100001F0F6FE7BE7284603F0ECFA002800D03E
:101C200075E70220207001E0022875D1204632308D
:101C3000029020469030039020461C3005907D2075
:101C4000C000049001970AE0FD4801F043FEE068FF
:101C5000A061049803F0D6FC207802285CD101250D
:101C60007D74E0A001F036FEA0690028ECD0007879
:101C7000002808D00795059801F0B6FF002806D087
:101C8000A18F029A0CE0ED4801F024FEE1E70398F1
:101C9000029D2946FEF74CFB2A46019FA18FF98140
:101CA00060680BB2D7A104F051FB606801F012FE2E
:101CB000A06936300399FEF73BFBA169F889402201
:101CC0008852204600F0E8FE3968059802F0CEFB05
:101CD00000286CD1D3A001F0FDFD089CA669706CB2
:101CE0000028B9D0D24D284601F0F4FDA069406C1F
:101CF000E060284601F0EEFDA069406CA061CD488F
:101D000001F0E8FD304605F049FDCB4801F0E2FD69
:101D10002089401E20819FE7032802D04AE003204B
:101D2000207000207874C74801F0D4FD0327F843E1
:101D300026461C36089D12E06868621D0423A849E7
:101D4000079304F003FB686801F0C4FD304601F01E
:101D500021FE00280DD0601C7F1EA04227D3044620
:101D6000022FE9D8B84801F0B5FDB84803F04AFCA5
:101D7000E2E7069800780128EDD1304601F0D6FD63
:101D80000028E8D106984078002808D0304601F0B5
:101D9000ABFE002809D0304601F032FEDBE73046CA
:101DA00002F044F80028D6D1F0E702200790089C02
:101DB0000798207020469D30089004F08BF8054667
:101DC00004F088F804902078042800D096E00021E0
:101DD0000898079101709E4801F07CFD20467C30F8
:101DE000059000F085FC074620461C3003909A4E73
:101DF00004F070F8002F41D0054604F06BF8049908
:101E0000401A944EB04246D904F064F804906068D9
:101E1000721C934904F09AFA606801F05BFD039824
:101E200001F0B8FD002839D106980078012832D198
:101E300001202FE00A3D3D3D3D3D3D3D3D3D2053D0
:101E4000544147452030203D3D3D3D3D3D3D3D3DDC
:101E5000200A00000A3D3D3D3D3D3D3D3D3D2053B6
:101E6000544147452031203D3D3D3D3D3D3D3D3DBB
:101E7000200A0000A07D0000B80B0000401BB0420B
:101E800009D96068721C754904F060FA606801F055
:101E900021FD05202070642003F0B4FB2078042885
:101EA0002CD1089807990170059800F021FC06468E
:101EB00004F010F80746002E19D004F00BF804992E
:101EC000401A644DA84200D888E004F003F804905A
:101ED00060686A1C624904F039FA606801F0FAFC33
:101EE000039801F057FD002871D03D46D6E7781BD6
:101EF00059498842CFD960684A1CC4E7052864D193
:101F0000002708980770574801F0E4FC25467C3507
:101F100026461C360121304601F0AAFF00284ED18A
:101F2000304601F02FFE002849D10121304601F052
:101F3000C3FD002843D14C48006803F06FFC4B48B8
:101F4000006803F06BFC4A48006803F067FC284611
:101F500000F0CEFB00282FD1284600F0C9FB002856
:101F6000F5D0304601F008FD0028F0D1304601F0F0
:101F700003FD304601F000FD304601F0FDFC304627
:101F800001F0FAFC0021304601F072FF0028DED19A
:101F90000021304601F090FD0028D8D13248006879
:101FA00003F0AAFB3148006803F0A6FB3048006844
:101FB00003F0A2FB04202070642003F023FB2078B0
:101FC000052802D108980770A4E709B0F0BD06986B
:101FD0000078012802D101203D465BE73D465AE7E3
:101FE000A07D00000A3D3D3D3D3D3D3D3D3D205332
:101FF000544147452032203D3D3D3D3D3D3D3D3D29
:10200000200A000042433636304B202D2043454CF9
:102010004C5F49443A2025732C20525352503A20A9
:10202000256400005075626C697368656421000066
:102030008D7D0000787D0000647D0000777C0000CD
:10204000567C0000E47B0000127D0000307500002B
:10205000037C00000F2700005FEA0000DB7C00002B
:10206000257D0000227C00002400002028000020A4
:102070002C000020F0B581B0009315460E46FEF707
:1020800039FC07460C463046FEF734FC0026134B5D
:102090003246FEF777FB3A462346FEF759FA0446E6
:1020A0000F462846FEF726FC0D4B3246FEF76AFB2C
:1020B00002460B4620463946FEF74AFA04460D46CC
:1020C0000098FEF703FC02460B4620462946FEF721
:1020D000F1FAFEF731FC01B0F0BDC04600004E4001
:1020E000804F2241002000F0C9F9642003F08AFAF1
:1020F000F8E7002A03D002680A43026070470268CA
:102100008A4302607047F0B500230E251C4603E0A9
:10211000090A10352E2D5AD0CE070ED18E0716D4AF
:102120004E071ED40E0726D4CE062ED48E0635D4E6
:102130004E063CD40E06EBD542E02E460E3E03275B
:10214000B7403B431746B7403C438E07E8D52E4681
:102150000C3E0327B7403B431746B7403C434E076E
:10216000E0D52E460A3E0327B7403B431746B7400B
:102170003C430E07D8D52E46083E0327B7403B43C5
:102180001746B7403C43CE06D0D5AE1F0327B74015
:102190003B431746B7403C438E06C9D52E1F032745
:1021A000B7403B431746B7403C434E06C2D5AE1E30
:1021B0000327B7403B431746B7403C430E06A7D51D
:1021C0000326AE4033431646AE403443A0E7416990
:1021D00099434161416921434161F0BDB0B58468D3
:1021E00025468D43C368012A04D08B43002A04D1BD
:1021F0000C4303E00B432C4600E02C468460C36094
:10220000B0BD80B541697C3000F018FB7D20C00076
:1022100003F0F8F980BDB0B50446054640352846C0
:1022200000F00CF8002805D06169284600F0DEFDBA
:10223000012000E000209C216054B0BDF0B581B0C9
:10224000044600225B4D1146009207E060685AA1E7
:10225000FEF72EF800210028009A18D16068425439
:10226000491C6429FAD1666800272021284601F01C
:10227000CCF90028F9D0284601F010FAF055C0B288
:102280000A28E3D0781C632F0746EED1DEE7012051
:1022900003F0B8F94AA001F01DFB60684E494D22D9
:1022A000FDF7C8FFE0686168FEF742F8E0684B4E52
:1022B0003146FEF747F8002528463146FEF742F83A
:1022C00028463146FEF73EF84549FEF723F8064614
:1022D000002867D0083418202168091818390D70B3
:1022E0002168091817390D702168091816390D7001
:1022F0002168091815390D702168091814390D70F5
:102300002168091813390D702168091812390D70E8
:102310002168091811390D702168091810390D70DC
:10232000216809180F390D70216809180E390D70D0
:10233000216809180D390D70216809180C390D70C4
:10234000216809180B390D70216809180A390D70B8
:102350002168091809390D702168091808390D70AC
:1023600021680918C91F0D7021680918891F0D708F
:1023700021680918491F0D7021680918091F0D707F
:1023800021680918C91E0D7021680918891E0D7071
:1023900021680918491E0D7021680D5419307C28D8
:1023A0009AD103E06168A068FDF7C2FF70427041F6
:1023B00001B0F0BD0010004024474E524D430000D4
:1023C0005573696E672066616B65204750532073B3
:1023D0007472696E67210000788F0000DF7D000055
:1023E0006E7E000070B582B006466846002282808C
:1023F000009229498D5D012444550178214043789C
:10240000DB079B0F59188378DB075B0FC918C0786F
:10241000C007000F08180199C907C90E4018000429
:10242000A1032346FFF7F4F80E48825D70001949B6
:102430000E5A28463146FEF7A9FDA80017490D5847
:102440006E62022228463146FFF7C8FE2846314612
:102450002246FFF758FE284631462246FFF749FE3E
:1024600002B070BDD87B000041000A4A515A0A4AA6
:10247000105C8000094A1058416270474100054ACB
:10248000515A054A105C8000044A1058026A4A40BA
:1024900002627047DE7B0000DB7B0000C07B000037
:1024A0004A1E9141C900026808239A4351180160ED
:1024B0007047016802220A4302607047F0B581B09C
:1024C0000D460446006885218843297801436878D1
:1024D0000843A978014321602889A0600026834829
:1024E000844203D01C48844204D102263046FFF7C0
:1024F00041F8064603208103206808400121CA03F1
:10250000904207D08903884207D0002808D10620CE
:10251000009007E00920009004E00820009001E00E
:102520000020009009207043696814274F43394602
:10253000FEF71EFAE978009A5518401BC117884328
:1025400020610B2070433946FEF712FA401BC11779
:102550008843606101B0F0BD0090044081B000226A
:10256000009200900098401800900098006801B018
:1025700070478161704703689B0708D503689B0714
:1025800005D503689B0702D503689B07F3D4002A8F
:1025900002D0012292021143C1617047F0B585B0AB
:1025A000019001256804112189022B46FFF730F8BC
:1025B0002E022548002731463A46FFF70FFE8021BC
:1025C000062428462246FEF7E1FC284631462246EC
:1025D000FEF7DCFC049703964B20C00102901B4CD5
:1025E00002A9204601F016F8204639462A4601F095
:1025F0005AF82046019C29462A4601F054F82C3608
:10260000304605F0F5F82060002801D1FFF76AFD9B
:10261000642005F0EDF86060002801D1FFF762FD4D
:10262000642005F0E5F8A060002801D1FFF75AFD0D
:10263000642005F0DDF8E060002801D1FFF752FDCD
:10264000257405B0F0BDC04600200B4000100040CE
:10265000F0B585B004464B20800005F0C9F8206035
:10266000002801D1FFF73EFD1E4900250124284620
:102670002A462346FEF7CCFF07262046214632464F
:10268000FEF784FC022120463246FEF77FFC01A9BA
:102690000D81154802900195144F3846FFF70EFF43
:1026A00038462146FFF7FCFE04A805704C27384643
:1026B00031462A4600F098F9202138462A4600F093
:1026C00093F938463146224600F08EF94C20052118
:1026D00004AC224600F006F920780128F6D105B0B6
:1026E000F0BDC04601400000A0860100008004400B
:1026F000F0B58BB04C250E21089109AC2846224636
:1027000000F0F0F8621C07920D210691284600F0B7
:10271000E9F8A21C059210210491284600F0E2F885
:10272000E21C03920F210291284600F0DBF8221DE3
:10273000019212210091284600F0D4F8671D11265D
:10274000284631463A4600F0CDF8607809990902EA
:102750000818183030490880E078A1780902081874
:10276000FE302E49088060790A990902081819304C
:102770002B490880C82002F045FF284608992246C8
:1027800000F0B0F828460699079A00F0ABF8284602
:102790000499059A00F0A6F828460299039A00F0D9
:1027A000A1F828460099019A00F09CF82846314685
:1027B0003A4600F097F800201749095E6278099BB5
:1027C0001B029A18183212B2511ACA1751408A1AAB
:1027D00014498A421AD8114A125E09AB5B885BBA67
:1027E000FE331BB29A1AD3175A40D21A8A420DD816
:1027F00062790A9B1B029A181932094B1B5E12B2AE
:10280000D21AD3175A40D21A8A4203D906A001F02D
:1028100061F801200BB0F0BD180000201A00002064
:102820001C000020DB050000446574656374206DA6
:102830006F76656D656E742100000000F0B581B0A3
:102840000C464C260E21254D30462A4600F04AF80B
:102850006A1C0D21304600F045F8AA1C10213046B4
:1028600000F040F8EA1C0F21304600F03BF82A1D2A
:102870001221304600F036F86A1D1121304600F072
:1028800031F86878297809020818183001B2C9139C
:1028900002464A40511A89B2490B4A1E91416A794F
:1028A0002B79EE78AD783227E155A0852802801982
:1028B000FE30E085190289181931218601B2C91349
:1028C0004840401A80B20649884201D8002000E002
:1028D00001203234607001B0F0BDC0461E000020FF
:1028E00055150000F0B583B0029200910146684C86
:1028F00025460C3D002228460191FFF73CFE654F1E
:102900002068B84208D02068B84205D02068B84294
:1029100002D02068B842F3D11D204604301D216842
:10292000814212D0216881420FD0216881420CD0AF
:1029300021688142F2D108E02068B04208D02068C6
:10294000B04205D02068B04202D02068B042F3D136
:1029500028460099FFF70DFE2068B04208D0206895
:10296000B04205D02068B04202D02068B042F3D116
:102970000120820228460199FFF7FDFD2068B84238
:1029800012D02068B8420FD02068B8420CD020681E
:10299000B842F3D108E02168814209D02168814220
:1029A00006D02168814203D0F81C21688142F2D10F
:1029B000192000042168814208D02168814205D095
:1029C0002168814202D021688142F3D1E0680299F6
:1029D00008702846FFF76DFD0C212846FFF7BEFD65
:1029E0000003F9D403B0F0BDF0B581B000920E46FB
:1029F0000146274F3C460C3C00222046FFF7BBFD1A
:102A000024483968814208D03968814205D0396844
:102A1000814202D039688142F3D11D204504281D2E
:102A20003968814208D03968814205D039688142CD
:102A300002D039688142F2D120463146FFF799FD34
:102A40003868A84208D03868A84205D03868A8423B
:102A500002D03868A842F3D120460099FFF789FDDB
:102A60003868A84208D03868A84205D03868A8421B
:102A700002D03868A842F3D12046FFF71AFD0C2196
:102A80002046FFF76BFD0003F9D401B0F0BDC0464E
:102A90000C80044001001800F0B587B000297BD0FD
:102AA0000D46044688340E463236201D1821026831
:102AB0005218183A0027177002685218173A177000
:102AC00002685218163A177002685218153A1770B1
:102AD00002685218143A177002685218133A1770A5
:102AE00002685218123A177002685218113A177099
:102AF00002685218103A1770026852180F3A17708D
:102B0000026852180E3A1770026852180D3A177080
:102B1000026852180C3A1770026852180B3A177074
:102B2000026852180A3A177002685218093A177068
:102B300002685218083A177002685218D21F1770AC
:102B400002685218921F177002685218521F1770AD
:102B500002685218121F177002685218D21E17709E
:102B600002685218921E177002685218521E17708F
:102B700002685754193183229200914297D16068BC
:102B800069A10D22FDF756FB2068297800290696D9
:102B900007D069A10D2206E0934800F09BFE07B024
:102BA000F0BD69A10E22FDF745FB21686068FDF7C5
:102BB00073FBE8790590A87904902368297A6E79E7
:102BC0002A7968880091019602920390624918461A
:102BD000049A059B03F0BAFB21686068FDF75CFB73
:102BE00020682A4616325DA103F0B0FB21686068B8
:102BF000FDF752FB0E2005902B562668AA89E97A2C
:102C0000A87AFFF737FAFDF783FE02460B4658A174
:102C1000304603F09BFB21686068FDF73DFB142004
:102C20002B5626686A8A697C287CFFF723FAFDF711
:102C30006FFE02460B4652A1304603F087FB216827
:102C40006068FDF729FBA86AFDF762FE02460B46A5
:102C500020684FA103F07AFB21686068FDF71CFB38
:102C60002C202A5E20684DA103F070FB216860686B
:102C7000FDF712FB2E202A5E20684CA103F066FBB4
:102C800021686068FDF708FB30202A5E20684BA1B0
:102C900003F05CFB21686068FDF7FEFA2068069E81
:102CA0003178002902D04949132201E04849142211
:102CB000FDF7C0FA21686068FDF7EEFA20687178C8
:102CC000002902D04349162201E043491722FDF7AB
:102CD000B1FA21686068FDF7DFFA2068B178002951
:102CE00002D03E49182201E03D491922FDF7A2FA1F
:102CF00021686068FDF7D0FA0598335E20683635A4
:102D000038492A4603F022FB21686068FDF7C4FABF
:102D100064682046FDF7F7FA7D21215420184170A0
:102D2000877007B0F0BDC0467B226D657373616725
:102D300065223A7B000000002276616C6964223AC9
:102D400074727565000000002276616C6964223A35
:102D500066616C7365000000F17C00002C226465E4
:102D6000766963655F6964223A2225732200000058
:102D70002C226C61746974756465223A25660000C2
:102D80002C226C6F6E676974756465223A25660043
:102D90002C227370656564223A2566002C226163DB
:102DA00063656C5F78223A25640000002C22616321
:102DB00063656C5F79223A25640000002C22616310
:102DC00063656C5F7A223A2564000000147F00007E
:102DD000D07E0000FC7E0000B87E0000E47E000093
:102DE0009C7E0000AF7D0000417C0000F0B591B0FA
:102DF000079104468068EE4910AA00F069FB01467D
:102E0000E06800250570E0684570E0688570E0685E
:102E1000C570E0680571E0684571E0688571E0683B
:102E2000C571E0680572E068457248680F46E16860
:102E300002230E932A4602F0D5F9E6683046FDF7E4
:102E4000A5FA0C903570E0684570E0688570E06820
:102E5000C570E0680571E0684571E0688571E068FB
:102E6000C571E0680572E068457278683E46E168C1
:102E700004230D930E9A02F0B5F9E7683846FDF782
:102E800085FA0B903D70E0684570E0688570E068F9
:102E9000C570E0680571E0684571E0688571E068BB
:102EA000C571E0680572E068457270680F96E16868
:102EB00006230D9A02F096F9E7683846FDF766FAA0
:102EC0000A903D70E0684570E0688570E068C57004
:102ED000E0680571E0684571E0688571E068C5717A
:102EE000E0680572E0684572F068E1682A460E9E67
:102EF000334602F077F9E7683846FDF747FA09905C
:102F00003D70E0684570E0688570E068C570E06815
:102F10000571E0684571E0688571E068C571E06839
:102F20000572E06845720F9FF868E16832460D9BB4
:102F300002F058F9E6683046FDF728FA0D90357032
:102F4000E0684570E0688570E068C570E06805710C
:102F5000E0684571E0688571E068C571E0680572F8
:102F6000E0684572F868E1680522092302F03AF941
:102F7000E6683046FDF70AFA0890386901233146C1
:102F80002A460E9302F02EF90C98C01D1821FDF769
:102F90000FFD0C91E1680878532802D04E2800D02C
:102FA0003EE126460C360F98006900252A460E9F02
:102FB0003B4602F017F9306801784E2903D05329B7
:102FC00000D02DE1FF270597057030684570306807
:102FD00085703068C570306805713068457130683B
:102FE00085713068C5713068057230684572316826
:102FF0000F984069032306932A4602F0F3F83768D6
:103000003846FDF7C3F904903D703068457030686C
:1030100085703068C57030680571306845713068FA
:1030200085713068C57130680572306845720F98D7
:10303000406931680523069A02F0D4F837683846AB
:10304000FDF7A4F906903D703068457030688570D2
:103050003068C570306805713068457130688571B9
:103060003068C57130680572306845720F984069E4
:10307000316806220A2302F0B5F837683846FDF7B2
:1030800085F903900F98806939462A460E9F3B4682
:1030900002F0A8F830680178452903D0572900D0FC
:1030A000BEE0FF270E972146203102910570E068AF
:1030B0004570E0688570E068C570E0680571E0689B
:1030C0004571E0688571E068C571E0680572E06887
:1030D0004572E1680F9E706A022300932A4602F04F
:1030E00081F8E7683846FDF751F901903D70E068D6
:1030F0004570E0688570E068C570E0680571E0685B
:103100004571E0688571E068C571E0680572E06846
:103110004572706AE1680427009A3B4602F062F843
:10312000E6683046FDF732F900903570E06845708A
:10313000E0688570E068C570E0680571E068457119
:10314000E0688571E068C571E0680572E068457205
:103150000F9E706AE16806233A4602F043F8E06881
:10316000FDF714F90746304604F018FB207C0028D0
:1031700020D00598A0770898A0830D98E07609984C
:10318000A0760A9820760B98E0750C98A0750198A7
:1031900060750098207567820698029948700498B7
:1031A0000870039860840E980871257411B0F0BD02
:1031B000DF7D000020462E30214634310A9A029BE2
:1031C0001A730B9ADA720C9A9A72019A5A72009ACE
:1031D0001A72E7840D9A4270099A0270089A228640
:1031E000059A027106984870049808700398E08662
:1031F0000E9808712046FEF7A9FB054620461230BE
:10320000263414222146FDF715F8079E002E09D01A
:10321000B01C14222146FDF70DF8B5620120307074
:1032200011B0F0BD02A000F055FB11B0F0BDC046DA
:1032300050617273655F4750535F537472696E6774
:103240003A203C63757272656E745F6E6F64653EA2
:10325000206973204E554C4C210A000000000000EC
:10326000EFF309800E4B1A6820381060F0C0444616
:103270004D4656465F46F0C008B572B602F078FB80
:1032800062B60CBC116808681030F0C8A046A946A8
:10329000B246BB4680F309882038F0C81847C046BC
:1032A000D80000207047000010B501F0FDFF044673
:1032B00002F016FE002803D0012000070249086032
:1032C000204602F00DF810BD04ED00E0F0B581B02D
:1032D0001D4CA0680721256822685201120F03D0F7
:1032E00022685201120F00E0102200922668E26963
:1032F0000A40571E062F25D8144AC0467F443F79FE
:103300007F00BF44031B1B1F1F0B0E00ED006768EF
:10331000183C2368002F07DA002407E00122D203BB
:103320000CE07D22120209E073029C0F009BED0F5E
:10333000002F00DA0123EA405A43E2400840C2402D
:103340000348026001B0F0BD1880084000127A0006
:1033500010000020F0B586B0594810210591016099
:103360005849C86A402203921043C862564802680E
:10337000272A08D00268272A05D00268272A02D007
:103380000268272AF3D10324A0020A6A82430A6250
:103390000122D0020B6803430B604868000708D481
:1033A0004868000705D44868000702D44868000749
:1033B000F3D50868049420430423029398430860DB
:1033C000086B0724204003280BD0086B20400328FB
:1033D00007D0086B2040032803D0086B2040032847
:1033E000EED13A4B1868104306250195A8431860A2
:1033F00000200090C86157020868B84308601302B3
:10340000081F05681D4305600D680826B5430D605B
:1034100005683D43056095020E682E430E604D68B9
:103420006D0708D44D686D0705D44D686D0702D44B
:103430004D686D07F3D5CD6A039EB543CD620F2568
:10344000ED054D6115074E692E434E6105689D439C
:1034500005600868384308604868800708D44868F1
:10346000800705D44868800702D448688007F3D5F0
:10347000164D2868049B1843029B984328600098C7
:10348000C86108681043019B98430860086B20409E
:1034900001280BD0086B2040012807D0086B204082
:1034A000012803D0086B20400128EFD12868059936
:1034B00008432860100329680143296006B0F0BD65
:1034C0000C8108400480084008A106400002084022
:1034D000F0B581B014460E4607463C2004F088F94A
:1034E0000546002801D1FEF7FDFD38463146FCF7C0
:1034F00029FF002868D0286000203146FCF722FF11
:10350000002863D0686000203146FCF71BFF0028CC
:103510005ED0A86000203146FCF714FF002859D087
:10352000E86000203146FCF70DFF002854D02861E8
:1035300000203146FCF706FF00284FD068610020CC
:103540003146FCF7FFFE00284AD0A8610020314632
:10355000FCF7F8FE002845D0E86100203146FCF772
:10356000F1FE002840D0286200203146FCF7EAFE38
:1035700000283BD0686200203146FCF7E3FE0028BB
:1035800036D0A86200203146FCF7DCFE002831D09E
:10359000E86200203146FCF7D5FE00282CD02863D5
:1035A00000203146FCF7CEFE002827D068630020BB
:1035B0003146FCF7C7FE002822D0A8630020314620
:1035C000FCF7C0FE0F201CE000201AE0012018E0EC
:1035D000022016E0032014E0042012E0052010E091
:1035E00006200EE007200CE008200AE0092008E091
:1035F0000A2006E00B2004E00C2002E00D2000E091
:103600000E202070284601B0F0BD00690840411E20
:1036100088417047B0B50D460446406819490140DD
:10362000E8880843A9880143288908436989014338
:103630006160002014498C420BDC012189078C4217
:1036400012D014498C4211D013498C4215D1082054
:1036500011E00E498C420BD00D498C420AD0B24980
:103660008C420AD11A2006E0182004E01C2002E057
:103670000A2000E01E20FDF77DFF2968FDF778F99C
:103680006062B0BDFCE0FFFFFFFF0340002004408C
:10369000001004400010004000200040006880B28C
:1036A00070470160704710238B40002A03D04168A7
:1036B0001943416070474168994341607047000079
:1036C000F0B581B004466E4F386802F0A7F86D4E31
:1036D000306802F0A3F86569002D2DD02878002805
:1036E00000D18EE0E06800285CD0AE6A002730464A
:1036F0003946FDF7BFF8002801D16078471C677094
:103700003046FDF705F9604A604BFCF7D3FF002611
:103710005F4B3246FDF7BCF8002802D1342001216E
:103720002954F8B2032871D35DA000F0D3F8032028
:1037300060706069067098E0482004F059F805460A
:10374000606100240472C4800470FF200230A880ED
:1037500050486880284616304F491222FCF76AFD0F
:103760006C822C82AC816C8128460A30C486012090
:103770002875A873AC62EC622C6328462830047369
:103780002846363045490922FCF754FD6C643868F8
:1037900001F0B2FF306801F0AFFF48A000F09AF8E6
:1037A00001B0F0BD21692046FDF7AEFC482004F0D1
:1037B0001FF80546606100240472C4800470FF2075
:1037C0000230A880334868802846163032491222D9
:1037D000FCF730FD6C822C82AC816C8128460A306B
:1037E000C48601202875A873AC62EC622C6328465D
:1037F000283004732846363028490922FCF71AFD80
:103800006C64386801F078FF306834E02561482046
:1038100003F0EEFF074660610672C6800670FF2067
:103820000230B8801B487880384616301A49122278
:10383000FCF700FD7E823E82BE817E8138460A30E2
:10384000C68601203875B873BE62FE623E63384694
:10385000283006733846363010490922FCF7EAFC56
:103860007E6420462946FDF74FFC0548006801F0BC
:1038700043FF0448006801F03FFF01B0F0BDC046BF
:103880002400002028000020CDCCCCCCCCCC0C4097
:1038900000004E40B20700007C7E0000907E0000D9
:1038A00073656C662D3E736C6F77203E3D20534CE4
:1038B0004F575F434F554E54455200004375727247
:1038C000656E74204E6F6465206973204E756C6C54
:1038D00021000000F0B581B00746012005023878CC
:1038E000114C002813D000260097BF5D20462946C2
:1038F000FFF78BFE0028F9D020463946FFF7D1FEAE
:10390000761C009F3846FCF7FEFC8642EDD320462D
:103910002946FFF77AFE0028F9D00A212046FFF752
:10392000C0FE01B0F0BDC04600000440B0B5044682
:1039300080680DA10C22FCF77DFC7D200201032193
:103940002046FDF78FFC05460020E074002D01D0D5
:103950002846B0BDE0680749FCF7AAFC0028F7D06C
:103960000120E0742846B0BD41542B514D544F50B6
:10397000454E3F00F67D000080B5816800228A70C8
:1039800054224A7041220A707D210A010321FDF769
:1039900069FC80BDF0B581B00446806812A10A229E
:1039A000FCF748FC7D20020103212046FDF75AFC6C
:1039B00005460220A074002D13D1E0680D496F4622
:1039C0003A46FFF785FD064600680BA1FCF770FC40
:1039D000002806D03878022803D37068FCF7D6FC9C
:1039E000A074284601B0F0BD41542B4345524547D1
:1039F0003F000000DF7D00002B434552454700009B
:103A000010B50446806805A10E22FCF713FC7D204A
:103A1000020102212046FDF725FC10BD41542B5127
:103A20004D54434C4F53453D3000000010B5044603
:103A3000022907D0012908D0002912D1A0681AA1B3
:103A40000E2205E0A06808A101E0A0680EA11E22D8
:103A5000FCF7F0FB7D20020103212046FDF702FC6C
:103A600010BD032010BDC04641542B51454452584F
:103A70004346473D322C352C2231313131222C2224
:103A8000303030302200000041542B514544525810
:103A90004346473D312C352C2231313131222C2205
:103AA000303030302200000041542B5145445258F0
:103AB0004346473D3000000010B5022901D90320DC
:103AC00010BD0A460446806804A102F03FFC7D2038
:103AD000020103212046FDF7C5FB10BD41542B51C7
:103AE00053434C4B3D25750010B5044680680AA130
:103AF0001D22FCF79FFB7D20420103212046FDF79C
:103B0000B1FB002800D010BDE0680B49FCF7D0FBEA
:103B100001464042484110BD41542B514D54434F42
:103B20004E4E3D302C22616E6874746D38636C6942
:103B3000656E742200000000FF7D00000C480168E3
:103B40000020002900D070470A4909680029FAD1ED
:103B5000094909680029F6D1084800680849096838
:103B6000491E884201D00120704702207047C0469C
:103B7000E441002038420020E041002004420020BF
:103B80005C41002010B50446806805A11322FCF7B3
:103B900051FB7D20020103212046FDF763FB10BD90
:103BA00041542B514E42494F544556454E543D3198
:103BB0002C31000010B50446806805A11822FCF7DE
:103BC00039FB7D20020103212046FDF74BFB10BD90
:103BD00041542B514D544346473D2273736C222C64
:103BE000302C312C302C3000F0B583B00446806886
:103BF0002FA10A22FCF71EFB7D2002010321204693
:103C0000FDF730FB054600284FD102A800250570BE
:103C1000E66822213046FCF76CFB002816D02749C5
:103C200002AAFFF755FC064607683846FCF76BFB0F
:103C30000A2806D17068FCF7A9FB2721C9438842EE
:103C400006DD304603F0AAFD01252EE0012510E037
:103C50001BA1384600F04EFE316820461630FCF7B6
:103C600067FB7068FCF792FB2084304603F096FDFA
:103C7000E66814493046FCF71BFB002815D001AF5D
:103C8000002139700D493A46FFF722FC0646387884
:103C9000022807D3F26820680B4902F057FB20681E
:103CA000FFF718FE304603F079FD284603B0F0BD5B
:103CB00041542B51454E473D30000000DF7D000050
:103CC00022000000447E0000607E000086B0FFF706
:103CD000FDFA00242046FEF785FB01263046FEF75C
:103CE00081FB022528460295FEF77CFB2046FEF765
:103CF000BBFB3046FEF7B8FB2846FEF7B5FB204677
:103D0000FEF7BCFB3046FEF7B9FB30042121490227
:103D10003346FDF77DFC2948202739462246FEF729
:103D20005DFA1021062520462A46FDF72FF9204688
:103D300039462A46FDF72AF9059430020490E1201D
:103D4000400203901E4D03A92846FFF763FC284656
:103D500021463246FFF7A7FC284631463246FFF798
:103D6000A2FC1848FDF79AFB1748029D00950190A8
:103D70007602164816A13246234601F0A1FF1648E6
:103D800000950190154816A13246234601F098FF90
:103D9000154800950190154815A13246234601F0BB
:103DA0008FFF1548032100910190144814A1324659
:103DB000234601F085FF01F0D5FCFEE700000B4033
:103DC0000000044034000020240000204552000080
:103DD0007461736B5F310000280000205D520000A9
:103DE0007461736B5F3200002C0000207152000080
:103DF0007461736B5F33000030000020915200004B
:103E00007461736B5F34000010B50446806805A1CF
:103E10000522FCF70FFA7D20020103212046FDF761
:103E200021FA10BD415445300000000010B5044691
:103E300080680C494822FCF7FDF903210A4A204614
:103E4000FDF710FA002800D010BDE0680749FCF724
:103E50002FFA002803D00120E074002010BD0120BB
:103E600010BDC046248F0000B0360000F67D000073
:103E700010B50446022906D0012908D0002912D124
:103E8000A06816A101E0A06808A10B2202E0A068CA
:103E900009A12322FCF7CEF97D200201032120464F
:103EA000FDF7E0F910BD032010BDC04641542B437F
:103EB00050534D533D32000041542B4350534D530A
:103EC0003D312C2C2C223130313030303130222C0D
:103ED00022303030303031303022000041542B431A
:103EE00050534D533D300000F0B581B00D460446AF
:103EF0005B480768584E30685521002242543068AC
:103F0000001D01F0D5F9601C16D1002D14D03168C8
:103F10001848426893683468E3608A60916833683F
:103F20001B1D4B603168091D916031684861016853
:103F3000491C016001B0F0BD3C193068446007D3F2
:103F40000B4800683168091D01F0DAF901B0F0BDD5
:103F5000064800683168091D01F0D2F93F48016840
:103F60008C4200D2046001B0F0BDC046E0000020E9
:103F7000E80000200442002082B001200190314E70
:103F8000314D324F14E001F0E5F9E868C468201DB6
:103F900001F08EF93868401E38603068401E30608D
:103FA00001F0E2F9206B01F0EDF9204601F0EAF9A9
:103FB00030680028E7D126480068022801D301F0C4
:103FC000F3FA2448006824490968C96A0029EFD136
:103FD000411E88411E4909680129019900D80146FE
:103FE0000029E5D11D4800681D490968401A0228CA
:103FF000DED31C490868401C08601848006818494E
:10400000096888421CD31348006813490968C96AC3
:10401000002912D1411E88410D49096801290199E1
:1040200000D80146002908D10C4800680C490968ED
:10403000401A022801D301F035FA02F0A5F8B7E7DB
:1040400072B6FEE760410020184200205C4100206B
:10405000F00000206C410020D8000020D04100205A
:104060002C42002064410020F0B583B00290846CA3
:10407000002C1DD0E06BA16B81421BD2A16B814251
:104080001AD245202756F8B20190226CA66B002A5E
:1040900014D0606802A9FCF7CDF8206C616808189C
:1040A0006060A1680025884213D32068606010E03A
:1040B00072B6FEE772B6FEE7002525E0206800280C
:1040C00001D0002505E0A06801F0B4FF05460020FE
:1040D000A060701CA063019EFF2E07D001F0FAF8CB
:1040E000B84211D97F2E0CD172B6FEE7606A002863
:1040F0000AD02434204601F0D7FF002804D001253F
:1041000002E04534701C2070284603B0F0BD00006A
:10411000F0B583B0044601F0DDFE224A1168884202
:1041200031D201900294AA4D07E031462831FE2297
:1041300010400870316A30468847286801680029B5
:1041400023D0C0680468C668371D384601F0B0F84F
:104150002820305C4107E8D5B069051975603661E3
:10416000A54209D3316A30468847B069401970606A
:104170003661A8420546F5D296480068394601F0F6
:10418000BFF8934DD6E7002107E092490A682A60FC
:1041900008600121029C0198024A1060216003B06E
:1041A000F0BDC046D400002081B0002000900A4835
:1041B000006872B6401C09D0FEE70098002808D1BC
:1041C0000098002805D10098002802D10098002806
:1041D000F3D001B07047C0461400002086B07E4F77
:1041E0007B4800680568002D02D0C068066800E0C2
:1041F000002601F0B5FB02A8FFF78AFF04460298EB
:10420000002802D001F0C0FF47E0002D28D0A642D0
:1042100026D801F0B9FF6E480068C068C568281D3F
:10422000009001F045F82820285C41070CD429466D
:104230002831FE22104008702CE0A11B814223D3BC
:10424000296A284688473E46A86987196F602D610C
:10425000A742F2D9B44201D2B742F1D25C4814E08D
:10426000002D01D0002204E05A4800680068424254
:104270004241311B386801F0A3F901F085FF0028A5
:104280000BD101F091F908E052480068009901F063
:1042900037F8514F296A28468847386802A9002212
:1042A00001F032FC00289BD00298002806D5059921
:1042B0000498039A904702980028EED4049C606901
:1042C000002802D0201D00F0F3FF01A8FFF720FF17
:1042D00005460298401E0828DFD8C0467844007979
:1042E000400087440A0A0426450A0A0426002820BA
:1042F000215CFE220A402254CFE72820215C0122C3
:104300000A432254A069039A831863602461261D1E
:10431000AB4223D995422E4F24D293422C4F21D326
:104320004A072DD420462830FE22114001702A4F22
:1043300047E02820215C01220A4322540398A0610F
:10434000002842D0401960602461A842204800D86B
:1043500020480068211D00F0D3FF9EE7AA1A824280
:104360001C4FDDD23868314600F0CAFF1A4F94E77F
:104370002820205C810719D4204601F003F88CE73F
:104380000399091807E0691A814214D3216A20466B
:104390008847A06939460F1867602461AF42F2D997
:1043A0008D4201D28F42F1D2094805E02834FE2126
:1043B0000840207071E70748074F0068314600F059
:1043C0009FFF216A2046884767E772B6FEE7C0462E
:1043D000DC000020EC00002030420020F0B581B06D
:1043E00004460646443600F0B5FF01203056012849
:1043F0001BDB2546243503E0781E79B2012914DD44
:104400000746A06C002805D02046FFF72DFE0028A7
:1044100008D1F1E72868002807D0284601F044FEBB
:104420000028E9D001F030F9E6E7FF25757000F0CB
:104430009BFF00F08FFF00203756012F11DB103457
:1044400004E0781E79B2012907460ADD20680028B9
:1044500007D0204601F028FE0028F2D001F014F920
:10446000EFE7357000F080FF01B0F0BDF0B585B02A
:104470000746002900D1E5E00846BC680391FBF738
:1044800042FF02469DA1204601F060FF3868BA68ED
:10449000A34901F05BFF3868FFF71CFA002038825F
:1044A0007D2189000246FB6892B298543A8A521CD8
:1044B0003A8293B28B4218D2FC680022E2543B8AC3
:1044C0005B1C3B829BB28B420FD2FC68E2543B8A5E
:1044D0005B1C3B829BB28B4207D2FC68E2543A8A57
:1044E000521C3A8293B28B42DDD300263E820120D9
:1044F00005023946870701918C682078002812D080
:104500000294A45D38462946FFF77FF80028F9D0C9
:1045100038462146FFF7C5F8761C029C2046FBF77B
:10452000F2FE8642EDD338462946FFF76EF80028A2
:10453000F9D00D213846FFF7B4F838462946FFF781
:1045400064F80028F9D00A213846FFF7AAF801F0EC
:10455000C1FC019C60602068E168FBF7E9FE20680F
:10456000FFF7B8F96F48401E01F04CF8039C207823
:10457000002812D00026A45D38462946FFF745F8EA
:104580000028F9D038462146FFF78BF8761C039CAB
:104590002046FBF7B8FE8642EDD338462946FFF7A2
:1045A00034F80028F9D00D213846FFF77AF838465C
:1045B0002946FFF72AF80028F9D00A243846214670
:1045C000FFF76FF8204601F01DF838462946FFF73F
:1045D0001CF80028F9D01A213846FFF762F8039832
:1045E000FFF778F901F076FC019F786001F072FC2A
:1045F0007968401A4B4CA04236D23846FCF716FF79
:10460000064601F067FC7968401AA042F5D3F968C4
:104610003868FBF78DFE3868FFF75CF93868042EC0
:1046200066D8414AB10001A359588F467D46000023
:1046300041460000F5460000F946000079460000BA
:104640003D4A1BE038683E49394A01F07FFE386830
:10465000FFF740F938683B490B22FBF7EBFD386860
:10466000FFF738F9032640E0F9683868FBF760FE89
:104670003868FFF72FF938682C4A0426304901F0D2
:1046800065FE3868FFF726F938682E490B22FBF7DC
:10469000D1FD3868FFF71EF9F435284600F0B2FF67
:1046A000002E22D1FC6828A12046FBF701FE4642DD
:1046B000464127492046FBF7FBFD002815D004ACF6
:1046C0000021217023492246FEF702FF054620788B
:1046D000022807D3EA6838681F4901F037FE3868B6
:1046E000FFF7F8F8284603F059F8304605B0F0BD5A
:1046F000124AC3E70F4AC1E70D4ABFE741542B51A5
:104700004D545055423D302C302C302C302C2274DE
:104710007261636B65722F64617461222C25750070
:10472000E17D0000D1070000217E0000087E00002E
:10473000167E00003C7E0000107E0000297E0000F6
:104740004D7E00006C8F00002B514D54505542009F
:10475000447E0000DF7D0000607E0000F0B583B085
:10476000054601F0FDF854480068002822D1534E58
:10477000002171600720524C27460740C343E01DCB
:104780001840002F024600D1224632600126B603AF
:10479000002F01D0201A8619901918400838464B6E
:1047A000186001604160811A5160464B1960464BA8
:1047B000196010600024002D75D0072028400146A4
:1047C0001139A9426FD32D1A10353F4800680123D3
:1047D00000248542184600D82046012D194600DBEA
:1047E000214601435FD1354E31684F68AF4207D251
:1047F0000A68002A04D00E4611465768AF42F7D324
:104800002D48006881424ED0346808683060781BBB
:10481000112833D34E19720701D072B6FEE77060CB
:104820004D60264D2868B04204D20568B54207465F
:10483000F8D301E02F46054678683A18019272686D
:104840000292019AB24204D1029A121802927A603C
:104850003E46194800682A1A50425041029AB2183E
:10486000AA4200D10346002B04D16868029A80183E
:1048700070602D683560B74200D03E604868124BCA
:104880001A68121A1A600F4B1D68AA4200D21A60E9
:10489000083400220123DB0718430A6048600B48F4
:1048A0000168491C016001F06FFC600701D072B61D
:1048B000FEE7204603B0F0BDE4000020FC410020EC
:1048C00054010020CC410020C0410020D8410020EC
:1048D0000346083B1960011F01231B060B600146BC
:1048E0000C39034B0B60014620390A604038704791
:1048F000A9410000F0B585B00D4604460846FBF717
:1049000002FD2146029024780020002C00900390A4
:1049100034D00320029A801A04900220C043831AE4
:10492000574200260396019108E0019903980C5420
:10493000401C0390761C8C5D002C1FD0029801282F
:10494000F3DB0021685C844216D05818001DECD0BF
:104950006818427894420FD07A18921CE5D0827879
:10496000944209D0049A5218DFD0C078844203D010
:10497000091D7818E6D1D8E70199DBE70098039A7A
:10498000885405B0F0BD000010B50446806805A14C
:104990001C22FBF74FFC7D20020103212046FCF77F
:1049A00061FC10BD41542B5153534C4346473D309D
:1049B0002C302C227365636C6576656C222C32007A
:1049C000F0B583B0074680689DA11822FBF732FC42
:1049D0003868BA68A04901F0B9FC3868FEF77AFF78
:1049E000002038827D218C000146FA6889B250543B
:1049F000398A491C39828AB2A24218D2FB68002146
:104A000099543A8A521C3A8292B2A2420FD2FB685F
:104A100099543A8A521C3A8292B2A24207D2FB6857
:104A20009954398A491C39828AB2A242DDD3009452
:104A300000243C820120050286070197BF68387870
:104A4000002812D002973F5D30462946FEF7DDFD73
:104A50000028F9D030463946FEF723FE641C029F39
:104A60003846FBF750FC8442EDD330462946FEF72A
:104A7000CCFD0028F9D00D213046FEF712FE019F33
:104A8000009C30462946FEF7C0FD0028F9D00A21D7
:104A90003046FEF706FE01F01DFA78603868F968C6
:104AA000FBF746FC3868FEF715FF00203882014608
:104AB000FA6889B25054398A491C39828AB2A242B2
:104AC00018D2FB68002199543A8A521C3A8292B259
:104AD000A2420FD2FB6899543A8A521C3A8292B28F
:104AE000A24207D2FB689954398A491C39828AB29A
:104AF000A242DDD300243C82012000F083FDB8688F
:104B00005649574AFBF796FBBF683878002812D001
:104B100002973F5D30462946FEF777FD0028F9D021
:104B200030463946FEF7BDFD641C029F3846FBF750
:104B3000EAFB8442EDD330462946FEF766FD0028A5
:104B4000F9D00D213046FEF7ACFD30462946FEF780
:104B50005CFD0028F9D00A213046FEF7A2FD0120B5
:104B600000F050FD019F30462946FEF74EFD00281B
:104B7000F9D01A213046FEF794FD01F0ABF97860C8
:104B800001F0A8F97968401AE14CA0420AD23846EF
:104B9000FCF74CFC064601F09DF97968401AA042EA
:104BA000F5D300E00426F9683868FBF7C1FB3868E4
:104BB000FEF790FE002038820146009CFA6889B218
:104BC0005054398A491C39828AB2A24218D2FB68F1
:104BD000002199543A8A521C3A8292B2A2420FD2D0
:104BE000FB6899543A8A521C3A8292B2A24207D286
:104BF000FB689954398A491C39828AB2A242DDD3B2
:104C0000002038823868042E04D871B28900C24A64
:104C1000525800E0BF4AC14901F098FB3868FEF7DE
:104C200059FE3868BE490B22FBF704FB3868FEF7D3
:104C300051FEF435284600F0E5FC304603B0F0BDE7
:104C400041542B5153534C4346473D302C302C227A
:104C50006361636572742200E17D0000808A000058
:104C6000A4040000F0B585B0074680689EA11C2210
:104C7000FBF7E0FA3868BA68A24901F067FB3868C8
:104C8000FEF728FE002038827D2101918C0001462C
:104C9000FA6889B25054398A491C39828AB2A242D0
:104CA00018D2FB68002199543A8A521C3A8292B277
:104CB000A2420FD2FB6899543A8A521C3A8292B2AD
:104CC000A24207D2FB689954398A491C39828AB2B8
:104CD000A242DDD3029400243C8201200502860713
:104CE0000397BF683878002812D004973F5D30469C
:104CF0002946FEF78AFC0028F9D030463946FEF7EF
:104D0000D0FC641C049F3846FBF7FDFA8442EDD3C7
:104D100030462946FEF779FC0028F9D00D213046AF
:104D2000FEF7BFFC039F029C30462946FEF76DFC50
:104D30000028F9D00A213046FEF7B3FC01F0CAF88A
:104D400078603868F968FBF7F3FA3868FEF7C2FD57
:104D5000002038820146FA6889B25054398A491CC9
:104D600039828AB2A24218D2FB68002199543A8A49
:104D7000521C3A8292B2A2420FD2FB6899543A8AEC
:104D8000521C3A8292B2A24207D2FB689954398AE5
:104D9000491C39828AB2A242DDD300243C820198A8
:104DA000C00000F02FFCB8685749584AFBF742FA98
:104DB000BF683878002812D004973F5D30462946F6
:104DC000FEF723FC0028F9D030463946FEF769FC8F
:104DD000641C049F3846FBF796FA8442EDD33046B4
:104DE0002946FEF712FC0028F9D00D213046FEF7C7
:104DF00058FC30462946FEF708FC0028F9D00A2165
:104E00003046FEF74EFC012000F0FCFB039F3046CD
:104E10002946FEF7FAFB0028F9D01A213046FEF7A2
:104E200040FC01F057F8786001F054F87968401AB6
:104E3000E74CA0420AD23846FCF7F8FA064601F0E1
:104E400049F87968401AA042F5D300E00426F968D1
:104E50003868FBF76DFA3868FEF73CFD00203882B1
:104E60000146029CFA6889B25054398A491C398239
:104E70008AB2A24218D2FB68002199543A8A521C85
:104E80003A8292B2A2420FD2FB6899543A8A521CDB
:104E90003A8292B2A24207D2FB689954398A491CDD
:104EA00039828AB2A242DDD3002038823868042ECB
:104EB00004D871B28900C84A525800E0C54AC749AF
:104EC00001F044FA3868FEF705FD3868C4490B2242
:104ED000FBF7B0F93868FEF7FDFCF435284600F022
:104EE00091FB304605B0F0BD41542B5153534C4318
:104EF00046473D302C302C22636C69656E746365C7
:104F000072742200E17D0000287F0000C5040000CB
:104F1000A10F0000297E0000AC7B00004D7E000048
:104F20006C8F0000F0B583B0074680689EA11B22FD
:104F3000FBF780F93868BA68A24901F007FA3868C7
:104F4000FEF7C8FC002038827D218C000146FA68FB
:104F500089B25054398A491C39828AB2A24218D285
:104F6000FB68002199543A8A521C3A8292B2A242BA
:104F70000FD2FB6899543A8A521C3A8292B2A242EA
:104F800007D2FB689954398A491C39828AB2A242F5
:104F9000DDD3009400243C8201200502860701979E
:104FA000BF683878002812D002973F5D3046294606
:104FB000FEF72BFB0028F9D030463946FEF771FB8F
:104FC000641C029F3846FBF79EF98442EDD33046BD
:104FD0002946FEF71AFB0028F9D00D213046FEF7CE
:104FE00060FB019F009C30462946FEF70EFB00281F
:104FF000F9D00A213046FEF754FB00F06BFF7860D1
:105000003868F968FBF794F93868FEF763FC00200C
:1050100038820146FA6889B25054398A491C39826B
:105020008AB2A24218D2FB68002199543A8A521CD3
:105030003A8292B2A2420FD2FB6899543A8A521C29
:105040003A8292B2A24207D2FB689954398A491C2B
:1050500039828AB2A242DDD300243C825A4800F051
:10506000D1FAB86869210A015849FBF7E3F8BF682B
:105070003878002812D002973F5D30462946FEF767
:10508000C4FA0028F9D030463946FEF70AFB641C02
:10509000029F3846FBF737F98442EDD33046294664
:1050A000FEF7B3FA0028F9D00D213046FEF7F9FAE1
:1050B00030462946FEF7A9FA0028F9D00A273046DB
:1050C0003946FEF7EEFA384600F09CFA304629469B
:1050D000FEF79BFA0028F9D01A213046FEF7E1FAD4
:1050E00000F0F8FE019F786000F0F4FE7968401A45
:1050F000374CA0420AD23846FCF798F9064600F031
:10510000E9FE7968401AA042F5D300E00426F96868
:105110003868FBF70DF93868FEF7DCFB00203882B1
:105120000146009CFA6889B25054398A491C398278
:105130008AB2A24218D2FB68002199543A8A521CC2
:105140003A8292B2A2420FD2FB6899543A8A521C18
:105150003A8292B2A24207D2FB689954398A491C1A
:1051600039828AB2A242DDD3002038823868042E08
:1051700004D871B28900184A525800E0154A1749FC
:1051800001F0E4F83868FEF7A5FB386814490B22F3
:10519000FBF750F83868FEF79DFBF435284600F021
:1051A00031FA304603B0F0BD41542B5153534C43B8
:1051B00046473D302C302C22636C69656E746B65FC
:1051C00079220000E17D0000B80B0000F0830000B0
:1051D000A10F0000297E0000AC7B00004D7E000086
:1051E0006C8F000010B50C4681189A1A2046FBF708
:1051F00073F810BD10B50446806805A13222FBF794
:1052000019F87D20020102212046FCF72BF810BD81
:1052100041542B514D545355423D302C312C226179
:105220006E6874746D382D747261636B65722F389B
:105230003731313832302F636F6E74726F6C222CBD
:1052400030000000174C00F045FE2046FCF7E3FF5D
:105250000A2000F0D7F900F03DFEF4E7114C00F011
:1052600039FE2046FCF7CDFF00F034FEF7E7C046DC
:105270000C4C064D00F02EFE2046FEF721FA284683
:1052800000F0C0F900F026FEF4E7C046581B00000D
:10529000044C00F01FFE2046FCF7D2FB00F01AFE83
:1052A000F7E7C04634000020EFF3108072B6704775
:1052B000416882688A608268516001694B688342F4
:1052C00000D14A600A68521E0A6000220261086822
:1052D00070470000014800687047C0465C410020EC
:1052E00080F3108870470021016002460832C943EC
:1052F00042608160C26002617047002101617047B5
:10530000B0B50B685A1C0BD00446083462681568A7
:105310009D4208D8546825689D422546F6D904E088
:105320000269556801E015462246A96008614D6092
:105330008A6051600168491C0160B0BD4268936891
:105340004A608B60086103685B1C03609068416081
:105350009160704772B60A480168491C0160BFF34A
:105360004F8FBFF36F8F704705480168002903D046
:10537000491E016002D0704772B6FEE762B6704700
:1053800014000020B0B500283ED00446051F286850
:10539000002801D472B6FEE7083C2168002901D03C
:1053A00072B6FEE70121C9078843286000F0D8FAE9
:1053B0002968164802685218026015480368A3421B
:1053C00004D21868A0421A46F8D301E002461846F3
:1053D0005368D518A54202D1C91851601446631804
:1053E000834207D10B4B1B68984203D0436859187E
:1053F000616000682060A24200D014600648016825
:10540000491C016000F0C0FEB0BDC046C041002094
:10541000FC410020E4000020DC41002070B5614820
:10542000012101700D4D28687D21CC002146FBF73C
:105430009FFA01465A4801600948FBF799FA564914
:105440000860564E00203060B06028682146FBF7A7
:105450008FFA401E70600720306070BD1000002081
:10546000FFFFFF000000000000000000000000003F
:105470000B4A13681868203080F30988022080F3F3
:105480001488BFF36F8F3FBCAE4608BC04BC62B645
:105490001847C046C046C046C046C046C046C04683
:1054A000D8000020F0B581B03B490D68854200D39B
:1054B000054672B6BFF34F8FBFF36F8FFEF73EFB0B
:1054C000002848D0354E06213160B268681E344B42
:1054D0001C6803466343002A00D01446E418374A88
:1054E00013685B0105D501235B0613602C4A126823
:1054F000A41A2C4A1378002B00D05E23E31A00D89C
:10550000234673600027B76034680122224332606B
:10551000002D04D0BFF34F8F30BFBFF36F8F62B643
:10552000BFF34F8FBFF36F8F72B6BFF34F8FBFF3D1
:105530006F8F31603168C90310D4B06818490C68A6
:1055400065432D1A28462146FBF712FA411C614398
:10555000491B134D14E062B601B0F0BD104D2A682E
:10556000B168CB1A511E5C1894420B4600D82346F2
:105570000C4A1278002A00D05E22944200D91946C3
:105580007160B760072131602968491E716000F0C1
:1055900019F962B601B0F0BDC841002010E000E08A
:1055A00058410020544100200120000703490860B1
:1055B000BFF34F8FBFF36F8F7047C04604ED00E01D
:1055C00070B515460E460446FFF7C4FE4420215C24
:1055D00020464430FF2901D1002101704178FF2984
:1055E00001D100214170FFF7BFFEA06B002805D15B
:1055F0002046243031462A4600F05AF82046FEF76D
:10560000EDFE70BD70B500282FD00446D748016864
:10561000002901D072B6FEE70168491C01607D488F
:105620000668C94D28685521002242542868001D8B
:10563000FFF73EFE34192868446006D30C48006822
:105640002968091DFFF75CFE0AE0C2480068296866
:10565000091DFFF755FEC04801688C4200D2046066
:1056600000F092FD002800D070BDFFF79DFF70BDD7
:10567000E800002003490968016066490968416043
:105680007047C046D4410020DE48012101607047C8
:1056900010B500280AD00C46DD4909681831FFF71B
:1056A0002FFE01212046FEF71FFC10BD72B6FEE75B
:1056B000F0B581B000281CD0D54B1C684568AE6899
:1056C0001F683E62E561AC681E68183666601C683B
:1056D0001834AC601B68986203685B1C0360002A86
:1056E00001D00020C14308461146FEF7FDFB01B082
:1056F000F0BD72B6FEE7C04670B500282FD0044654
:10570000C34E3068A04229D0FFF724FE60698F495C
:10571000884221D1A06A00281ED1251D2846FFF706
:10572000C7FDE06AB8490A68904200D908601421B0
:105730004143B64A53585B1C535051184A6893680A
:10574000A260E360616191684D6095603168C96AEB
:10575000884201D3FFF728FFFFF706FE70BD72B63F
:10576000FEE7C046B0B582B0114800240094019015
:1057700001252A020F4810A1234600F0A1FA0128B2
:1057800001D100F0A1FD411C0FD0012809D172B652
:10579000E043714908606E4805601E48046000F0EF
:1057A00039F90748006802B0B0BD72B6FEE7C046DE
:1057B000C4410020793F000049444C4500000000EE
:1057C000C88F0000B0B50446124D28680119624820
:1057D0000268914201D972B6FEE72968091900688A
:1057E00081420ED18648006800280ED0002C0ED0D1
:1057F000FFF7B0FD08480168491C0160FFF7B4FDE0
:10580000641E286800192860B0BD72B6FEE772B643
:10581000FEE7C0462C420020E041002070B504465F
:10582000FFF798FD002C01D179480468261D304609
:10583000FFF73EFDA06A002803D020461830FFF78E
:1058400037FD424D28463146FFF778FD5420205C55
:10585000012803D12046543000210170FFF784FD58
:105860003B4E3068002810D0FFF774FD39480168BE
:105870000968002903D00068C068006801E00020C2
:10588000C04335490860FFF76FFD614801688C42ED
:1058900000D070BD3168002905D059480068002843
:1058A00009D072B6FEE729682C4A1268914205D1E8
:1058B0000021016070BDFFF777FE70BD5049096897
:1058C000002903D04F480121016070BD4D490022DD
:1058D0000A604D490A6814231D4655434B4C6659CE
:1058E000002E0FD05343E41863685B68636025465D
:1058F0000835AB4202D1241D5B682360DB6803607E
:105900000A6070BD2D19503D002A14D0EE6B002E98
:1059100013D1012A0FD0AE6A002E10D1022A0AD06C
:105920006E69002E0DD1032A05D0121F2E68503D3E
:10593000002EE9D0D6E772B6FEE7521ED2E7921EDD
:10594000D0E7D21ECEE7C046D80000200442002097
:10595000F8410020E0000020D04100205C41002000
:1059600027480168491C01607047C0466441002017
:10597000B0B523480068002803D022480121016007
:10598000B0BD2048002101601F4801681422144660
:105990004C431E4B1D59002D10D04A439B185A688A
:1059A00052685A601C460834A24202D11B1D52683C
:1059B0001A60D268C14B1A600160B0BDE418503C57
:1059C000002914D0E56B002D13D101290FD0A56A51
:1059D000002D10D102290AD06569002D0DD10329AF
:1059E00005D0091F2568503C002DE9D0D5E772B6D7
:1059F000FEE7491ED1E7891ECFE7C91ECDE7C046A5
:105A000064410020384200206C410020F00000205A
:105A1000D8000020B0B582B0FF200104124A1368FC
:105A20000B4313600006116801431160FFF7F6FC99
:105A30000E4C00252560FFF71BFDFFF799FF019530
:105A4000206872B6401C09D0FEE70198002808D1F2
:105A50000198002805D10198002802D1019800285A
:105A6000F3D0002002B0B0BD20ED00E01400002013
:105A7000F0B583B0002845D016460F4604460025F1
:105A800029463A462B46FAF777FB481E814139D121
:105A9000204678435421C943884233D80296543073
:105AA000FEF75CFE0646002829D0304644300190BF
:105AB000F4633764002F304601D0304654303060F4
:105AC000FFF748FCB563FF20019C207031686070CF
:105AD000F06B326C431E504308185343CA18716070
