:020000040000FA
:1000000008030020C100000079130000591300000C
:10001000FFFFFFFFFFFFFFFFFFFFFFFFFFFFFFFFF0
:10002000FFFFFFFFFFFFFFFFFFFFFFFF7D1300004C
:10003000FFFFFFFFFFFFFFFF7B13000081130000A6
:1000400035010000350100003501000035010000D8
:1000500035010000350100003501000035010000C8
:1000600035010000350100003501000035010000B8
:1000700035010000350100003501000035010000A8
:100080003501000035010000350100003501000098
:100090003501000035010000350100003501000088
:1000A0003501000035010000350100003501000078
:1000B0003501000035010000350100003501000068
:1000C0001D4880471D4880471D4800471D4801695D
:1000D000002908D14169002905D18169002902D18F
:1000E000C169002909D01848C1680901090D002912
:1000F0000ED005290CD006290AD0BFF34F8F134824
:100100001349016013491248C860BFF34F8FFEE7DF
:100110000E4801680E48884200D070470E480F49CB
:1001200001600A480E4901607047FEE7FEE7FEE7FE
:10013000FEE7FEE7FEE70000CD000000911300009F
:100140006501000000030840800108400000002015
:100150000400FA0500ED00E0008108400100000005
:10016000000000000348854600F01CFC00480047E2
:10017000111900000803002003460B439B0703D01E
:1001800009E008C9121F08C0042AFAD203E00B785C
:100190000370401C491C521EF9D27047D2B201E0D4
:1001A0000270401C491EFBD270470022F6E710B5D2
:1001B00013460A4604461946FFF7F0FF204610BDD5
:1001C00030B505462A460B4610781C78521C5B1C3D
:1001D000002801D0A042F7D0002C03D0002802D084
:1001E0006D1CEFE7284630BD421C0178401C0029F9
:1001F000FBD1801A704710B5002200E0521C835CCE
:100200008C5CA34201D1002BF8D1D8B2E1B2401AE4
:1002100010BD03460A780270401C491C002AF9D11F
:100220001846704770B5104D002800D1286800248A
:1002300014E00A4602E09E4203D0521C1378002BC1
:10024000F9D1DAB2224307D0002B06D0002C04D01B
:1002500000210170401C04E00446401C0678002E7A
:10026000E7D12860204670BD00000020F8B50246A6
:100270004A40D40F42004B0052085B089A4202D217
:100280000246084611464A0023D0C30D4A00DDB29B
:10029000120EAD1A202D35DA49020126490AF6055B
:1002A0008A19002C00D0524220214F1B1146B94020
:1002B0002A411018C20D9A4221D0002C17D0012DCE
:1002C00008DCDA05801AD20F8019D207DBB200F001
:1002D00069F9F8BDDA05801A012340001B06C01831
:1002E00080185A428018CA0F1043490007E0490895
:1002F000C2071143DA05801A80194008801800F0FF
:1003000049F9F8BD61000122511A001BF7E70122EB
:10031000D2075140AAE70122D2075040A6E770B5A4
:1003200002464A40D50F40004A00ED0740085208F7
:10033000002814D0002A12D0C40DD30D4102012090
:10034000C0055202490A520AE41A091812187D34EB
:10035000914201D3641C00E04900002C01DA002026
:1003600070BD0023914201D3891A0343400849001C
:100370000028F7D100290AD0914202D10121C907F2
:1003800005E0914201D2012101E00121C943E005CC
:10039000C018401900F0FEF870BDC217C10F5040E0
:1003A00010B54018CA079623002100F0FBF810BDD5
:1003B000C20F410040020123400ADB05D207090EAB
:1003C000C0187F2901DA00207047962903DC9623A4
:1003D000591AC84001E096398840002AF4D04042BA
:1003E0007047C20FD207400040080BD0C10D072351
:1003F000DB01C91840020905400A1143C208400741
:1004000011437047002001467047CB0FDB074900BE
:1004100010B5490802460A4307D00A0D072409030C
:10042000E401090B121B002A01DC002010BDC900E9
:10043000440F0C43C100E018D205801800F0AAF860
:1004400010BD70B50446002903D0002020220123EE
:1004500010E0002801D00020C043C046C0460DE097
:100460002546D5408D4205D30D469540641B1D465B
:10047000954040191546521E002DF1DC214670BDF5
:10048000F0B51FB40646002082B005464024019115
:1004900000901BE0019922460F46304600F0A4FA76
:1004A000049A059B801A994110D31046194622469A
:1004B00000F08AFA361A8F41019722460120002166
:1004C000009F00F081FA38184D4100902046641ECC
:1004D0000028DFDC019B00982946324607B0F0BDBA
:1004E0000FB400B589B00A460DA9009100230C99FC
:1004F000002ACB60234B0693234B079301D00423A0
:1005000000E00023214A0292214A08920193024608
:100510006B46002000F023FB09B008BC04B018476C
:10052000F0B585B007460020C04301901E4600206C
:1005300015460C460091029104903B466A463146AE
:1005400004A8FFF7CDFF049902466018002D05D0DE
:10055000002901D0034600E023462B6000290ED07D
:10056000002A02DD0099814209D0001B019000940D
:100570003B466A463146029404A8FFF7B1FF05B036
:10058000F0BD0000B50D0000D50D0000FFFFFF7F9E
:10059000310A0000002904DA401C490001D140085A
:1005A0004000704770B40024050C05D110240004ED
:1005B00002D1002921D01124050E01D100020834F6
:1005C000050F01D10001241D850F01D18000A41C5D
:1005D000002801DB4000641C002908D020252E1BC8
:1005E0000D46F540A14000D00121294308430106F2
:1005F0001B1B000ADB1D02D5002070BC7047DB0509
:10060000181880180029F8DA401C4900F5D170BC90
:100610004008400070470000F0B5074608465840C3
:1006200087B0C00F049048000E46590040084908A2
:10063000BC1A884105D2384631461E4617460B463D
:1006400002465800400810434CD0300D039040053E
:100650005900400D490D0590401A0290402872DA69
:1006600018030121000B090508430190049800922A
:10067000002805D001995242002088410092019043
:10068000029840210A1A0199009800F09DF9054648
:100690000C466B4607CB00F0B8F9C0197141039ABC
:1006A0000E0D0023D71756401A467A40164344D001
:1006B000049A002A2DD0029A012A039A15DC120509
:1006C000C01A914101263605001C7141D20F059ECA
:1006D000D2070093019202962A46234600F099FB26
:1006E00007B0F0BD38463146FAE71605224A0F46F4
:1006F000B218C01AB74101210905001C4F4100186A
:100700007F41114618187941E20F10436D19644179
:1007100013E0E2076D0815436408C2071443039A07
:1007200001261205C01A91413605001C7141CE0701
:10073000400830434908C01851412A46234600F07A
:100740005BFBCDE7FFE7049801224000C117121AB6
:1007500000238B4104983146C417381AA141EEE7B3
:1007600030B40124E407634030BC55E730B40124C1
:10077000E407614030BC4FE70000E0FFF0B51FB474
:1007800088B00B990998002448400999C00F490086
:1007900049080991C0070B990090490049080B913D
:1007A00009990898A64608431CD00B990A98084353
:1007B00018D0099801244000420D4800410D0998C5
:1007C00024050003000B204309900B980003000B45
:1007D00020430B9050181C494018002201901446E9
:1007E000104605E0002001460DB0F0BD032801DAF7
:1007F000034600E003239C46C11A0AAE0AE05F00EC
:1008000008ADED5B4F00F75B7D430027AA187C41E4
:10081000491C5B1E6145F2DD410004AB5A522104C4
:10082000120C0A43240C401C0828DFDB01980290BC
:100830000099704601910090059B049A07990698CB
:1008400000F0E7FAD0E700000DFCFFFFF0B50C4622
:100850005C4085B0E40FE40703944C000026640874
:1008600059009446490802460296224321D0624626
:100870000A431ED06200570D4A000E032303550D94
:10088000012402462C492405781B1B0B360B40180B
:1008900023432643614600901C46501AB44103D3BB
:1008A0000098401C009002E0921800985B410028DC
:1008B00003DA0020014605B0F0BD00200121090542
:1008C0000746864611E064461D46141BB54106D313
:1008D0006546521BB341744607430C43A646CD07F9
:1008E00040084908284392185B4105460D43EAD168
:1008F0001046184313D060461946504071400843D3
:1009000006D06046101AB34106D20122002306E049
:1009100000220123DB0702E00122D243531000989A
:1009200074460105381C6141029C039D0019694110
:1009300000F062FABFE70000FD0300004A0009036F
:100940000123090B1B0519430A4B10B5520D9A429E
:1009500002DA0020014610BD064B34339A4203DC14
:100960009A1A00F041F810BD034BD21800F02CF891
:1009700010BD0000FF030000CDFBFFFF10B50029F4
:1009800004DB0124E40740428C412146002B04DBB8
:100990001C460123DB075242A341994200D19042F9
:1009A00010BD0000064C0125064E05E0E36807CCAB
:1009B0002B430C3C98471034B442F7D3FFF7D6FBD7
:1009C000502700007027000010B5202A04DB0146E4
:1009D000203A9140002010BD914020239C1A0346EC
:1009E000E3401943904010BD10B5202A04DB0846AF
:1009F000203AD040002110BD0B46D340D0402024E7
:100A0000A21A91400843194610BD10B5202A06DBF2
:100A1000CB170846203A1041C1170B4306E00B469E
:100A20001341D0402024A21A91400843194610BD1A
:100A300010B50F21C0B2490200F056FA10BD0000F7
:100A4000FFB5087889B01546FF2805D0491C2D2828
:100A500004D00022002407E000240BE00122F9E783
:100A60000A235C430419491C0878FF28F8D1002A9E
:100A700000D06442002004902A7801462D2A01D03B
:100A80002B2A0FD16D1C2D2A02D00022049209E0DE
:100A90000122FBE700260A2233466D1C00F00BFA08
:100AA000381871412F78FF2FF4D10C9AA2180692B2
:100AB00002460A4304D0FF23069A9133DA4205DA4C
:100AC000002109980A4606C00DB0F0BD0024B74ABF
:100AD000B54D2646079200F019FA02900698039148
:100AE000002801DA474200E0074639050020AF4AF6
:100AF000001C51410191009012E0F80707D02246F6
:100B00002B4630460799FFF739FE064607912246E5
:100B10002B4610461946FFF731FE04460D467F105E
:100B2000002FEAD10698019B0028009A03990298A9
:100B300006DAFFF78BFE3246079BFFF787FE05E0DC
:100B4000FFF71CFE3246079BFFF718FE049A002AA7
:100B500002D00122D2075140099A03C2B4E7FFB57F
:100B600091B0002009900025ED432E209E685C681E
:100B70001F460190B9696D1C129888470090396A28
:100B800088470028F6D10098401C0AD00D20C001EB
:100B90008443002E12DD00982B2809D02D280DD17A
:100BA00003E00020C04315B0F0BD012080020443E3
:100BB000B9696D1C12988847761E009003A96005DC
:100BC00001D52D2000E02B206A461073491C0CA88B
:100BD0000F9102900AE0B9696D1C12988847009045
:100BE0000120400204431398761E0560002E02DDAA
:100BF00000983028EFD001990098884245D1802094
:100C0000044308E00998401E099001204002044373
:100C10001399681C0860B9696D1C761E1298884784
:100C200000903028EED030E00199884205D12006AE
:100C300003D480200443761E1DE0009801F04EF995
:100C4000002825D0012149020C43009807AA0F99DA
:100C500003323038761E914208D208700F98401C3B
:100C60000F90200607D50998401E03E0200602D405
:100C70000998401C0990A00502D51399681C0860CA
:100C8000B9696D1C129888470090002ECCDC59E0A1
:100C9000002E57DD0098652801D0452852D1A005C7
:100CA00050D5032000028443B9696D1C761E12984A
:100CB00088470090002E0CDD2B2804D02D2808D169
:100CC000FF2001300443B9696D1C12988847761ED5
:100CD0000090E00501D52D2100E02B210298017044
:100CE0000298401C0290019025E00120400204433C
:100CF0000EA902980131761E88420ED20098029900
:100D000030380006000E087003D102990198814224
:100D10000AD90298401C029006E0E00501D524485B
:100D200001E0234840420990B9696D1C1298884738
:100D3000009013980560002E04DD009801F0CEF8B5
:100D40000028D2D1F969129888470F99FF200870BE
:100D5000029903AA087000200A900B900CA90AA817
:100D6000099BFFF76DFEA00502D40120C0431AE7DE
:100D70002420044209D0E00713D138680B9A0A995D
:100D8000031D3B60006806C00BE00B990A98FFF753
:100D90003CFB0146E00704D13868021D3A60006858
:100DA00001602846FFE60000000014400000F03F0C
:100DB000F1D8FFFF4268002A08D001680B78491C6F
:100DC000002B03D0521E06C0184670470121C16097
:100DD000881E70474268002A0BD0C3680168002B48
:100DE00007D183688B4204D0491E521C06C00020E4
:100DF00070470020C043704710B5002B08DA00246C
:100E0000401C614192185B411A4301D140084000E7
:100E100010BDF0B51FB482B005460C0003D00846E3
:100E200000F06EFF02E000F06BFF20300246009001
:100E300021462846FFF7C8FD049B059A04460F4645
:100E400018431143084314D0184610431BD0009890
:100E500040210A1A18460599FFF7C6FD05460E46B9
:100E6000009A05990498FFF7AFFD084305D00120CB
:100E700004E02046394607B0F0BD0020C117054305
:100E80000E432C43374300990E986305401A7905A9
:100E9000E40A00220C43FD0A0A3002D50020014674
:100EA000E9E70105101969410C9C0D9D0019694184
:100EB000FFF7A2FFDFE730B5434351435C18010C55
:100EC000130C0D465D432C1980B292B20546554372
:100ED00051430A0C09044D1962415843010C0004A6
:100EE0004019514130BD00007F2801D9002207E0A0
:100EF000054B42089A5CC00700D112091207120F75
:100F00000120904008407047C82600000EB5054AF1
:100F100002920022009213460192FFF77AFF03B07B
:100F200000BD000033040000F0B58EB0C0005C4B83
:100F3000C4180F231802079018030890180409908A
:100F400018050A9018060B9018070C900E060D94C1
:100F500052D00120084045422F461F408807059087
:100F600000D5F0374807049001D5079807430807D4
:100F7000039001D508980743C806029001D5099847
:100F800007438806019001D50A9807434806009058
:100F900003D530460B9E374306460696002E01D5F4
:100FA0000C9E37430D9C2468BC4317010598C61757
:100FB0003E401540354316020498C71737402F436B
:100FC00015030398C6172E403E4315040298C71711
:100FD0002F40374315050198C6172E403E4315068E
:100FE0000098C017284030431507069EF6172E407C
:100FF000064326430D9C26600E04300E41D0C805E2
:10100000C7173B408805069000D5F033480505908A
:1010100001D5079803430805079001D508980343B5
:10102000C80408902FD4880431D4490433D4002E46
:1010300001D50C9D2B4365689D431301069CE41765
:101040001C40174027431302059CE4171C403C43F7
:101050001303079FFF171F4027431304089CE4173F
:101060001C403C431305C017184020431306C91702
:10107000194001431007F21702400A432A430D9812
:1010800042600EB0F0BD099803438804CDD50A9D97
:101090002B434904CBD50B9D2B43002EC9D4CAE763
:1010A0002020024070B541098900234BC9180A6A03
:1010B000D9691C46183C246807240C405D68194611
:1010C00014390968890501D4002110E01968C900A4
:1010D000CE0F1A49F140002D09D41D686D012D0F66
:1010E00000D1102569431D686D02AD0FE940641EF3
:1010F000062C09D87C4424796400A7440C0303051A
:1011000005070A000D4906E0002104E00121C9039A
:1011100001E07D2109021F2404400325A5402A4047
:10112000E2402E2800D1921C9868052800D30520A3
:10113000C140D140084670BD1880084000127A00B6
:1011400070B50C4C2568002B01D0054300E08543A9
:10115000A668E0682560002B01D00E4300E08E43B6
:10116000A660002B02D01043E06070BD9043E060A9
:1011700070BDC04624800840002A03D002680A439C
:101180000260704702688A4302607047F0B500232E
:101190000E251C4603E0090A10352E2D5AD0CE0725
:1011A0000ED18E0716D44E071ED40E0726D4CE06B7
:1011B0002ED48E0635D44E063CD40E06EBD542E036
:1011C0002E460E3E0327B7403B431746B7403C43ED
:1011D0008E07E8D52E460C3E0327B7403B43174603
:1011E000B7403C434E07E0D52E460A3E0327B740A2
:1011F0003B431746B7403C430E07D8D52E46083E22
:101200000327B7403B431746B7403C43CE06D0D5F3
:10121000AE1F0327B7403B431746B7403C438E06FB
:10122000C9D52E1F0327B7403B431746B7403C4361
:101230004E06C2D5AE1E0327B7403B431746B74004
:101240003C430E06A7D50326AE4033431646AE40B8
:101250003443A0E7416999434161416921434161B8
:10126000F0BDB0B5846825468D43C368012A04D01B
:101270008B43002A04D10C4303E00B432C4600E0CF
:101280002C468460C360B0BD70B582B00646684627
:101290000022828000922E498D5D01244455017800
:1012A00021404378DB079B0F59188378DB075B0FDE
:1012B000C918C078C007000F08180199C907C90EDE
:1012C00040180004A1032346FFF73AFF0E48825D51
:1012D00070001E490E5A28463146FFF725FEA80029
:1012E0001C490D586E62022228463146FFF7B9FFAD
:1012F000284631462246FFF749FF28463146224616
:10130000FFF73AFF02B070BD2027000041000F4AEE
:10131000515A0F4A105C80000E4A105841627047C3
:1013200041000A4A515A0A4A105C8000094A105882
:10133000816270474100054A515A054A105C80009D
:10134000044A1058026A4A40026270472627000089
:10135000232700000827000006480168002908D15B
:101360000168002905D10168002902D1016800291E
:10137000F3D070479000002070477047704700001E
:1013800002480168491C01607047C0460001002006
:10139000F0B586B059481021059101605849C86AD6
:1013A000402203921043C86256480268272A08D098
:1013B0000268272A05D00268272A02D00268272A55
:1013C000F3D10324A0020A6A82430A620122D002F6
:1013D0000B6803430B604868000708D4486800079F
:1013E00005D44868000702D448680007F3D50868A8
:1013F000049420430423029398430860086B072455
:10140000204003280BD0086B2040032807D0086B2E
:101410002040032803D0086B20400328EED13A4B2C
:101420001868104306250195A84318600020009015
:10143000C86157020868B84308601302081F0568AE
:101440001D4305600D680826B5430D6005683D43E2
:10145000056095020E682E430E604D686D0708D436
:101460004D686D0705D44D686D0702D44D686D0752
:10147000F3D5CD6A039EB543CD620F25ED054D61D1
:1014800015074E692E434E6105689D430560086847
:10149000384308604868800708D44868800705D446
:1014A0004868800702D448688007F3D5164D28683D
:1014B000049B1843029B984328600098C861086801
:1014C0001043019B98430860086B204001280BD013
:1014D000086B2040012807D0086B2040012803D06A
:1014E000086B20400128EFD128680599084328603F
:1014F000100329680143296006B0F0BD0C81084043
:101500000480084008A10640000208400069084025
:10151000411E884170470000B0B50D460446406842
:1015200019490140E8880843A988014328890843EC
:10153000698901436160002014498C420BDC012160
:1015400089078C4212D07D498C4211D012498C42BD
:1015500015D1082011E00E498C420BD00D498C4268
:101560000AD0E3498C420AD11A2006E0182004E090
:101570001C2002E00A2000E01E20FFF793FD2968EE
:10158000FEF75FFF6062B0BDFCE0FFFFFFFF0340BE
:10159000002004400010044000200040006880B299
:1015A00070470160704710238B40002A03D04168C8
:1015B000194341607047416899434160704700009A
:1015C000F0B581B0C948614C2146FEF72BFE0026DC
:1015D00030462146FEF726FE30462146FEF722FE23
:1015E00030462146FEF71EFE01F021F8FEF70DFF02
:1015F00007463149FEF793FEFEF7DAFE05466424FE
:1016000020466843FEF7C9FE01463846FEF77FFED6
:1016100007462846FEF7C1FE054628493846FEF72C
:101620007EFE2946FEF722FEB54D2860304647492A
:10163000FEF7F8FD2249FEF7DEFD002804D1012067
:10164000C007296841402960002540492846FEF727
:10165000E9FD00F0ECFFFEF7D8FE07461649FEF75D
:101660005EFEFEF7A5FE064644432046FEF795FEC5
:1016700001463846FEF74BFE04463046FEF78DFE27
:1016800006460E492046FEF74AFE3146FEF7EEFDBD
:101690009D4C206028462D49FEF7C4FD0849FEF701
:1016A000AAFD002801D001B0F0BD0120C0072168CB
:1016B0004140216001B0F0BD0000C842000070420E
:1016C0004E27000070B59AB01C4C1DA505E001A87E
:1016D0002946FEF775FD002817D101A86421FEF701
:1016E00064FD002620212046FFF710FF0028F9D0D6
:1016F0002046FFF753FF01A98855C0B20A28E6D05B
:10170000701C632E0646EDD1E1E7784801A9FEF78B
:1017100080FD0D480D4C2146FEF784FD002528462E
:101720002146FEF77FFD28462146FEF77BFD08494E
:10173000FEF761FD414248411AB070BD0010004003
:1017400024474E524D4300002C0000204A27000041
:101750004C270000F0B585B0FFF7B4FF012004026C
:10176000624F3878624D002812D00026BF5D2846AF
:101770002146FFF7CBFE0028F9D028463946FFF76F
:1017800010FF761C594F3846FEF72EFD8642EDD3EA
:10179000FFF798FF002801D0574A00E0554A01AEF4
:1017A0005649304600F098FA3078002812D00027C9
:1017B00001A8C65D28462146FFF7A8FE0028F9D0FB
:1017C00028463146FFF7EDFE7F1C01A8FEF70CFD11
:1017D0008742EDD3FFF7F4FE49480068FEF701FEAB
:1017E00002460B4601AE4749304600F075FA3078A4
:1017F000002812D0002701A8C65D28462146FFF721
:1018000085FE0028F9D028463146FFF7CAFE7F1C26
:1018100001A8FEF7E9FC8742EDD33B480068FEF7DC
:10182000E0FD02460B4601AE3649304600F054FA60
:101830003078002812D0002701A8C65D284621462E
:10184000FFF764FE0028F9D028463146FFF7A9FECD
:101850007F1C01A8FEF7C8FC8742EDD32B4800BFD0
:1018600000BF00BF00BF00BF00BF00BF00BF00BF80
:1018700000BF00BF00BF00BF00BF00BF00BF00BF70
:1018800000BF00BF00BF00BF00BF00BF00BF00BF60
:1018900000BF00BF00BF00BF00BF00BF00BF00BF50
:1018A00000BF00BF00BF00BF00BF00BF00BF00BF40
:1018B00000BF00BF00BF00BF00BF00BF00BF00BF30
:1018C00000BF00BF00BF00BF00BF00BF00BF00BF20
:1018D00000BF00BF00BF00BF00BF00BF00BF00BF10
:1018E00000BF4238BBD105B0F0BDC0469400002017
:1018F00000000440342700002C270000452700008A
:10190000F80000203E270000FC000020E08DF901D7
:10191000024800F005F8FFF71DFFFCE71800002063
:10192000F0B587B00290DC4800687D21C900FEF761
:1019300088FD401E010E0DD1D849D94A5060D948C2
:1019400003680B400321890759180160002090604B
:101950000720106000242046FFF796FC0127384638
:10196000FFF792FC02252846FFF78EFC2046FFF782
:10197000D7FC3846FFF7CAFC2846FFF7D1FC7804AD
:10198000112189023B46FFF7DBFB3E02C648314688
:101990002246FFF766FC80210625039538462A4635
:1019A000FFF7C2FA384631462A46FFF7BDFA0694D9
:1019B00005964B20C0010490BC4D04A92846FFF7B2
:1019C000ABFD284621463A46FFF7EDFD284639464D
:1019D0003A46FFF7E8FD38040190412109023B46F1
:1019E000FFF7AEFBB248082100912246FFF739FC11
:1019F00004212046039D2A46FFF796FA20460099C7
:101A00002A46FFF791FA06940596E12040020090DD
:101A10000490BD0704A92846FFF77EFD284621460D
:101A20003A46FFF7C0FD284639463A46FFF7BBFD68
:101A30002120410201983B46FFF782FB20210191C2
:101A40009B482246FFF70DFC10212046039D2A46A5
:101A5000FFF76AFA204601992A46FFF765FA0694CD
:101A6000059600980490934D04A92846FFF754FD6D
:101A7000284621463A46FFF796FD284639463A461B
:101A8000FFF791FD8C4800F0E9FD029F386003905C
:101A9000002826D0884800F0E1FDB860002869D011
:101AA000642000F0DBFD3861002800D1ABE083A1A9
:101AB0001522039F3846FEF75FFB3F5D28463146FF
:101AC000FFF724FD0028F9D028463946FFF769FDC5
:101AD000641C039F3846FEF787FB8442EDD307B0B2
:101AE000F0BD7C4800BF00BF00BF00BF00BF00BF0B
:101AF00000BF00BF00BF00BF00BF00BF00BF00BFEE
:101B000000BF00BF00BF00BF00BF00BF00BF00BFDD
:101B100000BF00BF00BF00BF00BF00BF00BF00BFCD
:101B200000BF00BF00BF00BF00BF00BF00BF00BFBD
:101B300000BF00BF00BF00BF00BF00BF00BF00BFAD
:101B400000BF00BF00BF00BF00BF00BF00BF00BF9D
:101B500000BF00BF00BF00BF00BF00BF00BF00BF8D
:101B600000BF00BF00BF00BF4238BBD10020FFF75D
:101B7000E1FBFEE7574800BF00BF00BF00BF00BF4A
:101B800000BF00BF00BF00BF00BF00BF00BF00BF5D
:101B900000BF00BF00BF00BF00BF00BF00BF00BF4D
:101BA00000BF00BF00BF00BF00BF00BF00BF00BF3D
:101BB00000BF00BF00BF00BF00BF00BF00BF00BF2D
:101BC00000BF00BF00BF00BF00BF00BF00BF00BF1D
:101BD00000BF00BF00BF00BF00BF00BF00BF00BF0D
:101BE00000BF00BF00BF00BF00BF00BF00BF00BFFD
:101BF00000BF00BF00BF00BF00BF4238BBD1002004
:101C0000FFF798FBFEE7334800BF00BF00BF00BFEF
:101C100000BF00BF00BF00BF00BF00BF00BF00BFCC
:101C200000BF00BF00BF00BF00BF00BF00BF00BFBC
:101C300000BF00BF00BF00BF00BF00BF00BF00BFAC
:101C400000BF00BF00BF00BF00BF00BF00BF00BF9C
:101C500000BF00BF00BF00BF00BF00BF00BF00BF8C
:101C600000BF00BF00BF00BF00BF00BF00BF00BF7C
:101C700000BF00BF00BF00BF00BF00BF00BF00BF6C
:101C800000BF00BF00BF00BF00BF00BF4238BBD1D4
:101C90000020FFF74FFBFEE710000020FFFFFF00D2
:101CA00010E000E020ED00E000200B4000100040BC
:101CB00000000B4000000440A4060000536574754A
:101CC00070207375636365737366756C6C79210A34
:101CD00000000000308E32000FB410B504A9074B8D
:101CE00002AA039800F002F9044602A9002000F0BD
:101CF00099FC204610BC08BC04B0184725260000FB
:101D00002021020C01D010211046020A01D01046F9
:101D10000839020901D01046091F820801D0104677
:101D2000891E420801D0881E7047081A70470000BB
:101D300001480068704700000C00002002E008C85D
:101D4000121F08C1002AFAD170477047002001E035
:101D500001C1121F002AFBD1704700000149086031
:101D6000704700000C000020F0B51FB486B0099841
:101D7000089A030D0021024314D05148514A181803
:101D8000504305141198012810981AD0281A401CA5
:101D900000264D4F4D49009601910490002812DA1B
:101DA000444211E01198012449A3012801D110985F
:101DB000C1430698119A84600360C26041600BB011
:101DC000F0BD4042E4E70446210500203F4A001CE4
:101DD00051410391029012E0E00707D032463B46A2
:101DE00001990098FEF7CAFC0191009032463B46EB
:101DF00010461946FEF7C2FC06460F466410002C3A
:101E0000EAD10498039B0028029A0999089806DAF7
:101E1000FEF7B4FC019B009AFEF7B0FC05E0FEF76C
:101E200015FD019B009AFEF711FD04460E460022A7
:101E3000284BFEF7A3FD03D80020C043014607E06E
:101E40000022254B20463146FEF7E6FBFEF776FDE5
:101E5000102409E0002C0ADB0A220023FEF710FB05
:101E6000079B30321A55641E02460A43F2D11122F2
:101E7000641C079B121B1C19119B012B03D001230F
:101E800008430ED10AE0084304D01120109000202E
:101E9000119077E71098151A6D1E0BE0109882428A
:101EA00002DD00236D1C03E0824201DA00236D1E77
:101EB000002BEED0069811998260C16030C07EE799
:101EC00001FCFFFF104D0000000014400000F03F37
:101ED000300000000000F0430000E03F30380A28E6
:101EE00001D201207047002070470000FFB597B075
:101EF0000646002518E2252877D100242746FD490B
:101F0000049400E00443761C32780120203A90408B
:101F10000842F7D130782A280ED0022230780146C4
:101F20003039092916D804990A2359433039401801
:101F30001443761C0490F1E7189802C80491189095
:101F4000002904DA0120400304434842049002209F
:101F50000443761C30782E2814D104200443707872
:101F6000761C2A2809D11898761C80C8189009E098
:101F70000A214F43303FC719761C3078014630396B
:101F80000929F5D930786C2810D006DC4C281AD0F5
:101F900068280ED06A2817D104E0742813D07A2854
:101FA00012D110E00120400504430CE00121090595
:101FB00001E0032109050C437178814203D101201E
:101FC00000052418761C761C3078119066280BD0FA
:101FD00013DC58287DD009DC00287BD04528F6D0BA
:101FE0004628F4D047281AD1A5E118E0632835D057
:101FF000642870D0652812D19DE170286CD008DC6F
:102000006728F1D069287BD06E280DD06F2806D1C3
:10201000BAE073282ED0752871D0782859D01A9A32
:10202000199990476D1C7EE16002400F022809D08B
:1020300003280DD00428189801680DD00D60001DEC
:10204000189070E11898EA1701680D604A60F6E789
:10205000189801680D80F2E70D70F0E718986A464D
:1020600001781172001D18900020507202A8009093
:10207000012005E0189802C8189000200091C04384
:1020800061070DD5002101E00199491C0191B94278
:1020900012DA8142F8DB009A515C0029F4D10BE09E
:1020A000002101E00199491C01918142FADB019A6A
:1020B0000099895C0029F5D1019904981A9B471A67
:1020C00021463846199A00F097FA019940194518A7
:1020D0000BE04FE02CE113E04EE00098009900780F
:1020E000491C00911A9A199990470198401E019035
:1020F000401CF2D1214638461A9B199A10E137E06C
:102100000A200021009001916002410F022907D0AE
:10211000189A01CA1892C2179446032908D00AE0F7
:102120001898C01DC108C90005C91891944607E058
:1021300000B2C2179446042902D140B2C1178C469E
:1021400000226146944506DA0A4600214042914148
:102150008C462D2102E0210504D52B216A461173FE
:10216000012103E0E10701D02021F7E7029155E0CA
:102170000A200AE0102008E010200090002104202E
:1021800004430191082703E00820002101910090F9
:102190006002410F022907D0189A01CA1892002242
:1021A0009446032908D008E01898C01DC108C9004A
:1021B00005C91891944603E080B2042900D1C0B249
:1021C00000210291210729D51199702906D0009A82
:1021D0001021019B4A401A4305D00EE040216A4677
:1021E0001173012108E06146014306D030216A469F
:1021F00011731199517302210291009A0821019BD8
:102200004A401A430AD16146014301D1610705D50D
:1022100030216A46117301217F1E029111995829BC
:1022200004D035A10E910DA90D910DE037A1F9E76C
:102230006146019B009AFEF723F90E9B8C469B5C3E
:102240000D9A521E0D92137061460143F0D10D9804
:1022500005A9081A20300190600703D50120000469
:10226000844300E001270198874201DD381A00E02D
:102270000020019900904118029809180498401A0A
:102280000490E00306D421461A9B199A049800F0A2
:10229000B3F94519002706E003A81A9AC05D1999F9
:1022A00090476D1C7F1C02988742F5DBE0030CD53C
:1022B00021461A9B199A049800F09EF9451904E0EA
:1022C0001A9A3020199990476D1C0099481E009069
:1022D0000029F5DC08E00D980D990078491C0D9156
:1022E0001A9A199990476D1C0199481E019000296E
:1022F000F1DC63E1092801003031323334353637FF
:102300003839616263646566000000003031323341
:1023100034353637383941424344454600000000E1
:1023200000F05AF94519761C3078002800D0E2E513
:1023300028461BB0F0BD600700D406271898C01DC2
:10234000C108C90048680A680831C30FDB07189143
:10235000190001D09CA108E0210501D59BA104E052
:10236000E10701D09AA100E09AA1430011985B080F
:10237000109165280CD006DC452809D046281DD0D0
:10238000472841D141E0662818D067283CD13CE07D
:102390000021112F01DB112000E0781C0191009039
:1023A00008A911A8FFF7E0FC139905910021119AE3
:1023B00015927F1C12980197009150E00120C007F0
:1023C00003900120019008A9009711A8FFF7CCFC09
:1023D000139A149905920022119B0092129815935A
:1023E000059A0192002901D0104602E0791C40189C
:1023F0000190381A01D5019804E04042401E009037
:10240000781C0190C01B029043E0012F00DA0127E5
:102410000021112F01DD112000E0384601910090CC
:1024200008A911A8FFF7A0FC13990591119A0021A2
:10243000129815920091019721070CD40599B94281
:1024400001DB019900E00191012904DD159A491E83
:10245000515C302906D0B84201DA011D05DA0121AC
:10246000029115E00199491EEDE7002805DC00996D
:10247000411800910199091A03E0019A411C914207
:1024800000DD01910099401A401C02900120C00714
:102490000390200706D402990198814202DB0020B4
:1024A000C043029000206946C87707AF0121039816
:1024B0000337C907884224D0022011902B201290A4
:1024C000039800280CDA404203902D20129007E078
:1024D0000A210398FDF7B5FF30317F1E0390397054
:1024E0001199481E11900029F2DC03980028EFD1C1
:1024F000791E129808703078202108404530BF1EA0
:10250000387006A8C01BC01D0390109800780028E2
:1025100000D00120019941180298C01709180398AA
:1025200009180498401A401E0490E00306D421467E
:102530001A9B199A049800F05FF8451910980078D2
:10254000002803D01A9A199990476D1CE00324D5EE
:1025500021461A9B199A049800F04EF845191CE080
:102560000098002807DB00990598884203DD15983C
:10257000405C199901E0199930201A9A9047009807
:102580006D1C401C00900298401E0290002804D14F
:102590001A9A2E20199990476D1C0199481E019096
:1025A0000029DDDC05E038781A9A7F1C19999047DC
:1025B0006D1C0399481E03900029F4DC21461A9BE8
:1025C000199A0498ACE600002D0000002B000000D2
:1025D0002000000000000000F8B5044600251E465B
:1025E0001746880404D405E039462020B0476D1C06
:1025F000641EF9D52846F8BDFFB50446002581B014
:102600001E46C80301D5302700E02027880404D5E2
:1026100005E038460399B0476D1C641EF9D528467D
:1026200005B0F0BD0A68531C0B601070704730B5E0
:1026300083B00446FFF77CFB05460020009002466D
:102640000190012321466846FDF76AFF2846FFF7FF
:1026500085FB0199009803B030BD0000F0B50B3048
:10266000C108C900144F0026144A0FE003688B42CA
:102670000BD38B4205D95C1A4318456830C3083B1D
:1026800000E04368136002C004E0021D10680028E7
:10269000ECD13046002803D13868002801D0002052
:1026A000F0BD064A06481060064A121AD208D20047
:1026B00044C001203860D7E7080000200400002053
:1026C0000C01002008010020DDDDDDDDDCBBBBDD11
:1026D000DDDDDDDDDDDDDDDD9888888888888888C2
:1026E00077777777778888888555555666666666E2
:1026F00066666666666888888333333222222222C1
:10270000222222222228888D00000B4000200B402C
:1027100000400B4000600B4000800B4000000000B8
:1027200001010102020100010002800056616C6992
:10273000640D0A00496E76616C69640D0A00252EED
:1027400036660D0A0025730D0A002C004100530067
:102750007027000000000020140000003C1D000055
:102760008427000018000020F00200004C1D00002B
:102770000000000000000000000000000000000059
:042780000087930338
:04000005000000C136
:00000001FF
