:020000040000FA
:1000000038020020C10000008506000065060000DF
:10001000FFFFFFFFFFFFFFFFFFFFFFFFFFFFFFFFF0
:10002000FFFFFFFFFFFFFFFFFFFFFFFF890600004D
:10003000FFFFFFFFFFFFFFFF870600008D060000A8
:1000400035010000350100003501000035010000D8
:1000500035010000350100003501000035010000C8
:1000600035010000350100003501000035010000B8
:1000700035010000350100003501000035010000A8
:100080003501000035010000350100003501000098
:100090003501000035010000350100003501000088
:1000A0003501000035010000350100003501000078
:1000B0003501000035010000350100003501000068
:1000C0001D4880471D4880471D4800471D4801695D
:1000D000002908D14169002905D18169002902D18F
:1000E000C169002909D01848C1680901090D002912
:1000F0000ED005290CD006290AD0BFF34F8F134824
:100100001349016013491248C860BFF34F8FFEE7DF
:100110000E4801680E48884200D070470E480F49CB
:1001200001600A480E4901607047FEE7FEE7FEE7FE
:10013000FEE7FEE7FEE70000CD0000009D060000A0
:100140006501000000030840800108400000002015
:100150000400FA0500ED00E0008108400100000005
:10016000000000000348854600F052F800480047B0
:10017000AD0900003802002003460B439B0703D063
:1001800009E008C9121F08C0042AFAD203E00B785C
:100190000370401C491C521EF9D2704730B5054609
:1001A0002A460B4610781C78521C5B1C002801D094
:1001B000A042F7D0002C03D0002802D06D1CEFE73E
:1001C000284630BD421C0178401C0029FBD1801A12
:1001D000704770B50446002903D000202022012377
:1001E00010E0002801D00020C043C046C0460DE00A
:1001F0002546D5408D4205D30D469540641B1D46CE
:10020000954040191546521E002DF1DC214670BD67
:10021000064C0125064E05E0E36807CC2B430C3C59
:1002200098471034B442F7D3FFF7A0FF0816000038
:1002300028160000F0B58EB0C0005C4BC4180F2328
:1002400018020790180308901804099018050A90DE
:1002500018060B9018070C900E060D9452D0012032
:10026000084045422F461F408807059000D5F037CB
:100270004807049001D5079807430807039001D564
:1002800008980743C806029001D5099807438806D5
:10029000019001D50A9807434806009003D53046DF
:1002A0000B9E374306460696002E01D50C9E37431B
:1002B0000D9C2468BC4317010598C6173E401540A5
:1002C000354316020498C71737402F431503039888
:1002D000C6172E403E4315040298C7172F403743D8
:1002E00015050198C6172E403E4315060098C01705
:1002F000284030431507069EF6172E400643264336
:100300000D9C26600E04300E41D0C805C7173B4037
:100310008805069000D5F0334805059001D507986B
:1003200003430805079001D508980343C8040890C3
:100330002FD4880431D4490433D4002E01D50C9D28
:100340002B4365689D431301069CE4171C4017402E
:1003500027431302059CE4171C403C431303079FEB
:10036000FF171F4027431304089CE4171C403C431D
:100370001305C017184020431306C917194001433D
:100380001007F21702400A432A430D9842600EB04C
:10039000F0BD099803438804CDD50A9D2B43490439
:1003A000CBD50B9D2B43002EC9D4CAE72020024099
:1003B00070B541098900234BC9180A6AD9691C46DE
:1003C000183C246807240C405D68194614390968F4
:1003D000890501D4002110E01968C900CE0F1A491F
:1003E000F140002D09D41D686D012D0F00D110259D
:1003F00069431D686D02AD0FE940641E062C09D8E3
:100400007C4424796400A7440C03030505070A0013
:100410000D4906E0002104E00121C90301E07D212E
:1004200009021F2404400325A5402A40E2402E284B
:1004300000D1921C9868052800D30520C140D14006
:10044000084670BD1880084000127A0070B50C4C48
:100450002568002B01D0054300E08543A668E068CD
:100460002560002B01D00E4300E08E43A660002BD8
:1004700002D01043E06070BD9043E06070BDC046A4
:1004800024800840002A03D002680A4302607047B3
:1004900002688A4302607047F0B500230E251C46AF
:1004A00003E0090A10352E2D5AD0CE070ED18E0743
:1004B00016D44E071ED40E0726D4CE062ED48E0692
:1004C00035D44E063CD40E06EBD542E02E460E3E09
:1004D0000327B7403B431746B7403C438E07E8D558
:1004E0002E460C3E0327B7403B431746B7403C43DC
:1004F0004E07E0D52E460A3E0327B7403B4317463A
:10050000B7403C430E07D8D52E46083E0327B740D8
:100510003B431746B7403C43CE06D0D5AE1F03271A
:10052000B7403B431746B7403C438E06C9D52E1F04
:100530000327B7403B431746B7403C434E06C2D55E
:10054000AE1E0327B7403B431746B7403C430E0659
:10055000A7D50326AE4033431646AE403443A0E74A
:10056000416999434161416921434161F0BDB0B5A1
:10057000846825468D43C368012A04D08B43002A32
:1005800004D10C4303E00B432C4600E02C4684606E
:10059000C360B0BD70B582B0064668460022828056
:1005A00000922E498D5D0124445501782140437805
:1005B000DB079B0F59188378DB075B0FC918C078DE
:1005C000C007000F08180199C907C90E4018000498
:1005D000A1032346FFF73AFF0E48825D70001E49D3
:1005E0000E5A28463146FFF725FEA8001C490D5833
:1005F0006E62022228463146FFF7B9FF284631468F
:100600002246FFF749FF284631462246FFF73AFFC8
:1006100002B070BD0415000041000F4A515A0F4A44
:10062000105C80000E4A10584162704741000A4A2F
:10063000515A0A4A105C8000094A1058816270477A
:100640004100054A515A054A105C8000044A10587E
:10065000026A4A40026270470A150000071500004E
:10066000EC14000006480168002908D1016800293F
:1006700005D10168002902D101680029F3D0704733
:100680002C00002070477047704700000248016846
:10069000491C01607047C04630000020F0B586B0AC
:1006A00059481021059101605849C86A40220392B7
:1006B0001043C86256480268272A08D00268272AD1
:1006C00005D00268272A02D00268272AF3D1032422
:1006D000A0020A6A82430A620122D0020B68034325
:1006E0000B604868000708D44868000705D44868CC
:1006F000000702D448680007F3D508680494204333
:100700000423029398430860086B072420400328C1
:100710000BD0086B2040032807D0086B204003282B
:1007200003D0086B20400328EED13A4B18681043E1
:1007300006250195A843186000200090C861570263
:100740000868B84308601302081F05681D43056068
:100750000D680826B5430D6005683D4305609502A8
:100760000E682E430E604D686D0708D44D686D0706
:1007700005D44D686D0702D44D686D07F3D5CD6A79
:10078000039EB543CD620F25ED054D6115074E69FA
:100790002E434E6105689D43056008683843086034
:1007A0004868800708D44868800705D448688007EF
:1007B00002D448688007F3D5164D2868049B184377
:1007C000029B984328600098C86108681043019B09
:1007D00098430860086B204001280BD0086B20402C
:1007E000012807D0086B2040012803D0086B204067
:1007F0000128EFD12868059908432860100329686B
:100800000143296006B0F0BD0C8108400480084017
:1008100008A1064000020840F0B581B00446012658
:10082000B5072021284600F063F8012808D12846A2
:1008300000F0AAF82169A2898854A089401CA081EF
:100840000D4F396825692846FFF7A8FC00240028C9
:100850000FD179682846FFF7A1FC002809D1074885
:1008600001682846FFF79AFC002801D0344600E0D2
:100870000224204601B0F0BD0C000020080000203A
:10088000F0B583B00746007800282ED0012005027D
:100890008607002401973F5D3046294600F028F87E
:1008A0000028F9D03046394600F071F8641C019FE9
:1008B0003846FFF787FC8442EDD33878002814D0FF
:1008C0003C4600272D4EE05D02903046294600F060
:1008D0000FF80028F9D03046029900F058F87F1C34
:1008E0002046FFF76FFC8742EDD303B0F0BDC04652
:1008F00000690840411E884170470000B0B50D46B0
:100900000446406819490140E8880843A988014322
:1009100028890843698901436160002014498C4299
:100920000BDC012189078C4212D015498C4211D071
:1009300014498C4215D1082011E00E498C420BD08D
:100940000D498C420AD0F8498C420AD11A2006E09F
:10095000182004E01C2002E00A2000E01E20FFF71F
:1009600027FD2968FFF735FC6062B0BDFCE0FFFFA2
:10097000FFFF03400020044000100440000004403A
:100980000010004000200040006880B27047016005
:10099000704710238B40002A03D0416819434160FF
:1009A000704741689943416070470000014800F07A
:1009B00023FBFEE718000020F0B583B005468068F1
:1009C000D0A11E22FFF7D8FB2868AA68D54900F0FD
:1009D000BBFC0120040201952E683078D24D00281E
:1009E00013D000270296F65D28462146FFF780FFC8
:1009F0000028F9D028463146FFF7C9FF7F1C029E28
:100A00003046FFF7DFFB8742EDD30020019EB08127
:100A10000146326989B25054B189491CB1818AB208
:100A2000C72A18D8336900219954B289521CB2815F
:100A300092B2C72A0FD833699954B289521CB28135
:100A400092B2C72A07D833699954B189491CB18138
:100A50008AB2C82ADDD300200290B081B068FFF7C7
:100A60000FFFB248FFF70CFFB149086870600868D3
:100A70007168401AAF4FB8420AD2019E3046FFF764
:100A8000CBFEAB490A687168511AB942F6D300E04F
:100A900004200090A84800BF00BF00BF00BF00BFF7
:100AA00000BF00BF00BF00BF00BF00BF00BF00BF4E
:100AB00000BF00BF00BF00BF00BF00BF00BF00BF3E
:100AC00000BF00BF00BF00BF00BF00BF00BF00BF2E
:100AD00000BF00BF00BF00BF00BF00BF00BF00BF1E
:100AE00000BF00BF00BF00BF00BF00BF00BF00BF0E
:100AF00000BF00BF00BF00BF00BF00BF00BF00BFFE
:100B000000BF00BF00BF00BF00BF00BF00BF00BFED
:100B100000BF00BF00BF00BF00BF4238BBD1019E75
:100B2000B06886A10622FFF727FBB068FFF7A8FE92
:100B30007E48FFF7A5FE7E49086870600868716806
:100B4000401A804FB84209D23046FFF765FE784917
:100B50000A687168511AB942F6D300903269306858
:100B6000794900F0F1FB316808780028029E14D022
:100B700002960F468E5D28462146FFF7B9FE0028F3
:100B8000F9D028463146FFF702FF029E761C384610
:100B9000FFF718FB39468642EAD30020019EB08158
:100BA0000146326989B25054B189491CB1818AB277
:100BB000C72A18D8336900219954B289521CB281CE
:100BC00092B2C72A0FD833699954B289521CB281A4
:100BD00092B2C72A07D833699954B189491CB181A7
:100BE0008AB2C82ADDD30027B7813068009904296A
:100BF00004D849B28900554A525800E0F94AFB49E5
:100C000000F0A2FB306802900078002815D0029E08
:100C1000F65D28462146FFF76BFE0028F9D02846EE
:100C20003146FFF7B4FE7F1C029E3046FFF7CAFA3A
:100C30008742EDD3019E306800E00298EC490C2217
:100C4000FFF79AFA37683878002813D00026029701
:100C5000BF5D28462146FFF74BFE0028F9D0284605
:100C60003946FFF794FE761C029F3846FFF7AAFA32
:100C70008642EDD3DF4800BF00BF00BF00BF00BF0A
:100C800000BF00BF00BF00BF00BF00BF00BF00BF6C
:100C900000BF00BF00BF00BF00BF00BF00BF00BF5C
:100CA00000BF00BF00BF00BF00BF00BF00BF00BF4C
:100CB00000BF00BF00BF00BF00BF00BF00BF00BF3C
:100CC00000BF00BF00BF00BF00BF00BF00BF00BF2C
:100CD00000BF00BF00BF00BF00BF00BF00BF00BF1C
:100CE00000BF00BF00BF00BF00BF00BF00BF00BF0C
:100CF00000BF00BF00BF00BF00BF4238BBD100989B
:100D000003B0F0BD41542B514D545055423D302C51
:100D1000302C302C302C22746F7069632F70756208
:100D2000220000001F150000000004401C150000F8
:100D300030000020411F0000C01BF30368656C6C8D
:100D40006F000000B90B000010150000D81400005F
:100D5000F0B583B00546826800689C4900F0F4FA5B
:100D60000120040201952F683878994D002813D08E
:100D700000260297BF5D28462146FFF7B9FD0028EF
:100D8000F9D028463946FFF702FE761C029F384606
:100D9000FFF718FA8642EDD30020019FB881014683
:100DA0003A6989B25054B989491CB9818AB2C72AB3
:100DB00018D83B6900219954BA89521CBA8192B261
:100DC000C72A0FD83B699954BA89521CBA8192B28A
:100DD000C72A07D83B699954B989491CB9818AB295
:100DE000C82ADDD30026BE81B868FFF749FD7948DF
:100DF000FFF746FD78490868786008687968401A06
:100E0000764FB8420ED20296019E3046FFF704FD9F
:100E100071490A687168511AB942F6D30090019F6E
:100E2000029E02E004200090019F3A6938686C49F4
:100E300000F08AFA3F683878002812D00297BF5D28
:100E400028462146FFF754FD0028F9D028463946A8
:100E5000FFF79DFD761C029F3846FFF7B3F98642E7
:100E6000EDD30020019FB88101463A6989B2505400
:100E7000B989491CB9818AB2C72A18D83B690021AF
:100E80009954BA89521CBA8192B2C72A0FD83B69C9
:100E90009954BA89521CBA8192B2C72A07D83B69C1
:100EA0009954B989491CB9818AB2C82ADDD3002670
:100EB000BE8138680099042904D849B289004A4A99
:100EC000525800E0474A494900F03EFA386802901B
:100ED0000078002815D0029FBF5D28462146FFF705
:100EE00007FD0028F9D028463946FFF750FD761C4B
:100EF000029F3846FFF766F98642EDD3019F3868B6
:100F000000E002983A490C22FFF736F93F6838783A
:100F1000002813D000260297BF5D28462146FFF720
:100F2000E7FC0028F9D028463946FFF730FD761C4B
:100F3000029F3846FFF746F98642EDD32D4800BFA1
:100F400000BF00BF00BF00BF00BF00BF00BF00BFA9
:100F500000BF00BF00BF00BF00BF00BF00BF00BF99
:100F600000BF00BF00BF00BF00BF00BF00BF00BF89
:100F700000BF00BF00BF00BF00BF00BF00BF00BF79
:100F800000BF00BF00BF00BF00BF00BF00BF00BF69
:100F900000BF00BF00BF00BF00BF00BF00BF00BF59
:100FA00000BF00BF00BF00BF00BF00BF00BF00BF49
:100FB00000BF00BF00BF00BF00BF00BF00BF00BF39
:100FC00000BF4238BBD1009803B0F0BD1F15000030
:100FD000000004401C15000030000020B90B000088
:100FE0001015000070150000D81400003615000020
:100FF0008C150000B0E2EF04F0B589B00490BC4855
:1010000000687D21C900FFF7E4F8401E010E0DD1F4
:10101000B849B94A5060B94803680B4003218907B1
:1010200059180160002090600720106000252846B4
:10103000FFF7B0FA01273846FFF7ACFA0224204642
:10104000FFF7A8FA2846FFF7F1FA3846FFF7E4FA67
:101050002046FFF7EBFA7804112189023B46FFF79F
:10106000F5F93E02A64831462A46FFF780FA80216C
:101070000624059438462246FFF7DCF83846314608
:101080002246FFF7D7F8089507964B20C001069037
:101090009C4C06A92046FFF731FC204629463A46DB
:1010A000FFF777FC204639463A46FFF772FC3804D2
:1010B00003904121019109023B46FFF7C7F992488D
:1010C000082102912A46FFF752FA04212846059C7E
:1010D0002246FFF7AFF8284602992246FFF7AAF802
:1010E00008950796E120400202900690BC0706A9E9
:1010F0002046FFF703FC204629463A46FFF749FC05
:10110000204639463A46FFF744FC21204102039825
:101110003B46FFF79BF9202103917B482A46FFF7C6
:1011200026FA10212846059C2246FFF783F8284618
:1011300003992246FFF77EF80895079602980690D5
:10114000724C06A92046FFF7D9FB20460395294695
:101150003A46FFF71EFC204639463A46FFF719FC8F
:10116000642000F083F9049F3860002876D005469B
:10117000674800F07BF9B860C82000F077F9386163
:1011800064A115222846FEF7F7FF2F460398059520
:1011900005463F5C20463146FFF7AAFB0028F9D000
:1011A00020463946FFF7F3FB6D1C059F3846FFF7D5
:1011B00009F885422846EBD3049EB0680024847069
:1011C00054254570019F07703046FFF7C1FDB06898
:1011D0000770457084703046FFF7BAFDB068534918
:1011E0000522FEF7C9FF3046FFF7B2FDB06850494F
:1011F0000A242246FEF7C0FF3046FFF7A9FDB0687B
:101200004C492246FEF7B8FF3046FFF7A1FDB06813
:10121000494C0D2521462A46FEF7AEFF3046FFF722
:1012200097FDB06845492622FEF7A6FF3046FFF736
:101230008FFDB06842491D22FEF79EFF3046FFF742
:1012400087FD3046FFF7B8FBB06821462A46FEF717
:1012500093FF3046FFF77CFD09B0F0BD394800BF71
:1012600000BF00BF00BF00BF00BF00BF00BF00BF86
:1012700000BF00BF00BF00BF00BF00BF00BF00BF76
:1012800000BF00BF00BF00BF00BF00BF00BF00BF66
:1012900000BF00BF00BF00BF00BF00BF00BF00BF56
:1012A00000BF00BF00BF00BF00BF00BF00BF00BF46
:1012B00000BF00BF00BF00BF00BF00BF00BF00BF36
:1012C00000BF00BF00BF00BF00BF00BF00BF00BF26
:1012D00000BF00BF00BF00BF00BF00BF00BF00BF16
:1012E00000BF4238BBD10020FFF7AAF9FEE7C04695
:1012F00014000020FFFFFF0010E000E020ED00E000
:1013000000200B400010004000000B400000044093
:101310004C040000536574757020737563636573C6
:101320007366756C6C79210A000000004A15000094
:10133000FC150000C8150000B8150000D415000009
:1013400098150000308E32000FB410B504A9074B79
:1013500002AA039800F01BF8044602A9002000F03E
:101360007FF8204610BC08BC04B018476114000088
:1013700002E008C8121F08C1002AFAD1704770475E
:10138000002001E001C1121F002AFBD17047FFB508
:1013900081B00546002706E025280AD0049A039963
:1013A00090476D1C7F1C28780028F5D1384605B081
:1013B000F0BD002269786D1C10462E2913D1697882
:1013C00004226D1C2A2909D102996D1C01C90291C0
:1013D00009E00A235843303808186D1C29780B4659
:1013E000303B092BF5D92B78002BDFD0632B07D0AE
:1013F000732B10D0049A1846039990477F1C2DE058
:1014000002996C460B782370091D029100216170CE
:101410006E46012104E0029940C902910021C943AE
:1014200052070AD5002400E0641C84420DDA8C4285
:10143000FADB325D002AF7D107E0002400E0641CEB
:101440008C42FCDB305D0028F9D13F1904E0307894
:10145000049A761C03999047641EF8D26D1CA2E78B
:101460000A68531C0B60107070470000F0B50B3019
:10147000C108C900144F0026144A0FE003688B42CC
:101480000BD38B4205D95C1A4318456830C3083B1F
:1014900000E04368136002C004E0021D10680028E9
:1014A000ECD13046002803D13868002801D0002054
:1014B000F0BD064A06481060064A121AD208D20049
:1014C00044C001203860D7E704000020000000205D
:1014D0003C0000203800002068150000571500006F
:1014E000831500005D1500004F15000000000B4043
:1014F00000200B4000400B4000600B4000800B4080
:101500000000000001010102020100010002800050
:1015100025730A0A000D0A0D0A004F4B0D0A000A36
:101520003D3D3D2053454E44494E47203C25733EAA
:10153000203D3D3D0A00436F6D6D616E6420737404
:10154000617475733A2025730A0041544530005583
:101550004E4B4E4F574E004552524F520050415243
:10156000414D455445525300535543434553530051
:10157000554E535550504F525445442053544154A6
:1015800055530054494D454F555400003D3D3D3D98
:101590003D3D3D3D3D3D0A0041542B514D54434F8F
:1015A0004E4E3D302C22616E6874746D38636C69E8
:1015B000656E74220000000041542B514D54444983
:1015C00053433D300000000041542B51454E473DF0
:1015D0003000000041542B514D544F50454E3D308A
:1015E0002C2262726F6B65722E686976656D712E42
:1015F000636F6D222C3138383300000041542B4387
:10160000455245473F00000028160000000000201A
:1016100018000000701300004016000018000020A1
:101620002002000080130000000000000000000005
:1016300057150000151500001A15000000879303C8
:04000005000000C136
:00000001FF
